{
  "contractName": "RecetaMedica",
  "abi": [
    {
      "inputs": [],
      "stateMutability": "nonpayable",
      "type": "constructor"
    },
    {
      "anonymous": false,
      "inputs": [
        {
          "indexed": false,
          "internalType": "string",
          "name": "nombresMedico",
          "type": "string"
        },
        {
          "indexed": false,
          "internalType": "string",
          "name": "apellidosMedico",
          "type": "string"
        },
        {
          "indexed": false,
          "internalType": "address",
          "name": "cuentaPaciente",
          "type": "address"
        }
      ],
      "name": "RecetaRegistrada",
      "type": "event"
    },
    {
      "inputs": [
        {
          "internalType": "address",
          "name": "",
          "type": "address"
        }
      ],
      "name": "medicos",
      "outputs": [
        {
          "internalType": "string",
          "name": "cedulaProfesional",
          "type": "string"
        },
        {
          "internalType": "string",
          "name": "nombres",
          "type": "string"
        },
        {
          "internalType": "string",
          "name": "apellidos",
          "type": "string"
        },
        {
          "internalType": "string",
          "name": "especialidad",
          "type": "string"
        }
      ],
      "stateMutability": "view",
      "type": "function",
      "constant": true
    },
    {
      "inputs": [
        {
          "internalType": "address",
          "name": "",
          "type": "address"
        }
      ],
      "name": "pacientes",
      "outputs": [
        {
          "internalType": "address",
          "name": "cuentaPaciente",
          "type": "address"
        },
        {
          "internalType": "string",
          "name": "cedula",
          "type": "string"
        },
        {
          "internalType": "string",
          "name": "nombres",
          "type": "string"
        },
        {
          "internalType": "string",
          "name": "apellidos",
          "type": "string"
        },
        {
          "internalType": "string",
          "name": "correo",
          "type": "string"
        },
        {
          "internalType": "string",
          "name": "celular",
          "type": "string"
        },
        {
          "internalType": "uint8",
          "name": "edad",
          "type": "uint8"
        }
      ],
      "stateMutability": "view",
      "type": "function",
      "constant": true
    },
    {
      "inputs": [
        {
          "internalType": "address",
          "name": "",
          "type": "address"
        },
        {
          "internalType": "uint256",
          "name": "",
          "type": "uint256"
        }
      ],
      "name": "pacientesPorDoctor",
      "outputs": [
        {
          "internalType": "address",
          "name": "cuentaPaciente",
          "type": "address"
        },
        {
          "internalType": "string",
          "name": "cedula",
          "type": "string"
        },
        {
          "internalType": "string",
          "name": "nombres",
          "type": "string"
        },
        {
          "internalType": "string",
          "name": "apellidos",
          "type": "string"
        },
        {
          "internalType": "string",
          "name": "correo",
          "type": "string"
        },
        {
          "internalType": "string",
          "name": "celular",
          "type": "string"
        },
        {
          "internalType": "uint8",
          "name": "edad",
          "type": "uint8"
        }
      ],
      "stateMutability": "view",
      "type": "function",
      "constant": true
    },
    {
      "inputs": [
        {
          "internalType": "address",
          "name": "",
          "type": "address"
        }
      ],
      "name": "pacientesTotalesPorDoctor",
      "outputs": [
        {
          "internalType": "uint256",
          "name": "",
          "type": "uint256"
        }
      ],
      "stateMutability": "view",
      "type": "function",
      "constant": true
    },
    {
      "inputs": [
        {
          "internalType": "address",
          "name": "",
          "type": "address"
        },
        {
          "internalType": "uint256",
          "name": "",
          "type": "uint256"
        }
      ],
      "name": "recetasPorDoctor",
      "outputs": [
        {
          "components": [
            {
              "internalType": "string",
              "name": "cedulaProfesional",
              "type": "string"
            },
            {
              "internalType": "string",
              "name": "nombres",
              "type": "string"
            },
            {
              "internalType": "string",
              "name": "apellidos",
              "type": "string"
            },
            {
              "internalType": "string",
              "name": "especialidad",
              "type": "string"
            }
          ],
          "internalType": "struct RecetaMedica.Medico",
          "name": "medico",
          "type": "tuple"
        },
        {
          "components": [
            {
              "internalType": "address",
              "name": "cuentaPaciente",
              "type": "address"
            },
            {
              "internalType": "string",
              "name": "cedula",
              "type": "string"
            },
            {
              "internalType": "string",
              "name": "nombres",
              "type": "string"
            },
            {
              "internalType": "string",
              "name": "apellidos",
              "type": "string"
            },
            {
              "internalType": "string",
              "name": "correo",
              "type": "string"
            },
            {
              "internalType": "string",
              "name": "celular",
              "type": "string"
            },
            {
              "internalType": "uint8",
              "name": "edad",
              "type": "uint8"
            }
          ],
          "internalType": "struct RecetaMedica.Paciente",
          "name": "paciente",
          "type": "tuple"
        },
        {
          "internalType": "string",
          "name": "diagnostico",
          "type": "string"
        },
        {
          "internalType": "string",
          "name": "indicacionesExtras",
          "type": "string"
        },
        {
          "internalType": "uint256",
          "name": "fecha",
          "type": "uint256"
        },
        {
          "internalType": "uint256",
          "name": "fechaCaducidad",
          "type": "uint256"
        },
        {
          "internalType": "address",
          "name": "tokenMedico",
          "type": "address"
        }
      ],
      "stateMutability": "view",
      "type": "function",
      "constant": true
    },
    {
      "inputs": [
        {
          "internalType": "address",
          "name": "",
          "type": "address"
        },
        {
          "internalType": "uint256",
          "name": "",
          "type": "uint256"
        }
      ],
      "name": "recetasPorPaciente",
      "outputs": [
        {
          "components": [
            {
              "internalType": "string",
              "name": "cedulaProfesional",
              "type": "string"
            },
            {
              "internalType": "string",
              "name": "nombres",
              "type": "string"
            },
            {
              "internalType": "string",
              "name": "apellidos",
              "type": "string"
            },
            {
              "internalType": "string",
              "name": "especialidad",
              "type": "string"
            }
          ],
          "internalType": "struct RecetaMedica.Medico",
          "name": "medico",
          "type": "tuple"
        },
        {
          "components": [
            {
              "internalType": "address",
              "name": "cuentaPaciente",
              "type": "address"
            },
            {
              "internalType": "string",
              "name": "cedula",
              "type": "string"
            },
            {
              "internalType": "string",
              "name": "nombres",
              "type": "string"
            },
            {
              "internalType": "string",
              "name": "apellidos",
              "type": "string"
            },
            {
              "internalType": "string",
              "name": "correo",
              "type": "string"
            },
            {
              "internalType": "string",
              "name": "celular",
              "type": "string"
            },
            {
              "internalType": "uint8",
              "name": "edad",
              "type": "uint8"
            }
          ],
          "internalType": "struct RecetaMedica.Paciente",
          "name": "paciente",
          "type": "tuple"
        },
        {
          "internalType": "string",
          "name": "diagnostico",
          "type": "string"
        },
        {
          "internalType": "string",
          "name": "indicacionesExtras",
          "type": "string"
        },
        {
          "internalType": "uint256",
          "name": "fecha",
          "type": "uint256"
        },
        {
          "internalType": "uint256",
          "name": "fechaCaducidad",
          "type": "uint256"
        },
        {
          "internalType": "address",
          "name": "tokenMedico",
          "type": "address"
        }
      ],
      "stateMutability": "view",
      "type": "function",
      "constant": true
    },
    {
      "inputs": [
        {
          "internalType": "address",
          "name": "",
          "type": "address"
        }
      ],
      "name": "recetasTotalesPorDoctor",
      "outputs": [
        {
          "internalType": "uint256",
          "name": "",
          "type": "uint256"
        }
      ],
      "stateMutability": "view",
      "type": "function",
      "constant": true
    },
    {
      "inputs": [
        {
          "internalType": "address",
          "name": "",
          "type": "address"
        }
      ],
      "name": "recetasTotalesPorPaciente",
      "outputs": [
        {
          "internalType": "uint256",
          "name": "",
          "type": "uint256"
        }
      ],
      "stateMutability": "view",
      "type": "function",
      "constant": true
    },
    {
      "inputs": [
        {
          "components": [
            {
              "internalType": "address",
              "name": "cuentaPaciente",
              "type": "address"
            },
            {
              "internalType": "string",
              "name": "cedula",
              "type": "string"
            },
            {
              "internalType": "string",
              "name": "nombres",
              "type": "string"
            },
            {
              "internalType": "string",
              "name": "apellidos",
              "type": "string"
            },
            {
              "internalType": "string",
              "name": "correo",
              "type": "string"
            },
            {
              "internalType": "string",
              "name": "celular",
              "type": "string"
            },
            {
              "internalType": "uint8",
              "name": "edad",
              "type": "uint8"
            }
          ],
          "internalType": "struct RecetaMedica.Paciente",
          "name": "_paciente",
          "type": "tuple"
        }
      ],
      "name": "registrarPaciente",
      "outputs": [],
      "stateMutability": "nonpayable",
      "type": "function"
    },
    {
      "inputs": [
        {
          "components": [
            {
              "internalType": "string",
              "name": "cedulaProfesional",
              "type": "string"
            },
            {
              "internalType": "string",
              "name": "nombres",
              "type": "string"
            },
            {
              "internalType": "string",
              "name": "apellidos",
              "type": "string"
            },
            {
              "internalType": "string",
              "name": "especialidad",
              "type": "string"
            }
          ],
          "internalType": "struct RecetaMedica.Medico",
          "name": "_medico",
          "type": "tuple"
        },
        {
          "components": [
            {
              "internalType": "address",
              "name": "cuentaPaciente",
              "type": "address"
            },
            {
              "internalType": "string",
              "name": "cedula",
              "type": "string"
            },
            {
              "internalType": "string",
              "name": "nombres",
              "type": "string"
            },
            {
              "internalType": "string",
              "name": "apellidos",
              "type": "string"
            },
            {
              "internalType": "string",
              "name": "correo",
              "type": "string"
            },
            {
              "internalType": "string",
              "name": "celular",
              "type": "string"
            },
            {
              "internalType": "uint8",
              "name": "edad",
              "type": "uint8"
            }
          ],
          "internalType": "struct RecetaMedica.Paciente",
          "name": "_paciente",
          "type": "tuple"
        },
        {
          "internalType": "string",
          "name": "_diagnostico",
          "type": "string"
        },
        {
          "internalType": "string",
          "name": "_indicacionesExtras",
          "type": "string"
        },
        {
          "components": [
            {
              "internalType": "string",
              "name": "nombreMedicina",
              "type": "string"
            },
            {
              "internalType": "string",
              "name": "indicacion",
              "type": "string"
            }
          ],
          "internalType": "struct RecetaMedica.Medicina[]",
          "name": "_medicinas",
          "type": "tuple[]"
        },
        {
          "internalType": "uint256",
          "name": "_fechaCaducidad",
          "type": "uint256"
        }
      ],
      "name": "registrarReceta",
      "outputs": [],
      "stateMutability": "nonpayable",
      "type": "function"
    },
    {
      "inputs": [
        {
          "internalType": "address",
          "name": "cuentaDoctor",
          "type": "address"
        },
        {
          "internalType": "uint256",
          "name": "i",
          "type": "uint256"
        }
      ],
      "name": "getRecetasPorDoctor",
      "outputs": [
        {
          "components": [
            {
              "components": [
                {
                  "internalType": "string",
                  "name": "cedulaProfesional",
                  "type": "string"
                },
                {
                  "internalType": "string",
                  "name": "nombres",
                  "type": "string"
                },
                {
                  "internalType": "string",
                  "name": "apellidos",
                  "type": "string"
                },
                {
                  "internalType": "string",
                  "name": "especialidad",
                  "type": "string"
                }
              ],
              "internalType": "struct RecetaMedica.Medico",
              "name": "medico",
              "type": "tuple"
            },
            {
              "components": [
                {
                  "internalType": "address",
                  "name": "cuentaPaciente",
                  "type": "address"
                },
                {
                  "internalType": "string",
                  "name": "cedula",
                  "type": "string"
                },
                {
                  "internalType": "string",
                  "name": "nombres",
                  "type": "string"
                },
                {
                  "internalType": "string",
                  "name": "apellidos",
                  "type": "string"
                },
                {
                  "internalType": "string",
                  "name": "correo",
                  "type": "string"
                },
                {
                  "internalType": "string",
                  "name": "celular",
                  "type": "string"
                },
                {
                  "internalType": "uint8",
                  "name": "edad",
                  "type": "uint8"
                }
              ],
              "internalType": "struct RecetaMedica.Paciente",
              "name": "paciente",
              "type": "tuple"
            },
            {
              "internalType": "string",
              "name": "diagnostico",
              "type": "string"
            },
            {
              "internalType": "string",
              "name": "indicacionesExtras",
              "type": "string"
            },
            {
              "components": [
                {
                  "internalType": "string",
                  "name": "nombreMedicina",
                  "type": "string"
                },
                {
                  "internalType": "string",
                  "name": "indicacion",
                  "type": "string"
                }
              ],
              "internalType": "struct RecetaMedica.Medicina[]",
              "name": "medicinas",
              "type": "tuple[]"
            },
            {
              "internalType": "uint256",
              "name": "fecha",
              "type": "uint256"
            },
            {
              "internalType": "uint256",
              "name": "fechaCaducidad",
              "type": "uint256"
            },
            {
              "internalType": "address",
              "name": "tokenMedico",
              "type": "address"
            }
          ],
          "internalType": "struct RecetaMedica.Receta",
          "name": "",
          "type": "tuple"
        }
      ],
      "stateMutability": "view",
      "type": "function",
      "constant": true
    },
    {
      "inputs": [
        {
          "internalType": "address",
          "name": "cuentaPaciente",
          "type": "address"
        },
        {
          "internalType": "uint256",
          "name": "i",
          "type": "uint256"
        }
      ],
      "name": "getRecetasPorPaciente",
      "outputs": [
        {
          "components": [
            {
              "components": [
                {
                  "internalType": "string",
                  "name": "cedulaProfesional",
                  "type": "string"
                },
                {
                  "internalType": "string",
                  "name": "nombres",
                  "type": "string"
                },
                {
                  "internalType": "string",
                  "name": "apellidos",
                  "type": "string"
                },
                {
                  "internalType": "string",
                  "name": "especialidad",
                  "type": "string"
                }
              ],
              "internalType": "struct RecetaMedica.Medico",
              "name": "medico",
              "type": "tuple"
            },
            {
              "components": [
                {
                  "internalType": "address",
                  "name": "cuentaPaciente",
                  "type": "address"
                },
                {
                  "internalType": "string",
                  "name": "cedula",
                  "type": "string"
                },
                {
                  "internalType": "string",
                  "name": "nombres",
                  "type": "string"
                },
                {
                  "internalType": "string",
                  "name": "apellidos",
                  "type": "string"
                },
                {
                  "internalType": "string",
                  "name": "correo",
                  "type": "string"
                },
                {
                  "internalType": "string",
                  "name": "celular",
                  "type": "string"
                },
                {
                  "internalType": "uint8",
                  "name": "edad",
                  "type": "uint8"
                }
              ],
              "internalType": "struct RecetaMedica.Paciente",
              "name": "paciente",
              "type": "tuple"
            },
            {
              "internalType": "string",
              "name": "diagnostico",
              "type": "string"
            },
            {
              "internalType": "string",
              "name": "indicacionesExtras",
              "type": "string"
            },
            {
              "components": [
                {
                  "internalType": "string",
                  "name": "nombreMedicina",
                  "type": "string"
                },
                {
                  "internalType": "string",
                  "name": "indicacion",
                  "type": "string"
                }
              ],
              "internalType": "struct RecetaMedica.Medicina[]",
              "name": "medicinas",
              "type": "tuple[]"
            },
            {
              "internalType": "uint256",
              "name": "fecha",
              "type": "uint256"
            },
            {
              "internalType": "uint256",
              "name": "fechaCaducidad",
              "type": "uint256"
            },
            {
              "internalType": "address",
              "name": "tokenMedico",
              "type": "address"
            }
          ],
          "internalType": "struct RecetaMedica.Receta",
          "name": "",
          "type": "tuple"
        }
      ],
      "stateMutability": "view",
      "type": "function",
      "constant": true
    }
  ],
  "bytecode": "0x60806040523480156200001157600080fd5b5060405180608001604052806040518060400160405280600881526020017f313131313131313100000000000000000000000000000000000000000000000081525081526020016040518060400160405280600881526020017f506174726963696f00000000000000000000000000000000000000000000000081525081526020016040518060400160405280600881526020017f45737472656c6c6100000000000000000000000000000000000000000000000081525081526020016040518060400160405280600781526020017f47656e6572616c00000000000000000000000000000000000000000000000000815250815250600080730df3c5e1e60a27f02d9d0ff8730c99a73d924fc373ffffffffffffffffffffffffffffffffffffffff1673ffffffffffffffffffffffffffffffffffffffff168152602001908152602001600020600082015181600001908051906020019062000177929190620003a4565b50602082015181600101908051906020019062000196929190620003a4565b506040820151816002019080519060200190620001b5929190620003a4565b506060820151816003019080519060200190620001d4929190620003a4565b5090505060405180608001604052806040518060400160405280600881526020017f323232323232323200000000000000000000000000000000000000000000000081525081526020016040518060400160405280600381526020017f426f62000000000000000000000000000000000000000000000000000000000081525081526020016040518060400160405280600681526020017f53706f6e6a61000000000000000000000000000000000000000000000000000081525081526020016040518060400160405280600781526020017f47656e6572616c0000000000000000000000000000000000000000000000000081525081525060008073f5b223a069ebfdc5d491b94fb50c8be0b063cb6573ffffffffffffffffffffffffffffffffffffffff1673ffffffffffffffffffffffffffffffffffffffff16815260200190815260200160002060008201518160000190805190602001906200033d929190620003a4565b5060208201518160010190805190602001906200035c929190620003a4565b5060408201518160020190805190602001906200037b929190620003a4565b5060608201518160030190805190602001906200039a929190620003a4565b50905050620004b9565b828054620003b29062000454565b90600052602060002090601f016020900481019282620003d6576000855562000422565b82601f10620003f157805160ff191683800117855562000422565b8280016001018555821562000422579182015b828111156200042157825182559160200191906001019062000404565b5b50905062000431919062000435565b5090565b5b808211156200045057600081600090555060010162000436565b5090565b600060028204905060018216806200046d57607f821691505b602082108114156200048457620004836200048a565b5b50919050565b7f4e487b7100000000000000000000000000000000000000000000000000000000600052602260045260246000fd5b61558780620004c96000396000f3fe608060405234801561001057600080fd5b50600436106100b45760003560e01c80637d10d471116100715780637d10d471146101da57806387e256021461020a578063bc14b7dc1461023a578063eaf3856214610270578063f30fcf3f1461028c578063f32f9772146102bc576100b4565b80630afe59e1146100b95780631a7d4230146100d557806323108301146101055780634dfa18641461013b57806362b9fb6a1461016e578063764b78e2146101a4575b600080fd5b6100d360048036038101906100ce91906149b9565b6102ec565b005b6100ef60048036038101906100ea9190614853565b61088d565b6040516100fc91906151c5565b60405180910390f35b61011f600480360381019061011a919061487c565b6108a5565b6040516101329796959493929190615118565b60405180910390f35b61015560048036038101906101509190614853565b610fdd565b6040516101659493929190615097565b60405180910390f35b6101886004803603810190610183919061487c565b61122d565b60405161019b9796959493929190615118565b60405180910390f35b6101be60048036038101906101b9919061487c565b611965565b6040516101d19796959493929190614fc0565b60405180910390f35b6101f460048036038101906101ef9190614853565b611c99565b60405161020191906151c5565b60405180910390f35b610224600480360381019061021f919061487c565b611cb1565b60405161023191906151a3565b60405180910390f35b610254600480360381019061024f9190614853565b612620565b6040516102679796959493929190614fc0565b60405180910390f35b61028a600480360381019061028591906148b8565b612937565b005b6102a660048036038101906102a19190614853565b6137b5565b6040516102b391906151c5565b60405180910390f35b6102d660048036038101906102d1919061487c565b6137cd565b6040516102e391906151a3565b60405180910390f35b6000805b600860003373ffffffffffffffffffffffffffffffffffffffff1673ffffffffffffffffffffffffffffffffffffffff1681526020019081526020016000205481101561051557826000015173ffffffffffffffffffffffffffffffffffffffff16600760003373ffffffffffffffffffffffffffffffffffffffff1673ffffffffffffffffffffffffffffffffffffffff16815260200190815260200160002082815481106103c9577f4e487b7100000000000000000000000000000000000000000000000000000000600052603260045260246000fd5b906000526020600020906007020160000160009054906101000a900473ffffffffffffffffffffffffffffffffffffffff1673ffffffffffffffffffffffffffffffffffffffff161480156104f45750826020015160405160200161042e9190614f92565b60405160208183030381529060405280519060200120600760003373ffffffffffffffffffffffffffffffffffffffff1673ffffffffffffffffffffffffffffffffffffffff16815260200190815260200160002082815481106104bb577f4e487b7100000000000000000000000000000000000000000000000000000000600052603260045260246000fd5b90600052602060002090600702016001016040516020016104dc9190614fa9565b60405160208183030381529060405280519060200120145b156105025760019150610515565b808061050d906153d6565b9150506102f0565b508015610557576040517f08c379a000000000000000000000000000000000000000000000000000000000815260040161054e906150f8565b60405180910390fd5b600073ffffffffffffffffffffffffffffffffffffffff16826000015173ffffffffffffffffffffffffffffffffffffffff16146106d0578160016000846000015173ffffffffffffffffffffffffffffffffffffffff1673ffffffffffffffffffffffffffffffffffffffff16815260200190815260200160002060008201518160000160006101000a81548173ffffffffffffffffffffffffffffffffffffffff021916908373ffffffffffffffffffffffffffffffffffffffff160217905550602082015181600101908051906020019061063692919061413c565b50604082015181600201908051906020019061065392919061413c565b50606082015181600301908051906020019061067092919061413c565b50608082015181600401908051906020019061068d92919061413c565b5060a08201518160050190805190602001906106aa92919061413c565b5060c08201518160060160006101000a81548160ff021916908360ff1602179055509050505b600760003373ffffffffffffffffffffffffffffffffffffffff1673ffffffffffffffffffffffffffffffffffffffff16815260200190815260200160002082908060018154018082558091505060019003906000526020600020906007020160009091909190915060008201518160000160006101000a81548173ffffffffffffffffffffffffffffffffffffffff021916908373ffffffffffffffffffffffffffffffffffffffff160217905550602082015181600101908051906020019061079c92919061413c565b5060408201518160020190805190602001906107b992919061413c565b5060608201518160030190805190602001906107d692919061413c565b5060808201518160040190805190602001906107f392919061413c565b5060a082015181600501908051906020019061081092919061413c565b5060c08201518160060160006101000a81548160ff021916908360ff1602179055505050600860003373ffffffffffffffffffffffffffffffffffffffff1673ffffffffffffffffffffffffffffffffffffffff1681526020019081526020016000206000815480929190610884906153d6565b91905055505050565b60066020528060005260406000206000915090505481565b600560205281600052604060002081815481106108c157600080fd5b906000526020600020906011020160009150915050806000016040518060800160405290816000820180546108f590615373565b80601f016020809104026020016040519081016040528092919081815260200182805461092190615373565b801561096e5780601f106109435761010080835404028352916020019161096e565b820191906000526020600020905b81548152906001019060200180831161095157829003601f168201915b5050505050815260200160018201805461098790615373565b80601f01602080910402602001604051908101604052809291908181526020018280546109b390615373565b8015610a005780601f106109d557610100808354040283529160200191610a00565b820191906000526020600020905b8154815290600101906020018083116109e357829003601f168201915b50505050508152602001600282018054610a1990615373565b80601f0160208091040260200160405190810160405280929190818152602001828054610a4590615373565b8015610a925780601f10610a6757610100808354040283529160200191610a92565b820191906000526020600020905b815481529060010190602001808311610a7557829003601f168201915b50505050508152602001600382018054610aab90615373565b80601f0160208091040260200160405190810160405280929190818152602001828054610ad790615373565b8015610b245780601f10610af957610100808354040283529160200191610b24565b820191906000526020600020905b815481529060010190602001808311610b0757829003601f168201915b50505050508152505090806004016040518060e00160405290816000820160009054906101000a900473ffffffffffffffffffffffffffffffffffffffff1673ffffffffffffffffffffffffffffffffffffffff1673ffffffffffffffffffffffffffffffffffffffff168152602001600182018054610ba390615373565b80601f0160208091040260200160405190810160405280929190818152602001828054610bcf90615373565b8015610c1c5780601f10610bf157610100808354040283529160200191610c1c565b820191906000526020600020905b815481529060010190602001808311610bff57829003601f168201915b50505050508152602001600282018054610c3590615373565b80601f0160208091040260200160405190810160405280929190818152602001828054610c6190615373565b8015610cae5780601f10610c8357610100808354040283529160200191610cae565b820191906000526020600020905b815481529060010190602001808311610c9157829003601f168201915b50505050508152602001600382018054610cc790615373565b80601f0160208091040260200160405190810160405280929190818152602001828054610cf390615373565b8015610d405780601f10610d1557610100808354040283529160200191610d40565b820191906000526020600020905b815481529060010190602001808311610d2357829003601f168201915b50505050508152602001600482018054610d5990615373565b80601f0160208091040260200160405190810160405280929190818152602001828054610d8590615373565b8015610dd25780601f10610da757610100808354040283529160200191610dd2565b820191906000526020600020905b815481529060010190602001808311610db557829003601f168201915b50505050508152602001600582018054610deb90615373565b80601f0160208091040260200160405190810160405280929190818152602001828054610e1790615373565b8015610e645780601f10610e3957610100808354040283529160200191610e64565b820191906000526020600020905b815481529060010190602001808311610e4757829003601f168201915b505050505081526020016006820160009054906101000a900460ff1660ff1660ff16815250509080600b018054610e9a90615373565b80601f0160208091040260200160405190810160405280929190818152602001828054610ec690615373565b8015610f135780601f10610ee857610100808354040283529160200191610f13565b820191906000526020600020905b815481529060010190602001808311610ef657829003601f168201915b50505050509080600c018054610f2890615373565b80601f0160208091040260200160405190810160405280929190818152602001828054610f5490615373565b8015610fa15780601f10610f7657610100808354040283529160200191610fa1565b820191906000526020600020905b815481529060010190602001808311610f8457829003601f168201915b50505050509080600e01549080600f0154908060100160009054906101000a900473ffffffffffffffffffffffffffffffffffffffff16905087565b600060205280600052604060002060009150905080600001805461100090615373565b80601f016020809104026020016040519081016040528092919081815260200182805461102c90615373565b80156110795780601f1061104e57610100808354040283529160200191611079565b820191906000526020600020905b81548152906001019060200180831161105c57829003601f168201915b50505050509080600101805461108e90615373565b80601f01602080910402602001604051908101604052809291908181526020018280546110ba90615373565b80156111075780601f106110dc57610100808354040283529160200191611107565b820191906000526020600020905b8154815290600101906020018083116110ea57829003601f168201915b50505050509080600201805461111c90615373565b80601f016020809104026020016040519081016040528092919081815260200182805461114890615373565b80156111955780601f1061116a57610100808354040283529160200191611195565b820191906000526020600020905b81548152906001019060200180831161117857829003601f168201915b5050505050908060030180546111aa90615373565b80601f01602080910402602001604051908101604052809291908181526020018280546111d690615373565b80156112235780601f106111f857610100808354040283529160200191611223565b820191906000526020600020905b81548152906001019060200180831161120657829003601f168201915b5050505050905084565b6003602052816000526040600020818154811061124957600080fd5b9060005260206000209060110201600091509150508060000160405180608001604052908160008201805461127d90615373565b80601f01602080910402602001604051908101604052809291908181526020018280546112a990615373565b80156112f65780601f106112cb576101008083540402835291602001916112f6565b820191906000526020600020905b8154815290600101906020018083116112d957829003601f168201915b5050505050815260200160018201805461130f90615373565b80601f016020809104026020016040519081016040528092919081815260200182805461133b90615373565b80156113885780601f1061135d57610100808354040283529160200191611388565b820191906000526020600020905b81548152906001019060200180831161136b57829003601f168201915b505050505081526020016002820180546113a190615373565b80601f01602080910402602001604051908101604052809291908181526020018280546113cd90615373565b801561141a5780601f106113ef5761010080835404028352916020019161141a565b820191906000526020600020905b8154815290600101906020018083116113fd57829003601f168201915b5050505050815260200160038201805461143390615373565b80601f016020809104026020016040519081016040528092919081815260200182805461145f90615373565b80156114ac5780601f10611481576101008083540402835291602001916114ac565b820191906000526020600020905b81548152906001019060200180831161148f57829003601f168201915b50505050508152505090806004016040518060e00160405290816000820160009054906101000a900473ffffffffffffffffffffffffffffffffffffffff1673ffffffffffffffffffffffffffffffffffffffff1673ffffffffffffffffffffffffffffffffffffffff16815260200160018201805461152b90615373565b80601f016020809104026020016040519081016040528092919081815260200182805461155790615373565b80156115a45780601f10611579576101008083540402835291602001916115a4565b820191906000526020600020905b81548152906001019060200180831161158757829003601f168201915b505050505081526020016002820180546115bd90615373565b80601f01602080910402602001604051908101604052809291908181526020018280546115e990615373565b80156116365780601f1061160b57610100808354040283529160200191611636565b820191906000526020600020905b81548152906001019060200180831161161957829003601f168201915b5050505050815260200160038201805461164f90615373565b80601f016020809104026020016040519081016040528092919081815260200182805461167b90615373565b80156116c85780601f1061169d576101008083540402835291602001916116c8565b820191906000526020600020905b8154815290600101906020018083116116ab57829003601f168201915b505050505081526020016004820180546116e190615373565b80601f016020809104026020016040519081016040528092919081815260200182805461170d90615373565b801561175a5780601f1061172f5761010080835404028352916020019161175a565b820191906000526020600020905b81548152906001019060200180831161173d57829003601f168201915b5050505050815260200160058201805461177390615373565b80601f016020809104026020016040519081016040528092919081815260200182805461179f90615373565b80156117ec5780601f106117c1576101008083540402835291602001916117ec565b820191906000526020600020905b8154815290600101906020018083116117cf57829003601f168201915b505050505081526020016006820160009054906101000a900460ff1660ff1660ff16815250509080600b01805461182290615373565b80601f016020809104026020016040519081016040528092919081815260200182805461184e90615373565b801561189b5780601f106118705761010080835404028352916020019161189b565b820191906000526020600020905b81548152906001019060200180831161187e57829003601f168201915b50505050509080600c0180546118b090615373565b80601f01602080910402602001604051908101604052809291908181526020018280546118dc90615373565b80156119295780601f106118fe57610100808354040283529160200191611929565b820191906000526020600020905b81548152906001019060200180831161190c57829003601f168201915b50505050509080600e01549080600f0154908060100160009054906101000a900473ffffffffffffffffffffffffffffffffffffffff16905087565b6007602052816000526040600020818154811061198157600080fd5b9060005260206000209060070201600091509150508060000160009054906101000a900473ffffffffffffffffffffffffffffffffffffffff16908060010180546119cb90615373565b80601f01602080910402602001604051908101604052809291908181526020018280546119f790615373565b8015611a445780601f10611a1957610100808354040283529160200191611a44565b820191906000526020600020905b815481529060010190602001808311611a2757829003601f168201915b505050505090806002018054611a5990615373565b80601f0160208091040260200160405190810160405280929190818152602001828054611a8590615373565b8015611ad25780601f10611aa757610100808354040283529160200191611ad2565b820191906000526020600020905b815481529060010190602001808311611ab557829003601f168201915b505050505090806003018054611ae790615373565b80601f0160208091040260200160405190810160405280929190818152602001828054611b1390615373565b8015611b605780601f10611b3557610100808354040283529160200191611b60565b820191906000526020600020905b815481529060010190602001808311611b4357829003601f168201915b505050505090806004018054611b7590615373565b80601f0160208091040260200160405190810160405280929190818152602001828054611ba190615373565b8015611bee5780601f10611bc357610100808354040283529160200191611bee565b820191906000526020600020905b815481529060010190602001808311611bd157829003601f168201915b505050505090806005018054611c0390615373565b80601f0160208091040260200160405190810160405280929190818152602001828054611c2f90615373565b8015611c7c5780601f10611c5157610100808354040283529160200191611c7c565b820191906000526020600020905b815481529060010190602001808311611c5f57829003601f168201915b5050505050908060060160009054906101000a900460ff16905087565b60086020528060005260406000206000915090505481565b611cb96141c2565b600560008473ffffffffffffffffffffffffffffffffffffffff1673ffffffffffffffffffffffffffffffffffffffff1681526020019081526020016000208281548110611d30577f4e487b7100000000000000000000000000000000000000000000000000000000600052603260045260246000fd5b90600052602060002090601102016040518061010001604052908160008201604051806080016040529081600082018054611d6a90615373565b80601f0160208091040260200160405190810160405280929190818152602001828054611d9690615373565b8015611de35780601f10611db857610100808354040283529160200191611de3565b820191906000526020600020905b815481529060010190602001808311611dc657829003601f168201915b50505050508152602001600182018054611dfc90615373565b80601f0160208091040260200160405190810160405280929190818152602001828054611e2890615373565b8015611e755780601f10611e4a57610100808354040283529160200191611e75565b820191906000526020600020905b815481529060010190602001808311611e5857829003601f168201915b50505050508152602001600282018054611e8e90615373565b80601f0160208091040260200160405190810160405280929190818152602001828054611eba90615373565b8015611f075780601f10611edc57610100808354040283529160200191611f07565b820191906000526020600020905b815481529060010190602001808311611eea57829003601f168201915b50505050508152602001600382018054611f2090615373565b80601f0160208091040260200160405190810160405280929190818152602001828054611f4c90615373565b8015611f995780601f10611f6e57610100808354040283529160200191611f99565b820191906000526020600020905b815481529060010190602001808311611f7c57829003601f168201915b5050505050815250508152602001600482016040518060e00160405290816000820160009054906101000a900473ffffffffffffffffffffffffffffffffffffffff1673ffffffffffffffffffffffffffffffffffffffff1673ffffffffffffffffffffffffffffffffffffffff16815260200160018201805461201c90615373565b80601f016020809104026020016040519081016040528092919081815260200182805461204890615373565b80156120955780601f1061206a57610100808354040283529160200191612095565b820191906000526020600020905b81548152906001019060200180831161207857829003601f168201915b505050505081526020016002820180546120ae90615373565b80601f01602080910402602001604051908101604052809291908181526020018280546120da90615373565b80156121275780601f106120fc57610100808354040283529160200191612127565b820191906000526020600020905b81548152906001019060200180831161210a57829003601f168201915b5050505050815260200160038201805461214090615373565b80601f016020809104026020016040519081016040528092919081815260200182805461216c90615373565b80156121b95780601f1061218e576101008083540402835291602001916121b9565b820191906000526020600020905b81548152906001019060200180831161219c57829003601f168201915b505050505081526020016004820180546121d290615373565b80601f01602080910402602001604051908101604052809291908181526020018280546121fe90615373565b801561224b5780601f106122205761010080835404028352916020019161224b565b820191906000526020600020905b81548152906001019060200180831161222e57829003601f168201915b5050505050815260200160058201805461226490615373565b80601f016020809104026020016040519081016040528092919081815260200182805461229090615373565b80156122dd5780601f106122b2576101008083540402835291602001916122dd565b820191906000526020600020905b8154815290600101906020018083116122c057829003601f168201915b505050505081526020016006820160009054906101000a900460ff1660ff1660ff16815250508152602001600b8201805461231790615373565b80601f016020809104026020016040519081016040528092919081815260200182805461234390615373565b80156123905780601f1061236557610100808354040283529160200191612390565b820191906000526020600020905b81548152906001019060200180831161237357829003601f168201915b50505050508152602001600c820180546123a990615373565b80601f01602080910402602001604051908101604052809291908181526020018280546123d590615373565b80156124225780601f106123f757610100808354040283529160200191612422565b820191906000526020600020905b81548152906001019060200180831161240557829003601f168201915b50505050508152602001600d8201805480602002602001604051908101604052809291908181526020016000905b828210156125a6578382906000526020600020906002020160405180604001604052908160008201805461248390615373565b80601f01602080910402602001604051908101604052809291908181526020018280546124af90615373565b80156124fc5780601f106124d1576101008083540402835291602001916124fc565b820191906000526020600020905b8154815290600101906020018083116124df57829003601f168201915b5050505050815260200160018201805461251590615373565b80601f016020809104026020016040519081016040528092919081815260200182805461254190615373565b801561258e5780601f106125635761010080835404028352916020019161258e565b820191906000526020600020905b81548152906001019060200180831161257157829003601f168201915b50505050508152505081526020019060010190612450565b505050508152602001600e8201548152602001600f82015481526020016010820160009054906101000a900473ffffffffffffffffffffffffffffffffffffffff1673ffffffffffffffffffffffffffffffffffffffff1673ffffffffffffffffffffffffffffffffffffffff1681525050905092915050565b60016020528060005260406000206000915090508060000160009054906101000a900473ffffffffffffffffffffffffffffffffffffffff169080600101805461266990615373565b80601f016020809104026020016040519081016040528092919081815260200182805461269590615373565b80156126e25780601f106126b7576101008083540402835291602001916126e2565b820191906000526020600020905b8154815290600101906020018083116126c557829003601f168201915b5050505050908060020180546126f790615373565b80601f016020809104026020016040519081016040528092919081815260200182805461272390615373565b80156127705780601f1061274557610100808354040283529160200191612770565b820191906000526020600020905b81548152906001019060200180831161275357829003601f168201915b50505050509080600301805461278590615373565b80601f01602080910402602001604051908101604052809291908181526020018280546127b190615373565b80156127fe5780601f106127d3576101008083540402835291602001916127fe565b820191906000526020600020905b8154815290600101906020018083116127e157829003601f168201915b50505050509080600401805461281390615373565b80601f016020809104026020016040519081016040528092919081815260200182805461283f90615373565b801561288c5780601f106128615761010080835404028352916020019161288c565b820191906000526020600020905b81548152906001019060200180831161286f57829003601f168201915b5050505050908060050180546128a190615373565b80601f01602080910402602001604051908101604052809291908181526020018280546128cd90615373565b801561291a5780601f106128ef5761010080835404028352916020019161291a565b820191906000526020600020905b8154815290600101906020018083116128fd57829003601f168201915b5050505050908060060160009054906101000a900460ff16905087565b60005b8251811015612ad857600260003373ffffffffffffffffffffffffffffffffffffffff1673ffffffffffffffffffffffffffffffffffffffff1681526020019081526020016000206000808201600080820160006129989190614229565b6001820160006129a89190614229565b6002820160006129b89190614229565b6003820160006129c89190614229565b505060048201600080820160006101000a81549073ffffffffffffffffffffffffffffffffffffffff0219169055600182016000612a069190614229565b600282016000612a169190614229565b600382016000612a269190614229565b600482016000612a369190614229565b600582016000612a469190614229565b6006820160006101000a81549060ff02191690555050600b82016000612a6c9190614229565b600c82016000612a7c9190614229565b600d82016000612a8c9190614269565b600e820160009055600f8201600090556010820160006101000a81549073ffffffffffffffffffffffffffffffffffffffff021916905550508080612ad0906153d6565b91505061293a565b5033600260003373ffffffffffffffffffffffffffffffffffffffff1673ffffffffffffffffffffffffffffffffffffffff16815260200190815260200160002060100160006101000a81548173ffffffffffffffffffffffffffffffffffffffff021916908373ffffffffffffffffffffffffffffffffffffffff16021790555085600260003373ffffffffffffffffffffffffffffffffffffffff1673ffffffffffffffffffffffffffffffffffffffff1681526020019081526020016000206000016000820151816000019080519060200190612bb992919061413c565b506020820151816001019080519060200190612bd692919061413c565b506040820151816002019080519060200190612bf392919061413c565b506060820151816003019080519060200190612c1092919061413c565b5090505084600260003373ffffffffffffffffffffffffffffffffffffffff1673ffffffffffffffffffffffffffffffffffffffff16815260200190815260200160002060040160008201518160000160006101000a81548173ffffffffffffffffffffffffffffffffffffffff021916908373ffffffffffffffffffffffffffffffffffffffff1602179055506020820151816001019080519060200190612cba92919061413c565b506040820151816002019080519060200190612cd792919061413c565b506060820151816003019080519060200190612cf492919061413c565b506080820151816004019080519060200190612d1192919061413c565b5060a0820151816005019080519060200190612d2e92919061413c565b5060c08201518160060160006101000a81548160ff021916908360ff16021790555090505083600260003373ffffffffffffffffffffffffffffffffffffffff1673ffffffffffffffffffffffffffffffffffffffff168152602001908152602001600020600b019080519060200190612da992919061413c565b5082600260003373ffffffffffffffffffffffffffffffffffffffff1673ffffffffffffffffffffffffffffffffffffffff168152602001908152602001600020600c019080519060200190612e0092919061413c565b5042600260003373ffffffffffffffffffffffffffffffffffffffff1673ffffffffffffffffffffffffffffffffffffffff168152602001908152602001600020600e018190555080600260003373ffffffffffffffffffffffffffffffffffffffff1673ffffffffffffffffffffffffffffffffffffffff168152602001908152602001600020600f018190555060005b8251811015612ff257600260003373ffffffffffffffffffffffffffffffffffffffff1673ffffffffffffffffffffffffffffffffffffffff168152602001908152602001600020600d016040518060400160405280858481518110612f21577f4e487b7100000000000000000000000000000000000000000000000000000000600052603260045260246000fd5b6020026020010151600001518152602001858481518110612f6b577f4e487b7100000000000000000000000000000000000000000000000000000000600052603260045260246000fd5b60200260200101516020015181525090806001815401808255809150506001900390600052602060002090600202016000909190919091506000820151816000019080519060200190612fbf92919061413c565b506020820151816001019080519060200190612fdc92919061413c565b5050508080612fea906153d6565b915050612e92565b50600360003373ffffffffffffffffffffffffffffffffffffffff1673ffffffffffffffffffffffffffffffffffffffff168152602001908152602001600020600260003373ffffffffffffffffffffffffffffffffffffffff1673ffffffffffffffffffffffffffffffffffffffff1681526020019081526020016000209080600181540180825580915050600190039060005260206000209060110201600090919091909150600082018160000160008201816000019080546130b690615373565b6130c192919061428d565b5060018201816001019080546130d690615373565b6130e192919061428d565b5060028201816002019080546130f690615373565b61310192919061428d565b50600382018160030190805461311690615373565b61312192919061428d565b50505060048201816004016000820160009054906101000a900473ffffffffffffffffffffffffffffffffffffffff168160000160006101000a81548173ffffffffffffffffffffffffffffffffffffffff021916908373ffffffffffffffffffffffffffffffffffffffff16021790555060018201816001019080546131a790615373565b6131b292919061428d565b5060028201816002019080546131c790615373565b6131d292919061428d565b5060038201816003019080546131e790615373565b6131f292919061428d565b50600482018160040190805461320790615373565b61321292919061428d565b50600582018160050190805461322790615373565b61323292919061428d565b506006820160009054906101000a900460ff168160060160006101000a81548160ff021916908360ff1602179055505050600b820181600b0190805461327790615373565b61328292919061428d565b50600c820181600c0190805461329790615373565b6132a292919061428d565b50600d820181600d019080546132b992919061431a565b50600e82015481600e0155600f82015481600f01556010820160009054906101000a900473ffffffffffffffffffffffffffffffffffffffff168160100160006101000a81548173ffffffffffffffffffffffffffffffffffffffff021916908373ffffffffffffffffffffffffffffffffffffffff1602179055505050600460003373ffffffffffffffffffffffffffffffffffffffff1673ffffffffffffffffffffffffffffffffffffffff1681526020019081526020016000206000815480929190613387906153d6565b9190505550600073ffffffffffffffffffffffffffffffffffffffff16856000015173ffffffffffffffffffffffffffffffffffffffff16146137ad5760056000866000015173ffffffffffffffffffffffffffffffffffffffff1673ffffffffffffffffffffffffffffffffffffffff168152602001908152602001600020600260003373ffffffffffffffffffffffffffffffffffffffff1673ffffffffffffffffffffffffffffffffffffffff16815260200190815260200160002090806001815401808255809150506001900390600052602060002090601102016000909190919091506000820181600001600082018160000190805461348b90615373565b61349692919061428d565b5060018201816001019080546134ab90615373565b6134b692919061428d565b5060028201816002019080546134cb90615373565b6134d692919061428d565b5060038201816003019080546134eb90615373565b6134f692919061428d565b50505060048201816004016000820160009054906101000a900473ffffffffffffffffffffffffffffffffffffffff168160000160006101000a81548173ffffffffffffffffffffffffffffffffffffffff021916908373ffffffffffffffffffffffffffffffffffffffff160217905550600182018160010190805461357c90615373565b61358792919061428d565b50600282018160020190805461359c90615373565b6135a792919061428d565b5060038201816003019080546135bc90615373565b6135c792919061428d565b5060048201816004019080546135dc90615373565b6135e792919061428d565b5060058201816005019080546135fc90615373565b61360792919061428d565b506006820160009054906101000a900460ff168160060160006101000a81548160ff021916908360ff1602179055505050600b820181600b0190805461364c90615373565b61365792919061428d565b50600c820181600c0190805461366c90615373565b61367792919061428d565b50600d820181600d0190805461368e92919061431a565b50600e82015481600e0155600f82015481600f01556010820160009054906101000a900473ffffffffffffffffffffffffffffffffffffffff168160100160006101000a81548173ffffffffffffffffffffffffffffffffffffffff021916908373ffffffffffffffffffffffffffffffffffffffff160217905550505060066000866000015173ffffffffffffffffffffffffffffffffffffffff1673ffffffffffffffffffffffffffffffffffffffff1681526020019081526020016000206000815480929190613760906153d6565b91905055507f2fc6fef47720f7db686e69affbeff6314997efcfe53afafd0e87316260023eeb8660200151876040015187600001516040516137a493929190615052565b60405180910390a15b505050505050565b60046020528060005260406000206000915090505481565b6137d56141c2565b600360008473ffffffffffffffffffffffffffffffffffffffff1673ffffffffffffffffffffffffffffffffffffffff168152602001908152602001600020828154811061384c577f4e487b7100000000000000000000000000000000000000000000000000000000600052603260045260246000fd5b9060005260206000209060110201604051806101000160405290816000820160405180608001604052908160008201805461388690615373565b80601f01602080910402602001604051908101604052809291908181526020018280546138b290615373565b80156138ff5780601f106138d4576101008083540402835291602001916138ff565b820191906000526020600020905b8154815290600101906020018083116138e257829003601f168201915b5050505050815260200160018201805461391890615373565b80601f016020809104026020016040519081016040528092919081815260200182805461394490615373565b80156139915780601f1061396657610100808354040283529160200191613991565b820191906000526020600020905b81548152906001019060200180831161397457829003601f168201915b505050505081526020016002820180546139aa90615373565b80601f01602080910402602001604051908101604052809291908181526020018280546139d690615373565b8015613a235780601f106139f857610100808354040283529160200191613a23565b820191906000526020600020905b815481529060010190602001808311613a0657829003601f168201915b50505050508152602001600382018054613a3c90615373565b80601f0160208091040260200160405190810160405280929190818152602001828054613a6890615373565b8015613ab55780601f10613a8a57610100808354040283529160200191613ab5565b820191906000526020600020905b815481529060010190602001808311613a9857829003601f168201915b5050505050815250508152602001600482016040518060e00160405290816000820160009054906101000a900473ffffffffffffffffffffffffffffffffffffffff1673ffffffffffffffffffffffffffffffffffffffff1673ffffffffffffffffffffffffffffffffffffffff168152602001600182018054613b3890615373565b80601f0160208091040260200160405190810160405280929190818152602001828054613b6490615373565b8015613bb15780601f10613b8657610100808354040283529160200191613bb1565b820191906000526020600020905b815481529060010190602001808311613b9457829003601f168201915b50505050508152602001600282018054613bca90615373565b80601f0160208091040260200160405190810160405280929190818152602001828054613bf690615373565b8015613c435780601f10613c1857610100808354040283529160200191613c43565b820191906000526020600020905b815481529060010190602001808311613c2657829003601f168201915b50505050508152602001600382018054613c5c90615373565b80601f0160208091040260200160405190810160405280929190818152602001828054613c8890615373565b8015613cd55780601f10613caa57610100808354040283529160200191613cd5565b820191906000526020600020905b815481529060010190602001808311613cb857829003601f168201915b50505050508152602001600482018054613cee90615373565b80601f0160208091040260200160405190810160405280929190818152602001828054613d1a90615373565b8015613d675780601f10613d3c57610100808354040283529160200191613d67565b820191906000526020600020905b815481529060010190602001808311613d4a57829003601f168201915b50505050508152602001600582018054613d8090615373565b80601f0160208091040260200160405190810160405280929190818152602001828054613dac90615373565b8015613df95780601f10613dce57610100808354040283529160200191613df9565b820191906000526020600020905b815481529060010190602001808311613ddc57829003601f168201915b505050505081526020016006820160009054906101000a900460ff1660ff1660ff16815250508152602001600b82018054613e3390615373565b80601f0160208091040260200160405190810160405280929190818152602001828054613e5f90615373565b8015613eac5780601f10613e8157610100808354040283529160200191613eac565b820191906000526020600020905b815481529060010190602001808311613e8f57829003601f168201915b50505050508152602001600c82018054613ec590615373565b80601f0160208091040260200160405190810160405280929190818152602001828054613ef190615373565b8015613f3e5780601f10613f1357610100808354040283529160200191613f3e565b820191906000526020600020905b815481529060010190602001808311613f2157829003601f168201915b50505050508152602001600d8201805480602002602001604051908101604052809291908181526020016000905b828210156140c25783829060005260206000209060020201604051806040016040529081600082018054613f9f90615373565b80601f0160208091040260200160405190810160405280929190818152602001828054613fcb90615373565b80156140185780601f10613fed57610100808354040283529160200191614018565b820191906000526020600020905b815481529060010190602001808311613ffb57829003601f168201915b5050505050815260200160018201805461403190615373565b80601f016020809104026020016040519081016040528092919081815260200182805461405d90615373565b80156140aa5780601f1061407f576101008083540402835291602001916140aa565b820191906000526020600020905b81548152906001019060200180831161408d57829003601f168201915b50505050508152505081526020019060010190613f6c565b505050508152602001600e8201548152602001600f82015481526020016010820160009054906101000a900473ffffffffffffffffffffffffffffffffffffffff1673ffffffffffffffffffffffffffffffffffffffff1673ffffffffffffffffffffffffffffffffffffffff1681525050905092915050565b82805461414890615373565b90600052602060002090601f01602090048101928261416a57600085556141b1565b82601f1061418357805160ff19168380011785556141b1565b828001600101855582156141b1579182015b828111156141b0578251825591602001919060010190614195565b5b5090506141be91906143b2565b5090565b6040518061010001604052806141d66143cf565b81526020016141e36143f7565b81526020016060815260200160608152602001606081526020016000815260200160008152602001600073ffffffffffffffffffffffffffffffffffffffff1681525090565b50805461423590615373565b6000825580601f106142475750614266565b601f01602090049060005260206000209081019061426591906143b2565b5b50565b508054600082556002029060005260206000209081019061428a919061444d565b50565b82805461429990615373565b90600052602060002090601f0160209004810192826142bb5760008555614309565b82601f106142cc5780548555614309565b8280016001018555821561430957600052602060002091601f016020900482015b828111156143085782548255916001019190600101906142ed565b5b50905061431691906143b2565b5090565b8280548282559060005260206000209060020281019282156143a15760005260206000209160020282015b828111156143a0578282600082018160000190805461436390615373565b61436e92919061428d565b50600182018160010190805461438390615373565b61438e92919061428d565b50505091600201919060020190614345565b5b5090506143ae919061444d565b5090565b5b808211156143cb5760008160009055506001016143b3565b5090565b6040518060800160405280606081526020016060815260200160608152602001606081525090565b6040518060e00160405280600073ffffffffffffffffffffffffffffffffffffffff1681526020016060815260200160608152602001606081526020016060815260200160608152602001600060ff1681525090565b5b8082111561448057600080820160006144679190614229565b6001820160006144779190614229565b5060020161444e565b5090565b600061449761449284615205565b6151e0565b905080838252602082019050828560208602820111156144b657600080fd5b60005b8581101561450057813567ffffffffffffffff8111156144d857600080fd5b8086016144e589826145b1565b855260208501945060208401935050506001810190506144b9565b5050509392505050565b600061451d61451884615231565b6151e0565b90508281526020810184848401111561453557600080fd5b614540848285615331565b509392505050565b6000813590506145578161550c565b92915050565b600082601f83011261456e57600080fd5b813561457e848260208601614484565b91505092915050565b600082601f83011261459857600080fd5b81356145a884826020860161450a565b91505092915050565b6000604082840312156145c357600080fd5b6145cd60406151e0565b9050600082013567ffffffffffffffff8111156145e957600080fd5b6145f584828501614587565b600083015250602082013567ffffffffffffffff81111561461557600080fd5b61462184828501614587565b60208301525092915050565b60006080828403121561463f57600080fd5b61464960806151e0565b9050600082013567ffffffffffffffff81111561466557600080fd5b61467184828501614587565b600083015250602082013567ffffffffffffffff81111561469157600080fd5b61469d84828501614587565b602083015250604082013567ffffffffffffffff8111156146bd57600080fd5b6146c984828501614587565b604083015250606082013567ffffffffffffffff8111156146e957600080fd5b6146f584828501614587565b60608301525092915050565b600060e0828403121561471357600080fd5b61471d60e06151e0565b9050600061472d84828501614548565b600083015250602082013567ffffffffffffffff81111561474d57600080fd5b61475984828501614587565b602083015250604082013567ffffffffffffffff81111561477957600080fd5b61478584828501614587565b604083015250606082013567ffffffffffffffff8111156147a557600080fd5b6147b184828501614587565b606083015250608082013567ffffffffffffffff8111156147d157600080fd5b6147dd84828501614587565b60808301525060a082013567ffffffffffffffff8111156147fd57600080fd5b61480984828501614587565b60a08301525060c061481d8482850161483e565b60c08301525092915050565b60008135905061483881615523565b92915050565b60008135905061484d8161553a565b92915050565b60006020828403121561486557600080fd5b600061487384828501614548565b91505092915050565b6000806040838503121561488f57600080fd5b600061489d85828601614548565b92505060206148ae85828601614829565b9150509250929050565b60008060008060008060c087890312156148d157600080fd5b600087013567ffffffffffffffff8111156148eb57600080fd5b6148f789828a0161462d565b965050602087013567ffffffffffffffff81111561491457600080fd5b61492089828a01614701565b955050604087013567ffffffffffffffff81111561493d57600080fd5b61494989828a01614587565b945050606087013567ffffffffffffffff81111561496657600080fd5b61497289828a01614587565b935050608087013567ffffffffffffffff81111561498f57600080fd5b61499b89828a0161455d565b92505060a06149ac89828a01614829565b9150509295509295509295565b6000602082840312156149cb57600080fd5b600082013567ffffffffffffffff8111156149e557600080fd5b6149f184828501614701565b91505092915050565b6000614a068383614be6565b905092915050565b614a17816152e8565b82525050565b614a26816152e8565b82525050565b6000614a3782615287565b614a4181856152aa565b935083602082028501614a5385615262565b8060005b85811015614a8f5784840389528151614a7085826149fa565b9450614a7b8361529d565b925060208a01995050600181019050614a57565b50829750879550505050505092915050565b6000614aac82615292565b614ab681856152bb565b9350614ac6818560208601615340565b614acf816154ac565b840191505092915050565b6000614ae582615292565b614aef81856152cc565b9350614aff818560208601615340565b614b08816154ac565b840191505092915050565b6000614b1e82615292565b614b2881856152dd565b9350614b38818560208601615340565b80840191505092915050565b60008154614b5181615373565b614b5b81866152dd565b94506001821660008114614b765760018114614b8757614bba565b60ff19831686528186019350614bba565b614b9085615272565b60005b83811015614bb257815481890152600182019150602081019050614b93565b838801955050505b50505092915050565b6000614bd0602e836152cc565b9150614bdb826154bd565b604082019050919050565b60006040830160008301518482036000860152614c038282614aa1565b91505060208301518482036020860152614c1d8282614aa1565b9150508091505092915050565b60006080830160008301518482036000860152614c478282614aa1565b91505060208301518482036020860152614c618282614aa1565b91505060408301518482036040860152614c7b8282614aa1565b91505060608301518482036060860152614c958282614aa1565b9150508091505092915050565b60006080830160008301518482036000860152614cbf8282614aa1565b91505060208301518482036020860152614cd98282614aa1565b91505060408301518482036040860152614cf38282614aa1565b91505060608301518482036060860152614d0d8282614aa1565b9150508091505092915050565b600060e083016000830151614d326000860182614a0e565b5060208301518482036020860152614d4a8282614aa1565b91505060408301518482036040860152614d648282614aa1565b91505060608301518482036060860152614d7e8282614aa1565b91505060808301518482036080860152614d988282614aa1565b91505060a083015184820360a0860152614db28282614aa1565b91505060c0830151614dc760c0860182614f74565b508091505092915050565b600060e083016000830151614dea6000860182614a0e565b5060208301518482036020860152614e028282614aa1565b91505060408301518482036040860152614e1c8282614aa1565b91505060608301518482036060860152614e368282614aa1565b91505060808301518482036080860152614e508282614aa1565b91505060a083015184820360a0860152614e6a8282614aa1565b91505060c0830151614e7f60c0860182614f74565b508091505092915050565b6000610100830160008301518482036000860152614ea88282614c2a565b91505060208301518482036020860152614ec28282614d1a565b91505060408301518482036040860152614edc8282614aa1565b91505060608301518482036060860152614ef68282614aa1565b91505060808301518482036080860152614f108282614a2c565b91505060a0830151614f2560a0860182614f56565b5060c0830151614f3860c0860182614f56565b5060e0830151614f4b60e0860182614a0e565b508091505092915050565b614f5f8161531a565b82525050565b614f6e8161531a565b82525050565b614f7d81615324565b82525050565b614f8c81615324565b82525050565b6000614f9e8284614b13565b915081905092915050565b6000614fb58284614b44565b915081905092915050565b600060e082019050614fd5600083018a614a1d565b8181036020830152614fe78189614ada565b90508181036040830152614ffb8188614ada565b9050818103606083015261500f8187614ada565b905081810360808301526150238186614ada565b905081810360a08301526150378185614ada565b905061504660c0830184614f83565b98975050505050505050565b6000606082019050818103600083015261506c8186614ada565b905081810360208301526150808185614ada565b905061508f6040830184614a1d565b949350505050565b600060808201905081810360008301526150b18187614ada565b905081810360208301526150c58186614ada565b905081810360408301526150d98185614ada565b905081810360608301526150ed8184614ada565b905095945050505050565b6000602082019050818103600083015261511181614bc3565b9050919050565b600060e0820190508181036000830152615132818a614ca2565b905081810360208301526151468189614dd2565b9050818103604083015261515a8188614ada565b9050818103606083015261516e8187614ada565b905061517d6080830186614f65565b61518a60a0830185614f65565b61519760c0830184614a1d565b98975050505050505050565b600060208201905081810360008301526151bd8184614e8a565b905092915050565b60006020820190506151da6000830184614f65565b92915050565b60006151ea6151fb565b90506151f682826153a5565b919050565b6000604051905090565b600067ffffffffffffffff8211156152205761521f61547d565b5b602082029050602081019050919050565b600067ffffffffffffffff82111561524c5761524b61547d565b5b615255826154ac565b9050602081019050919050565b6000819050602082019050919050565b60008190508160005260206000209050919050565b600081519050919050565b600081519050919050565b6000602082019050919050565b600082825260208201905092915050565b600082825260208201905092915050565b600082825260208201905092915050565b600081905092915050565b60006152f3826152fa565b9050919050565b600073ffffffffffffffffffffffffffffffffffffffff82169050919050565b6000819050919050565b600060ff82169050919050565b82818337600083830152505050565b60005b8381101561535e578082015181840152602081019050615343565b8381111561536d576000848401525b50505050565b6000600282049050600182168061538b57607f821691505b6020821081141561539f5761539e61544e565b5b50919050565b6153ae826154ac565b810181811067ffffffffffffffff821117156153cd576153cc61547d565b5b80604052505050565b60006153e18261531a565b91507fffffffffffffffffffffffffffffffffffffffffffffffffffffffffffffffff8214156154145761541361541f565b5b600182019050919050565b7f4e487b7100000000000000000000000000000000000000000000000000000000600052601160045260246000fd5b7f4e487b7100000000000000000000000000000000000000000000000000000000600052602260045260246000fd5b7f4e487b7100000000000000000000000000000000000000000000000000000000600052604160045260246000fd5b6000601f19601f8301169050919050565b7f456c2070616369656e7465207961206861207369646f2072656769737472616460008201527f6f20656e207375206375656e7461000000000000000000000000000000000000602082015250565b615515816152e8565b811461552057600080fd5b50565b61552c8161531a565b811461553757600080fd5b50565b61554381615324565b811461554e57600080fd5b5056fea26469706673582212208a2e3e801e1981fb1d3de684f700934cd06ef3f7ca474f6e23aa93bb1c8c7e7864736f6c63430008040033",
  "immutableReferences": {},
  "source": "// SPDX-License-Identifier: GPL-3.0\r\npragma solidity >=0.7.0 <0.9.0;\r\n\r\ncontract RecetaMedica {\r\n\r\n    //************************** Estructuras que simulan los actores de las prescripciones mdicas *********************\r\n\r\n    struct Medicina {\r\n        string nombreMedicina;\r\n        string indicacion;\r\n    }\r\n\r\n    struct Medico {\r\n        string cedulaProfesional;\r\n        string nombres;\r\n        string apellidos;\r\n        string especialidad;\r\n    }\r\n\r\n    struct Paciente {\r\n        address cuentaPaciente;\r\n        string cedula;\r\n        string nombres;\r\n        string apellidos;\r\n        string correo;\r\n        string celular;\r\n        uint8 edad;\r\n    }\r\n\r\n    struct Receta {\r\n        Medico medico;\r\n        Paciente paciente;\r\n        string diagnostico;\r\n        string indicacionesExtras;\r\n        Medicina[] medicinas;\r\n        uint fecha;\r\n        uint fechaCaducidad;\r\n        address tokenMedico;\r\n    }\r\n\r\n    //****** Arreglos de tipo Map en donde se almacena la informacin en el proceso de preescripciones mdicas *********\r\n\r\n    mapping(address => Medico) public medicos;\r\n\r\n    mapping(address => Paciente) public pacientes;\r\n\r\n    mapping(address => Receta)  private recetaTemporal;\r\n\r\n    mapping(address => Receta[]) public recetasPorDoctor;\r\n    mapping(address => uint) public recetasTotalesPorDoctor;\r\n\r\n    mapping(address => Receta[]) public recetasPorPaciente;\r\n    mapping(address => uint) public recetasTotalesPorPaciente;\r\n\r\n    mapping(address => Paciente[]) public pacientesPorDoctor;\r\n    mapping(address => uint) public pacientesTotalesPorDoctor;\r\n\r\n    //************ Evento que reacciona al momento de registrar una receta para cualesquier paciente *******************\r\n\r\n    event RecetaRegistrada(string nombresMedico, string apellidosMedico, address cuentaPaciente);\r\n\r\n    //************************ Constructor del contrato que establece mdicos predeterminados **************************\r\n\r\n    constructor(){\r\n        //Doctores pre-existentes\r\n        medicos[0x0DF3c5E1e60A27f02D9d0FF8730c99A73D924Fc3] = Medico(\"11111111\", \"Patricio\", \"Estrella\", \"General\");\r\n        medicos[0xF5B223A069ebfDc5D491b94fB50C8be0B063CB65] = Medico(\"22222222\", \"Bob\", \"Sponja\", \"General\");\r\n    }\r\n\r\n    //****************** Funciones que contienen la lgica del proceso de preescripciones mdicas **********************\r\n\r\n    function registrarPaciente(\r\n        Paciente memory _paciente\r\n    ) public {\r\n        bool existe = false;\r\n        for (uint i = 0; i < pacientesTotalesPorDoctor[msg.sender]; i++) {\r\n            //Se valida en caso de que el paciente tenga ya un address asociado\r\n            //adems, se emplea && ya que, puede darse el caso en que, la cdula de un _paciente\r\n            // ya se ha registrado pero aun no tiene cuenta en la red.\r\n            if (pacientesPorDoctor[msg.sender][i].cuentaPaciente == _paciente.cuentaPaciente\r\n                && keccak256(abi.encodePacked(pacientesPorDoctor[msg.sender][i].cedula)) ==\r\n                keccak256(abi.encodePacked(_paciente.cedula))) {\r\n                existe = true;\r\n                break;\r\n            }\r\n\r\n        }\r\n        require(!existe, 'El paciente ya ha sido registrado en su cuenta');\r\n        if (_paciente.cuentaPaciente != address(0)) {\r\n            pacientes[_paciente.cuentaPaciente] = _paciente;\r\n        }\r\n\r\n        pacientesPorDoctor[msg.sender].push(_paciente);\r\n        pacientesTotalesPorDoctor[msg.sender] ++;\r\n    }\r\n\r\n    function registrarReceta(\r\n        Medico memory _medico,\r\n        Paciente memory _paciente,\r\n        string memory _diagnostico,\r\n        string memory _indicacionesExtras,\r\n        Medicina[] memory _medicinas,\r\n        uint _fechaCaducidad\r\n    ) public {\r\n        //Dado que, recetaTemporal es variable global se va acumulando por eso se la vaca por cada registro ya que son indep\r\n        for (uint j = 0; j < _medicinas.length; j++) {\r\n            delete recetaTemporal[msg.sender];\r\n        }\r\n        recetaTemporal[msg.sender].tokenMedico = msg.sender;\r\n        recetaTemporal[msg.sender].medico = _medico;\r\n        recetaTemporal[msg.sender].paciente = _paciente;\r\n        recetaTemporal[msg.sender].diagnostico = _diagnostico;\r\n        recetaTemporal[msg.sender].indicacionesExtras = _indicacionesExtras;\r\n        recetaTemporal[msg.sender].fecha = block.timestamp;\r\n        recetaTemporal[msg.sender].fechaCaducidad = _fechaCaducidad;\r\n        for (uint j = 0; j < _medicinas.length; j++) {\r\n            recetaTemporal[msg.sender].medicinas.push(Medicina(_medicinas[j].nombreMedicina, _medicinas[j].indicacion));\r\n        }\r\n        recetasPorDoctor[msg.sender].push(recetaTemporal[msg.sender]);\r\n        recetasTotalesPorDoctor[msg.sender]++;\r\n\r\n        if (_paciente.cuentaPaciente != address(0)) {\r\n            recetasPorPaciente[_paciente.cuentaPaciente].push(recetaTemporal[msg.sender]);\r\n            recetasTotalesPorPaciente[_paciente.cuentaPaciente]++;\r\n            emit RecetaRegistrada(_medico.nombres, _medico.apellidos, _paciente.cuentaPaciente);\r\n        }\r\n\r\n    }\r\n\r\n    function getRecetasPorDoctor(address cuentaDoctor, uint i)\r\n    public view returns (Receta memory) {\r\n        return (recetasPorDoctor[cuentaDoctor][i]);\r\n    }\r\n\r\n    function getRecetasPorPaciente(address cuentaPaciente, uint i)\r\n    public view returns (Receta memory) {\r\n        return (recetasPorPaciente[cuentaPaciente][i]);\r\n    }\r\n\r\n}\r\n",
  "sourcePath": "C:/Users/Mickmaxy/Documents/GitHub/dapp-recetas-medicas/contracts/RecetaMedica.sol",
  "compiler": {
    "name": "solc",
    "version": "0.8.4+commit.c7e474f2.Emscripten.clang"
  },
  "schemaVersion": "3.4.1",
  "updatedAt": "2021-08-03T03:43:50.036Z",
  "networkType": "ethereum",
  "devdoc": {
    "kind": "dev",
    "methods": {},
    "version": 1
  },
  "userdoc": {
    "kind": "user",
    "methods": {},
    "version": 1
  }
}