{
  "contractName": "RecetaMedica",
  "abi": [
    {
      "inputs": [],
      "stateMutability": "nonpayable",
      "type": "constructor"
    },
    {
      "inputs": [
        {
          "internalType": "address",
          "name": "",
          "type": "address"
        }
      ],
      "name": "medicos",
      "outputs": [
        {
          "internalType": "string",
          "name": "cedulaProfesional",
          "type": "string"
        },
        {
          "internalType": "string",
          "name": "nombres",
          "type": "string"
        },
        {
          "internalType": "string",
          "name": "apellidos",
          "type": "string"
        },
        {
          "internalType": "string",
          "name": "especialidad",
          "type": "string"
        }
      ],
      "stateMutability": "view",
      "type": "function"
    },
    {
      "inputs": [
        {
          "internalType": "address",
          "name": "",
          "type": "address"
        },
        {
          "internalType": "uint256",
          "name": "",
          "type": "uint256"
        }
      ],
      "name": "pacientesPorDoctor",
      "outputs": [
        {
          "internalType": "address",
          "name": "cuentaPaciente",
          "type": "address"
        },
        {
          "internalType": "string",
          "name": "cedula",
          "type": "string"
        },
        {
          "internalType": "string",
          "name": "nombres",
          "type": "string"
        },
        {
          "internalType": "string",
          "name": "apellidos",
          "type": "string"
        },
        {
          "internalType": "string",
          "name": "correo",
          "type": "string"
        },
        {
          "internalType": "uint256",
          "name": "edad",
          "type": "uint256"
        }
      ],
      "stateMutability": "view",
      "type": "function"
    },
    {
      "inputs": [
        {
          "internalType": "address",
          "name": "",
          "type": "address"
        }
      ],
      "name": "pacientesTotalesPorDoctor",
      "outputs": [
        {
          "internalType": "uint256",
          "name": "",
          "type": "uint256"
        }
      ],
      "stateMutability": "view",
      "type": "function"
    },
    {
      "inputs": [
        {
          "internalType": "address",
          "name": "",
          "type": "address"
        },
        {
          "internalType": "uint256",
          "name": "",
          "type": "uint256"
        }
      ],
      "name": "recPorDoctor",
      "outputs": [
        {
          "internalType": "string",
          "name": "diagnostico",
          "type": "string"
        }
      ],
      "stateMutability": "view",
      "type": "function"
    },
    {
      "inputs": [
        {
          "internalType": "address",
          "name": "",
          "type": "address"
        }
      ],
      "name": "recTotalesPorDoctor",
      "outputs": [
        {
          "internalType": "uint256",
          "name": "",
          "type": "uint256"
        }
      ],
      "stateMutability": "view",
      "type": "function"
    },
    {
      "inputs": [
        {
          "internalType": "address",
          "name": "",
          "type": "address"
        },
        {
          "internalType": "uint256",
          "name": "",
          "type": "uint256"
        }
      ],
      "name": "recetaPorDoctor",
      "outputs": [
        {
          "components": [
            {
              "internalType": "address",
              "name": "cuentaPaciente",
              "type": "address"
            },
            {
              "internalType": "string",
              "name": "cedula",
              "type": "string"
            },
            {
              "internalType": "string",
              "name": "nombres",
              "type": "string"
            },
            {
              "internalType": "string",
              "name": "apellidos",
              "type": "string"
            },
            {
              "internalType": "string",
              "name": "correo",
              "type": "string"
            },
            {
              "internalType": "uint256",
              "name": "edad",
              "type": "uint256"
            }
          ],
          "internalType": "struct RecetaMedica.Paciente",
          "name": "paciente",
          "type": "tuple"
        },
        {
          "internalType": "string",
          "name": "diagnostico",
          "type": "string"
        },
        {
          "internalType": "string",
          "name": "indicacionesExtras",
          "type": "string"
        }
      ],
      "stateMutability": "view",
      "type": "function"
    },
    {
      "inputs": [
        {
          "internalType": "address",
          "name": "",
          "type": "address"
        },
        {
          "internalType": "uint256",
          "name": "",
          "type": "uint256"
        }
      ],
      "name": "recetaPorPaciente",
      "outputs": [
        {
          "components": [
            {
              "internalType": "address",
              "name": "cuentaPaciente",
              "type": "address"
            },
            {
              "internalType": "string",
              "name": "cedula",
              "type": "string"
            },
            {
              "internalType": "string",
              "name": "nombres",
              "type": "string"
            },
            {
              "internalType": "string",
              "name": "apellidos",
              "type": "string"
            },
            {
              "internalType": "string",
              "name": "correo",
              "type": "string"
            },
            {
              "internalType": "uint256",
              "name": "edad",
              "type": "uint256"
            }
          ],
          "internalType": "struct RecetaMedica.Paciente",
          "name": "paciente",
          "type": "tuple"
        },
        {
          "internalType": "string",
          "name": "diagnostico",
          "type": "string"
        },
        {
          "internalType": "string",
          "name": "indicacionesExtras",
          "type": "string"
        }
      ],
      "stateMutability": "view",
      "type": "function"
    },
    {
      "inputs": [
        {
          "internalType": "address",
          "name": "",
          "type": "address"
        }
      ],
      "name": "recetasTotalesPorDoctor",
      "outputs": [
        {
          "internalType": "uint256",
          "name": "",
          "type": "uint256"
        }
      ],
      "stateMutability": "view",
      "type": "function"
    },
    {
      "inputs": [
        {
          "internalType": "address",
          "name": "",
          "type": "address"
        }
      ],
      "name": "recetasTotalesPorPaciente",
      "outputs": [
        {
          "internalType": "uint256",
          "name": "",
          "type": "uint256"
        }
      ],
      "stateMutability": "view",
      "type": "function"
    },
    {
      "inputs": [
        {
          "internalType": "address",
          "name": "",
          "type": "address"
        }
      ],
      "name": "tes",
      "outputs": [
        {
          "internalType": "string",
          "name": "diagnostico",
          "type": "string"
        }
      ],
      "stateMutability": "view",
      "type": "function"
    },
    {
      "inputs": [
        {
          "internalType": "address",
          "name": "_cuentaPaciente",
          "type": "address"
        },
        {
          "internalType": "string",
          "name": "_cedula",
          "type": "string"
        },
        {
          "internalType": "string",
          "name": "_nombre",
          "type": "string"
        },
        {
          "internalType": "string",
          "name": "_apellido",
          "type": "string"
        },
        {
          "internalType": "string",
          "name": "_correo",
          "type": "string"
        },
        {
          "internalType": "uint256",
          "name": "_edad",
          "type": "uint256"
        }
      ],
      "name": "registrarPaciente",
      "outputs": [],
      "stateMutability": "nonpayable",
      "type": "function"
    },
    {
      "inputs": [
        {
          "internalType": "string",
          "name": "_diagnostico",
          "type": "string"
        },
        {
          "components": [
            {
              "internalType": "string",
              "name": "nombreMedicina",
              "type": "string"
            },
            {
              "internalType": "string",
              "name": "indicacion",
              "type": "string"
            }
          ],
          "internalType": "struct RecetaMedica.Medicina[]",
          "name": "_medicinas",
          "type": "tuple[]"
        }
      ],
      "name": "registrarReceta",
      "outputs": [],
      "stateMutability": "nonpayable",
      "type": "function"
    }
  ],
  "bytecode": "0x60806040523480156200001157600080fd5b5060405180608001604052806040518060400160405280600881526020017f313131313131313100000000000000000000000000000000000000000000000081525081526020016040518060400160405280600881526020017f506174726963696f00000000000000000000000000000000000000000000000081525081526020016040518060400160405280600881526020017f45737472656c6c6100000000000000000000000000000000000000000000000081525081526020016040518060400160405280600781526020017f47656e6572616c0000000000000000000000000000000000000000000000000081525081525060096000730df3c5e1e60a27f02d9d0ff8730c99a73d924fc373ffffffffffffffffffffffffffffffffffffffff1673ffffffffffffffffffffffffffffffffffffffff168152602001908152602001600020600082015181600001908051906020019062000178929190620003a6565b50602082015181600101908051906020019062000197929190620003a6565b506040820151816002019080519060200190620001b6929190620003a6565b506060820151816003019080519060200190620001d5929190620003a6565b5090505060405180608001604052806040518060400160405280600881526020017f323232323232323200000000000000000000000000000000000000000000000081525081526020016040518060400160405280600381526020017f426f62000000000000000000000000000000000000000000000000000000000081525081526020016040518060400160405280600681526020017f53706f6e6a61000000000000000000000000000000000000000000000000000081525081526020016040518060400160405280600781526020017f47656e6572616c000000000000000000000000000000000000000000000000008152508152506009600073f5b223a069ebfdc5d491b94fb50c8be0b063cb6573ffffffffffffffffffffffffffffffffffffffff1673ffffffffffffffffffffffffffffffffffffffff16815260200190815260200160002060008201518160000190805190602001906200033f929190620003a6565b5060208201518160010190805190602001906200035e929190620003a6565b5060408201518160020190805190602001906200037d929190620003a6565b5060608201518160030190805190602001906200039c929190620003a6565b50905050620004bb565b828054620003b49062000456565b90600052602060002090601f016020900481019282620003d8576000855562000424565b82601f10620003f357805160ff191683800117855562000424565b8280016001018555821562000424579182015b828111156200042357825182559160200191906001019062000406565b5b50905062000433919062000437565b5090565b5b808211156200045257600081600090555060010162000438565b5090565b600060028204905060018216806200046f57607f821691505b602082108114156200048657620004856200048c565b5b50919050565b7f4e487b7100000000000000000000000000000000000000000000000000000000600052602260045260246000fd5b6121a680620004cb6000396000f3fe608060405234801561001057600080fd5b50600436106100b45760003560e01c8063764b78e211610071578063764b78e2146101ca5780637d10d471146101ff578063b84a79bb1461022f578063d95dca531461024b578063f30fcf3f1461027b578063faa2932b146102ab576100b4565b80630528b8c5146100b95780630a1e2e97146100eb5780631a7d42301461011b57806325714a501461014b5780634dfa1864146101675780635f97477c1461019a575b600080fd5b6100d360048036038101906100ce9190611b70565b6102dd565b6040516100e293929190611e64565b60405180910390f35b61010560048036038101906101009190611a5e565b6106e6565b6040516101129190611de1565b60405180910390f35b61013560048036038101906101309190611a5e565b61078c565b6040516101429190611eb0565b60405180910390f35b61016560048036038101906101609190611a87565b6107a4565b005b610181600480360381019061017c9190611a5e565b610973565b6040516101919493929190611e03565b60405180910390f35b6101b460048036038101906101af9190611b70565b610bc3565b6040516101c19190611de1565b60405180910390f35b6101e460048036038101906101df9190611b70565b610c86565b6040516101f696959493929190611d64565b60405180910390f35b61021960048036038101906102149190611a5e565b610f1f565b6040516102269190611eb0565b60405180910390f35b61024960048036038101906102449190611bac565b610f37565b005b61026560048036038101906102609190611a5e565b611228565b6040516102729190611eb0565b60405180910390f35b61029560048036038101906102909190611a5e565b611240565b6040516102a29190611eb0565b60405180910390f35b6102c560048036038101906102c09190611b70565b611258565b6040516102d493929190611e64565b60405180910390f35b600460205281600052604060002081815481106102f957600080fd5b906000526020600020906009020160009150915050806000016040518060c00160405290816000820160009054906101000a900473ffffffffffffffffffffffffffffffffffffffff1673ffffffffffffffffffffffffffffffffffffffff1673ffffffffffffffffffffffffffffffffffffffff16815260200160018201805461038390611ff8565b80601f01602080910402602001604051908101604052809291908181526020018280546103af90611ff8565b80156103fc5780601f106103d1576101008083540402835291602001916103fc565b820191906000526020600020905b8154815290600101906020018083116103df57829003601f168201915b5050505050815260200160028201805461041590611ff8565b80601f016020809104026020016040519081016040528092919081815260200182805461044190611ff8565b801561048e5780601f106104635761010080835404028352916020019161048e565b820191906000526020600020905b81548152906001019060200180831161047157829003601f168201915b505050505081526020016003820180546104a790611ff8565b80601f01602080910402602001604051908101604052809291908181526020018280546104d390611ff8565b80156105205780601f106104f557610100808354040283529160200191610520565b820191906000526020600020905b81548152906001019060200180831161050357829003601f168201915b5050505050815260200160048201805461053990611ff8565b80601f016020809104026020016040519081016040528092919081815260200182805461056590611ff8565b80156105b25780601f10610587576101008083540402835291602001916105b2565b820191906000526020600020905b81548152906001019060200180831161059557829003601f168201915b50505050508152602001600582015481525050908060060180546105d590611ff8565b80601f016020809104026020016040519081016040528092919081815260200182805461060190611ff8565b801561064e5780601f106106235761010080835404028352916020019161064e565b820191906000526020600020905b81548152906001019060200180831161063157829003601f168201915b50505050509080600701805461066390611ff8565b80601f016020809104026020016040519081016040528092919081815260200182805461068f90611ff8565b80156106dc5780601f106106b1576101008083540402835291602001916106dc565b820191906000526020600020905b8154815290600101906020018083116106bf57829003601f168201915b5050505050905083565b600060205280600052604060002060009150905080600001805461070990611ff8565b80601f016020809104026020016040519081016040528092919081815260200182805461073590611ff8565b80156107825780601f1061075757610100808354040283529160200191610782565b820191906000526020600020905b81548152906001019060200180831161076557829003601f168201915b5050505050905081565b60086020528060005260406000206000915090505481565b600560003373ffffffffffffffffffffffffffffffffffffffff1673ffffffffffffffffffffffffffffffffffffffff1681526020019081526020016000206040518060c001604052808873ffffffffffffffffffffffffffffffffffffffff16815260200187815260200186815260200185815260200184815260200183815250908060018154018082558091505060019003906000526020600020906006020160009091909190915060008201518160000160006101000a81548173ffffffffffffffffffffffffffffffffffffffff021916908373ffffffffffffffffffffffffffffffffffffffff16021790555060208201518160010190805190602001906108b2929190611661565b5060408201518160020190805190602001906108cf929190611661565b5060608201518160030190805190602001906108ec929190611661565b506080820151816004019080519060200190610909929190611661565b5060a082015181600501555050600660003373ffffffffffffffffffffffffffffffffffffffff1673ffffffffffffffffffffffffffffffffffffffff16815260200190815260200160002060008154809291906109669061205b565b9190505550505050505050565b600960205280600052604060002060009150905080600001805461099690611ff8565b80601f01602080910402602001604051908101604052809291908181526020018280546109c290611ff8565b8015610a0f5780601f106109e457610100808354040283529160200191610a0f565b820191906000526020600020905b8154815290600101906020018083116109f257829003601f168201915b505050505090806001018054610a2490611ff8565b80601f0160208091040260200160405190810160405280929190818152602001828054610a5090611ff8565b8015610a9d5780601f10610a7257610100808354040283529160200191610a9d565b820191906000526020600020905b815481529060010190602001808311610a8057829003601f168201915b505050505090806002018054610ab290611ff8565b80601f0160208091040260200160405190810160405280929190818152602001828054610ade90611ff8565b8015610b2b5780601f10610b0057610100808354040283529160200191610b2b565b820191906000526020600020905b815481529060010190602001808311610b0e57829003601f168201915b505050505090806003018054610b4090611ff8565b80601f0160208091040260200160405190810160405280929190818152602001828054610b6c90611ff8565b8015610bb95780601f10610b8e57610100808354040283529160200191610bb9565b820191906000526020600020905b815481529060010190602001808311610b9c57829003601f168201915b5050505050905084565b60016020528160005260406000208181548110610bdf57600080fd5b906000526020600020906002020160009150915050806000018054610c0390611ff8565b80601f0160208091040260200160405190810160405280929190818152602001828054610c2f90611ff8565b8015610c7c5780601f10610c5157610100808354040283529160200191610c7c565b820191906000526020600020905b815481529060010190602001808311610c5f57829003601f168201915b5050505050905081565b60056020528160005260406000208181548110610ca257600080fd5b9060005260206000209060060201600091509150508060000160009054906101000a900473ffffffffffffffffffffffffffffffffffffffff1690806001018054610cec90611ff8565b80601f0160208091040260200160405190810160405280929190818152602001828054610d1890611ff8565b8015610d655780601f10610d3a57610100808354040283529160200191610d65565b820191906000526020600020905b815481529060010190602001808311610d4857829003601f168201915b505050505090806002018054610d7a90611ff8565b80601f0160208091040260200160405190810160405280929190818152602001828054610da690611ff8565b8015610df35780601f10610dc857610100808354040283529160200191610df3565b820191906000526020600020905b815481529060010190602001808311610dd657829003601f168201915b505050505090806003018054610e0890611ff8565b80601f0160208091040260200160405190810160405280929190818152602001828054610e3490611ff8565b8015610e815780601f10610e5657610100808354040283529160200191610e81565b820191906000526020600020905b815481529060010190602001808311610e6457829003601f168201915b505050505090806004018054610e9690611ff8565b80601f0160208091040260200160405190810160405280929190818152602001828054610ec290611ff8565b8015610f0f5780601f10610ee457610100808354040283529160200191610f0f565b820191906000526020600020905b815481529060010190602001808311610ef257829003601f168201915b5050505050908060050154905086565b60066020528060005260406000206000915090505481565b816000803373ffffffffffffffffffffffffffffffffffffffff1673ffffffffffffffffffffffffffffffffffffffff1681526020019081526020016000206000019080519060200190610f8c929190611661565b5060005b81518110156110ef576000803373ffffffffffffffffffffffffffffffffffffffff1673ffffffffffffffffffffffffffffffffffffffff168152602001908152602001600020600101604051806040016040528084848151811061101e577f4e487b7100000000000000000000000000000000000000000000000000000000600052603260045260246000fd5b6020026020010151600001518152602001848481518110611068577f4e487b7100000000000000000000000000000000000000000000000000000000600052603260045260246000fd5b602002602001015160200151815250908060018154018082558091505060019003906000526020600020906002020160009091909190915060008201518160000190805190602001906110bc929190611661565b5060208201518160010190805190602001906110d9929190611661565b50505080806110e79061205b565b915050610f90565b50600160003373ffffffffffffffffffffffffffffffffffffffff1673ffffffffffffffffffffffffffffffffffffffff1681526020019081526020016000206000803373ffffffffffffffffffffffffffffffffffffffff1673ffffffffffffffffffffffffffffffffffffffff168152602001908152602001600020908060018154018082558091505060019003906000526020600020906002020160009091909190915060008201816000019080546111aa90611ff8565b6111b59291906116e7565b5060018201816001019080546111cc929190611774565b505050600260003373ffffffffffffffffffffffffffffffffffffffff1673ffffffffffffffffffffffffffffffffffffffff168152602001908152602001600020600081548092919061121f9061205b565b91905055505050565b60026020528060005260406000206000915090505481565b60076020528060005260406000206000915090505481565b6003602052816000526040600020818154811061127457600080fd5b906000526020600020906009020160009150915050806000016040518060c00160405290816000820160009054906101000a900473ffffffffffffffffffffffffffffffffffffffff1673ffffffffffffffffffffffffffffffffffffffff1673ffffffffffffffffffffffffffffffffffffffff1681526020016001820180546112fe90611ff8565b80601f016020809104026020016040519081016040528092919081815260200182805461132a90611ff8565b80156113775780601f1061134c57610100808354040283529160200191611377565b820191906000526020600020905b81548152906001019060200180831161135a57829003601f168201915b5050505050815260200160028201805461139090611ff8565b80601f01602080910402602001604051908101604052809291908181526020018280546113bc90611ff8565b80156114095780601f106113de57610100808354040283529160200191611409565b820191906000526020600020905b8154815290600101906020018083116113ec57829003601f168201915b5050505050815260200160038201805461142290611ff8565b80601f016020809104026020016040519081016040528092919081815260200182805461144e90611ff8565b801561149b5780601f106114705761010080835404028352916020019161149b565b820191906000526020600020905b81548152906001019060200180831161147e57829003601f168201915b505050505081526020016004820180546114b490611ff8565b80601f01602080910402602001604051908101604052809291908181526020018280546114e090611ff8565b801561152d5780601f106115025761010080835404028352916020019161152d565b820191906000526020600020905b81548152906001019060200180831161151057829003601f168201915b505050505081526020016005820154815250509080600601805461155090611ff8565b80601f016020809104026020016040519081016040528092919081815260200182805461157c90611ff8565b80156115c95780601f1061159e576101008083540402835291602001916115c9565b820191906000526020600020905b8154815290600101906020018083116115ac57829003601f168201915b5050505050908060070180546115de90611ff8565b80601f016020809104026020016040519081016040528092919081815260200182805461160a90611ff8565b80156116575780601f1061162c57610100808354040283529160200191611657565b820191906000526020600020905b81548152906001019060200180831161163a57829003601f168201915b5050505050905083565b82805461166d90611ff8565b90600052602060002090601f01602090048101928261168f57600085556116d6565b82601f106116a857805160ff19168380011785556116d6565b828001600101855582156116d6579182015b828111156116d55782518255916020019190600101906116ba565b5b5090506116e3919061180c565b5090565b8280546116f390611ff8565b90600052602060002090601f0160209004810192826117155760008555611763565b82601f106117265780548555611763565b8280016001018555821561176357600052602060002091601f016020900482015b82811115611762578254825591600101919060010190611747565b5b509050611770919061180c565b5090565b8280548282559060005260206000209060020281019282156117fb5760005260206000209160020282015b828111156117fa57828260008201816000019080546117bd90611ff8565b6117c89291906116e7565b5060018201816001019080546117dd90611ff8565b6117e89291906116e7565b5050509160020191906002019061179f565b5b5090506118089190611829565b5090565b5b8082111561182557600081600090555060010161180d565b5090565b5b8082111561185c57600080820160006118439190611860565b6001820160006118539190611860565b5060020161182a565b5090565b50805461186c90611ff8565b6000825580601f1061187e575061189d565b601f01602090049060005260206000209081019061189c919061180c565b5b50565b60006118b36118ae84611ef0565b611ecb565b905080838252602082019050828560208602820111156118d257600080fd5b60005b8581101561191c57813567ffffffffffffffff8111156118f457600080fd5b80860161190189826119cd565b855260208501945060208401935050506001810190506118d5565b5050509392505050565b600061193961193484611f1c565b611ecb565b90508281526020810184848401111561195157600080fd5b61195c848285611fb6565b509392505050565b60008135905061197381612142565b92915050565b600082601f83011261198a57600080fd5b813561199a8482602086016118a0565b91505092915050565b600082601f8301126119b457600080fd5b81356119c4848260208601611926565b91505092915050565b6000604082840312156119df57600080fd5b6119e96040611ecb565b9050600082013567ffffffffffffffff811115611a0557600080fd5b611a11848285016119a3565b600083015250602082013567ffffffffffffffff811115611a3157600080fd5b611a3d848285016119a3565b60208301525092915050565b600081359050611a5881612159565b92915050565b600060208284031215611a7057600080fd5b6000611a7e84828501611964565b91505092915050565b60008060008060008060c08789031215611aa057600080fd5b6000611aae89828a01611964565b965050602087013567ffffffffffffffff811115611acb57600080fd5b611ad789828a016119a3565b955050604087013567ffffffffffffffff811115611af457600080fd5b611b0089828a016119a3565b945050606087013567ffffffffffffffff811115611b1d57600080fd5b611b2989828a016119a3565b935050608087013567ffffffffffffffff811115611b4657600080fd5b611b5289828a016119a3565b92505060a0611b6389828a01611a49565b9150509295509295509295565b60008060408385031215611b8357600080fd5b6000611b9185828601611964565b9250506020611ba285828601611a49565b9150509250929050565b60008060408385031215611bbf57600080fd5b600083013567ffffffffffffffff811115611bd957600080fd5b611be5858286016119a3565b925050602083013567ffffffffffffffff811115611c0257600080fd5b611c0e85828601611979565b9150509250929050565b611c2181611f7a565b82525050565b611c3081611f7a565b82525050565b6000611c4182611f4d565b611c4b8185611f58565b9350611c5b818560208601611fc5565b611c6481612131565b840191505092915050565b6000611c7a82611f4d565b611c848185611f69565b9350611c94818560208601611fc5565b611c9d81612131565b840191505092915050565b600060c083016000830151611cc06000860182611c18565b5060208301518482036020860152611cd88282611c36565b91505060408301518482036040860152611cf28282611c36565b91505060608301518482036060860152611d0c8282611c36565b91505060808301518482036080860152611d268282611c36565b91505060a0830151611d3b60a0860182611d46565b508091505092915050565b611d4f81611fac565b82525050565b611d5e81611fac565b82525050565b600060c082019050611d796000830189611c27565b8181036020830152611d8b8188611c6f565b90508181036040830152611d9f8187611c6f565b90508181036060830152611db38186611c6f565b90508181036080830152611dc78185611c6f565b9050611dd660a0830184611d55565b979650505050505050565b60006020820190508181036000830152611dfb8184611c6f565b905092915050565b60006080820190508181036000830152611e1d8187611c6f565b90508181036020830152611e318186611c6f565b90508181036040830152611e458185611c6f565b90508181036060830152611e598184611c6f565b905095945050505050565b60006060820190508181036000830152611e7e8186611ca8565b90508181036020830152611e928185611c6f565b90508181036040830152611ea68184611c6f565b9050949350505050565b6000602082019050611ec56000830184611d55565b92915050565b6000611ed5611ee6565b9050611ee1828261202a565b919050565b6000604051905090565b600067ffffffffffffffff821115611f0b57611f0a612102565b5b602082029050602081019050919050565b600067ffffffffffffffff821115611f3757611f36612102565b5b611f4082612131565b9050602081019050919050565b600081519050919050565b600082825260208201905092915050565b600082825260208201905092915050565b6000611f8582611f8c565b9050919050565b600073ffffffffffffffffffffffffffffffffffffffff82169050919050565b6000819050919050565b82818337600083830152505050565b60005b83811015611fe3578082015181840152602081019050611fc8565b83811115611ff2576000848401525b50505050565b6000600282049050600182168061201057607f821691505b60208210811415612024576120236120d3565b5b50919050565b61203382612131565b810181811067ffffffffffffffff8211171561205257612051612102565b5b80604052505050565b600061206682611fac565b91507fffffffffffffffffffffffffffffffffffffffffffffffffffffffffffffffff821415612099576120986120a4565b5b600182019050919050565b7f4e487b7100000000000000000000000000000000000000000000000000000000600052601160045260246000fd5b7f4e487b7100000000000000000000000000000000000000000000000000000000600052602260045260246000fd5b7f4e487b7100000000000000000000000000000000000000000000000000000000600052604160045260246000fd5b6000601f19601f8301169050919050565b61214b81611f7a565b811461215657600080fd5b50565b61216281611fac565b811461216d57600080fd5b5056fea2646970667358221220563f1253b8657733f4fb47e922599aab96578a8c591d4624d062c1373482464864736f6c63430008040033",
  "immutableReferences": {},
  "source": "// SPDX-License-Identifier: GPL-3.0\r\npragma solidity >=0.7.0 <0.9.0;\r\n\r\ncontract RecetaMedica {\r\n\r\n    struct Receta {\r\n        Paciente paciente;\r\n        string diagnostico;\r\n        string indicacionesExtras;\r\n        Medicina[] medicinas;\r\n    }\r\n\r\n    struct Rec1 {\r\n        string diagnostico;\r\n        Medicina[] medicinas;\r\n    }\r\n\r\n    struct Medico {\r\n        string cedulaProfesional;\r\n        string nombres;\r\n        string apellidos;\r\n        string especialidad;\r\n    }\r\n\r\n    struct Paciente {\r\n        address cuentaPaciente;\r\n        string cedula;\r\n        string nombres;\r\n        string apellidos;\r\n        string correo;\r\n        uint edad;\r\n    }\r\n\r\n    struct Medicina {\r\n        string nombreMedicina;\r\n        string indicacion;\r\n    }\r\n\r\n    mapping(address => Rec1) public tes;\r\n    mapping(address => Rec1[]) public recPorDoctor;\r\n    mapping(address => uint) public recTotalesPorDoctor;\r\n\r\n    mapping(address => Receta[]) public recetaPorDoctor;\r\n    mapping(address => Receta[]) public recetaPorPaciente;\r\n    mapping(address => Paciente[]) public pacientesPorDoctor;\r\n    mapping(address => uint) public pacientesTotalesPorDoctor;\r\n    mapping(address => uint) public recetasTotalesPorDoctor;\r\n    mapping(address => uint) public recetasTotalesPorPaciente;\r\n    mapping(address => Medico) public medicos;\r\n\r\n    constructor(){\r\n        //Doctores pre-existentes\r\n        medicos[0x0DF3c5E1e60A27f02D9d0FF8730c99A73D924Fc3] = Medico(\"11111111\", \"Patricio\", \"Estrella\", \"General\");\r\n        medicos[0xF5B223A069ebfDc5D491b94fB50C8be0B063CB65] = Medico(\"22222222\", \"Bob\", \"Sponja\", \"General\");\r\n    }\r\n\r\n    function registrarPaciente(\r\n        address _cuentaPaciente,\r\n        string memory _cedula,\r\n        string memory _nombre,\r\n        string memory _apellido,\r\n        string memory _correo,\r\n        uint _edad\r\n    ) public {\r\n        pacientesPorDoctor[msg.sender].push(Paciente(_cuentaPaciente, _cedula, _nombre, _apellido, _correo, _edad));\r\n        pacientesTotalesPorDoctor[msg.sender] ++;\r\n    }\r\n\r\n    Medicina[]  medicinaAux;\r\n\r\n    function registrarReceta(string memory _diagnostico,\r\n        Medicina[] memory _medicinas\r\n    ) public {\r\n        tes[msg.sender].diagnostico=_diagnostico;\r\n        for (uint j = 0; j < _medicinas.length; j++) {\r\n            tes[msg.sender].medicinas.push(Medicina(_medicinas[j].nombreMedicina, _medicinas[j].indicacion));\r\n        }\r\n        recPorDoctor[msg.sender].push(tes[msg.sender]);\r\n        recTotalesPorDoctor[msg.sender]++;\r\n    }\r\n}\r\n",
  "sourcePath": "C:/Users/Mickmaxy/Documents/GitHub/dapp-recetas-medicas/contracts/RecetaMedica.sol",
  "compiler": {
    "name": "solc",
    "version": "0.8.4+commit.c7e474f2.Emscripten.clang"
  },
  "schemaVersion": "3.4.1",
  "updatedAt": "2021-07-21T06:51:16.084Z",
  "devdoc": {
    "kind": "dev",
    "methods": {},
    "version": 1
  },
  "userdoc": {
    "kind": "user",
    "methods": {},
    "version": 1
  }
}