{
  "contractName": "RecetaMedica",
  "abi": [
    {
      "inputs": [],
      "stateMutability": "nonpayable",
      "type": "constructor"
    },
    {
      "inputs": [
        {
          "internalType": "address",
          "name": "",
          "type": "address"
        }
      ],
      "name": "medicos",
      "outputs": [
        {
          "internalType": "string",
          "name": "cedulaProfesional",
          "type": "string"
        },
        {
          "internalType": "string",
          "name": "nombres",
          "type": "string"
        },
        {
          "internalType": "string",
          "name": "apellidos",
          "type": "string"
        },
        {
          "internalType": "string",
          "name": "especialidad",
          "type": "string"
        }
      ],
      "stateMutability": "view",
      "type": "function",
      "constant": true
    },
    {
      "inputs": [
        {
          "internalType": "uint256",
          "name": "",
          "type": "uint256"
        }
      ],
      "name": "pacientes",
      "outputs": [
        {
          "internalType": "string",
          "name": "cedula",
          "type": "string"
        },
        {
          "internalType": "string",
          "name": "nombres",
          "type": "string"
        },
        {
          "internalType": "string",
          "name": "apellidos",
          "type": "string"
        },
        {
          "internalType": "string",
          "name": "correo",
          "type": "string"
        },
        {
          "internalType": "uint256",
          "name": "edad",
          "type": "uint256"
        }
      ],
      "stateMutability": "view",
      "type": "function",
      "constant": true
    },
    {
      "inputs": [
        {
          "internalType": "address",
          "name": "",
          "type": "address"
        },
        {
          "internalType": "uint256",
          "name": "",
          "type": "uint256"
        }
      ],
      "name": "pacientesPorDoctor",
      "outputs": [
        {
          "internalType": "string",
          "name": "cedula",
          "type": "string"
        },
        {
          "internalType": "string",
          "name": "nombres",
          "type": "string"
        },
        {
          "internalType": "string",
          "name": "apellidos",
          "type": "string"
        },
        {
          "internalType": "string",
          "name": "correo",
          "type": "string"
        },
        {
          "internalType": "uint256",
          "name": "edad",
          "type": "uint256"
        }
      ],
      "stateMutability": "view",
      "type": "function",
      "constant": true
    },
    {
      "inputs": [
        {
          "internalType": "address",
          "name": "",
          "type": "address"
        }
      ],
      "name": "pacientesTotalesPorDoctor",
      "outputs": [
        {
          "internalType": "uint256",
          "name": "",
          "type": "uint256"
        }
      ],
      "stateMutability": "view",
      "type": "function",
      "constant": true
    },
    {
      "inputs": [
        {
          "internalType": "string",
          "name": "_cedula",
          "type": "string"
        },
        {
          "internalType": "string",
          "name": "_nombre",
          "type": "string"
        },
        {
          "internalType": "string",
          "name": "_apellido",
          "type": "string"
        },
        {
          "internalType": "string",
          "name": "_correo",
          "type": "string"
        },
        {
          "internalType": "uint256",
          "name": "_edad",
          "type": "uint256"
        }
      ],
      "name": "registrarPaciente",
      "outputs": [],
      "stateMutability": "nonpayable",
      "type": "function"
    }
  ],
  "bytecode": "0x60806040523480156200001157600080fd5b5060405180608001604052806040518060400160405280600881526020017f313131313131313100000000000000000000000000000000000000000000000081525081526020016040518060400160405280600881526020017f506174726963696f00000000000000000000000000000000000000000000000081525081526020016040518060400160405280600881526020017f45737472656c6c6100000000000000000000000000000000000000000000000081525081526020016040518060400160405280600781526020017f47656e6572616c0000000000000000000000000000000000000000000000000081525081525060036000730df3c5e1e60a27f02d9d0ff8730c99a73d924fc373ffffffffffffffffffffffffffffffffffffffff1673ffffffffffffffffffffffffffffffffffffffff168152602001908152602001600020600082015181600001908051906020019062000178929190620003a6565b50602082015181600101908051906020019062000197929190620003a6565b506040820151816002019080519060200190620001b6929190620003a6565b506060820151816003019080519060200190620001d5929190620003a6565b5090505060405180608001604052806040518060400160405280600881526020017f323232323232323200000000000000000000000000000000000000000000000081525081526020016040518060400160405280600381526020017f426f62000000000000000000000000000000000000000000000000000000000081525081526020016040518060400160405280600681526020017f53706f6e6a61000000000000000000000000000000000000000000000000000081525081526020016040518060400160405280600781526020017f47656e6572616c000000000000000000000000000000000000000000000000008152508152506003600073f5b223a069ebfdc5d491b94fb50c8be0b063cb6573ffffffffffffffffffffffffffffffffffffffff1673ffffffffffffffffffffffffffffffffffffffff16815260200190815260200160002060008201518160000190805190602001906200033f929190620003a6565b5060208201518160010190805190602001906200035e929190620003a6565b5060408201518160020190805190602001906200037d929190620003a6565b5060608201518160030190805190602001906200039c929190620003a6565b50905050620004bb565b828054620003b49062000456565b90600052602060002090601f016020900481019282620003d8576000855562000424565b82601f10620003f357805160ff191683800117855562000424565b8280016001018555821562000424579182015b828111156200042357825182559160200191906001019062000406565b5b50905062000433919062000437565b5090565b5b808211156200045257600081600090555060010162000438565b5090565b600060028204905060018216806200046f57607f821691505b602082108114156200048657620004856200048c565b5b50919050565b7f4e487b7100000000000000000000000000000000000000000000000000000000600052602260045260246000fd5b61105a80620004cb6000396000f3fe608060405234801561001057600080fd5b50600436106100575760003560e01c80634c579ab91461005c5780634dfa186414610078578063764b78e2146100ab5780637d10d471146100df578063d842abab1461010f575b600080fd5b61007660048036038101906100719190610b89565b610143565b005b610092600480360381019061008d9190610b24565b6102ae565b6040516100a29493929190610cd1565b60405180910390f35b6100c560048036038101906100c09190610b4d565b6104fe565b6040516100d6959493929190610d32565b60405180910390f35b6100f960048036038101906100f49190610b24565b610771565b6040516101069190610da1565b60405180910390f35b61012960048036038101906101249190610c60565b610789565b60405161013a959493929190610d32565b60405180910390f35b600160003373ffffffffffffffffffffffffffffffffffffffff1673ffffffffffffffffffffffffffffffffffffffff1681526020019081526020016000206040518060a0016040528087815260200186815260200185815260200184815260200183815250908060018154018082558091505060019003906000526020600020906005020160009091909190915060008201518160000190805190602001906101ee9291906109ef565b50602082015181600101908051906020019061020b9291906109ef565b5060408201518160020190805190602001906102289291906109ef565b5060608201518160030190805190602001906102459291906109ef565b50608082015181600401555050600260003373ffffffffffffffffffffffffffffffffffffffff1673ffffffffffffffffffffffffffffffffffffffff16815260200190815260200160002060008154809291906102a290610f0f565b91905055505050505050565b60036020528060005260406000206000915090508060000180546102d190610eac565b80601f01602080910402602001604051908101604052809291908181526020018280546102fd90610eac565b801561034a5780601f1061031f5761010080835404028352916020019161034a565b820191906000526020600020905b81548152906001019060200180831161032d57829003601f168201915b50505050509080600101805461035f90610eac565b80601f016020809104026020016040519081016040528092919081815260200182805461038b90610eac565b80156103d85780601f106103ad576101008083540402835291602001916103d8565b820191906000526020600020905b8154815290600101906020018083116103bb57829003601f168201915b5050505050908060020180546103ed90610eac565b80601f016020809104026020016040519081016040528092919081815260200182805461041990610eac565b80156104665780601f1061043b57610100808354040283529160200191610466565b820191906000526020600020905b81548152906001019060200180831161044957829003601f168201915b50505050509080600301805461047b90610eac565b80601f01602080910402602001604051908101604052809291908181526020018280546104a790610eac565b80156104f45780601f106104c9576101008083540402835291602001916104f4565b820191906000526020600020905b8154815290600101906020018083116104d757829003601f168201915b5050505050905084565b6001602052816000526040600020818154811061051a57600080fd5b90600052602060002090600502016000915091505080600001805461053e90610eac565b80601f016020809104026020016040519081016040528092919081815260200182805461056a90610eac565b80156105b75780601f1061058c576101008083540402835291602001916105b7565b820191906000526020600020905b81548152906001019060200180831161059a57829003601f168201915b5050505050908060010180546105cc90610eac565b80601f01602080910402602001604051908101604052809291908181526020018280546105f890610eac565b80156106455780601f1061061a57610100808354040283529160200191610645565b820191906000526020600020905b81548152906001019060200180831161062857829003601f168201915b50505050509080600201805461065a90610eac565b80601f016020809104026020016040519081016040528092919081815260200182805461068690610eac565b80156106d35780601f106106a8576101008083540402835291602001916106d3565b820191906000526020600020905b8154815290600101906020018083116106b657829003601f168201915b5050505050908060030180546106e890610eac565b80601f016020809104026020016040519081016040528092919081815260200182805461071490610eac565b80156107615780601f1061073657610100808354040283529160200191610761565b820191906000526020600020905b81548152906001019060200180831161074457829003601f168201915b5050505050908060040154905085565b60026020528060005260406000206000915090505481565b6000818154811061079957600080fd5b90600052602060002090600502016000915090508060000180546107bc90610eac565b80601f01602080910402602001604051908101604052809291908181526020018280546107e890610eac565b80156108355780601f1061080a57610100808354040283529160200191610835565b820191906000526020600020905b81548152906001019060200180831161081857829003601f168201915b50505050509080600101805461084a90610eac565b80601f016020809104026020016040519081016040528092919081815260200182805461087690610eac565b80156108c35780601f10610898576101008083540402835291602001916108c3565b820191906000526020600020905b8154815290600101906020018083116108a657829003601f168201915b5050505050908060020180546108d890610eac565b80601f016020809104026020016040519081016040528092919081815260200182805461090490610eac565b80156109515780601f1061092657610100808354040283529160200191610951565b820191906000526020600020905b81548152906001019060200180831161093457829003601f168201915b50505050509080600301805461096690610eac565b80601f016020809104026020016040519081016040528092919081815260200182805461099290610eac565b80156109df5780601f106109b4576101008083540402835291602001916109df565b820191906000526020600020905b8154815290600101906020018083116109c257829003601f168201915b5050505050908060040154905085565b8280546109fb90610eac565b90600052602060002090601f016020900481019282610a1d5760008555610a64565b82601f10610a3657805160ff1916838001178555610a64565b82800160010185558215610a64579182015b82811115610a63578251825591602001919060010190610a48565b5b509050610a719190610a75565b5090565b5b80821115610a8e576000816000905550600101610a76565b5090565b6000610aa5610aa084610de1565b610dbc565b905082815260208101848484011115610abd57600080fd5b610ac8848285610e6a565b509392505050565b600081359050610adf81610ff6565b92915050565b600082601f830112610af657600080fd5b8135610b06848260208601610a92565b91505092915050565b600081359050610b1e8161100d565b92915050565b600060208284031215610b3657600080fd5b6000610b4484828501610ad0565b91505092915050565b60008060408385031215610b6057600080fd5b6000610b6e85828601610ad0565b9250506020610b7f85828601610b0f565b9150509250929050565b600080600080600060a08688031215610ba157600080fd5b600086013567ffffffffffffffff811115610bbb57600080fd5b610bc788828901610ae5565b955050602086013567ffffffffffffffff811115610be457600080fd5b610bf088828901610ae5565b945050604086013567ffffffffffffffff811115610c0d57600080fd5b610c1988828901610ae5565b935050606086013567ffffffffffffffff811115610c3657600080fd5b610c4288828901610ae5565b9250506080610c5388828901610b0f565b9150509295509295909350565b600060208284031215610c7257600080fd5b6000610c8084828501610b0f565b91505092915050565b6000610c9482610e12565b610c9e8185610e1d565b9350610cae818560208601610e79565b610cb781610fe5565b840191505092915050565b610ccb81610e60565b82525050565b60006080820190508181036000830152610ceb8187610c89565b90508181036020830152610cff8186610c89565b90508181036040830152610d138185610c89565b90508181036060830152610d278184610c89565b905095945050505050565b600060a0820190508181036000830152610d4c8188610c89565b90508181036020830152610d608187610c89565b90508181036040830152610d748186610c89565b90508181036060830152610d888185610c89565b9050610d976080830184610cc2565b9695505050505050565b6000602082019050610db66000830184610cc2565b92915050565b6000610dc6610dd7565b9050610dd28282610ede565b919050565b6000604051905090565b600067ffffffffffffffff821115610dfc57610dfb610fb6565b5b610e0582610fe5565b9050602081019050919050565b600081519050919050565b600082825260208201905092915050565b6000610e3982610e40565b9050919050565b600073ffffffffffffffffffffffffffffffffffffffff82169050919050565b6000819050919050565b82818337600083830152505050565b60005b83811015610e97578082015181840152602081019050610e7c565b83811115610ea6576000848401525b50505050565b60006002820490506001821680610ec457607f821691505b60208210811415610ed857610ed7610f87565b5b50919050565b610ee782610fe5565b810181811067ffffffffffffffff82111715610f0657610f05610fb6565b5b80604052505050565b6000610f1a82610e60565b91507fffffffffffffffffffffffffffffffffffffffffffffffffffffffffffffffff821415610f4d57610f4c610f58565b5b600182019050919050565b7f4e487b7100000000000000000000000000000000000000000000000000000000600052601160045260246000fd5b7f4e487b7100000000000000000000000000000000000000000000000000000000600052602260045260246000fd5b7f4e487b7100000000000000000000000000000000000000000000000000000000600052604160045260246000fd5b6000601f19601f8301169050919050565b610fff81610e2e565b811461100a57600080fd5b50565b61101681610e60565b811461102157600080fd5b5056fea2646970667358221220cd1b3eb498974c8bb6883531a1d650140e84bc65390b67d1748951b95fa4e53464736f6c63430008040033",
  "immutableReferences": {},
  "source": "// SPDX-License-Identifier: GPL-3.0\r\npragma solidity >=0.7.0 <0.9.0;\r\n\r\ncontract RecetaMedica {\r\n\r\n    struct Medico {\r\n        string cedulaProfesional;\r\n        string nombres;\r\n        string apellidos;\r\n        string especialidad;\r\n    }\r\n\r\n    struct Paciente {\r\n        string cedula;\r\n        string nombres;\r\n        string apellidos;\r\n        string correo;\r\n        uint edad;\r\n    }\r\n\r\n    Paciente[] public pacientes;\r\n    mapping(address => Paciente[]) public pacientesPorDoctor;\r\n    mapping(address => uint) public pacientesTotalesPorDoctor;\r\n    mapping(address => Medico) public medicos;\r\n\r\n    constructor(){\r\n        //Doctores pre-existentes\r\n        medicos[0x0DF3c5E1e60A27f02D9d0FF8730c99A73D924Fc3] = Medico(\"11111111\", \"Patricio\", \"Estrella\", \"General\");\r\n        medicos[0xF5B223A069ebfDc5D491b94fB50C8be0B063CB65] = Medico(\"22222222\", \"Bob\", \"Sponja\", \"General\");\r\n    }\r\n\r\n    function registrarPaciente(\r\n        string memory _cedula,\r\n        string memory _nombre,\r\n        string memory _apellido,\r\n        string memory _correo,\r\n        uint _edad) public {\r\n        pacientesPorDoctor[msg.sender].push(Paciente(_cedula, _nombre, _apellido, _correo, _edad));\r\n        pacientesTotalesPorDoctor[msg.sender] ++;\r\n    }\r\n\r\n}\r\n",
  "sourcePath": "C:/Users/Mickmaxy/Documents/GitHub/dapp-recetas-medicas/contracts/RecetaMedica.sol",
  "compiler": {
    "name": "solc",
    "version": "0.8.4+commit.c7e474f2.Emscripten.clang"
  },
  "schemaVersion": "3.4.1",
  "updatedAt": "2021-07-19T03:23:34.857Z",
  "networkType": "ethereum",
  "devdoc": {
    "kind": "dev",
    "methods": {},
    "version": 1
  },
  "userdoc": {
    "kind": "user",
    "methods": {},
    "version": 1
  }
}