{
  "contractName": "RecetaMedica",
  "abi": [
    {
      "inputs": [],
      "stateMutability": "nonpayable",
      "type": "constructor"
    },
    {
      "inputs": [
        {
          "internalType": "address",
          "name": "",
          "type": "address"
        }
      ],
      "name": "medicos",
      "outputs": [
        {
          "internalType": "string",
          "name": "cedulaProfesional",
          "type": "string"
        },
        {
          "internalType": "string",
          "name": "nombres",
          "type": "string"
        },
        {
          "internalType": "string",
          "name": "apellidos",
          "type": "string"
        },
        {
          "internalType": "string",
          "name": "especialidad",
          "type": "string"
        }
      ],
      "stateMutability": "view",
      "type": "function",
      "constant": true
    },
    {
      "inputs": [
        {
          "internalType": "address",
          "name": "",
          "type": "address"
        }
      ],
      "name": "pacientes",
      "outputs": [
        {
          "internalType": "address",
          "name": "cuentaPaciente",
          "type": "address"
        },
        {
          "internalType": "string",
          "name": "cedula",
          "type": "string"
        },
        {
          "internalType": "string",
          "name": "nombres",
          "type": "string"
        },
        {
          "internalType": "string",
          "name": "apellidos",
          "type": "string"
        },
        {
          "internalType": "string",
          "name": "correo",
          "type": "string"
        },
        {
          "internalType": "uint8",
          "name": "edad",
          "type": "uint8"
        }
      ],
      "stateMutability": "view",
      "type": "function",
      "constant": true
    },
    {
      "inputs": [
        {
          "internalType": "address",
          "name": "",
          "type": "address"
        },
        {
          "internalType": "uint256",
          "name": "",
          "type": "uint256"
        }
      ],
      "name": "pacientesPorDoctor",
      "outputs": [
        {
          "internalType": "address",
          "name": "cuentaPaciente",
          "type": "address"
        },
        {
          "internalType": "string",
          "name": "cedula",
          "type": "string"
        },
        {
          "internalType": "string",
          "name": "nombres",
          "type": "string"
        },
        {
          "internalType": "string",
          "name": "apellidos",
          "type": "string"
        },
        {
          "internalType": "string",
          "name": "correo",
          "type": "string"
        },
        {
          "internalType": "uint8",
          "name": "edad",
          "type": "uint8"
        }
      ],
      "stateMutability": "view",
      "type": "function",
      "constant": true
    },
    {
      "inputs": [
        {
          "internalType": "address",
          "name": "",
          "type": "address"
        }
      ],
      "name": "pacientesTotalesPorDoctor",
      "outputs": [
        {
          "internalType": "uint256",
          "name": "",
          "type": "uint256"
        }
      ],
      "stateMutability": "view",
      "type": "function",
      "constant": true
    },
    {
      "inputs": [
        {
          "internalType": "address",
          "name": "",
          "type": "address"
        },
        {
          "internalType": "uint256",
          "name": "",
          "type": "uint256"
        }
      ],
      "name": "recetasPorDoctor",
      "outputs": [
        {
          "components": [
            {
              "internalType": "string",
              "name": "cedulaProfesional",
              "type": "string"
            },
            {
              "internalType": "string",
              "name": "nombres",
              "type": "string"
            },
            {
              "internalType": "string",
              "name": "apellidos",
              "type": "string"
            },
            {
              "internalType": "string",
              "name": "especialidad",
              "type": "string"
            }
          ],
          "internalType": "struct RecetaMedica.Medico",
          "name": "medico",
          "type": "tuple"
        },
        {
          "components": [
            {
              "internalType": "address",
              "name": "cuentaPaciente",
              "type": "address"
            },
            {
              "internalType": "string",
              "name": "cedula",
              "type": "string"
            },
            {
              "internalType": "string",
              "name": "nombres",
              "type": "string"
            },
            {
              "internalType": "string",
              "name": "apellidos",
              "type": "string"
            },
            {
              "internalType": "string",
              "name": "correo",
              "type": "string"
            },
            {
              "internalType": "uint8",
              "name": "edad",
              "type": "uint8"
            }
          ],
          "internalType": "struct RecetaMedica.Paciente",
          "name": "paciente",
          "type": "tuple"
        },
        {
          "internalType": "string",
          "name": "diagnostico",
          "type": "string"
        },
        {
          "internalType": "string",
          "name": "indicacionesExtras",
          "type": "string"
        },
        {
          "internalType": "uint256",
          "name": "fecha",
          "type": "uint256"
        }
      ],
      "stateMutability": "view",
      "type": "function",
      "constant": true
    },
    {
      "inputs": [
        {
          "internalType": "address",
          "name": "",
          "type": "address"
        },
        {
          "internalType": "uint256",
          "name": "",
          "type": "uint256"
        }
      ],
      "name": "recetasPorPaciente",
      "outputs": [
        {
          "components": [
            {
              "internalType": "string",
              "name": "cedulaProfesional",
              "type": "string"
            },
            {
              "internalType": "string",
              "name": "nombres",
              "type": "string"
            },
            {
              "internalType": "string",
              "name": "apellidos",
              "type": "string"
            },
            {
              "internalType": "string",
              "name": "especialidad",
              "type": "string"
            }
          ],
          "internalType": "struct RecetaMedica.Medico",
          "name": "medico",
          "type": "tuple"
        },
        {
          "components": [
            {
              "internalType": "address",
              "name": "cuentaPaciente",
              "type": "address"
            },
            {
              "internalType": "string",
              "name": "cedula",
              "type": "string"
            },
            {
              "internalType": "string",
              "name": "nombres",
              "type": "string"
            },
            {
              "internalType": "string",
              "name": "apellidos",
              "type": "string"
            },
            {
              "internalType": "string",
              "name": "correo",
              "type": "string"
            },
            {
              "internalType": "uint8",
              "name": "edad",
              "type": "uint8"
            }
          ],
          "internalType": "struct RecetaMedica.Paciente",
          "name": "paciente",
          "type": "tuple"
        },
        {
          "internalType": "string",
          "name": "diagnostico",
          "type": "string"
        },
        {
          "internalType": "string",
          "name": "indicacionesExtras",
          "type": "string"
        },
        {
          "internalType": "uint256",
          "name": "fecha",
          "type": "uint256"
        }
      ],
      "stateMutability": "view",
      "type": "function",
      "constant": true
    },
    {
      "inputs": [
        {
          "internalType": "address",
          "name": "",
          "type": "address"
        }
      ],
      "name": "recetasTotalesPorDoctor",
      "outputs": [
        {
          "internalType": "uint256",
          "name": "",
          "type": "uint256"
        }
      ],
      "stateMutability": "view",
      "type": "function",
      "constant": true
    },
    {
      "inputs": [
        {
          "internalType": "address",
          "name": "",
          "type": "address"
        }
      ],
      "name": "recetasTotalesPorPaciente",
      "outputs": [
        {
          "internalType": "uint256",
          "name": "",
          "type": "uint256"
        }
      ],
      "stateMutability": "view",
      "type": "function",
      "constant": true
    },
    {
      "inputs": [
        {
          "components": [
            {
              "internalType": "address",
              "name": "cuentaPaciente",
              "type": "address"
            },
            {
              "internalType": "string",
              "name": "cedula",
              "type": "string"
            },
            {
              "internalType": "string",
              "name": "nombres",
              "type": "string"
            },
            {
              "internalType": "string",
              "name": "apellidos",
              "type": "string"
            },
            {
              "internalType": "string",
              "name": "correo",
              "type": "string"
            },
            {
              "internalType": "uint8",
              "name": "edad",
              "type": "uint8"
            }
          ],
          "internalType": "struct RecetaMedica.Paciente",
          "name": "_paciente",
          "type": "tuple"
        }
      ],
      "name": "registrarPaciente",
      "outputs": [],
      "stateMutability": "nonpayable",
      "type": "function"
    },
    {
      "inputs": [
        {
          "components": [
            {
              "internalType": "string",
              "name": "cedulaProfesional",
              "type": "string"
            },
            {
              "internalType": "string",
              "name": "nombres",
              "type": "string"
            },
            {
              "internalType": "string",
              "name": "apellidos",
              "type": "string"
            },
            {
              "internalType": "string",
              "name": "especialidad",
              "type": "string"
            }
          ],
          "internalType": "struct RecetaMedica.Medico",
          "name": "_medico",
          "type": "tuple"
        },
        {
          "components": [
            {
              "internalType": "address",
              "name": "cuentaPaciente",
              "type": "address"
            },
            {
              "internalType": "string",
              "name": "cedula",
              "type": "string"
            },
            {
              "internalType": "string",
              "name": "nombres",
              "type": "string"
            },
            {
              "internalType": "string",
              "name": "apellidos",
              "type": "string"
            },
            {
              "internalType": "string",
              "name": "correo",
              "type": "string"
            },
            {
              "internalType": "uint8",
              "name": "edad",
              "type": "uint8"
            }
          ],
          "internalType": "struct RecetaMedica.Paciente",
          "name": "_paciente",
          "type": "tuple"
        },
        {
          "internalType": "string",
          "name": "_diagnostico",
          "type": "string"
        },
        {
          "internalType": "string",
          "name": "_indicacionesExtras",
          "type": "string"
        },
        {
          "components": [
            {
              "internalType": "string",
              "name": "nombreMedicina",
              "type": "string"
            },
            {
              "internalType": "string",
              "name": "indicacion",
              "type": "string"
            }
          ],
          "internalType": "struct RecetaMedica.Medicina[]",
          "name": "_medicinas",
          "type": "tuple[]"
        }
      ],
      "name": "registrarReceta",
      "outputs": [],
      "stateMutability": "nonpayable",
      "type": "function"
    },
    {
      "inputs": [
        {
          "internalType": "address",
          "name": "cuentaDoctor",
          "type": "address"
        },
        {
          "internalType": "uint256",
          "name": "i",
          "type": "uint256"
        }
      ],
      "name": "getRecetasPorDoctor",
      "outputs": [
        {
          "components": [
            {
              "internalType": "string",
              "name": "cedulaProfesional",
              "type": "string"
            },
            {
              "internalType": "string",
              "name": "nombres",
              "type": "string"
            },
            {
              "internalType": "string",
              "name": "apellidos",
              "type": "string"
            },
            {
              "internalType": "string",
              "name": "especialidad",
              "type": "string"
            }
          ],
          "internalType": "struct RecetaMedica.Medico",
          "name": "",
          "type": "tuple"
        },
        {
          "components": [
            {
              "internalType": "address",
              "name": "cuentaPaciente",
              "type": "address"
            },
            {
              "internalType": "string",
              "name": "cedula",
              "type": "string"
            },
            {
              "internalType": "string",
              "name": "nombres",
              "type": "string"
            },
            {
              "internalType": "string",
              "name": "apellidos",
              "type": "string"
            },
            {
              "internalType": "string",
              "name": "correo",
              "type": "string"
            },
            {
              "internalType": "uint8",
              "name": "edad",
              "type": "uint8"
            }
          ],
          "internalType": "struct RecetaMedica.Paciente",
          "name": "",
          "type": "tuple"
        },
        {
          "internalType": "string",
          "name": "",
          "type": "string"
        },
        {
          "internalType": "string",
          "name": "",
          "type": "string"
        },
        {
          "components": [
            {
              "internalType": "string",
              "name": "nombreMedicina",
              "type": "string"
            },
            {
              "internalType": "string",
              "name": "indicacion",
              "type": "string"
            }
          ],
          "internalType": "struct RecetaMedica.Medicina[]",
          "name": "",
          "type": "tuple[]"
        },
        {
          "internalType": "uint256",
          "name": "",
          "type": "uint256"
        }
      ],
      "stateMutability": "view",
      "type": "function",
      "constant": true
    },
    {
      "inputs": [
        {
          "internalType": "address",
          "name": "cuentaPaciente",
          "type": "address"
        },
        {
          "internalType": "uint256",
          "name": "i",
          "type": "uint256"
        }
      ],
      "name": "getRecetasPorPaciente",
      "outputs": [
        {
          "components": [
            {
              "internalType": "string",
              "name": "cedulaProfesional",
              "type": "string"
            },
            {
              "internalType": "string",
              "name": "nombres",
              "type": "string"
            },
            {
              "internalType": "string",
              "name": "apellidos",
              "type": "string"
            },
            {
              "internalType": "string",
              "name": "especialidad",
              "type": "string"
            }
          ],
          "internalType": "struct RecetaMedica.Medico",
          "name": "",
          "type": "tuple"
        },
        {
          "components": [
            {
              "internalType": "address",
              "name": "cuentaPaciente",
              "type": "address"
            },
            {
              "internalType": "string",
              "name": "cedula",
              "type": "string"
            },
            {
              "internalType": "string",
              "name": "nombres",
              "type": "string"
            },
            {
              "internalType": "string",
              "name": "apellidos",
              "type": "string"
            },
            {
              "internalType": "string",
              "name": "correo",
              "type": "string"
            },
            {
              "internalType": "uint8",
              "name": "edad",
              "type": "uint8"
            }
          ],
          "internalType": "struct RecetaMedica.Paciente",
          "name": "",
          "type": "tuple"
        },
        {
          "internalType": "string",
          "name": "",
          "type": "string"
        },
        {
          "internalType": "string",
          "name": "",
          "type": "string"
        },
        {
          "components": [
            {
              "internalType": "string",
              "name": "nombreMedicina",
              "type": "string"
            },
            {
              "internalType": "string",
              "name": "indicacion",
              "type": "string"
            }
          ],
          "internalType": "struct RecetaMedica.Medicina[]",
          "name": "",
          "type": "tuple[]"
        },
        {
          "internalType": "uint256",
          "name": "",
          "type": "uint256"
        }
      ],
      "stateMutability": "view",
      "type": "function",
      "constant": true
    }
  ],
  "bytecode": "0x60806040523480156200001157600080fd5b5060405180608001604052806040518060400160405280600881526020017f313131313131313100000000000000000000000000000000000000000000000081525081526020016040518060400160405280600881526020017f506174726963696f00000000000000000000000000000000000000000000000081525081526020016040518060400160405280600881526020017f45737472656c6c6100000000000000000000000000000000000000000000000081525081526020016040518060400160405280600781526020017f47656e6572616c00000000000000000000000000000000000000000000000000815250815250600080730df3c5e1e60a27f02d9d0ff8730c99a73d924fc373ffffffffffffffffffffffffffffffffffffffff1673ffffffffffffffffffffffffffffffffffffffff168152602001908152602001600020600082015181600001908051906020019062000177929190620003a4565b50602082015181600101908051906020019062000196929190620003a4565b506040820151816002019080519060200190620001b5929190620003a4565b506060820151816003019080519060200190620001d4929190620003a4565b5090505060405180608001604052806040518060400160405280600881526020017f323232323232323200000000000000000000000000000000000000000000000081525081526020016040518060400160405280600381526020017f426f62000000000000000000000000000000000000000000000000000000000081525081526020016040518060400160405280600681526020017f53706f6e6a61000000000000000000000000000000000000000000000000000081525081526020016040518060400160405280600781526020017f47656e6572616c0000000000000000000000000000000000000000000000000081525081525060008073f5b223a069ebfdc5d491b94fb50c8be0b063cb6573ffffffffffffffffffffffffffffffffffffffff1673ffffffffffffffffffffffffffffffffffffffff16815260200190815260200160002060008201518160000190805190602001906200033d929190620003a4565b5060208201518160010190805190602001906200035c929190620003a4565b5060408201518160020190805190602001906200037b929190620003a4565b5060608201518160030190805190602001906200039a929190620003a4565b50905050620004b9565b828054620003b29062000454565b90600052602060002090601f016020900481019282620003d6576000855562000422565b82601f10620003f157805160ff191683800117855562000422565b8280016001018555821562000422579182015b828111156200042157825182559160200191906001019062000404565b5b50905062000431919062000435565b5090565b5b808211156200045057600081600090555060010162000436565b5090565b600060028204905060018216806200046d57607f821691505b602082108114156200048457620004836200048a565b5b50919050565b7f4e487b7100000000000000000000000000000000000000000000000000000000600052602260045260246000fd5b614c9080620004c96000396000f3fe608060405234801561001057600080fd5b50600436106100b45760003560e01c806387e256021161007157806387e25602146101e95780638c400f641461021e578063bc14b7dc1461023a578063d4ceda571461026f578063f30fcf3f1461028b578063f32f9772146102bb576100b4565b80631a7d4230146100b957806323108301146100e95780634dfa18641461011d57806362b9fb6a14610150578063764b78e2146101845780637d10d471146101b9575b600080fd5b6100d360048036038101906100ce9190614337565b6102f0565b6040516100e0919061493d565b60405180910390f35b61010360048036038101906100fe9190614360565b610308565b6040516101149594939291906148ce565b60405180910390f35b61013760048036038101906101329190614337565b610982565b60405161014794939291906147e9565b60405180910390f35b61016a60048036038101906101659190614360565b610bd2565b60405161017b9594939291906148ce565b60405180910390f35b61019e60048036038101906101999190614360565b61124c565b6040516101b09695949392919061476c565b60405180910390f35b6101d360048036038101906101ce9190614337565b6114f2565b6040516101e0919061493d565b60405180910390f35b61020360048036038101906101fe9190614360565b61150a565b6040516102159695949392919061484a565b60405180910390f35b6102386004803603810190610233919061448b565b61201c565b005b610254600480360381019061024f9190614337565b612317565b6040516102669695949392919061476c565b60405180910390f35b6102896004803603810190610284919061439c565b6125a0565b005b6102a560048036038101906102a09190614337565b613190565b6040516102b2919061493d565b60405180910390f35b6102d560048036038101906102d09190614360565b6131a8565b6040516102e79695949392919061484a565b60405180910390f35b60066020528060005260406000206000915090505481565b6005602052816000526040600020818154811061032457600080fd5b90600052602060002090600e0201600091509150508060000160405180608001604052908160008201805461035890614acb565b80601f016020809104026020016040519081016040528092919081815260200182805461038490614acb565b80156103d15780601f106103a6576101008083540402835291602001916103d1565b820191906000526020600020905b8154815290600101906020018083116103b457829003601f168201915b505050505081526020016001820180546103ea90614acb565b80601f016020809104026020016040519081016040528092919081815260200182805461041690614acb565b80156104635780601f1061043857610100808354040283529160200191610463565b820191906000526020600020905b81548152906001019060200180831161044657829003601f168201915b5050505050815260200160028201805461047c90614acb565b80601f01602080910402602001604051908101604052809291908181526020018280546104a890614acb565b80156104f55780601f106104ca576101008083540402835291602001916104f5565b820191906000526020600020905b8154815290600101906020018083116104d857829003601f168201915b5050505050815260200160038201805461050e90614acb565b80601f016020809104026020016040519081016040528092919081815260200182805461053a90614acb565b80156105875780601f1061055c57610100808354040283529160200191610587565b820191906000526020600020905b81548152906001019060200180831161056a57829003601f168201915b50505050508152505090806004016040518060c00160405290816000820160009054906101000a900473ffffffffffffffffffffffffffffffffffffffff1673ffffffffffffffffffffffffffffffffffffffff1673ffffffffffffffffffffffffffffffffffffffff16815260200160018201805461060690614acb565b80601f016020809104026020016040519081016040528092919081815260200182805461063290614acb565b801561067f5780601f106106545761010080835404028352916020019161067f565b820191906000526020600020905b81548152906001019060200180831161066257829003601f168201915b5050505050815260200160028201805461069890614acb565b80601f01602080910402602001604051908101604052809291908181526020018280546106c490614acb565b80156107115780601f106106e657610100808354040283529160200191610711565b820191906000526020600020905b8154815290600101906020018083116106f457829003601f168201915b5050505050815260200160038201805461072a90614acb565b80601f016020809104026020016040519081016040528092919081815260200182805461075690614acb565b80156107a35780601f10610778576101008083540402835291602001916107a3565b820191906000526020600020905b81548152906001019060200180831161078657829003601f168201915b505050505081526020016004820180546107bc90614acb565b80601f01602080910402602001604051908101604052809291908181526020018280546107e890614acb565b80156108355780601f1061080a57610100808354040283529160200191610835565b820191906000526020600020905b81548152906001019060200180831161081857829003601f168201915b505050505081526020016005820160009054906101000a900460ff1660ff1660ff16815250509080600a01805461086b90614acb565b80601f016020809104026020016040519081016040528092919081815260200182805461089790614acb565b80156108e45780601f106108b9576101008083540402835291602001916108e4565b820191906000526020600020905b8154815290600101906020018083116108c757829003601f168201915b50505050509080600b0180546108f990614acb565b80601f016020809104026020016040519081016040528092919081815260200182805461092590614acb565b80156109725780601f1061094757610100808354040283529160200191610972565b820191906000526020600020905b81548152906001019060200180831161095557829003601f168201915b50505050509080600d0154905085565b60006020528060005260406000206000915090508060000180546109a590614acb565b80601f01602080910402602001604051908101604052809291908181526020018280546109d190614acb565b8015610a1e5780601f106109f357610100808354040283529160200191610a1e565b820191906000526020600020905b815481529060010190602001808311610a0157829003601f168201915b505050505090806001018054610a3390614acb565b80601f0160208091040260200160405190810160405280929190818152602001828054610a5f90614acb565b8015610aac5780601f10610a8157610100808354040283529160200191610aac565b820191906000526020600020905b815481529060010190602001808311610a8f57829003601f168201915b505050505090806002018054610ac190614acb565b80601f0160208091040260200160405190810160405280929190818152602001828054610aed90614acb565b8015610b3a5780601f10610b0f57610100808354040283529160200191610b3a565b820191906000526020600020905b815481529060010190602001808311610b1d57829003601f168201915b505050505090806003018054610b4f90614acb565b80601f0160208091040260200160405190810160405280929190818152602001828054610b7b90614acb565b8015610bc85780601f10610b9d57610100808354040283529160200191610bc8565b820191906000526020600020905b815481529060010190602001808311610bab57829003601f168201915b5050505050905084565b60036020528160005260406000208181548110610bee57600080fd5b90600052602060002090600e02016000915091505080600001604051806080016040529081600082018054610c2290614acb565b80601f0160208091040260200160405190810160405280929190818152602001828054610c4e90614acb565b8015610c9b5780601f10610c7057610100808354040283529160200191610c9b565b820191906000526020600020905b815481529060010190602001808311610c7e57829003601f168201915b50505050508152602001600182018054610cb490614acb565b80601f0160208091040260200160405190810160405280929190818152602001828054610ce090614acb565b8015610d2d5780601f10610d0257610100808354040283529160200191610d2d565b820191906000526020600020905b815481529060010190602001808311610d1057829003601f168201915b50505050508152602001600282018054610d4690614acb565b80601f0160208091040260200160405190810160405280929190818152602001828054610d7290614acb565b8015610dbf5780601f10610d9457610100808354040283529160200191610dbf565b820191906000526020600020905b815481529060010190602001808311610da257829003601f168201915b50505050508152602001600382018054610dd890614acb565b80601f0160208091040260200160405190810160405280929190818152602001828054610e0490614acb565b8015610e515780601f10610e2657610100808354040283529160200191610e51565b820191906000526020600020905b815481529060010190602001808311610e3457829003601f168201915b50505050508152505090806004016040518060c00160405290816000820160009054906101000a900473ffffffffffffffffffffffffffffffffffffffff1673ffffffffffffffffffffffffffffffffffffffff1673ffffffffffffffffffffffffffffffffffffffff168152602001600182018054610ed090614acb565b80601f0160208091040260200160405190810160405280929190818152602001828054610efc90614acb565b8015610f495780601f10610f1e57610100808354040283529160200191610f49565b820191906000526020600020905b815481529060010190602001808311610f2c57829003601f168201915b50505050508152602001600282018054610f6290614acb565b80601f0160208091040260200160405190810160405280929190818152602001828054610f8e90614acb565b8015610fdb5780601f10610fb057610100808354040283529160200191610fdb565b820191906000526020600020905b815481529060010190602001808311610fbe57829003601f168201915b50505050508152602001600382018054610ff490614acb565b80601f016020809104026020016040519081016040528092919081815260200182805461102090614acb565b801561106d5780601f106110425761010080835404028352916020019161106d565b820191906000526020600020905b81548152906001019060200180831161105057829003601f168201915b5050505050815260200160048201805461108690614acb565b80601f01602080910402602001604051908101604052809291908181526020018280546110b290614acb565b80156110ff5780601f106110d4576101008083540402835291602001916110ff565b820191906000526020600020905b8154815290600101906020018083116110e257829003601f168201915b505050505081526020016005820160009054906101000a900460ff1660ff1660ff16815250509080600a01805461113590614acb565b80601f016020809104026020016040519081016040528092919081815260200182805461116190614acb565b80156111ae5780601f10611183576101008083540402835291602001916111ae565b820191906000526020600020905b81548152906001019060200180831161119157829003601f168201915b50505050509080600b0180546111c390614acb565b80601f01602080910402602001604051908101604052809291908181526020018280546111ef90614acb565b801561123c5780601f106112115761010080835404028352916020019161123c565b820191906000526020600020905b81548152906001019060200180831161121f57829003601f168201915b50505050509080600d0154905085565b6007602052816000526040600020818154811061126857600080fd5b9060005260206000209060060201600091509150508060000160009054906101000a900473ffffffffffffffffffffffffffffffffffffffff16908060010180546112b290614acb565b80601f01602080910402602001604051908101604052809291908181526020018280546112de90614acb565b801561132b5780601f106113005761010080835404028352916020019161132b565b820191906000526020600020905b81548152906001019060200180831161130e57829003601f168201915b50505050509080600201805461134090614acb565b80601f016020809104026020016040519081016040528092919081815260200182805461136c90614acb565b80156113b95780601f1061138e576101008083540402835291602001916113b9565b820191906000526020600020905b81548152906001019060200180831161139c57829003601f168201915b5050505050908060030180546113ce90614acb565b80601f01602080910402602001604051908101604052809291908181526020018280546113fa90614acb565b80156114475780601f1061141c57610100808354040283529160200191611447565b820191906000526020600020905b81548152906001019060200180831161142a57829003601f168201915b50505050509080600401805461145c90614acb565b80601f016020809104026020016040519081016040528092919081815260200182805461148890614acb565b80156114d55780601f106114aa576101008083540402835291602001916114d5565b820191906000526020600020905b8154815290600101906020018083116114b857829003601f168201915b5050505050908060050160009054906101000a900460ff16905086565b60086020528060005260406000206000915090505481565b611512613cba565b61151a613ce2565b60608060606000600560008973ffffffffffffffffffffffffffffffffffffffff1673ffffffffffffffffffffffffffffffffffffffff1681526020019081526020016000208781548110611598577f4e487b7100000000000000000000000000000000000000000000000000000000600052603260045260246000fd5b90600052602060002090600e0201600001600560008a73ffffffffffffffffffffffffffffffffffffffff1673ffffffffffffffffffffffffffffffffffffffff1681526020019081526020016000208881548110611620577f4e487b7100000000000000000000000000000000000000000000000000000000600052603260045260246000fd5b90600052602060002090600e0201600401600560008b73ffffffffffffffffffffffffffffffffffffffff1673ffffffffffffffffffffffffffffffffffffffff16815260200190815260200160002089815481106116a8577f4e487b7100000000000000000000000000000000000000000000000000000000600052603260045260246000fd5b90600052602060002090600e0201600a01600560008c73ffffffffffffffffffffffffffffffffffffffff1673ffffffffffffffffffffffffffffffffffffffff1681526020019081526020016000208a81548110611730577f4e487b7100000000000000000000000000000000000000000000000000000000600052603260045260246000fd5b90600052602060002090600e0201600b01600560008d73ffffffffffffffffffffffffffffffffffffffff1673ffffffffffffffffffffffffffffffffffffffff1681526020019081526020016000208b815481106117b8577f4e487b7100000000000000000000000000000000000000000000000000000000600052603260045260246000fd5b90600052602060002090600e0201600c01600560008e73ffffffffffffffffffffffffffffffffffffffff1673ffffffffffffffffffffffffffffffffffffffff1681526020019081526020016000208c81548110611840577f4e487b7100000000000000000000000000000000000000000000000000000000600052603260045260246000fd5b90600052602060002090600e0201600d01548560405180608001604052908160008201805461186e90614acb565b80601f016020809104026020016040519081016040528092919081815260200182805461189a90614acb565b80156118e75780601f106118bc576101008083540402835291602001916118e7565b820191906000526020600020905b8154815290600101906020018083116118ca57829003601f168201915b5050505050815260200160018201805461190090614acb565b80601f016020809104026020016040519081016040528092919081815260200182805461192c90614acb565b80156119795780601f1061194e57610100808354040283529160200191611979565b820191906000526020600020905b81548152906001019060200180831161195c57829003601f168201915b5050505050815260200160028201805461199290614acb565b80601f01602080910402602001604051908101604052809291908181526020018280546119be90614acb565b8015611a0b5780601f106119e057610100808354040283529160200191611a0b565b820191906000526020600020905b8154815290600101906020018083116119ee57829003601f168201915b50505050508152602001600382018054611a2490614acb565b80601f0160208091040260200160405190810160405280929190818152602001828054611a5090614acb565b8015611a9d5780601f10611a7257610100808354040283529160200191611a9d565b820191906000526020600020905b815481529060010190602001808311611a8057829003601f168201915b5050505050815250509550846040518060c00160405290816000820160009054906101000a900473ffffffffffffffffffffffffffffffffffffffff1673ffffffffffffffffffffffffffffffffffffffff1673ffffffffffffffffffffffffffffffffffffffff168152602001600182018054611b1a90614acb565b80601f0160208091040260200160405190810160405280929190818152602001828054611b4690614acb565b8015611b935780601f10611b6857610100808354040283529160200191611b93565b820191906000526020600020905b815481529060010190602001808311611b7657829003601f168201915b50505050508152602001600282018054611bac90614acb565b80601f0160208091040260200160405190810160405280929190818152602001828054611bd890614acb565b8015611c255780601f10611bfa57610100808354040283529160200191611c25565b820191906000526020600020905b815481529060010190602001808311611c0857829003601f168201915b50505050508152602001600382018054611c3e90614acb565b80601f0160208091040260200160405190810160405280929190818152602001828054611c6a90614acb565b8015611cb75780601f10611c8c57610100808354040283529160200191611cb7565b820191906000526020600020905b815481529060010190602001808311611c9a57829003601f168201915b50505050508152602001600482018054611cd090614acb565b80601f0160208091040260200160405190810160405280929190818152602001828054611cfc90614acb565b8015611d495780601f10611d1e57610100808354040283529160200191611d49565b820191906000526020600020905b815481529060010190602001808311611d2c57829003601f168201915b505050505081526020016005820160009054906101000a900460ff1660ff1660ff16815250509450838054611d7d90614acb565b80601f0160208091040260200160405190810160405280929190818152602001828054611da990614acb565b8015611df65780601f10611dcb57610100808354040283529160200191611df6565b820191906000526020600020905b815481529060010190602001808311611dd957829003601f168201915b50505050509350828054611e0990614acb565b80601f0160208091040260200160405190810160405280929190818152602001828054611e3590614acb565b8015611e825780601f10611e5757610100808354040283529160200191611e82565b820191906000526020600020905b815481529060010190602001808311611e6557829003601f168201915b5050505050925081805480602002602001604051908101604052809291908181526020016000905b828210156120005783829060005260206000209060020201604051806040016040529081600082018054611edd90614acb565b80601f0160208091040260200160405190810160405280929190818152602001828054611f0990614acb565b8015611f565780601f10611f2b57610100808354040283529160200191611f56565b820191906000526020600020905b815481529060010190602001808311611f3957829003601f168201915b50505050508152602001600182018054611f6f90614acb565b80601f0160208091040260200160405190810160405280929190818152602001828054611f9b90614acb565b8015611fe85780601f10611fbd57610100808354040283529160200191611fe8565b820191906000526020600020905b815481529060010190602001808311611fcb57829003601f168201915b50505050508152505081526020019060010190611eaa565b5050505091509550955095509550955095509295509295509295565b600073ffffffffffffffffffffffffffffffffffffffff16816000015173ffffffffffffffffffffffffffffffffffffffff1614612178578060016000836000015173ffffffffffffffffffffffffffffffffffffffff1673ffffffffffffffffffffffffffffffffffffffff16815260200190815260200160002060008201518160000160006101000a81548173ffffffffffffffffffffffffffffffffffffffff021916908373ffffffffffffffffffffffffffffffffffffffff16021790555060208201518160010190805190602001906120fb929190613d31565b506040820151816002019080519060200190612118929190613d31565b506060820151816003019080519060200190612135929190613d31565b506080820151816004019080519060200190612152929190613d31565b5060a08201518160050160006101000a81548160ff021916908360ff1602179055509050505b600760003373ffffffffffffffffffffffffffffffffffffffff1673ffffffffffffffffffffffffffffffffffffffff16815260200190815260200160002081908060018154018082558091505060019003906000526020600020906006020160009091909190915060008201518160000160006101000a81548173ffffffffffffffffffffffffffffffffffffffff021916908373ffffffffffffffffffffffffffffffffffffffff1602179055506020820151816001019080519060200190612244929190613d31565b506040820151816002019080519060200190612261929190613d31565b50606082015181600301908051906020019061227e929190613d31565b50608082015181600401908051906020019061229b929190613d31565b5060a08201518160050160006101000a81548160ff021916908360ff1602179055505050600860003373ffffffffffffffffffffffffffffffffffffffff1673ffffffffffffffffffffffffffffffffffffffff168152602001908152602001600020600081548092919061230f90614b2e565b919050555050565b60016020528060005260406000206000915090508060000160009054906101000a900473ffffffffffffffffffffffffffffffffffffffff169080600101805461236090614acb565b80601f016020809104026020016040519081016040528092919081815260200182805461238c90614acb565b80156123d95780601f106123ae576101008083540402835291602001916123d9565b820191906000526020600020905b8154815290600101906020018083116123bc57829003601f168201915b5050505050908060020180546123ee90614acb565b80601f016020809104026020016040519081016040528092919081815260200182805461241a90614acb565b80156124675780601f1061243c57610100808354040283529160200191612467565b820191906000526020600020905b81548152906001019060200180831161244a57829003601f168201915b50505050509080600301805461247c90614acb565b80601f01602080910402602001604051908101604052809291908181526020018280546124a890614acb565b80156124f55780601f106124ca576101008083540402835291602001916124f5565b820191906000526020600020905b8154815290600101906020018083116124d857829003601f168201915b50505050509080600401805461250a90614acb565b80601f016020809104026020016040519081016040528092919081815260200182805461253690614acb565b80156125835780601f1061255857610100808354040283529160200191612583565b820191906000526020600020905b81548152906001019060200180831161256657829003601f168201915b5050505050908060050160009054906101000a900460ff16905086565b60005b815181101561270257600260003373ffffffffffffffffffffffffffffffffffffffff1673ffffffffffffffffffffffffffffffffffffffff1681526020019081526020016000206000808201600080820160006126019190613db7565b6001820160006126119190613db7565b6002820160006126219190613db7565b6003820160006126319190613db7565b505060048201600080820160006101000a81549073ffffffffffffffffffffffffffffffffffffffff021916905560018201600061266f9190613db7565b60028201600061267f9190613db7565b60038201600061268f9190613db7565b60048201600061269f9190613db7565b6005820160006101000a81549060ff02191690555050600a820160006126c59190613db7565b600b820160006126d59190613db7565b600c820160006126e59190613df7565b600d820160009055505080806126fa90614b2e565b9150506125a3565b5084600260003373ffffffffffffffffffffffffffffffffffffffff1673ffffffffffffffffffffffffffffffffffffffff1681526020019081526020016000206000016000820151816000019080519060200190612762929190613d31565b50602082015181600101908051906020019061277f929190613d31565b50604082015181600201908051906020019061279c929190613d31565b5060608201518160030190805190602001906127b9929190613d31565b5090505083600260003373ffffffffffffffffffffffffffffffffffffffff1673ffffffffffffffffffffffffffffffffffffffff16815260200190815260200160002060040160008201518160000160006101000a81548173ffffffffffffffffffffffffffffffffffffffff021916908373ffffffffffffffffffffffffffffffffffffffff1602179055506020820151816001019080519060200190612863929190613d31565b506040820151816002019080519060200190612880929190613d31565b50606082015181600301908051906020019061289d929190613d31565b5060808201518160040190805190602001906128ba929190613d31565b5060a08201518160050160006101000a81548160ff021916908360ff16021790555090505082600260003373ffffffffffffffffffffffffffffffffffffffff1673ffffffffffffffffffffffffffffffffffffffff168152602001908152602001600020600a019080519060200190612935929190613d31565b5081600260003373ffffffffffffffffffffffffffffffffffffffff1673ffffffffffffffffffffffffffffffffffffffff168152602001908152602001600020600b01908051906020019061298c929190613d31565b5042600260003373ffffffffffffffffffffffffffffffffffffffff1673ffffffffffffffffffffffffffffffffffffffff168152602001908152602001600020600d018190555060005b8151811015612b3757600260003373ffffffffffffffffffffffffffffffffffffffff1673ffffffffffffffffffffffffffffffffffffffff168152602001908152602001600020600c016040518060400160405280848481518110612a66577f4e487b7100000000000000000000000000000000000000000000000000000000600052603260045260246000fd5b6020026020010151600001518152602001848481518110612ab0577f4e487b7100000000000000000000000000000000000000000000000000000000600052603260045260246000fd5b60200260200101516020015181525090806001815401808255809150506001900390600052602060002090600202016000909190919091506000820151816000019080519060200190612b04929190613d31565b506020820151816001019080519060200190612b21929190613d31565b5050508080612b2f90614b2e565b9150506129d7565b50600360003373ffffffffffffffffffffffffffffffffffffffff1673ffffffffffffffffffffffffffffffffffffffff168152602001908152602001600020600260003373ffffffffffffffffffffffffffffffffffffffff1673ffffffffffffffffffffffffffffffffffffffff16815260200190815260200160002090806001815401808255809150506001900390600052602060002090600e020160009091909190915060008201816000016000820181600001908054612bfb90614acb565b612c06929190613e1b565b506001820181600101908054612c1b90614acb565b612c26929190613e1b565b506002820181600201908054612c3b90614acb565b612c46929190613e1b565b506003820181600301908054612c5b90614acb565b612c66929190613e1b565b50505060048201816004016000820160009054906101000a900473ffffffffffffffffffffffffffffffffffffffff168160000160006101000a81548173ffffffffffffffffffffffffffffffffffffffff021916908373ffffffffffffffffffffffffffffffffffffffff1602179055506001820181600101908054612cec90614acb565b612cf7929190613e1b565b506002820181600201908054612d0c90614acb565b612d17929190613e1b565b506003820181600301908054612d2c90614acb565b612d37929190613e1b565b506004820181600401908054612d4c90614acb565b612d57929190613e1b565b506005820160009054906101000a900460ff168160050160006101000a81548160ff021916908360ff1602179055505050600a820181600a01908054612d9c90614acb565b612da7929190613e1b565b50600b820181600b01908054612dbc90614acb565b612dc7929190613e1b565b50600c820181600c01908054612dde929190613ea8565b50600d82015481600d01555050600460003373ffffffffffffffffffffffffffffffffffffffff1673ffffffffffffffffffffffffffffffffffffffff1681526020019081526020016000206000815480929190612e3b90614b2e565b9190505550600073ffffffffffffffffffffffffffffffffffffffff16846000015173ffffffffffffffffffffffffffffffffffffffff16146131895760056000856000015173ffffffffffffffffffffffffffffffffffffffff1673ffffffffffffffffffffffffffffffffffffffff168152602001908152602001600020600260003373ffffffffffffffffffffffffffffffffffffffff1673ffffffffffffffffffffffffffffffffffffffff16815260200190815260200160002090806001815401808255809150506001900390600052602060002090600e020160009091909190915060008201816000016000820181600001908054612f3f90614acb565b612f4a929190613e1b565b506001820181600101908054612f5f90614acb565b612f6a929190613e1b565b506002820181600201908054612f7f90614acb565b612f8a929190613e1b565b506003820181600301908054612f9f90614acb565b612faa929190613e1b565b50505060048201816004016000820160009054906101000a900473ffffffffffffffffffffffffffffffffffffffff168160000160006101000a81548173ffffffffffffffffffffffffffffffffffffffff021916908373ffffffffffffffffffffffffffffffffffffffff160217905550600182018160010190805461303090614acb565b61303b929190613e1b565b50600282018160020190805461305090614acb565b61305b929190613e1b565b50600382018160030190805461307090614acb565b61307b929190613e1b565b50600482018160040190805461309090614acb565b61309b929190613e1b565b506005820160009054906101000a900460ff168160050160006101000a81548160ff021916908360ff1602179055505050600a820181600a019080546130e090614acb565b6130eb929190613e1b565b50600b820181600b0190805461310090614acb565b61310b929190613e1b565b50600c820181600c01908054613122929190613ea8565b50600d82015481600d0155505060066000856000015173ffffffffffffffffffffffffffffffffffffffff1673ffffffffffffffffffffffffffffffffffffffff168152602001908152602001600020600081548092919061318390614b2e565b91905055505b5050505050565b60046020528060005260406000206000915090505481565b6131b0613cba565b6131b8613ce2565b60608060606000600360008973ffffffffffffffffffffffffffffffffffffffff1673ffffffffffffffffffffffffffffffffffffffff1681526020019081526020016000208781548110613236577f4e487b7100000000000000000000000000000000000000000000000000000000600052603260045260246000fd5b90600052602060002090600e0201600001600360008a73ffffffffffffffffffffffffffffffffffffffff1673ffffffffffffffffffffffffffffffffffffffff16815260200190815260200160002088815481106132be577f4e487b7100000000000000000000000000000000000000000000000000000000600052603260045260246000fd5b90600052602060002090600e0201600401600360008b73ffffffffffffffffffffffffffffffffffffffff1673ffffffffffffffffffffffffffffffffffffffff1681526020019081526020016000208981548110613346577f4e487b7100000000000000000000000000000000000000000000000000000000600052603260045260246000fd5b90600052602060002090600e0201600a01600360008c73ffffffffffffffffffffffffffffffffffffffff1673ffffffffffffffffffffffffffffffffffffffff1681526020019081526020016000208a815481106133ce577f4e487b7100000000000000000000000000000000000000000000000000000000600052603260045260246000fd5b90600052602060002090600e0201600b01600360008d73ffffffffffffffffffffffffffffffffffffffff1673ffffffffffffffffffffffffffffffffffffffff1681526020019081526020016000208b81548110613456577f4e487b7100000000000000000000000000000000000000000000000000000000600052603260045260246000fd5b90600052602060002090600e0201600c01600360008e73ffffffffffffffffffffffffffffffffffffffff1673ffffffffffffffffffffffffffffffffffffffff1681526020019081526020016000208c815481106134de577f4e487b7100000000000000000000000000000000000000000000000000000000600052603260045260246000fd5b90600052602060002090600e0201600d01548560405180608001604052908160008201805461350c90614acb565b80601f016020809104026020016040519081016040528092919081815260200182805461353890614acb565b80156135855780601f1061355a57610100808354040283529160200191613585565b820191906000526020600020905b81548152906001019060200180831161356857829003601f168201915b5050505050815260200160018201805461359e90614acb565b80601f01602080910402602001604051908101604052809291908181526020018280546135ca90614acb565b80156136175780601f106135ec57610100808354040283529160200191613617565b820191906000526020600020905b8154815290600101906020018083116135fa57829003601f168201915b5050505050815260200160028201805461363090614acb565b80601f016020809104026020016040519081016040528092919081815260200182805461365c90614acb565b80156136a95780601f1061367e576101008083540402835291602001916136a9565b820191906000526020600020905b81548152906001019060200180831161368c57829003601f168201915b505050505081526020016003820180546136c290614acb565b80601f01602080910402602001604051908101604052809291908181526020018280546136ee90614acb565b801561373b5780601f106137105761010080835404028352916020019161373b565b820191906000526020600020905b81548152906001019060200180831161371e57829003601f168201915b5050505050815250509550846040518060c00160405290816000820160009054906101000a900473ffffffffffffffffffffffffffffffffffffffff1673ffffffffffffffffffffffffffffffffffffffff1673ffffffffffffffffffffffffffffffffffffffff1681526020016001820180546137b890614acb565b80601f01602080910402602001604051908101604052809291908181526020018280546137e490614acb565b80156138315780601f1061380657610100808354040283529160200191613831565b820191906000526020600020905b81548152906001019060200180831161381457829003601f168201915b5050505050815260200160028201805461384a90614acb565b80601f016020809104026020016040519081016040528092919081815260200182805461387690614acb565b80156138c35780601f10613898576101008083540402835291602001916138c3565b820191906000526020600020905b8154815290600101906020018083116138a657829003601f168201915b505050505081526020016003820180546138dc90614acb565b80601f016020809104026020016040519081016040528092919081815260200182805461390890614acb565b80156139555780601f1061392a57610100808354040283529160200191613955565b820191906000526020600020905b81548152906001019060200180831161393857829003601f168201915b5050505050815260200160048201805461396e90614acb565b80601f016020809104026020016040519081016040528092919081815260200182805461399a90614acb565b80156139e75780601f106139bc576101008083540402835291602001916139e7565b820191906000526020600020905b8154815290600101906020018083116139ca57829003601f168201915b505050505081526020016005820160009054906101000a900460ff1660ff1660ff16815250509450838054613a1b90614acb565b80601f0160208091040260200160405190810160405280929190818152602001828054613a4790614acb565b8015613a945780601f10613a6957610100808354040283529160200191613a94565b820191906000526020600020905b815481529060010190602001808311613a7757829003601f168201915b50505050509350828054613aa790614acb565b80601f0160208091040260200160405190810160405280929190818152602001828054613ad390614acb565b8015613b205780601f10613af557610100808354040283529160200191613b20565b820191906000526020600020905b815481529060010190602001808311613b0357829003601f168201915b5050505050925081805480602002602001604051908101604052809291908181526020016000905b82821015613c9e5783829060005260206000209060020201604051806040016040529081600082018054613b7b90614acb565b80601f0160208091040260200160405190810160405280929190818152602001828054613ba790614acb565b8015613bf45780601f10613bc957610100808354040283529160200191613bf4565b820191906000526020600020905b815481529060010190602001808311613bd757829003601f168201915b50505050508152602001600182018054613c0d90614acb565b80601f0160208091040260200160405190810160405280929190818152602001828054613c3990614acb565b8015613c865780601f10613c5b57610100808354040283529160200191613c86565b820191906000526020600020905b815481529060010190602001808311613c6957829003601f168201915b50505050508152505081526020019060010190613b48565b5050505091509550955095509550955095509295509295509295565b6040518060800160405280606081526020016060815260200160608152602001606081525090565b6040518060c00160405280600073ffffffffffffffffffffffffffffffffffffffff16815260200160608152602001606081526020016060815260200160608152602001600060ff1681525090565b828054613d3d90614acb565b90600052602060002090601f016020900481019282613d5f5760008555613da6565b82601f10613d7857805160ff1916838001178555613da6565b82800160010185558215613da6579182015b82811115613da5578251825591602001919060010190613d8a565b5b509050613db39190613f40565b5090565b508054613dc390614acb565b6000825580601f10613dd55750613df4565b601f016020900490600052602060002090810190613df39190613f40565b5b50565b5080546000825560020290600052602060002090810190613e189190613f5d565b50565b828054613e2790614acb565b90600052602060002090601f016020900481019282613e495760008555613e97565b82601f10613e5a5780548555613e97565b82800160010185558215613e9757600052602060002091601f016020900482015b82811115613e96578254825591600101919060010190613e7b565b5b509050613ea49190613f40565b5090565b828054828255906000526020600020906002028101928215613f2f5760005260206000209160020282015b82811115613f2e5782826000820181600001908054613ef190614acb565b613efc929190613e1b565b506001820181600101908054613f1190614acb565b613f1c929190613e1b565b50505091600201919060020190613ed3565b5b509050613f3c9190613f5d565b5090565b5b80821115613f59576000816000905550600101613f41565b5090565b5b80821115613f905760008082016000613f779190613db7565b600182016000613f879190613db7565b50600201613f5e565b5090565b6000613fa7613fa28461497d565b614958565b90508083825260208201905082856020860282011115613fc657600080fd5b60005b8581101561401057813567ffffffffffffffff811115613fe857600080fd5b808601613ff589826140c1565b85526020850194506020840193505050600181019050613fc9565b5050509392505050565b600061402d614028846149a9565b614958565b90508281526020810184848401111561404557600080fd5b614050848285614a89565b509392505050565b60008135905061406781614c15565b92915050565b600082601f83011261407e57600080fd5b813561408e848260208601613f94565b91505092915050565b600082601f8301126140a857600080fd5b81356140b884826020860161401a565b91505092915050565b6000604082840312156140d357600080fd5b6140dd6040614958565b9050600082013567ffffffffffffffff8111156140f957600080fd5b61410584828501614097565b600083015250602082013567ffffffffffffffff81111561412557600080fd5b61413184828501614097565b60208301525092915050565b60006080828403121561414f57600080fd5b6141596080614958565b9050600082013567ffffffffffffffff81111561417557600080fd5b61418184828501614097565b600083015250602082013567ffffffffffffffff8111156141a157600080fd5b6141ad84828501614097565b602083015250604082013567ffffffffffffffff8111156141cd57600080fd5b6141d984828501614097565b604083015250606082013567ffffffffffffffff8111156141f957600080fd5b61420584828501614097565b60608301525092915050565b600060c0828403121561422357600080fd5b61422d60c0614958565b9050600061423d84828501614058565b600083015250602082013567ffffffffffffffff81111561425d57600080fd5b61426984828501614097565b602083015250604082013567ffffffffffffffff81111561428957600080fd5b61429584828501614097565b604083015250606082013567ffffffffffffffff8111156142b557600080fd5b6142c184828501614097565b606083015250608082013567ffffffffffffffff8111156142e157600080fd5b6142ed84828501614097565b60808301525060a061430184828501614322565b60a08301525092915050565b60008135905061431c81614c2c565b92915050565b60008135905061433181614c43565b92915050565b60006020828403121561434957600080fd5b600061435784828501614058565b91505092915050565b6000806040838503121561437357600080fd5b600061438185828601614058565b92505060206143928582860161430d565b9150509250929050565b600080600080600060a086880312156143b457600080fd5b600086013567ffffffffffffffff8111156143ce57600080fd5b6143da8882890161413d565b955050602086013567ffffffffffffffff8111156143f757600080fd5b61440388828901614211565b945050604086013567ffffffffffffffff81111561442057600080fd5b61442c88828901614097565b935050606086013567ffffffffffffffff81111561444957600080fd5b61445588828901614097565b925050608086013567ffffffffffffffff81111561447257600080fd5b61447e8882890161406d565b9150509295509295909350565b60006020828403121561449d57600080fd5b600082013567ffffffffffffffff8111156144b757600080fd5b6144c384828501614211565b91505092915050565b60006144d883836145e5565b905092915050565b6144e981614a40565b82525050565b6144f881614a40565b82525050565b6000614509826149ea565b6145138185614a0d565b935083602082028501614525856149da565b8060005b85811015614561578484038952815161454285826144cc565b945061454d83614a00565b925060208a01995050600181019050614529565b50829750879550505050505092915050565b600061457e826149f5565b6145888185614a1e565b9350614598818560208601614a98565b6145a181614c04565b840191505092915050565b60006145b7826149f5565b6145c18185614a2f565b93506145d1818560208601614a98565b6145da81614c04565b840191505092915050565b600060408301600083015184820360008601526146028282614573565b9150506020830151848203602086015261461c8282614573565b9150508091505092915050565b600060808301600083015184820360008601526146468282614573565b915050602083015184820360208601526146608282614573565b9150506040830151848203604086015261467a8282614573565b915050606083015184820360608601526146948282614573565b9150508091505092915050565b600060c0830160008301516146b960008601826144e0565b50602083015184820360208601526146d18282614573565b915050604083015184820360408601526146eb8282614573565b915050606083015184820360608601526147058282614573565b9150506080830151848203608086015261471f8282614573565b91505060a083015161473460a086018261474e565b508091505092915050565b61474881614a72565b82525050565b61475781614a7c565b82525050565b61476681614a7c565b82525050565b600060c08201905061478160008301896144ef565b818103602083015261479381886145ac565b905081810360408301526147a781876145ac565b905081810360608301526147bb81866145ac565b905081810360808301526147cf81856145ac565b90506147de60a083018461475d565b979650505050505050565b6000608082019050818103600083015261480381876145ac565b9050818103602083015261481781866145ac565b9050818103604083015261482b81856145ac565b9050818103606083015261483f81846145ac565b905095945050505050565b600060c08201905081810360008301526148648189614629565b9050818103602083015261487881886146a1565b9050818103604083015261488c81876145ac565b905081810360608301526148a081866145ac565b905081810360808301526148b481856144fe565b90506148c360a083018461473f565b979650505050505050565b600060a08201905081810360008301526148e88188614629565b905081810360208301526148fc81876146a1565b9050818103604083015261491081866145ac565b9050818103606083015261492481856145ac565b9050614933608083018461473f565b9695505050505050565b6000602082019050614952600083018461473f565b92915050565b6000614962614973565b905061496e8282614afd565b919050565b6000604051905090565b600067ffffffffffffffff82111561499857614997614bd5565b5b602082029050602081019050919050565b600067ffffffffffffffff8211156149c4576149c3614bd5565b5b6149cd82614c04565b9050602081019050919050565b6000819050602082019050919050565b600081519050919050565b600081519050919050565b6000602082019050919050565b600082825260208201905092915050565b600082825260208201905092915050565b600082825260208201905092915050565b6000614a4b82614a52565b9050919050565b600073ffffffffffffffffffffffffffffffffffffffff82169050919050565b6000819050919050565b600060ff82169050919050565b82818337600083830152505050565b60005b83811015614ab6578082015181840152602081019050614a9b565b83811115614ac5576000848401525b50505050565b60006002820490506001821680614ae357607f821691505b60208210811415614af757614af6614ba6565b5b50919050565b614b0682614c04565b810181811067ffffffffffffffff82111715614b2557614b24614bd5565b5b80604052505050565b6000614b3982614a72565b91507fffffffffffffffffffffffffffffffffffffffffffffffffffffffffffffffff821415614b6c57614b6b614b77565b5b600182019050919050565b7f4e487b7100000000000000000000000000000000000000000000000000000000600052601160045260246000fd5b7f4e487b7100000000000000000000000000000000000000000000000000000000600052602260045260246000fd5b7f4e487b7100000000000000000000000000000000000000000000000000000000600052604160045260246000fd5b6000601f19601f8301169050919050565b614c1e81614a40565b8114614c2957600080fd5b50565b614c3581614a72565b8114614c4057600080fd5b50565b614c4c81614a7c565b8114614c5757600080fd5b5056fea26469706673582212206c9137f1d9502056394c4bd79a241c648d8dcd9b6cd867da851801fea6ce81fb64736f6c63430008040033",
  "immutableReferences": {},
  "source": "// SPDX-License-Identifier: GPL-3.0\r\npragma solidity >=0.7.0 <0.9.0;\r\npragma abicoder v2;\r\n\r\ncontract RecetaMedica {\r\n\r\n    struct Medicina {\r\n        string nombreMedicina;\r\n        string indicacion;\r\n    }\r\n\r\n    struct Medico {\r\n        string cedulaProfesional;\r\n        string nombres;\r\n        string apellidos;\r\n        string especialidad;\r\n    }\r\n\r\n    struct Paciente {\r\n        address cuentaPaciente;\r\n        string cedula;\r\n        string nombres;\r\n        string apellidos;\r\n        string correo;\r\n        uint8 edad;\r\n    }\r\n\r\n    struct Receta {\r\n        Medico medico;\r\n        Paciente paciente;\r\n        string diagnostico;\r\n        string indicacionesExtras;\r\n        Medicina[] medicinas;\r\n        uint fecha;\r\n    }\r\n\r\n    mapping(address => Medico) public medicos;\r\n\r\n    mapping(address => Paciente) public pacientes;\r\n\r\n    mapping(address => Receta)  private recetaTemporal;\r\n\r\n    mapping(address => Receta[]) public recetasPorDoctor;\r\n    mapping(address => uint) public recetasTotalesPorDoctor;\r\n\r\n    mapping(address => Receta[]) public recetasPorPaciente;\r\n    mapping(address => uint) public recetasTotalesPorPaciente;\r\n\r\n    mapping(address => Paciente[]) public pacientesPorDoctor;\r\n    mapping(address => uint) public pacientesTotalesPorDoctor;\r\n\r\n    constructor(){\r\n        //Doctores pre-existentes\r\n        medicos[0x0DF3c5E1e60A27f02D9d0FF8730c99A73D924Fc3] = Medico(\"11111111\", \"Patricio\", \"Estrella\", \"General\");\r\n        medicos[0xF5B223A069ebfDc5D491b94fB50C8be0B063CB65] = Medico(\"22222222\", \"Bob\", \"Sponja\", \"General\");\r\n    }\r\n\r\n    function registrarPaciente(\r\n        Paciente memory _paciente\r\n    ) public {\r\n        if (_paciente.cuentaPaciente != address(0)) {\r\n            pacientes[_paciente.cuentaPaciente] = _paciente;\r\n        }\r\n\r\n        pacientesPorDoctor[msg.sender].push(_paciente);\r\n        pacientesTotalesPorDoctor[msg.sender] ++;\r\n    }\r\n\r\n    function registrarReceta(\r\n        Medico memory _medico,\r\n        Paciente memory _paciente,\r\n        string memory _diagnostico,\r\n        string memory _indicacionesExtras,\r\n        Medicina[] memory _medicinas\r\n    ) public {\r\n        //Dado que, recetaTemporal es variable global se va acumulando por eso se la vaca por cada registro ya que son indep\r\n        for (uint j = 0; j < _medicinas.length; j++) {\r\n            delete recetaTemporal[msg.sender];\r\n        }\r\n        recetaTemporal[msg.sender].medico = _medico;\r\n        recetaTemporal[msg.sender].paciente = _paciente;\r\n        recetaTemporal[msg.sender].diagnostico = _diagnostico;\r\n        recetaTemporal[msg.sender].indicacionesExtras = _indicacionesExtras;\r\n        recetaTemporal[msg.sender].fecha = block.timestamp;\r\n        for (uint j = 0; j < _medicinas.length; j++) {\r\n            recetaTemporal[msg.sender].medicinas.push(Medicina(_medicinas[j].nombreMedicina, _medicinas[j].indicacion));\r\n        }\r\n        recetasPorDoctor[msg.sender].push(recetaTemporal[msg.sender]);\r\n        recetasTotalesPorDoctor[msg.sender]++;\r\n\r\n        if (_paciente.cuentaPaciente != address(0)) {\r\n            recetasPorPaciente[_paciente.cuentaPaciente].push(recetaTemporal[msg.sender]);\r\n            recetasTotalesPorPaciente[_paciente.cuentaPaciente]++;\r\n        }\r\n    }\r\n\r\n    function getRecetasPorDoctor(address cuentaDoctor, uint i) public view returns (Medico memory, Paciente memory, string memory, string memory, Medicina[] memory, uint) {\r\n        return (recetasPorDoctor[cuentaDoctor][i].medico,\r\n        recetasPorDoctor[cuentaDoctor][i].paciente,\r\n        recetasPorDoctor[cuentaDoctor][i].diagnostico,\r\n        recetasPorDoctor[cuentaDoctor][i].indicacionesExtras,\r\n        recetasPorDoctor[cuentaDoctor][i].medicinas,\r\n        recetasPorDoctor[cuentaDoctor][i].fecha);\r\n    }\r\n\r\n    function getRecetasPorPaciente(address cuentaPaciente, uint i) public view returns (Medico memory, Paciente memory, string memory, string memory, Medicina[] memory, uint) {\r\n        return (recetasPorPaciente[cuentaPaciente][i].medico,\r\n        recetasPorPaciente[cuentaPaciente][i].paciente,\r\n        recetasPorPaciente[cuentaPaciente][i].diagnostico,\r\n        recetasPorPaciente[cuentaPaciente][i].indicacionesExtras,\r\n        recetasPorPaciente[cuentaPaciente][i].medicinas,\r\n        recetasPorPaciente[cuentaPaciente][i].fecha);\r\n    }\r\n}\r\n",
  "sourcePath": "C:/Users/Mickmaxy/Documents/GitHub/dapp-recetas-medicas/contracts/RecetaMedica.sol",
  "compiler": {
    "name": "solc",
    "version": "0.8.4+commit.c7e474f2.Emscripten.clang"
  },
  "schemaVersion": "3.4.1",
  "updatedAt": "2021-07-26T04:10:17.522Z",
  "networkType": "ethereum",
  "devdoc": {
    "kind": "dev",
    "methods": {},
    "version": 1
  },
  "userdoc": {
    "kind": "user",
    "methods": {},
    "version": 1
  }
}