{
  "contractName": "RecetaMedica",
  "abi": [
    {
      "inputs": [],
      "stateMutability": "nonpayable",
      "type": "constructor"
    },
    {
      "inputs": [
        {
          "internalType": "address",
          "name": "",
          "type": "address"
        }
      ],
      "name": "medicos",
      "outputs": [
        {
          "internalType": "string",
          "name": "cedulaProfesional",
          "type": "string"
        },
        {
          "internalType": "string",
          "name": "nombres",
          "type": "string"
        },
        {
          "internalType": "string",
          "name": "apellidos",
          "type": "string"
        },
        {
          "internalType": "string",
          "name": "especialidad",
          "type": "string"
        }
      ],
      "stateMutability": "view",
      "type": "function",
      "constant": true
    },
    {
      "inputs": [
        {
          "internalType": "address",
          "name": "",
          "type": "address"
        },
        {
          "internalType": "uint256",
          "name": "",
          "type": "uint256"
        }
      ],
      "name": "pacientesPorDoctor",
      "outputs": [
        {
          "internalType": "address",
          "name": "cuentaPaciente",
          "type": "address"
        },
        {
          "internalType": "string",
          "name": "cedula",
          "type": "string"
        },
        {
          "internalType": "string",
          "name": "nombres",
          "type": "string"
        },
        {
          "internalType": "string",
          "name": "apellidos",
          "type": "string"
        },
        {
          "internalType": "string",
          "name": "correo",
          "type": "string"
        },
        {
          "internalType": "uint256",
          "name": "edad",
          "type": "uint256"
        }
      ],
      "stateMutability": "view",
      "type": "function",
      "constant": true
    },
    {
      "inputs": [
        {
          "internalType": "address",
          "name": "",
          "type": "address"
        }
      ],
      "name": "pacientesTotalesPorDoctor",
      "outputs": [
        {
          "internalType": "uint256",
          "name": "",
          "type": "uint256"
        }
      ],
      "stateMutability": "view",
      "type": "function",
      "constant": true
    },
    {
      "inputs": [
        {
          "internalType": "address",
          "name": "",
          "type": "address"
        },
        {
          "internalType": "uint256",
          "name": "",
          "type": "uint256"
        }
      ],
      "name": "recPorDoctor",
      "outputs": [
        {
          "internalType": "string",
          "name": "diagnostico",
          "type": "string"
        },
        {
          "internalType": "string",
          "name": "indicacionesExtras",
          "type": "string"
        }
      ],
      "stateMutability": "view",
      "type": "function",
      "constant": true
    },
    {
      "inputs": [
        {
          "internalType": "address",
          "name": "",
          "type": "address"
        }
      ],
      "name": "recTotalesPorDoctor",
      "outputs": [
        {
          "internalType": "uint256",
          "name": "",
          "type": "uint256"
        }
      ],
      "stateMutability": "view",
      "type": "function",
      "constant": true
    },
    {
      "inputs": [
        {
          "internalType": "address",
          "name": "",
          "type": "address"
        },
        {
          "internalType": "uint256",
          "name": "",
          "type": "uint256"
        }
      ],
      "name": "recetaPorDoctor",
      "outputs": [
        {
          "components": [
            {
              "internalType": "address",
              "name": "cuentaPaciente",
              "type": "address"
            },
            {
              "internalType": "string",
              "name": "cedula",
              "type": "string"
            },
            {
              "internalType": "string",
              "name": "nombres",
              "type": "string"
            },
            {
              "internalType": "string",
              "name": "apellidos",
              "type": "string"
            },
            {
              "internalType": "string",
              "name": "correo",
              "type": "string"
            },
            {
              "internalType": "uint256",
              "name": "edad",
              "type": "uint256"
            }
          ],
          "internalType": "struct RecetaMedica.Paciente",
          "name": "paciente",
          "type": "tuple"
        },
        {
          "internalType": "string",
          "name": "diagnostico",
          "type": "string"
        },
        {
          "internalType": "string",
          "name": "indicacionesExtras",
          "type": "string"
        }
      ],
      "stateMutability": "view",
      "type": "function",
      "constant": true
    },
    {
      "inputs": [
        {
          "internalType": "address",
          "name": "",
          "type": "address"
        },
        {
          "internalType": "uint256",
          "name": "",
          "type": "uint256"
        }
      ],
      "name": "recetaPorPaciente",
      "outputs": [
        {
          "components": [
            {
              "internalType": "address",
              "name": "cuentaPaciente",
              "type": "address"
            },
            {
              "internalType": "string",
              "name": "cedula",
              "type": "string"
            },
            {
              "internalType": "string",
              "name": "nombres",
              "type": "string"
            },
            {
              "internalType": "string",
              "name": "apellidos",
              "type": "string"
            },
            {
              "internalType": "string",
              "name": "correo",
              "type": "string"
            },
            {
              "internalType": "uint256",
              "name": "edad",
              "type": "uint256"
            }
          ],
          "internalType": "struct RecetaMedica.Paciente",
          "name": "paciente",
          "type": "tuple"
        },
        {
          "internalType": "string",
          "name": "diagnostico",
          "type": "string"
        },
        {
          "internalType": "string",
          "name": "indicacionesExtras",
          "type": "string"
        }
      ],
      "stateMutability": "view",
      "type": "function",
      "constant": true
    },
    {
      "inputs": [
        {
          "internalType": "address",
          "name": "",
          "type": "address"
        }
      ],
      "name": "recetasTotalesPorDoctor",
      "outputs": [
        {
          "internalType": "uint256",
          "name": "",
          "type": "uint256"
        }
      ],
      "stateMutability": "view",
      "type": "function",
      "constant": true
    },
    {
      "inputs": [
        {
          "internalType": "address",
          "name": "",
          "type": "address"
        }
      ],
      "name": "recetasTotalesPorPaciente",
      "outputs": [
        {
          "internalType": "uint256",
          "name": "",
          "type": "uint256"
        }
      ],
      "stateMutability": "view",
      "type": "function",
      "constant": true
    },
    {
      "inputs": [
        {
          "internalType": "address",
          "name": "_cuentaPaciente",
          "type": "address"
        },
        {
          "internalType": "string",
          "name": "_cedula",
          "type": "string"
        },
        {
          "internalType": "string",
          "name": "_nombre",
          "type": "string"
        },
        {
          "internalType": "string",
          "name": "_apellido",
          "type": "string"
        },
        {
          "internalType": "string",
          "name": "_correo",
          "type": "string"
        },
        {
          "internalType": "uint256",
          "name": "_edad",
          "type": "uint256"
        }
      ],
      "name": "registrarPaciente",
      "outputs": [],
      "stateMutability": "nonpayable",
      "type": "function"
    },
    {
      "inputs": [
        {
          "internalType": "string",
          "name": "_diagnostico",
          "type": "string"
        },
        {
          "internalType": "string",
          "name": "_indicacionesExtras",
          "type": "string"
        },
        {
          "components": [
            {
              "internalType": "string",
              "name": "nombreMedicina",
              "type": "string"
            },
            {
              "internalType": "string",
              "name": "indicacion",
              "type": "string"
            }
          ],
          "internalType": "struct RecetaMedica.Medicina[]",
          "name": "_medicinas",
          "type": "tuple[]"
        }
      ],
      "name": "registrarReceta",
      "outputs": [],
      "stateMutability": "nonpayable",
      "type": "function"
    },
    {
      "inputs": [
        {
          "internalType": "address",
          "name": "cuentaDoctor",
          "type": "address"
        },
        {
          "internalType": "uint256",
          "name": "i",
          "type": "uint256"
        }
      ],
      "name": "getRecetasPorDoctor",
      "outputs": [
        {
          "internalType": "string",
          "name": "",
          "type": "string"
        },
        {
          "internalType": "string",
          "name": "",
          "type": "string"
        },
        {
          "internalType": "uint256",
          "name": "",
          "type": "uint256"
        },
        {
          "components": [
            {
              "internalType": "string",
              "name": "nombreMedicina",
              "type": "string"
            },
            {
              "internalType": "string",
              "name": "indicacion",
              "type": "string"
            }
          ],
          "internalType": "struct RecetaMedica.Medicina[]",
          "name": "",
          "type": "tuple[]"
        }
      ],
      "stateMutability": "view",
      "type": "function",
      "constant": true
    }
  ],
  "bytecode": "0x60806040523480156200001157600080fd5b5060405180608001604052806040518060400160405280600881526020017f313131313131313100000000000000000000000000000000000000000000000081525081526020016040518060400160405280600881526020017f506174726963696f00000000000000000000000000000000000000000000000081525081526020016040518060400160405280600881526020017f45737472656c6c6100000000000000000000000000000000000000000000000081525081526020016040518060400160405280600781526020017f47656e6572616c0000000000000000000000000000000000000000000000000081525081525060096000730df3c5e1e60a27f02d9d0ff8730c99a73d924fc373ffffffffffffffffffffffffffffffffffffffff1673ffffffffffffffffffffffffffffffffffffffff168152602001908152602001600020600082015181600001908051906020019062000178929190620003a6565b50602082015181600101908051906020019062000197929190620003a6565b506040820151816002019080519060200190620001b6929190620003a6565b506060820151816003019080519060200190620001d5929190620003a6565b5090505060405180608001604052806040518060400160405280600881526020017f323232323232323200000000000000000000000000000000000000000000000081525081526020016040518060400160405280600381526020017f426f62000000000000000000000000000000000000000000000000000000000081525081526020016040518060400160405280600681526020017f53706f6e6a61000000000000000000000000000000000000000000000000000081525081526020016040518060400160405280600781526020017f47656e6572616c000000000000000000000000000000000000000000000000008152508152506009600073f5b223a069ebfdc5d491b94fb50c8be0b063cb6573ffffffffffffffffffffffffffffffffffffffff1673ffffffffffffffffffffffffffffffffffffffff16815260200190815260200160002060008201518160000190805190602001906200033f929190620003a6565b5060208201518160010190805190602001906200035e929190620003a6565b5060408201518160020190805190602001906200037d929190620003a6565b5060608201518160030190805190602001906200039c929190620003a6565b50905050620004bb565b828054620003b49062000456565b90600052602060002090601f016020900481019282620003d8576000855562000424565b82601f10620003f357805160ff191683800117855562000424565b8280016001018555821562000424579182015b828111156200042357825182559160200191906001019062000406565b5b50905062000433919062000437565b5090565b5b808211156200045257600081600090555060010162000438565b5090565b600060028204905060018216806200046f57607f821691505b602082108114156200048657620004856200048c565b5b50919050565b7f4e487b7100000000000000000000000000000000000000000000000000000000600052602260045260246000fd5b61292f80620004cb6000396000f3fe608060405234801561001057600080fd5b50600436106100b45760003560e01c80637d10d471116100715780637d10d471146101d0578063d95dca5314610200578063eebd182414610230578063f30fcf3f1461024c578063f32f97721461027c578063faa2932b146102af576100b4565b80630528b8c5146100b95780631a7d4230146100eb57806325714a501461011b5780634dfa1864146101375780635f97477c1461016a578063764b78e21461019b575b600080fd5b6100d360048036038101906100ce9190612159565b6102e1565b6040516100e2939291906125b4565b60405180910390f35b61010560048036038101906101009190612047565b6106ea565b6040516101129190612600565b60405180910390f35b61013560048036038101906101309190612070565b610702565b005b610151600480360381019061014c9190612047565b6108d1565b60405161016194939291906124f9565b60405180910390f35b610184600480360381019061017f9190612159565b610b21565b6040516101929291906124c2565b60405180910390f35b6101b560048036038101906101b09190612159565b610c72565b6040516101c796959493929190612445565b60405180910390f35b6101ea60048036038101906101e59190612047565b610f0b565b6040516101f79190612600565b60405180910390f35b61021a60048036038101906102159190612047565b610f23565b6040516102279190612600565b60405180910390f35b61024a60048036038101906102459190612195565b610f3b565b005b61026660048036038101906102619190612047565b611334565b6040516102739190612600565b60405180910390f35b61029660048036038101906102919190612159565b61134c565b6040516102a6949392919061255a565b60405180910390f35b6102c960048036038101906102c49190612159565b61181d565b6040516102d8939291906125b4565b60405180910390f35b600460205281600052604060002081815481106102fd57600080fd5b906000526020600020906009020160009150915050806000016040518060c00160405290816000820160009054906101000a900473ffffffffffffffffffffffffffffffffffffffff1673ffffffffffffffffffffffffffffffffffffffff1673ffffffffffffffffffffffffffffffffffffffff16815260200160018201805461038790612781565b80601f01602080910402602001604051908101604052809291908181526020018280546103b390612781565b80156104005780601f106103d557610100808354040283529160200191610400565b820191906000526020600020905b8154815290600101906020018083116103e357829003601f168201915b5050505050815260200160028201805461041990612781565b80601f016020809104026020016040519081016040528092919081815260200182805461044590612781565b80156104925780601f1061046757610100808354040283529160200191610492565b820191906000526020600020905b81548152906001019060200180831161047557829003601f168201915b505050505081526020016003820180546104ab90612781565b80601f01602080910402602001604051908101604052809291908181526020018280546104d790612781565b80156105245780601f106104f957610100808354040283529160200191610524565b820191906000526020600020905b81548152906001019060200180831161050757829003601f168201915b5050505050815260200160048201805461053d90612781565b80601f016020809104026020016040519081016040528092919081815260200182805461056990612781565b80156105b65780601f1061058b576101008083540402835291602001916105b6565b820191906000526020600020905b81548152906001019060200180831161059957829003601f168201915b50505050508152602001600582015481525050908060060180546105d990612781565b80601f016020809104026020016040519081016040528092919081815260200182805461060590612781565b80156106525780601f1061062757610100808354040283529160200191610652565b820191906000526020600020905b81548152906001019060200180831161063557829003601f168201915b50505050509080600701805461066790612781565b80601f016020809104026020016040519081016040528092919081815260200182805461069390612781565b80156106e05780601f106106b5576101008083540402835291602001916106e0565b820191906000526020600020905b8154815290600101906020018083116106c357829003601f168201915b5050505050905083565b60086020528060005260406000206000915090505481565b600560003373ffffffffffffffffffffffffffffffffffffffff1673ffffffffffffffffffffffffffffffffffffffff1681526020019081526020016000206040518060c001604052808873ffffffffffffffffffffffffffffffffffffffff16815260200187815260200186815260200185815260200184815260200183815250908060018154018082558091505060019003906000526020600020906006020160009091909190915060008201518160000160006101000a81548173ffffffffffffffffffffffffffffffffffffffff021916908373ffffffffffffffffffffffffffffffffffffffff1602179055506020820151816001019080519060200190610810929190611c26565b50604082015181600201908051906020019061082d929190611c26565b50606082015181600301908051906020019061084a929190611c26565b506080820151816004019080519060200190610867929190611c26565b5060a082015181600501555050600660003373ffffffffffffffffffffffffffffffffffffffff1673ffffffffffffffffffffffffffffffffffffffff16815260200190815260200160002060008154809291906108c4906127e4565b9190505550505050505050565b60096020528060005260406000206000915090508060000180546108f490612781565b80601f016020809104026020016040519081016040528092919081815260200182805461092090612781565b801561096d5780601f106109425761010080835404028352916020019161096d565b820191906000526020600020905b81548152906001019060200180831161095057829003601f168201915b50505050509080600101805461098290612781565b80601f01602080910402602001604051908101604052809291908181526020018280546109ae90612781565b80156109fb5780601f106109d0576101008083540402835291602001916109fb565b820191906000526020600020905b8154815290600101906020018083116109de57829003601f168201915b505050505090806002018054610a1090612781565b80601f0160208091040260200160405190810160405280929190818152602001828054610a3c90612781565b8015610a895780601f10610a5e57610100808354040283529160200191610a89565b820191906000526020600020905b815481529060010190602001808311610a6c57829003601f168201915b505050505090806003018054610a9e90612781565b80601f0160208091040260200160405190810160405280929190818152602001828054610aca90612781565b8015610b175780601f10610aec57610100808354040283529160200191610b17565b820191906000526020600020905b815481529060010190602001808311610afa57829003601f168201915b5050505050905084565b60016020528160005260406000208181548110610b3d57600080fd5b906000526020600020906003020160009150915050806000018054610b6190612781565b80601f0160208091040260200160405190810160405280929190818152602001828054610b8d90612781565b8015610bda5780601f10610baf57610100808354040283529160200191610bda565b820191906000526020600020905b815481529060010190602001808311610bbd57829003601f168201915b505050505090806001018054610bef90612781565b80601f0160208091040260200160405190810160405280929190818152602001828054610c1b90612781565b8015610c685780601f10610c3d57610100808354040283529160200191610c68565b820191906000526020600020905b815481529060010190602001808311610c4b57829003601f168201915b5050505050905082565b60056020528160005260406000208181548110610c8e57600080fd5b9060005260206000209060060201600091509150508060000160009054906101000a900473ffffffffffffffffffffffffffffffffffffffff1690806001018054610cd890612781565b80601f0160208091040260200160405190810160405280929190818152602001828054610d0490612781565b8015610d515780601f10610d2657610100808354040283529160200191610d51565b820191906000526020600020905b815481529060010190602001808311610d3457829003601f168201915b505050505090806002018054610d6690612781565b80601f0160208091040260200160405190810160405280929190818152602001828054610d9290612781565b8015610ddf5780601f10610db457610100808354040283529160200191610ddf565b820191906000526020600020905b815481529060010190602001808311610dc257829003601f168201915b505050505090806003018054610df490612781565b80601f0160208091040260200160405190810160405280929190818152602001828054610e2090612781565b8015610e6d5780601f10610e4257610100808354040283529160200191610e6d565b820191906000526020600020905b815481529060010190602001808311610e5057829003601f168201915b505050505090806004018054610e8290612781565b80601f0160208091040260200160405190810160405280929190818152602001828054610eae90612781565b8015610efb5780601f10610ed057610100808354040283529160200191610efb565b820191906000526020600020905b815481529060010190602001808311610ede57829003601f168201915b5050505050908060050154905086565b60066020528060005260406000206000915090505481565b60026020528060005260406000206000915090505481565b60005b8151811015610fcb576000803373ffffffffffffffffffffffffffffffffffffffff1673ffffffffffffffffffffffffffffffffffffffff16815260200190815260200160002060008082016000610f969190611cac565b600182016000610fa69190611cac565b600282016000610fb69190611cec565b50508080610fc3906127e4565b915050610f3e565b50826000803373ffffffffffffffffffffffffffffffffffffffff1673ffffffffffffffffffffffffffffffffffffffff1681526020019081526020016000206000019080519060200190611021929190611c26565b50816000803373ffffffffffffffffffffffffffffffffffffffff1673ffffffffffffffffffffffffffffffffffffffff1681526020019081526020016000206001019080519060200190611077929190611c26565b5060005b81518110156111da576000803373ffffffffffffffffffffffffffffffffffffffff1673ffffffffffffffffffffffffffffffffffffffff1681526020019081526020016000206002016040518060400160405280848481518110611109577f4e487b7100000000000000000000000000000000000000000000000000000000600052603260045260246000fd5b6020026020010151600001518152602001848481518110611153577f4e487b7100000000000000000000000000000000000000000000000000000000600052603260045260246000fd5b602002602001015160200151815250908060018154018082558091505060019003906000526020600020906002020160009091909190915060008201518160000190805190602001906111a7929190611c26565b5060208201518160010190805190602001906111c4929190611c26565b50505080806111d2906127e4565b91505061107b565b50600160003373ffffffffffffffffffffffffffffffffffffffff1673ffffffffffffffffffffffffffffffffffffffff1681526020019081526020016000206000803373ffffffffffffffffffffffffffffffffffffffff1673ffffffffffffffffffffffffffffffffffffffff1681526020019081526020016000209080600181540180825580915050600190039060005260206000209060030201600090919091909150600082018160000190805461129590612781565b6112a0929190611d10565b5060018201816001019080546112b590612781565b6112c0929190611d10565b5060028201816002019080546112d7929190611d9d565b505050600260003373ffffffffffffffffffffffffffffffffffffffff1673ffffffffffffffffffffffffffffffffffffffff168152602001908152602001600020600081548092919061132a906127e4565b9190505550505050565b60076020528060005260406000206000915090505481565b60608060006060600160008773ffffffffffffffffffffffffffffffffffffffff1673ffffffffffffffffffffffffffffffffffffffff16815260200190815260200160002085815481106113ca577f4e487b7100000000000000000000000000000000000000000000000000000000600052603260045260246000fd5b9060005260206000209060030201600001600160008873ffffffffffffffffffffffffffffffffffffffff1673ffffffffffffffffffffffffffffffffffffffff1681526020019081526020016000208681548110611452577f4e487b7100000000000000000000000000000000000000000000000000000000600052603260045260246000fd5b9060005260206000209060030201600101600160008973ffffffffffffffffffffffffffffffffffffffff1673ffffffffffffffffffffffffffffffffffffffff16815260200190815260200160002087815481106114da577f4e487b7100000000000000000000000000000000000000000000000000000000600052603260045260246000fd5b906000526020600020906003020160020180549050600160008a73ffffffffffffffffffffffffffffffffffffffff1673ffffffffffffffffffffffffffffffffffffffff1681526020019081526020016000208881548110611566577f4e487b7100000000000000000000000000000000000000000000000000000000600052603260045260246000fd5b906000526020600020906003020160020183805461158390612781565b80601f01602080910402602001604051908101604052809291908181526020018280546115af90612781565b80156115fc5780601f106115d1576101008083540402835291602001916115fc565b820191906000526020600020905b8154815290600101906020018083116115df57829003601f168201915b5050505050935082805461160f90612781565b80601f016020809104026020016040519081016040528092919081815260200182805461163b90612781565b80156116885780601f1061165d57610100808354040283529160200191611688565b820191906000526020600020905b81548152906001019060200180831161166b57829003601f168201915b5050505050925080805480602002602001604051908101604052809291908181526020016000905b8282101561180657838290600052602060002090600202016040518060400160405290816000820180546116e390612781565b80601f016020809104026020016040519081016040528092919081815260200182805461170f90612781565b801561175c5780601f106117315761010080835404028352916020019161175c565b820191906000526020600020905b81548152906001019060200180831161173f57829003601f168201915b5050505050815260200160018201805461177590612781565b80601f01602080910402602001604051908101604052809291908181526020018280546117a190612781565b80156117ee5780601f106117c3576101008083540402835291602001916117ee565b820191906000526020600020905b8154815290600101906020018083116117d157829003601f168201915b505050505081525050815260200190600101906116b0565b505050509050935093509350935092959194509250565b6003602052816000526040600020818154811061183957600080fd5b906000526020600020906009020160009150915050806000016040518060c00160405290816000820160009054906101000a900473ffffffffffffffffffffffffffffffffffffffff1673ffffffffffffffffffffffffffffffffffffffff1673ffffffffffffffffffffffffffffffffffffffff1681526020016001820180546118c390612781565b80601f01602080910402602001604051908101604052809291908181526020018280546118ef90612781565b801561193c5780601f106119115761010080835404028352916020019161193c565b820191906000526020600020905b81548152906001019060200180831161191f57829003601f168201915b5050505050815260200160028201805461195590612781565b80601f016020809104026020016040519081016040528092919081815260200182805461198190612781565b80156119ce5780601f106119a3576101008083540402835291602001916119ce565b820191906000526020600020905b8154815290600101906020018083116119b157829003601f168201915b505050505081526020016003820180546119e790612781565b80601f0160208091040260200160405190810160405280929190818152602001828054611a1390612781565b8015611a605780601f10611a3557610100808354040283529160200191611a60565b820191906000526020600020905b815481529060010190602001808311611a4357829003601f168201915b50505050508152602001600482018054611a7990612781565b80601f0160208091040260200160405190810160405280929190818152602001828054611aa590612781565b8015611af25780601f10611ac757610100808354040283529160200191611af2565b820191906000526020600020905b815481529060010190602001808311611ad557829003601f168201915b5050505050815260200160058201548152505090806006018054611b1590612781565b80601f0160208091040260200160405190810160405280929190818152602001828054611b4190612781565b8015611b8e5780601f10611b6357610100808354040283529160200191611b8e565b820191906000526020600020905b815481529060010190602001808311611b7157829003601f168201915b505050505090806007018054611ba390612781565b80601f0160208091040260200160405190810160405280929190818152602001828054611bcf90612781565b8015611c1c5780601f10611bf157610100808354040283529160200191611c1c565b820191906000526020600020905b815481529060010190602001808311611bff57829003601f168201915b5050505050905083565b828054611c3290612781565b90600052602060002090601f016020900481019282611c545760008555611c9b565b82601f10611c6d57805160ff1916838001178555611c9b565b82800160010185558215611c9b579182015b82811115611c9a578251825591602001919060010190611c7f565b5b509050611ca89190611e35565b5090565b508054611cb890612781565b6000825580601f10611cca5750611ce9565b601f016020900490600052602060002090810190611ce89190611e35565b5b50565b5080546000825560020290600052602060002090810190611d0d9190611e52565b50565b828054611d1c90612781565b90600052602060002090601f016020900481019282611d3e5760008555611d8c565b82601f10611d4f5780548555611d8c565b82800160010185558215611d8c57600052602060002091601f016020900482015b82811115611d8b578254825591600101919060010190611d70565b5b509050611d999190611e35565b5090565b828054828255906000526020600020906002028101928215611e245760005260206000209160020282015b82811115611e235782826000820181600001908054611de690612781565b611df1929190611d10565b506001820181600101908054611e0690612781565b611e11929190611d10565b50505091600201919060020190611dc8565b5b509050611e319190611e52565b5090565b5b80821115611e4e576000816000905550600101611e36565b5090565b5b80821115611e855760008082016000611e6c9190611cac565b600182016000611e7c9190611cac565b50600201611e53565b5090565b6000611e9c611e9784612640565b61261b565b90508083825260208201905082856020860282011115611ebb57600080fd5b60005b85811015611f0557813567ffffffffffffffff811115611edd57600080fd5b808601611eea8982611fb6565b85526020850194506020840193505050600181019050611ebe565b5050509392505050565b6000611f22611f1d8461266c565b61261b565b905082815260208101848484011115611f3a57600080fd5b611f4584828561273f565b509392505050565b600081359050611f5c816128cb565b92915050565b600082601f830112611f7357600080fd5b8135611f83848260208601611e89565b91505092915050565b600082601f830112611f9d57600080fd5b8135611fad848260208601611f0f565b91505092915050565b600060408284031215611fc857600080fd5b611fd2604061261b565b9050600082013567ffffffffffffffff811115611fee57600080fd5b611ffa84828501611f8c565b600083015250602082013567ffffffffffffffff81111561201a57600080fd5b61202684828501611f8c565b60208301525092915050565b600081359050612041816128e2565b92915050565b60006020828403121561205957600080fd5b600061206784828501611f4d565b91505092915050565b60008060008060008060c0878903121561208957600080fd5b600061209789828a01611f4d565b965050602087013567ffffffffffffffff8111156120b457600080fd5b6120c089828a01611f8c565b955050604087013567ffffffffffffffff8111156120dd57600080fd5b6120e989828a01611f8c565b945050606087013567ffffffffffffffff81111561210657600080fd5b61211289828a01611f8c565b935050608087013567ffffffffffffffff81111561212f57600080fd5b61213b89828a01611f8c565b92505060a061214c89828a01612032565b9150509295509295509295565b6000806040838503121561216c57600080fd5b600061217a85828601611f4d565b925050602061218b85828601612032565b9150509250929050565b6000806000606084860312156121aa57600080fd5b600084013567ffffffffffffffff8111156121c457600080fd5b6121d086828701611f8c565b935050602084013567ffffffffffffffff8111156121ed57600080fd5b6121f986828701611f8c565b925050604084013567ffffffffffffffff81111561221657600080fd5b61222286828701611f62565b9150509250925092565b60006122388383612345565b905092915050565b61224981612703565b82525050565b61225881612703565b82525050565b6000612269826126ad565b61227381856126d0565b9350836020820285016122858561269d565b8060005b858110156122c157848403895281516122a2858261222c565b94506122ad836126c3565b925060208a01995050600181019050612289565b50829750879550505050505092915050565b60006122de826126b8565b6122e881856126e1565b93506122f881856020860161274e565b612301816128ba565b840191505092915050565b6000612317826126b8565b61232181856126f2565b935061233181856020860161274e565b61233a816128ba565b840191505092915050565b6000604083016000830151848203600086015261236282826122d3565b9150506020830151848203602086015261237c82826122d3565b9150508091505092915050565b600060c0830160008301516123a16000860182612240565b50602083015184820360208601526123b982826122d3565b915050604083015184820360408601526123d382826122d3565b915050606083015184820360608601526123ed82826122d3565b9150506080830151848203608086015261240782826122d3565b91505060a083015161241c60a0860182612427565b508091505092915050565b61243081612735565b82525050565b61243f81612735565b82525050565b600060c08201905061245a600083018961224f565b818103602083015261246c818861230c565b90508181036040830152612480818761230c565b90508181036060830152612494818661230c565b905081810360808301526124a8818561230c565b90506124b760a0830184612436565b979650505050505050565b600060408201905081810360008301526124dc818561230c565b905081810360208301526124f0818461230c565b90509392505050565b60006080820190508181036000830152612513818761230c565b90508181036020830152612527818661230c565b9050818103604083015261253b818561230c565b9050818103606083015261254f818461230c565b905095945050505050565b60006080820190508181036000830152612574818761230c565b90508181036020830152612588818661230c565b90506125976040830185612436565b81810360608301526125a9818461225e565b905095945050505050565b600060608201905081810360008301526125ce8186612389565b905081810360208301526125e2818561230c565b905081810360408301526125f6818461230c565b9050949350505050565b60006020820190506126156000830184612436565b92915050565b6000612625612636565b905061263182826127b3565b919050565b6000604051905090565b600067ffffffffffffffff82111561265b5761265a61288b565b5b602082029050602081019050919050565b600067ffffffffffffffff8211156126875761268661288b565b5b612690826128ba565b9050602081019050919050565b6000819050602082019050919050565b600081519050919050565b600081519050919050565b6000602082019050919050565b600082825260208201905092915050565b600082825260208201905092915050565b600082825260208201905092915050565b600061270e82612715565b9050919050565b600073ffffffffffffffffffffffffffffffffffffffff82169050919050565b6000819050919050565b82818337600083830152505050565b60005b8381101561276c578082015181840152602081019050612751565b8381111561277b576000848401525b50505050565b6000600282049050600182168061279957607f821691505b602082108114156127ad576127ac61285c565b5b50919050565b6127bc826128ba565b810181811067ffffffffffffffff821117156127db576127da61288b565b5b80604052505050565b60006127ef82612735565b91507fffffffffffffffffffffffffffffffffffffffffffffffffffffffffffffffff8214156128225761282161282d565b5b600182019050919050565b7f4e487b7100000000000000000000000000000000000000000000000000000000600052601160045260246000fd5b7f4e487b7100000000000000000000000000000000000000000000000000000000600052602260045260246000fd5b7f4e487b7100000000000000000000000000000000000000000000000000000000600052604160045260246000fd5b6000601f19601f8301169050919050565b6128d481612703565b81146128df57600080fd5b50565b6128eb81612735565b81146128f657600080fd5b5056fea2646970667358221220c2d568581ffae403aacd7b0c342f88f282ea656072abe24085e892fac2ee3d9664736f6c63430008040033",
  "immutableReferences": {},
  "source": "// SPDX-License-Identifier: GPL-3.0\r\npragma solidity >=0.7.0 <0.9.0;\r\n\r\ncontract RecetaMedica {\r\n\r\n    struct Receta {\r\n        Paciente paciente;\r\n        string diagnostico;\r\n        string indicacionesExtras;\r\n        Medicina[] medicinas;\r\n    }\r\n\r\n    struct Rec1 {\r\n        string diagnostico;\r\n        string indicacionesExtras;\r\n        Medicina[] medicinas;\r\n    }\r\n\r\n    struct Medico {\r\n        string cedulaProfesional;\r\n        string nombres;\r\n        string apellidos;\r\n        string especialidad;\r\n    }\r\n\r\n    struct Paciente {\r\n        address cuentaPaciente;\r\n        string cedula;\r\n        string nombres;\r\n        string apellidos;\r\n        string correo;\r\n        uint edad;\r\n    }\r\n\r\n    struct Medicina {\r\n        string nombreMedicina;\r\n        string indicacion;\r\n    }\r\n\r\n    mapping(address => Rec1)  private recetaTemporal;\r\n\r\n    mapping(address => Rec1[]) public recPorDoctor;\r\n    mapping(address => uint) public recTotalesPorDoctor;\r\n    mapping(address => Receta[]) public recetaPorDoctor;\r\n    mapping(address => Receta[]) public recetaPorPaciente;\r\n    mapping(address => Paciente[]) public pacientesPorDoctor;\r\n    mapping(address => uint) public pacientesTotalesPorDoctor;\r\n    mapping(address => uint) public recetasTotalesPorDoctor;\r\n    mapping(address => uint) public recetasTotalesPorPaciente;\r\n    mapping(address => Medico) public medicos;\r\n\r\n    constructor(){\r\n        //Doctores pre-existentes\r\n        medicos[0x0DF3c5E1e60A27f02D9d0FF8730c99A73D924Fc3] = Medico(\"11111111\", \"Patricio\", \"Estrella\", \"General\");\r\n        medicos[0xF5B223A069ebfDc5D491b94fB50C8be0B063CB65] = Medico(\"22222222\", \"Bob\", \"Sponja\", \"General\");\r\n    }\r\n\r\n    function registrarPaciente(\r\n        address _cuentaPaciente,\r\n        string memory _cedula,\r\n        string memory _nombre,\r\n        string memory _apellido,\r\n        string memory _correo,\r\n        uint _edad\r\n    ) public {\r\n        pacientesPorDoctor[msg.sender].push(Paciente(_cuentaPaciente, _cedula, _nombre, _apellido, _correo, _edad));\r\n        pacientesTotalesPorDoctor[msg.sender] ++;\r\n    }\r\n\r\n    function registrarReceta(\r\n        string memory _diagnostico,\r\n        string memory _indicacionesExtras,\r\n        Medicina[] memory _medicinas\r\n    ) public {\r\n        //Dado que, recetaTemporal es variable global se va acumulando por eso se la vaca por cada registro ya que son indep\r\n        for (uint j = 0; j < _medicinas.length; j++) {\r\n            delete recetaTemporal[msg.sender];\r\n        }\r\n        recetaTemporal[msg.sender].diagnostico = _diagnostico;\r\n        recetaTemporal[msg.sender].indicacionesExtras = _indicacionesExtras;\r\n        for (uint j = 0; j < _medicinas.length; j++) {\r\n            recetaTemporal[msg.sender].medicinas.push(Medicina(_medicinas[j].nombreMedicina, _medicinas[j].indicacion));\r\n        }\r\n        recPorDoctor[msg.sender].push(recetaTemporal[msg.sender]);\r\n        recTotalesPorDoctor[msg.sender]++;\r\n    }\r\n\r\n    function getRecetasPorDoctor(address cuentaDoctor, uint i) public view returns (string memory, string memory, uint, Medicina[] memory) {\r\n        return (recPorDoctor[cuentaDoctor][i].diagnostico,\r\n        recPorDoctor[cuentaDoctor][i].indicacionesExtras,\r\n        recPorDoctor[cuentaDoctor][i].medicinas.length,\r\n        recPorDoctor[cuentaDoctor][i].medicinas);\r\n    }\r\n}\r\n",
  "sourcePath": "C:/Users/Mickmaxy/Documents/GitHub/dapp-recetas-medicas/contracts/RecetaMedica.sol",
  "compiler": {
    "name": "solc",
    "version": "0.8.4+commit.c7e474f2.Emscripten.clang"
  },
  "schemaVersion": "3.4.1",
  "updatedAt": "2021-07-22T06:33:14.771Z",
  "networkType": "ethereum",
  "devdoc": {
    "kind": "dev",
    "methods": {},
    "version": 1
  },
  "userdoc": {
    "kind": "user",
    "methods": {},
    "version": 1
  }
}