{
  "contractName": "RecetaMedica",
  "abi": [
    {
      "inputs": [],
      "stateMutability": "nonpayable",
      "type": "constructor"
    },
    {
      "anonymous": false,
      "inputs": [
        {
          "indexed": false,
          "internalType": "string",
          "name": "nombresMedico",
          "type": "string"
        },
        {
          "indexed": false,
          "internalType": "string",
          "name": "apellidosMedico",
          "type": "string"
        },
        {
          "indexed": false,
          "internalType": "address",
          "name": "cuentaPaciente",
          "type": "address"
        }
      ],
      "name": "RecetaRegistrada",
      "type": "event"
    },
    {
      "inputs": [
        {
          "internalType": "address",
          "name": "",
          "type": "address"
        }
      ],
      "name": "medicos",
      "outputs": [
        {
          "internalType": "string",
          "name": "cedulaProfesional",
          "type": "string"
        },
        {
          "internalType": "string",
          "name": "nombres",
          "type": "string"
        },
        {
          "internalType": "string",
          "name": "apellidos",
          "type": "string"
        },
        {
          "internalType": "string",
          "name": "especialidad",
          "type": "string"
        }
      ],
      "stateMutability": "view",
      "type": "function",
      "constant": true
    },
    {
      "inputs": [
        {
          "internalType": "address",
          "name": "",
          "type": "address"
        }
      ],
      "name": "pacientes",
      "outputs": [
        {
          "internalType": "address",
          "name": "cuentaPaciente",
          "type": "address"
        },
        {
          "internalType": "string",
          "name": "cedula",
          "type": "string"
        },
        {
          "internalType": "string",
          "name": "nombres",
          "type": "string"
        },
        {
          "internalType": "string",
          "name": "apellidos",
          "type": "string"
        },
        {
          "internalType": "string",
          "name": "correo",
          "type": "string"
        },
        {
          "internalType": "string",
          "name": "celular",
          "type": "string"
        },
        {
          "internalType": "uint8",
          "name": "edad",
          "type": "uint8"
        }
      ],
      "stateMutability": "view",
      "type": "function",
      "constant": true
    },
    {
      "inputs": [
        {
          "internalType": "address",
          "name": "",
          "type": "address"
        },
        {
          "internalType": "uint256",
          "name": "",
          "type": "uint256"
        }
      ],
      "name": "pacientesPorDoctor",
      "outputs": [
        {
          "internalType": "address",
          "name": "cuentaPaciente",
          "type": "address"
        },
        {
          "internalType": "string",
          "name": "cedula",
          "type": "string"
        },
        {
          "internalType": "string",
          "name": "nombres",
          "type": "string"
        },
        {
          "internalType": "string",
          "name": "apellidos",
          "type": "string"
        },
        {
          "internalType": "string",
          "name": "correo",
          "type": "string"
        },
        {
          "internalType": "string",
          "name": "celular",
          "type": "string"
        },
        {
          "internalType": "uint8",
          "name": "edad",
          "type": "uint8"
        }
      ],
      "stateMutability": "view",
      "type": "function",
      "constant": true
    },
    {
      "inputs": [
        {
          "internalType": "address",
          "name": "",
          "type": "address"
        }
      ],
      "name": "pacientesTotalesPorDoctor",
      "outputs": [
        {
          "internalType": "uint256",
          "name": "",
          "type": "uint256"
        }
      ],
      "stateMutability": "view",
      "type": "function",
      "constant": true
    },
    {
      "inputs": [
        {
          "internalType": "uint256",
          "name": "",
          "type": "uint256"
        }
      ],
      "name": "recetas",
      "outputs": [
        {
          "internalType": "uint256",
          "name": "id",
          "type": "uint256"
        },
        {
          "components": [
            {
              "internalType": "string",
              "name": "cedulaProfesional",
              "type": "string"
            },
            {
              "internalType": "string",
              "name": "nombres",
              "type": "string"
            },
            {
              "internalType": "string",
              "name": "apellidos",
              "type": "string"
            },
            {
              "internalType": "string",
              "name": "especialidad",
              "type": "string"
            }
          ],
          "internalType": "struct RecetaMedica.Medico",
          "name": "medico",
          "type": "tuple"
        },
        {
          "components": [
            {
              "internalType": "address",
              "name": "cuentaPaciente",
              "type": "address"
            },
            {
              "internalType": "string",
              "name": "cedula",
              "type": "string"
            },
            {
              "internalType": "string",
              "name": "nombres",
              "type": "string"
            },
            {
              "internalType": "string",
              "name": "apellidos",
              "type": "string"
            },
            {
              "internalType": "string",
              "name": "correo",
              "type": "string"
            },
            {
              "internalType": "string",
              "name": "celular",
              "type": "string"
            },
            {
              "internalType": "uint8",
              "name": "edad",
              "type": "uint8"
            }
          ],
          "internalType": "struct RecetaMedica.Paciente",
          "name": "paciente",
          "type": "tuple"
        },
        {
          "internalType": "string",
          "name": "diagnostico",
          "type": "string"
        },
        {
          "internalType": "string",
          "name": "indicacionesExtras",
          "type": "string"
        },
        {
          "internalType": "uint256",
          "name": "fecha",
          "type": "uint256"
        },
        {
          "internalType": "uint256",
          "name": "fechaCaducidad",
          "type": "uint256"
        },
        {
          "internalType": "address",
          "name": "tokenMedico",
          "type": "address"
        },
        {
          "internalType": "bool",
          "name": "isDespachado",
          "type": "bool"
        }
      ],
      "stateMutability": "view",
      "type": "function",
      "constant": true
    },
    {
      "inputs": [
        {
          "components": [
            {
              "internalType": "address",
              "name": "cuentaPaciente",
              "type": "address"
            },
            {
              "internalType": "string",
              "name": "cedula",
              "type": "string"
            },
            {
              "internalType": "string",
              "name": "nombres",
              "type": "string"
            },
            {
              "internalType": "string",
              "name": "apellidos",
              "type": "string"
            },
            {
              "internalType": "string",
              "name": "correo",
              "type": "string"
            },
            {
              "internalType": "string",
              "name": "celular",
              "type": "string"
            },
            {
              "internalType": "uint8",
              "name": "edad",
              "type": "uint8"
            }
          ],
          "internalType": "struct RecetaMedica.Paciente",
          "name": "_paciente",
          "type": "tuple"
        }
      ],
      "name": "registrarPaciente",
      "outputs": [],
      "stateMutability": "nonpayable",
      "type": "function"
    },
    {
      "inputs": [
        {
          "components": [
            {
              "internalType": "string",
              "name": "cedulaProfesional",
              "type": "string"
            },
            {
              "internalType": "string",
              "name": "nombres",
              "type": "string"
            },
            {
              "internalType": "string",
              "name": "apellidos",
              "type": "string"
            },
            {
              "internalType": "string",
              "name": "especialidad",
              "type": "string"
            }
          ],
          "internalType": "struct RecetaMedica.Medico",
          "name": "_medico",
          "type": "tuple"
        },
        {
          "components": [
            {
              "internalType": "address",
              "name": "cuentaPaciente",
              "type": "address"
            },
            {
              "internalType": "string",
              "name": "cedula",
              "type": "string"
            },
            {
              "internalType": "string",
              "name": "nombres",
              "type": "string"
            },
            {
              "internalType": "string",
              "name": "apellidos",
              "type": "string"
            },
            {
              "internalType": "string",
              "name": "correo",
              "type": "string"
            },
            {
              "internalType": "string",
              "name": "celular",
              "type": "string"
            },
            {
              "internalType": "uint8",
              "name": "edad",
              "type": "uint8"
            }
          ],
          "internalType": "struct RecetaMedica.Paciente",
          "name": "_paciente",
          "type": "tuple"
        },
        {
          "internalType": "string",
          "name": "_diagnostico",
          "type": "string"
        },
        {
          "internalType": "string",
          "name": "_indicacionesExtras",
          "type": "string"
        },
        {
          "components": [
            {
              "internalType": "string",
              "name": "nombreMedicina",
              "type": "string"
            },
            {
              "internalType": "string",
              "name": "indicacion",
              "type": "string"
            }
          ],
          "internalType": "struct RecetaMedica.Medicina[]",
          "name": "_medicinas",
          "type": "tuple[]"
        },
        {
          "internalType": "uint256",
          "name": "_fechaCaducidad",
          "type": "uint256"
        }
      ],
      "name": "registrarReceta",
      "outputs": [],
      "stateMutability": "nonpayable",
      "type": "function"
    },
    {
      "inputs": [
        {
          "internalType": "address",
          "name": "cuenta",
          "type": "address"
        },
        {
          "internalType": "bool",
          "name": "isMedico",
          "type": "bool"
        }
      ],
      "name": "getRecetas",
      "outputs": [
        {
          "components": [
            {
              "internalType": "uint256",
              "name": "id",
              "type": "uint256"
            },
            {
              "components": [
                {
                  "internalType": "string",
                  "name": "cedulaProfesional",
                  "type": "string"
                },
                {
                  "internalType": "string",
                  "name": "nombres",
                  "type": "string"
                },
                {
                  "internalType": "string",
                  "name": "apellidos",
                  "type": "string"
                },
                {
                  "internalType": "string",
                  "name": "especialidad",
                  "type": "string"
                }
              ],
              "internalType": "struct RecetaMedica.Medico",
              "name": "medico",
              "type": "tuple"
            },
            {
              "components": [
                {
                  "internalType": "address",
                  "name": "cuentaPaciente",
                  "type": "address"
                },
                {
                  "internalType": "string",
                  "name": "cedula",
                  "type": "string"
                },
                {
                  "internalType": "string",
                  "name": "nombres",
                  "type": "string"
                },
                {
                  "internalType": "string",
                  "name": "apellidos",
                  "type": "string"
                },
                {
                  "internalType": "string",
                  "name": "correo",
                  "type": "string"
                },
                {
                  "internalType": "string",
                  "name": "celular",
                  "type": "string"
                },
                {
                  "internalType": "uint8",
                  "name": "edad",
                  "type": "uint8"
                }
              ],
              "internalType": "struct RecetaMedica.Paciente",
              "name": "paciente",
              "type": "tuple"
            },
            {
              "internalType": "string",
              "name": "diagnostico",
              "type": "string"
            },
            {
              "internalType": "string",
              "name": "indicacionesExtras",
              "type": "string"
            },
            {
              "components": [
                {
                  "internalType": "string",
                  "name": "nombreMedicina",
                  "type": "string"
                },
                {
                  "internalType": "string",
                  "name": "indicacion",
                  "type": "string"
                }
              ],
              "internalType": "struct RecetaMedica.Medicina[]",
              "name": "medicinas",
              "type": "tuple[]"
            },
            {
              "internalType": "uint256",
              "name": "fecha",
              "type": "uint256"
            },
            {
              "internalType": "uint256",
              "name": "fechaCaducidad",
              "type": "uint256"
            },
            {
              "internalType": "address",
              "name": "tokenMedico",
              "type": "address"
            },
            {
              "internalType": "bool",
              "name": "isDespachado",
              "type": "bool"
            }
          ],
          "internalType": "struct RecetaMedica.Receta[]",
          "name": "",
          "type": "tuple[]"
        }
      ],
      "stateMutability": "view",
      "type": "function",
      "constant": true
    },
    {
      "inputs": [
        {
          "internalType": "uint256",
          "name": "idReceta",
          "type": "uint256"
        }
      ],
      "name": "eliminarReceta",
      "outputs": [],
      "stateMutability": "nonpayable",
      "type": "function"
    },
    {
      "inputs": [
        {
          "internalType": "uint256",
          "name": "idReceta",
          "type": "uint256"
        }
      ],
      "name": "despacharReceta",
      "outputs": [],
      "stateMutability": "nonpayable",
      "type": "function"
    }
  ],
  "bytecode": "0x60806040523480156200001157600080fd5b5060405180608001604052806040518060400160405280600881526020017f313131313131313100000000000000000000000000000000000000000000000081525081526020016040518060400160405280600881526020017f506174726963696f00000000000000000000000000000000000000000000000081525081526020016040518060400160405280600881526020017f45737472656c6c6100000000000000000000000000000000000000000000000081525081526020016040518060400160405280600781526020017f47656e6572616c00000000000000000000000000000000000000000000000000815250815250600080730df3c5e1e60a27f02d9d0ff8730c99a73d924fc373ffffffffffffffffffffffffffffffffffffffff1673ffffffffffffffffffffffffffffffffffffffff168152602001908152602001600020600082015181600001908051906020019062000177929190620003a4565b50602082015181600101908051906020019062000196929190620003a4565b506040820151816002019080519060200190620001b5929190620003a4565b506060820151816003019080519060200190620001d4929190620003a4565b5090505060405180608001604052806040518060400160405280600881526020017f323232323232323200000000000000000000000000000000000000000000000081525081526020016040518060400160405280600381526020017f426f62000000000000000000000000000000000000000000000000000000000081525081526020016040518060400160405280600681526020017f53706f6e6a61000000000000000000000000000000000000000000000000000081525081526020016040518060400160405280600781526020017f47656e6572616c0000000000000000000000000000000000000000000000000081525081525060008073f5b223a069ebfdc5d491b94fb50c8be0b063cb6573ffffffffffffffffffffffffffffffffffffffff1673ffffffffffffffffffffffffffffffffffffffff16815260200190815260200160002060008201518160000190805190602001906200033d929190620003a4565b5060208201518160010190805190602001906200035c929190620003a4565b5060408201518160020190805190602001906200037b929190620003a4565b5060608201518160030190805190602001906200039a929190620003a4565b50905050620004b9565b828054620003b29062000454565b90600052602060002090601f016020900481019282620003d6576000855562000422565b82601f10620003f157805160ff191683800117855562000422565b8280016001018555821562000422579182015b828111156200042157825182559160200191906001019062000404565b5b50905062000431919062000435565b5090565b5b808211156200045057600081600090555060010162000436565b5090565b600060028204905060018216806200046d57607f821691505b602082108114156200048457620004836200048a565b5b50919050565b7f4e487b7100000000000000000000000000000000000000000000000000000000600052602260045260246000fd5b61423480620004c96000396000f3fe608060405234801561001057600080fd5b506004361061009e5760003560e01c8063b181a8bf11610066578063b181a8bf14610190578063bc14b7dc146101ac578063bf66b8c1146101e2578063d2de662214610212578063eaf385621461022e5761009e565b80630afe59e1146100a35780634dfa1864146100bf5780635b8f2358146100f2578063764b78e21461012a5780637d10d47114610160575b600080fd5b6100bd60048036038101906100b89190613494565b61024a565b005b6100d960048036038101906100d491906132ce565b61078e565b6040516100e99493929190613c9a565b60405180910390f35b61010c600480360381019061010791906134dd565b6109de565b60405161012199989796959493929190613d36565b60405180910390f35b610144600480360381019061013f919061333b565b611122565b6040516101579796959493929190613ba1565b60405180910390f35b61017a600480360381019061017591906132ce565b611456565b6040516101879190613d1b565b60405180910390f35b6101aa60048036038101906101a591906134dd565b61146e565b005b6101c660048036038101906101c191906132ce565b6114af565b6040516101d99796959493929190613ba1565b60405180910390f35b6101fc60048036038101906101f791906132fb565b6117c6565b6040516102099190613c33565b60405180910390f35b61022c600480360381019061022791906134dd565b61234f565b005b6102486004803603810190610243919061337b565b6124d3565b005b60005b600460003373ffffffffffffffffffffffffffffffffffffffff1673ffffffffffffffffffffffffffffffffffffffff1681526020019081526020016000205481101561045857816000015173ffffffffffffffffffffffffffffffffffffffff16600360003373ffffffffffffffffffffffffffffffffffffffff1673ffffffffffffffffffffffffffffffffffffffff1681526020019081526020016000208281548110610300576102ff6140c1565b5b906000526020600020906007020160000160009054906101000a900473ffffffffffffffffffffffffffffffffffffffff1673ffffffffffffffffffffffffffffffffffffffff16148015610405575081602001516040516020016103659190613b73565b60405160208183030381529060405280519060200120600360003373ffffffffffffffffffffffffffffffffffffffff1673ffffffffffffffffffffffffffffffffffffffff16815260200190815260200160002082815481106103cc576103cb6140c1565b5b90600052602060002090600702016001016040516020016103ed9190613b8a565b60405160208183030381529060405280519060200120145b15610445576040517f08c379a000000000000000000000000000000000000000000000000000000000815260040161043c90613cfb565b60405180910390fd5b80806104509061401a565b91505061024d565b50600073ffffffffffffffffffffffffffffffffffffffff16816000015173ffffffffffffffffffffffffffffffffffffffff16146105d2578060016000836000015173ffffffffffffffffffffffffffffffffffffffff1673ffffffffffffffffffffffffffffffffffffffff16815260200190815260200160002060008201518160000160006101000a81548173ffffffffffffffffffffffffffffffffffffffff021916908373ffffffffffffffffffffffffffffffffffffffff1602179055506020820151816001019080519060200190610538929190612b46565b506040820151816002019080519060200190610555929190612b46565b506060820151816003019080519060200190610572929190612b46565b50608082015181600401908051906020019061058f929190612b46565b5060a08201518160050190805190602001906105ac929190612b46565b5060c08201518160060160006101000a81548160ff021916908360ff1602179055509050505b600360003373ffffffffffffffffffffffffffffffffffffffff1673ffffffffffffffffffffffffffffffffffffffff16815260200190815260200160002081908060018154018082558091505060019003906000526020600020906007020160009091909190915060008201518160000160006101000a81548173ffffffffffffffffffffffffffffffffffffffff021916908373ffffffffffffffffffffffffffffffffffffffff160217905550602082015181600101908051906020019061069e929190612b46565b5060408201518160020190805190602001906106bb929190612b46565b5060608201518160030190805190602001906106d8929190612b46565b5060808201518160040190805190602001906106f5929190612b46565b5060a0820151816005019080519060200190610712929190612b46565b5060c08201518160060160006101000a81548160ff021916908360ff1602179055505050600460003373ffffffffffffffffffffffffffffffffffffffff1673ffffffffffffffffffffffffffffffffffffffff16815260200190815260200160002060008154809291906107869061401a565b919050555050565b60006020528060005260406000206000915090508060000180546107b190613fb7565b80601f01602080910402602001604051908101604052809291908181526020018280546107dd90613fb7565b801561082a5780601f106107ff5761010080835404028352916020019161082a565b820191906000526020600020905b81548152906001019060200180831161080d57829003601f168201915b50505050509080600101805461083f90613fb7565b80601f016020809104026020016040519081016040528092919081815260200182805461086b90613fb7565b80156108b85780601f1061088d576101008083540402835291602001916108b8565b820191906000526020600020905b81548152906001019060200180831161089b57829003601f168201915b5050505050908060020180546108cd90613fb7565b80601f01602080910402602001604051908101604052809291908181526020018280546108f990613fb7565b80156109465780601f1061091b57610100808354040283529160200191610946565b820191906000526020600020905b81548152906001019060200180831161092957829003601f168201915b50505050509080600301805461095b90613fb7565b80601f016020809104026020016040519081016040528092919081815260200182805461098790613fb7565b80156109d45780601f106109a9576101008083540402835291602001916109d4565b820191906000526020600020905b8154815290600101906020018083116109b757829003601f168201915b5050505050905084565b600281815481106109ee57600080fd5b906000526020600020906012020160009150905080600001549080600101604051806080016040529081600082018054610a2790613fb7565b80601f0160208091040260200160405190810160405280929190818152602001828054610a5390613fb7565b8015610aa05780601f10610a7557610100808354040283529160200191610aa0565b820191906000526020600020905b815481529060010190602001808311610a8357829003601f168201915b50505050508152602001600182018054610ab990613fb7565b80601f0160208091040260200160405190810160405280929190818152602001828054610ae590613fb7565b8015610b325780601f10610b0757610100808354040283529160200191610b32565b820191906000526020600020905b815481529060010190602001808311610b1557829003601f168201915b50505050508152602001600282018054610b4b90613fb7565b80601f0160208091040260200160405190810160405280929190818152602001828054610b7790613fb7565b8015610bc45780601f10610b9957610100808354040283529160200191610bc4565b820191906000526020600020905b815481529060010190602001808311610ba757829003601f168201915b50505050508152602001600382018054610bdd90613fb7565b80601f0160208091040260200160405190810160405280929190818152602001828054610c0990613fb7565b8015610c565780601f10610c2b57610100808354040283529160200191610c56565b820191906000526020600020905b815481529060010190602001808311610c3957829003601f168201915b50505050508152505090806005016040518060e00160405290816000820160009054906101000a900473ffffffffffffffffffffffffffffffffffffffff1673ffffffffffffffffffffffffffffffffffffffff1673ffffffffffffffffffffffffffffffffffffffff168152602001600182018054610cd590613fb7565b80601f0160208091040260200160405190810160405280929190818152602001828054610d0190613fb7565b8015610d4e5780601f10610d2357610100808354040283529160200191610d4e565b820191906000526020600020905b815481529060010190602001808311610d3157829003601f168201915b50505050508152602001600282018054610d6790613fb7565b80601f0160208091040260200160405190810160405280929190818152602001828054610d9390613fb7565b8015610de05780601f10610db557610100808354040283529160200191610de0565b820191906000526020600020905b815481529060010190602001808311610dc357829003601f168201915b50505050508152602001600382018054610df990613fb7565b80601f0160208091040260200160405190810160405280929190818152602001828054610e2590613fb7565b8015610e725780601f10610e4757610100808354040283529160200191610e72565b820191906000526020600020905b815481529060010190602001808311610e5557829003601f168201915b50505050508152602001600482018054610e8b90613fb7565b80601f0160208091040260200160405190810160405280929190818152602001828054610eb790613fb7565b8015610f045780601f10610ed957610100808354040283529160200191610f04565b820191906000526020600020905b815481529060010190602001808311610ee757829003601f168201915b50505050508152602001600582018054610f1d90613fb7565b80601f0160208091040260200160405190810160405280929190818152602001828054610f4990613fb7565b8015610f965780601f10610f6b57610100808354040283529160200191610f96565b820191906000526020600020905b815481529060010190602001808311610f7957829003601f168201915b505050505081526020016006820160009054906101000a900460ff1660ff1660ff16815250509080600c018054610fcc90613fb7565b80601f0160208091040260200160405190810160405280929190818152602001828054610ff890613fb7565b80156110455780601f1061101a57610100808354040283529160200191611045565b820191906000526020600020905b81548152906001019060200180831161102857829003601f168201915b50505050509080600d01805461105a90613fb7565b80601f016020809104026020016040519081016040528092919081815260200182805461108690613fb7565b80156110d35780601f106110a8576101008083540402835291602001916110d3565b820191906000526020600020905b8154815290600101906020018083116110b657829003601f168201915b50505050509080600f0154908060100154908060110160009054906101000a900473ffffffffffffffffffffffffffffffffffffffff16908060110160149054906101000a900460ff16905089565b6003602052816000526040600020818154811061113e57600080fd5b9060005260206000209060070201600091509150508060000160009054906101000a900473ffffffffffffffffffffffffffffffffffffffff169080600101805461118890613fb7565b80601f01602080910402602001604051908101604052809291908181526020018280546111b490613fb7565b80156112015780601f106111d657610100808354040283529160200191611201565b820191906000526020600020905b8154815290600101906020018083116111e457829003601f168201915b50505050509080600201805461121690613fb7565b80601f016020809104026020016040519081016040528092919081815260200182805461124290613fb7565b801561128f5780601f106112645761010080835404028352916020019161128f565b820191906000526020600020905b81548152906001019060200180831161127257829003601f168201915b5050505050908060030180546112a490613fb7565b80601f01602080910402602001604051908101604052809291908181526020018280546112d090613fb7565b801561131d5780601f106112f25761010080835404028352916020019161131d565b820191906000526020600020905b81548152906001019060200180831161130057829003601f168201915b50505050509080600401805461133290613fb7565b80601f016020809104026020016040519081016040528092919081815260200182805461135e90613fb7565b80156113ab5780601f10611380576101008083540402835291602001916113ab565b820191906000526020600020905b81548152906001019060200180831161138e57829003601f168201915b5050505050908060050180546113c090613fb7565b80601f01602080910402602001604051908101604052809291908181526020018280546113ec90613fb7565b80156114395780601f1061140e57610100808354040283529160200191611439565b820191906000526020600020905b81548152906001019060200180831161141c57829003601f168201915b5050505050908060060160009054906101000a900460ff16905087565b60046020528060005260406000206000915090505481565b600160028281548110611484576114836140c1565b5b906000526020600020906012020160110160146101000a81548160ff02191690831515021790555050565b60016020528060005260406000206000915090508060000160009054906101000a900473ffffffffffffffffffffffffffffffffffffffff16908060010180546114f890613fb7565b80601f016020809104026020016040519081016040528092919081815260200182805461152490613fb7565b80156115715780601f1061154657610100808354040283529160200191611571565b820191906000526020600020905b81548152906001019060200180831161155457829003601f168201915b50505050509080600201805461158690613fb7565b80601f01602080910402602001604051908101604052809291908181526020018280546115b290613fb7565b80156115ff5780601f106115d4576101008083540402835291602001916115ff565b820191906000526020600020905b8154815290600101906020018083116115e257829003601f168201915b50505050509080600301805461161490613fb7565b80601f016020809104026020016040519081016040528092919081815260200182805461164090613fb7565b801561168d5780601f106116625761010080835404028352916020019161168d565b820191906000526020600020905b81548152906001019060200180831161167057829003601f168201915b5050505050908060040180546116a290613fb7565b80601f01602080910402602001604051908101604052809291908181526020018280546116ce90613fb7565b801561171b5780601f106116f05761010080835404028352916020019161171b565b820191906000526020600020905b8154815290600101906020018083116116fe57829003601f168201915b50505050509080600501805461173090613fb7565b80601f016020809104026020016040519081016040528092919081815260200182805461175c90613fb7565b80156117a95780601f1061177e576101008083540402835291602001916117a9565b820191906000526020600020905b81548152906001019060200180831161178c57829003601f168201915b5050505050908060060160009054906101000a900460ff16905087565b6060600060028054905067ffffffffffffffff8111156117e9576117e86140f0565b5b60405190808252806020026020018201604052801561182257816020015b61180f612bcc565b8152602001906001900390816118075790505b5090506000805b60028054905081101561229257846118b7578573ffffffffffffffffffffffffffffffffffffffff1660028281548110611866576118656140c1565b5b906000526020600020906012020160050160000160009054906101000a900473ffffffffffffffffffffffffffffffffffffffff1673ffffffffffffffffffffffffffffffffffffffff161461192c565b8573ffffffffffffffffffffffffffffffffffffffff16600282815481106118e2576118e16140c1565b5b906000526020600020906012020160110160009054906101000a900473ffffffffffffffffffffffffffffffffffffffff1673ffffffffffffffffffffffffffffffffffffffff16145b1561227f5760028181548110611945576119446140c1565b5b906000526020600020906012020160405180610140016040529081600082015481526020016001820160405180608001604052908160008201805461198990613fb7565b80601f01602080910402602001604051908101604052809291908181526020018280546119b590613fb7565b8015611a025780601f106119d757610100808354040283529160200191611a02565b820191906000526020600020905b8154815290600101906020018083116119e557829003601f168201915b50505050508152602001600182018054611a1b90613fb7565b80601f0160208091040260200160405190810160405280929190818152602001828054611a4790613fb7565b8015611a945780601f10611a6957610100808354040283529160200191611a94565b820191906000526020600020905b815481529060010190602001808311611a7757829003601f168201915b50505050508152602001600282018054611aad90613fb7565b80601f0160208091040260200160405190810160405280929190818152602001828054611ad990613fb7565b8015611b265780601f10611afb57610100808354040283529160200191611b26565b820191906000526020600020905b815481529060010190602001808311611b0957829003601f168201915b50505050508152602001600382018054611b3f90613fb7565b80601f0160208091040260200160405190810160405280929190818152602001828054611b6b90613fb7565b8015611bb85780601f10611b8d57610100808354040283529160200191611bb8565b820191906000526020600020905b815481529060010190602001808311611b9b57829003601f168201915b5050505050815250508152602001600582016040518060e00160405290816000820160009054906101000a900473ffffffffffffffffffffffffffffffffffffffff1673ffffffffffffffffffffffffffffffffffffffff1673ffffffffffffffffffffffffffffffffffffffff168152602001600182018054611c3b90613fb7565b80601f0160208091040260200160405190810160405280929190818152602001828054611c6790613fb7565b8015611cb45780601f10611c8957610100808354040283529160200191611cb4565b820191906000526020600020905b815481529060010190602001808311611c9757829003601f168201915b50505050508152602001600282018054611ccd90613fb7565b80601f0160208091040260200160405190810160405280929190818152602001828054611cf990613fb7565b8015611d465780601f10611d1b57610100808354040283529160200191611d46565b820191906000526020600020905b815481529060010190602001808311611d2957829003601f168201915b50505050508152602001600382018054611d5f90613fb7565b80601f0160208091040260200160405190810160405280929190818152602001828054611d8b90613fb7565b8015611dd85780601f10611dad57610100808354040283529160200191611dd8565b820191906000526020600020905b815481529060010190602001808311611dbb57829003601f168201915b50505050508152602001600482018054611df190613fb7565b80601f0160208091040260200160405190810160405280929190818152602001828054611e1d90613fb7565b8015611e6a5780601f10611e3f57610100808354040283529160200191611e6a565b820191906000526020600020905b815481529060010190602001808311611e4d57829003601f168201915b50505050508152602001600582018054611e8390613fb7565b80601f0160208091040260200160405190810160405280929190818152602001828054611eaf90613fb7565b8015611efc5780601f10611ed157610100808354040283529160200191611efc565b820191906000526020600020905b815481529060010190602001808311611edf57829003601f168201915b505050505081526020016006820160009054906101000a900460ff1660ff1660ff16815250508152602001600c82018054611f3690613fb7565b80601f0160208091040260200160405190810160405280929190818152602001828054611f6290613fb7565b8015611faf5780601f10611f8457610100808354040283529160200191611faf565b820191906000526020600020905b815481529060010190602001808311611f9257829003601f168201915b50505050508152602001600d82018054611fc890613fb7565b80601f0160208091040260200160405190810160405280929190818152602001828054611ff490613fb7565b80156120415780601f1061201657610100808354040283529160200191612041565b820191906000526020600020905b81548152906001019060200180831161202457829003601f168201915b50505050508152602001600e8201805480602002602001604051908101604052809291908181526020016000905b828210156121c557838290600052602060002090600202016040518060400160405290816000820180546120a290613fb7565b80601f01602080910402602001604051908101604052809291908181526020018280546120ce90613fb7565b801561211b5780601f106120f05761010080835404028352916020019161211b565b820191906000526020600020905b8154815290600101906020018083116120fe57829003601f168201915b5050505050815260200160018201805461213490613fb7565b80601f016020809104026020016040519081016040528092919081815260200182805461216090613fb7565b80156121ad5780601f10612182576101008083540402835291602001916121ad565b820191906000526020600020905b81548152906001019060200180831161219057829003601f168201915b5050505050815250508152602001906001019061206f565b505050508152602001600f8201548152602001601082015481526020016011820160009054906101000a900473ffffffffffffffffffffffffffffffffffffffff1673ffffffffffffffffffffffffffffffffffffffff1673ffffffffffffffffffffffffffffffffffffffff1681526020016011820160149054906101000a900460ff161515151581525050838381518110612265576122646140c1565b5b6020026020010181905250818061227b9061401a565b9250505b808061228a9061401a565b915050611829565b5060008167ffffffffffffffff8111156122af576122ae6140f0565b5b6040519080825280602002602001820160405280156122e857816020015b6122d5612bcc565b8152602001906001900390816122cd5790505b50905060005b8281101561234257838181518110612309576123086140c1565b5b6020026020010151828281518110612324576123236140c1565b5b6020026020010181905250808061233a9061401a565b9150506122ee565b5080935050505092915050565b60028181548110612363576123626140c1565b5b9060005260206000209060120201600080820160009055600182016000808201600061238f9190612c43565b60018201600061239f9190612c43565b6002820160006123af9190612c43565b6003820160006123bf9190612c43565b505060058201600080820160006101000a81549073ffffffffffffffffffffffffffffffffffffffff02191690556001820160006123fd9190612c43565b60028201600061240d9190612c43565b60038201600061241d9190612c43565b60048201600061242d9190612c43565b60058201600061243d9190612c43565b6006820160006101000a81549060ff02191690555050600c820160006124639190612c43565b600d820160006124739190612c43565b600e820160006124839190612c83565b600f82016000905560108201600090556011820160006101000a81549073ffffffffffffffffffffffffffffffffffffffff02191690556011820160146101000a81549060ff0219169055505050565b60028054905060056000018190555033600560110160006101000a81548173ffffffffffffffffffffffffffffffffffffffff021916908373ffffffffffffffffffffffffffffffffffffffff1602179055508560056001016000820151816000019080519060200190612548929190612b46565b506020820151816001019080519060200190612565929190612b46565b506040820151816002019080519060200190612582929190612b46565b50606082015181600301908051906020019061259f929190612b46565b50905050846005800160008201518160000160006101000a81548173ffffffffffffffffffffffffffffffffffffffff021916908373ffffffffffffffffffffffffffffffffffffffff160217905550602082015181600101908051906020019061260b929190612b46565b506040820151816002019080519060200190612628929190612b46565b506060820151816003019080519060200190612645929190612b46565b506080820151816004019080519060200190612662929190612b46565b5060a082015181600501908051906020019061267f929190612b46565b5060c08201518160060160006101000a81548160ff021916908360ff160217905550905050836005600c0190805190602001906126bd929190612b46565b50826005600d0190805190602001906126d7929190612b46565b50426005600f0181905550806005601001819055506000600560110160146101000a81548160ff0219169083151502179055506005600e01600061271b9190612c83565b60005b82518110156127f5576005600e01604051806040016040528085848151811061274a576127496140c1565b5b602002602001015160000151815260200185848151811061276e5761276d6140c1565b5b602002602001015160200151815250908060018154018082558091505060019003906000526020600020906002020160009091909190915060008201518160000190805190602001906127c2929190612b46565b5060208201518160010190805190602001906127df929190612b46565b50505080806127ed9061401a565b91505061271e565b50600260059080600181540180825580915050600190039060005260206000209060120201600090919091909150600082015481600001556001820181600101600082018160000190805461284990613fb7565b612854929190612ca7565b50600182018160010190805461286990613fb7565b612874929190612ca7565b50600282018160020190805461288990613fb7565b612894929190612ca7565b5060038201816003019080546128a990613fb7565b6128b4929190612ca7565b50505060058201816005016000820160009054906101000a900473ffffffffffffffffffffffffffffffffffffffff168160000160006101000a81548173ffffffffffffffffffffffffffffffffffffffff021916908373ffffffffffffffffffffffffffffffffffffffff160217905550600182018160010190805461293a90613fb7565b612945929190612ca7565b50600282018160020190805461295a90613fb7565b612965929190612ca7565b50600382018160030190805461297a90613fb7565b612985929190612ca7565b50600482018160040190805461299a90613fb7565b6129a5929190612ca7565b5060058201816005019080546129ba90613fb7565b6129c5929190612ca7565b506006820160009054906101000a900460ff168160060160006101000a81548160ff021916908360ff1602179055505050600c820181600c01908054612a0a90613fb7565b612a15929190612ca7565b50600d820181600d01908054612a2a90613fb7565b612a35929190612ca7565b50600e820181600e01908054612a4c929190612d34565b50600f82015481600f0155601082015481601001556011820160009054906101000a900473ffffffffffffffffffffffffffffffffffffffff168160110160006101000a81548173ffffffffffffffffffffffffffffffffffffffff021916908373ffffffffffffffffffffffffffffffffffffffff1602179055506011820160149054906101000a900460ff168160110160146101000a81548160ff02191690831515021790555050507f2fc6fef47720f7db686e69affbeff6314997efcfe53afafd0e87316260023eeb866020015187604001518760000151604051612b3693929190613c55565b60405180910390a1505050505050565b828054612b5290613fb7565b90600052602060002090601f016020900481019282612b745760008555612bbb565b82601f10612b8d57805160ff1916838001178555612bbb565b82800160010185558215612bbb579182015b82811115612bba578251825591602001919060010190612b9f565b5b509050612bc89190612dcc565b5090565b60405180610140016040528060008152602001612be7612de9565b8152602001612bf4612e11565b81526020016060815260200160608152602001606081526020016000815260200160008152602001600073ffffffffffffffffffffffffffffffffffffffff1681526020016000151581525090565b508054612c4f90613fb7565b6000825580601f10612c615750612c80565b601f016020900490600052602060002090810190612c7f9190612dcc565b5b50565b5080546000825560020290600052602060002090810190612ca49190612e67565b50565b828054612cb390613fb7565b90600052602060002090601f016020900481019282612cd55760008555612d23565b82601f10612ce65780548555612d23565b82800160010185558215612d2357600052602060002091601f016020900482015b82811115612d22578254825591600101919060010190612d07565b5b509050612d309190612dcc565b5090565b828054828255906000526020600020906002028101928215612dbb5760005260206000209160020282015b82811115612dba5782826000820181600001908054612d7d90613fb7565b612d88929190612ca7565b506001820181600101908054612d9d90613fb7565b612da8929190612ca7565b50505091600201919060020190612d5f565b5b509050612dc89190612e67565b5090565b5b80821115612de5576000816000905550600101612dcd565b5090565b6040518060800160405280606081526020016060815260200160608152602001606081525090565b6040518060e00160405280600073ffffffffffffffffffffffffffffffffffffffff1681526020016060815260200160608152602001606081526020016060815260200160608152602001600060ff1681525090565b5b80821115612e9a5760008082016000612e819190612c43565b600182016000612e919190612c43565b50600201612e68565b5090565b6000612eb1612eac84613e04565b613ddf565b90508083825260208201905082856020860282011115612ed457612ed361412e565b5b60005b85811015612f2257813567ffffffffffffffff811115612efa57612ef961411f565b5b808601612f078982612ff4565b85526020850194506020840193505050600181019050612ed7565b5050509392505050565b6000612f3f612f3a84613e30565b613ddf565b905082815260208101848484011115612f5b57612f5a614133565b5b612f66848285613f75565b509392505050565b600081359050612f7d816141a2565b92915050565b600082601f830112612f9857612f9761411f565b5b8135612fa8848260208601612e9e565b91505092915050565b600081359050612fc0816141b9565b92915050565b600082601f830112612fdb57612fda61411f565b5b8135612feb848260208601612f2c565b91505092915050565b60006040828403121561300a57613009614124565b5b6130146040613ddf565b9050600082013567ffffffffffffffff81111561303457613033614129565b5b61304084828501612fc6565b600083015250602082013567ffffffffffffffff81111561306457613063614129565b5b61307084828501612fc6565b60208301525092915050565b60006080828403121561309257613091614124565b5b61309c6080613ddf565b9050600082013567ffffffffffffffff8111156130bc576130bb614129565b5b6130c884828501612fc6565b600083015250602082013567ffffffffffffffff8111156130ec576130eb614129565b5b6130f884828501612fc6565b602083015250604082013567ffffffffffffffff81111561311c5761311b614129565b5b61312884828501612fc6565b604083015250606082013567ffffffffffffffff81111561314c5761314b614129565b5b61315884828501612fc6565b60608301525092915050565b600060e0828403121561317a57613179614124565b5b61318460e0613ddf565b9050600061319484828501612f6e565b600083015250602082013567ffffffffffffffff8111156131b8576131b7614129565b5b6131c484828501612fc6565b602083015250604082013567ffffffffffffffff8111156131e8576131e7614129565b5b6131f484828501612fc6565b604083015250606082013567ffffffffffffffff81111561321857613217614129565b5b61322484828501612fc6565b606083015250608082013567ffffffffffffffff81111561324857613247614129565b5b61325484828501612fc6565b60808301525060a082013567ffffffffffffffff81111561327857613277614129565b5b61328484828501612fc6565b60a08301525060c0613298848285016132b9565b60c08301525092915050565b6000813590506132b3816141d0565b92915050565b6000813590506132c8816141e7565b92915050565b6000602082840312156132e4576132e361413d565b5b60006132f284828501612f6e565b91505092915050565b600080604083850312156133125761331161413d565b5b600061332085828601612f6e565b925050602061333185828601612fb1565b9150509250929050565b600080604083850312156133525761335161413d565b5b600061336085828601612f6e565b9250506020613371858286016132a4565b9150509250929050565b60008060008060008060c087890312156133985761339761413d565b5b600087013567ffffffffffffffff8111156133b6576133b5614138565b5b6133c289828a0161307c565b965050602087013567ffffffffffffffff8111156133e3576133e2614138565b5b6133ef89828a01613164565b955050604087013567ffffffffffffffff8111156134105761340f614138565b5b61341c89828a01612fc6565b945050606087013567ffffffffffffffff81111561343d5761343c614138565b5b61344989828a01612fc6565b935050608087013567ffffffffffffffff81111561346a57613469614138565b5b61347689828a01612f83565b92505060a061348789828a016132a4565b9150509295509295509295565b6000602082840312156134aa576134a961413d565b5b600082013567ffffffffffffffff8111156134c8576134c7614138565b5b6134d484828501613164565b91505092915050565b6000602082840312156134f3576134f261413d565b5b6000613501848285016132a4565b91505092915050565b6000613516838361379d565b905092915050565b600061352a8383613a41565b905092915050565b61353b81613f20565b82525050565b61354a81613f20565b82525050565b600061355b82613e96565b6135658185613ed1565b93508360208202850161357785613e61565b8060005b858110156135b35784840389528151613594858261350a565b945061359f83613eb7565b925060208a0199505060018101905061357b565b50829750879550505050505092915050565b60006135d082613ea1565b6135da8185613ee2565b9350836020820285016135ec85613e71565b8060005b858110156136285784840389528151613609858261351e565b945061361483613ec4565b925060208a019950506001810190506135f0565b50829750879550505050505092915050565b61364381613f32565b82525050565b61365281613f32565b82525050565b600061366382613eac565b61366d8185613ef3565b935061367d818560208601613f84565b61368681614142565b840191505092915050565b600061369c82613eac565b6136a68185613f04565b93506136b6818560208601613f84565b6136bf81614142565b840191505092915050565b60006136d582613eac565b6136df8185613f15565b93506136ef818560208601613f84565b80840191505092915050565b6000815461370881613fb7565b6137128186613f15565b9450600182166000811461372d576001811461373e57613771565b60ff19831686528186019350613771565b61374785613e81565b60005b838110156137695781548189015260018201915060208101905061374a565b838801955050505b50505092915050565b6000613787602e83613f04565b915061379282614153565b604082019050919050565b600060408301600083015184820360008601526137ba8282613658565b915050602083015184820360208601526137d48282613658565b9150508091505092915050565b600060808301600083015184820360008601526137fe8282613658565b915050602083015184820360208601526138188282613658565b915050604083015184820360408601526138328282613658565b9150506060830151848203606086015261384c8282613658565b9150508091505092915050565b600060808301600083015184820360008601526138768282613658565b915050602083015184820360208601526138908282613658565b915050604083015184820360408601526138aa8282613658565b915050606083015184820360608601526138c48282613658565b9150508091505092915050565b600060e0830160008301516138e96000860182613532565b50602083015184820360208601526139018282613658565b9150506040830151848203604086015261391b8282613658565b915050606083015184820360608601526139358282613658565b9150506080830151848203608086015261394f8282613658565b91505060a083015184820360a08601526139698282613658565b91505060c083015161397e60c0860182613b55565b508091505092915050565b600060e0830160008301516139a16000860182613532565b50602083015184820360208601526139b98282613658565b915050604083015184820360408601526139d38282613658565b915050606083015184820360608601526139ed8282613658565b91505060808301518482036080860152613a078282613658565b91505060a083015184820360a0860152613a218282613658565b91505060c0830151613a3660c0860182613b55565b508091505092915050565b600061014083016000830151613a5a6000860182613b37565b5060208301518482036020860152613a7282826137e1565b91505060408301518482036040860152613a8c82826138d1565b91505060608301518482036060860152613aa68282613658565b91505060808301518482036080860152613ac08282613658565b91505060a083015184820360a0860152613ada8282613550565b91505060c0830151613aef60c0860182613b37565b5060e0830151613b0260e0860182613b37565b50610100830151613b17610100860182613532565b50610120830151613b2c61012086018261363a565b508091505092915050565b613b4081613f5e565b82525050565b613b4f81613f5e565b82525050565b613b5e81613f68565b82525050565b613b6d81613f68565b82525050565b6000613b7f82846136ca565b915081905092915050565b6000613b9682846136fb565b915081905092915050565b600060e082019050613bb6600083018a613541565b8181036020830152613bc88189613691565b90508181036040830152613bdc8188613691565b90508181036060830152613bf08187613691565b90508181036080830152613c048186613691565b905081810360a0830152613c188185613691565b9050613c2760c0830184613b64565b98975050505050505050565b60006020820190508181036000830152613c4d81846135c5565b905092915050565b60006060820190508181036000830152613c6f8186613691565b90508181036020830152613c838185613691565b9050613c926040830184613541565b949350505050565b60006080820190508181036000830152613cb48187613691565b90508181036020830152613cc88186613691565b90508181036040830152613cdc8185613691565b90508181036060830152613cf08184613691565b905095945050505050565b60006020820190508181036000830152613d148161377a565b9050919050565b6000602082019050613d306000830184613b46565b92915050565b600061012082019050613d4c600083018c613b46565b8181036020830152613d5e818b613859565b90508181036040830152613d72818a613989565b90508181036060830152613d868189613691565b90508181036080830152613d9a8188613691565b9050613da960a0830187613b46565b613db660c0830186613b46565b613dc360e0830185613541565b613dd1610100830184613649565b9a9950505050505050505050565b6000613de9613dfa565b9050613df58282613fe9565b919050565b6000604051905090565b600067ffffffffffffffff821115613e1f57613e1e6140f0565b5b602082029050602081019050919050565b600067ffffffffffffffff821115613e4b57613e4a6140f0565b5b613e5482614142565b9050602081019050919050565b6000819050602082019050919050565b6000819050602082019050919050565b60008190508160005260206000209050919050565b600081519050919050565b600081519050919050565b600081519050919050565b6000602082019050919050565b6000602082019050919050565b600082825260208201905092915050565b600082825260208201905092915050565b600082825260208201905092915050565b600082825260208201905092915050565b600081905092915050565b6000613f2b82613f3e565b9050919050565b60008115159050919050565b600073ffffffffffffffffffffffffffffffffffffffff82169050919050565b6000819050919050565b600060ff82169050919050565b82818337600083830152505050565b60005b83811015613fa2578082015181840152602081019050613f87565b83811115613fb1576000848401525b50505050565b60006002820490506001821680613fcf57607f821691505b60208210811415613fe357613fe2614092565b5b50919050565b613ff282614142565b810181811067ffffffffffffffff82111715614011576140106140f0565b5b80604052505050565b600061402582613f5e565b91507fffffffffffffffffffffffffffffffffffffffffffffffffffffffffffffffff82141561405857614057614063565b5b600182019050919050565b7f4e487b7100000000000000000000000000000000000000000000000000000000600052601160045260246000fd5b7f4e487b7100000000000000000000000000000000000000000000000000000000600052602260045260246000fd5b7f4e487b7100000000000000000000000000000000000000000000000000000000600052603260045260246000fd5b7f4e487b7100000000000000000000000000000000000000000000000000000000600052604160045260246000fd5b600080fd5b600080fd5b600080fd5b600080fd5b600080fd5b600080fd5b600080fd5b6000601f19601f8301169050919050565b7f456c2070616369656e7465207961206861207369646f2072656769737472616460008201527f6f20656e207375206375656e7461000000000000000000000000000000000000602082015250565b6141ab81613f20565b81146141b657600080fd5b50565b6141c281613f32565b81146141cd57600080fd5b50565b6141d981613f5e565b81146141e457600080fd5b50565b6141f081613f68565b81146141fb57600080fd5b5056fea2646970667358221220a5af6032d01bb290eee4da8c37220c1c4a0982596dc81ef3322005bc9660347764736f6c63430008060033",
  "immutableReferences": {},
  "source": "// SPDX-License-Identifier: GPL-3.0\r\npragma solidity >=0.7.0 <0.9.0;\r\n\r\ncontract RecetaMedica {\r\n\r\n    //************************** Estructuras que simulan los actores de las prescripciones mdicas *********************\r\n\r\n    struct Medicina {\r\n        string nombreMedicina;\r\n        string indicacion;\r\n    }\r\n\r\n    struct Medico {\r\n        string cedulaProfesional;\r\n        string nombres;\r\n        string apellidos;\r\n        string especialidad;\r\n    }\r\n\r\n    struct Paciente {\r\n        address cuentaPaciente;\r\n        string cedula;\r\n        string nombres;\r\n        string apellidos;\r\n        string correo;\r\n        string celular;\r\n        uint8 edad;\r\n    }\r\n\r\n    struct Receta {\r\n        uint id;\r\n        Medico medico;\r\n        Paciente paciente;\r\n        string diagnostico;\r\n        string indicacionesExtras;\r\n        Medicina[] medicinas;\r\n        uint fecha;\r\n        uint fechaCaducidad;\r\n        address tokenMedico;\r\n        bool isDespachado;\r\n    }\r\n\r\n    //****** Arreglos de tipo Map en donde se almacena la informacin en el proceso de preescripciones mdicas *********\r\n\r\n    mapping(address => Medico) public medicos;\r\n\r\n    mapping(address => Paciente) public pacientes;\r\n\r\n    Receta[] public recetas;\r\n\r\n    mapping(address => Paciente[]) public pacientesPorDoctor;\r\n    mapping(address => uint) public pacientesTotalesPorDoctor;\r\n\r\n    //************ Evento que reacciona al momento de registrar una receta para cualesquier paciente *******************\r\n\r\n    event RecetaRegistrada(string nombresMedico, string apellidosMedico, address cuentaPaciente);\r\n\r\n    //************************ Constructor del contrato que establece mdicos predeterminados **************************\r\n\r\n    constructor(){\r\n        //Doctores pre-existentes\r\n        medicos[0x0DF3c5E1e60A27f02D9d0FF8730c99A73D924Fc3] = Medico(\"11111111\", \"Patricio\", \"Estrella\", \"General\");\r\n        medicos[0xF5B223A069ebfDc5D491b94fB50C8be0B063CB65] = Medico(\"22222222\", \"Bob\", \"Sponja\", \"General\");\r\n    }\r\n\r\n    //****************** Funciones que contienen la lgica del proceso de preescripciones mdicas **********************\r\n\r\n    function registrarPaciente(\r\n        Paciente memory _paciente\r\n    ) public {\r\n        for (uint i = 0; i < pacientesTotalesPorDoctor[msg.sender]; i++) {\r\n            //Se valida en caso de que el paciente tenga ya un address asociado\r\n            //adems, se emplea && ya que, puede darse el caso en que, la cdula de un _paciente\r\n            // ya se ha registrado pero aun no tiene cuenta en la red.\r\n            require(!(pacientesPorDoctor[msg.sender][i].cuentaPaciente == _paciente.cuentaPaciente\r\n            && keccak256(abi.encodePacked(pacientesPorDoctor[msg.sender][i].cedula)) ==\r\n            keccak256(abi.encodePacked(_paciente.cedula))), 'El paciente ya ha sido registrado en su cuenta');\r\n        }\r\n\r\n        if (_paciente.cuentaPaciente != address(0)) {\r\n            pacientes[_paciente.cuentaPaciente] = _paciente;\r\n        }\r\n\r\n        pacientesPorDoctor[msg.sender].push(_paciente);\r\n        pacientesTotalesPorDoctor[msg.sender] ++;\r\n    }\r\n\r\n    Receta private receta;\r\n\r\n    function registrarReceta(\r\n        Medico memory _medico,\r\n        Paciente memory _paciente,\r\n        string memory _diagnostico,\r\n        string memory _indicacionesExtras,\r\n        Medicina[] memory _medicinas,\r\n        uint _fechaCaducidad\r\n    ) public {\r\n\r\n        receta.id = recetas.length;\r\n        receta.tokenMedico = msg.sender;\r\n        receta.medico = _medico;\r\n        receta.paciente = _paciente;\r\n        receta.diagnostico = _diagnostico;\r\n        receta.indicacionesExtras = _indicacionesExtras;\r\n        receta.fecha = block.timestamp;\r\n        receta.fechaCaducidad = _fechaCaducidad;\r\n        receta.isDespachado= false;\r\n        delete receta.medicinas;\r\n        for (uint j = 0; j < _medicinas.length; j++) {\r\n            receta.medicinas.push(Medicina(_medicinas[j].nombreMedicina, _medicinas[j].indicacion));\r\n        }\r\n        recetas.push(receta);\r\n        emit RecetaRegistrada(_medico.nombres, _medico.apellidos, _paciente.cuentaPaciente);\r\n    }\r\n\r\n    function getRecetas(address cuenta, bool isMedico)\r\n    public view returns (Receta[] memory) {\r\n        Receta[] memory recetasAux = new Receta[](recetas.length);\r\n        uint contador = 0;\r\n        for (uint i = 0; i < recetas.length; i++) {\r\n            if (isMedico ? recetas[i].tokenMedico == cuenta :\r\n                recetas[i].paciente.cuentaPaciente == cuenta) {\r\n                recetasAux[contador] = recetas[i];\r\n                contador++;\r\n            }\r\n        }\r\n        //Eliminamos los indices que contienen recetas con valores vacios\r\n        Receta[] memory recetas = new Receta[](contador);\r\n        for (uint i = 0; i < contador; i++) {\r\n            recetas[i] = recetasAux[i];\r\n        }\r\n        return recetas;\r\n    }\r\n\r\n    function eliminarReceta(uint idReceta) public {\r\n        delete recetas[idReceta];\r\n    }\r\n\r\n    function despacharReceta(uint idReceta) public {\r\n        recetas[idReceta].isDespachado = true;\r\n    }\r\n\r\n}\r\n",
  "sourcePath": "C:/Users/Mickmaxy/Documents/GitHub/dapp-recetas-medicas/contracts/RecetaMedica.sol",
  "compiler": {
    "name": "solc",
    "version": "0.8.6+commit.11564f7e.Emscripten.clang"
  },
  "schemaVersion": "3.4.1",
  "updatedAt": "2021-08-06T05:29:07.846Z",
  "networkType": "ethereum",
  "devdoc": {
    "kind": "dev",
    "methods": {},
    "version": 1
  },
  "userdoc": {
    "kind": "user",
    "methods": {},
    "version": 1
  }
}