{
  "contractName": "RecetaMedica",
  "abi": [
    {
      "inputs": [],
      "stateMutability": "nonpayable",
      "type": "constructor"
    },
    {
      "inputs": [
        {
          "internalType": "uint256",
          "name": "",
          "type": "uint256"
        }
      ],
      "name": "pacientes",
      "outputs": [
        {
          "internalType": "address",
          "name": "doctor",
          "type": "address"
        },
        {
          "internalType": "string",
          "name": "cedula",
          "type": "string"
        },
        {
          "internalType": "string",
          "name": "nombres",
          "type": "string"
        },
        {
          "internalType": "string",
          "name": "apellidos",
          "type": "string"
        }
      ],
      "stateMutability": "view",
      "type": "function",
      "constant": true
    },
    {
      "inputs": [
        {
          "internalType": "address",
          "name": "_doctor",
          "type": "address"
        },
        {
          "internalType": "string",
          "name": "_cedula",
          "type": "string"
        },
        {
          "internalType": "string",
          "name": "_nombre",
          "type": "string"
        },
        {
          "internalType": "string",
          "name": "_apellido",
          "type": "string"
        }
      ],
      "name": "registrarPaciente",
      "outputs": [],
      "stateMutability": "nonpayable",
      "type": "function"
    },
    {
      "inputs": [],
      "name": "pacienteIdActual",
      "outputs": [
        {
          "internalType": "uint256",
          "name": "",
          "type": "uint256"
        }
      ],
      "stateMutability": "view",
      "type": "function",
      "constant": true
    }
  ],
  "bytecode": "0x60806040523480156200001157600080fd5b50600080819055506040518060800160405280730df3c5e1e60a27f02d9d0ff8730c99a73d924fc373ffffffffffffffffffffffffffffffffffffffff1681526020016040518060400160405280600a81526020017f313331323936303434340000000000000000000000000000000000000000000081525081526020016040518060400160405280600781526020017f4d69636861656c0000000000000000000000000000000000000000000000000081525081526020016040518060400160405280600981526020017f46726564657269636b0000000000000000000000000000000000000000000000815250815250600160008054815260200190815260200160002060008201518160000160006101000a81548173ffffffffffffffffffffffffffffffffffffffff021916908373ffffffffffffffffffffffffffffffffffffffff16021790555060208201518160010190805190602001906200017c92919062000382565b5060408201518160020190805190602001906200019b92919062000382565b506060820151816003019080519060200190620001ba92919062000382565b50905050600080815480929190620001d29062000472565b91905055506040518060800160405280730df3c5e1e60a27f02d9d0ff8730c99a73d924fc373ffffffffffffffffffffffffffffffffffffffff1681526020016040518060400160405280600a81526020017f313730353437313232330000000000000000000000000000000000000000000081525081526020016040518060400160405280600581526020017f57696e6b6100000000000000000000000000000000000000000000000000000081525081526020016040518060400160405280600381526020017f5265610000000000000000000000000000000000000000000000000000000000815250815250600160008054815260200190815260200160002060008201518160000160006101000a81548173ffffffffffffffffffffffffffffffffffffffff021916908373ffffffffffffffffffffffffffffffffffffffff16021790555060208201518160010190805190602001906200033a92919062000382565b5060408201518160020190805190602001906200035992919062000382565b5060608201518160030190805190602001906200037892919062000382565b509050506200051e565b82805462000390906200043c565b90600052602060002090601f016020900481019282620003b4576000855562000400565b82601f10620003cf57805160ff191683800117855562000400565b8280016001018555821562000400579182015b82811115620003ff578251825591602001919060010190620003e2565b5b5090506200040f919062000413565b5090565b5b808211156200042e57600081600090555060010162000414565b5090565b6000819050919050565b600060028204905060018216806200045557607f821691505b602082108114156200046c576200046b620004ef565b5b50919050565b60006200047f8262000432565b91507fffffffffffffffffffffffffffffffffffffffffffffffffffffffffffffffff821415620004b557620004b4620004c0565b5b600182019050919050565b7f4e487b7100000000000000000000000000000000000000000000000000000000600052601160045260246000fd5b7f4e487b7100000000000000000000000000000000000000000000000000000000600052602260045260246000fd5b610920806200052e6000396000f3fe608060405234801561001057600080fd5b50600436106100415760003560e01c80631e180dda14610046578063c7cad99b14610064578063d842abab14610080575b600080fd5b61004e6100b3565b60405161005b9190610667565b60405180910390f35b61007e600480360381019061007991906104e2565b6100bc565b005b61009a6004803603810190610095919061058d565b6101c5565b6040516100aa949392919061060d565b60405180910390f35b60008054905090565b6000808154809291906100ce906107d5565b919050555060405180608001604052808573ffffffffffffffffffffffffffffffffffffffff16815260200184815260200183815260200182815250600160008054815260200190815260200160002060008201518160000160006101000a81548173ffffffffffffffffffffffffffffffffffffffff021916908373ffffffffffffffffffffffffffffffffffffffff16021790555060208201518160010190805190602001906101819291906103ad565b50604082015181600201908051906020019061019e9291906103ad565b5060608201518160030190805190602001906101bb9291906103ad565b5090505050505050565b60016020528060005260406000206000915090508060000160009054906101000a900473ffffffffffffffffffffffffffffffffffffffff169080600101805461020e90610772565b80601f016020809104026020016040519081016040528092919081815260200182805461023a90610772565b80156102875780601f1061025c57610100808354040283529160200191610287565b820191906000526020600020905b81548152906001019060200180831161026a57829003601f168201915b50505050509080600201805461029c90610772565b80601f01602080910402602001604051908101604052809291908181526020018280546102c890610772565b80156103155780601f106102ea57610100808354040283529160200191610315565b820191906000526020600020905b8154815290600101906020018083116102f857829003601f168201915b50505050509080600301805461032a90610772565b80601f016020809104026020016040519081016040528092919081815260200182805461035690610772565b80156103a35780601f10610378576101008083540402835291602001916103a3565b820191906000526020600020905b81548152906001019060200180831161038657829003601f168201915b5050505050905084565b8280546103b990610772565b90600052602060002090601f0160209004810192826103db5760008555610422565b82601f106103f457805160ff1916838001178555610422565b82800160010185558215610422579182015b82811115610421578251825591602001919060010190610406565b5b50905061042f9190610433565b5090565b5b8082111561044c576000816000905550600101610434565b5090565b600061046361045e846106a7565b610682565b90508281526020810184848401111561047b57600080fd5b610486848285610730565b509392505050565b60008135905061049d816108bc565b92915050565b600082601f8301126104b457600080fd5b81356104c4848260208601610450565b91505092915050565b6000813590506104dc816108d3565b92915050565b600080600080608085870312156104f857600080fd5b60006105068782880161048e565b945050602085013567ffffffffffffffff81111561052357600080fd5b61052f878288016104a3565b935050604085013567ffffffffffffffff81111561054c57600080fd5b610558878288016104a3565b925050606085013567ffffffffffffffff81111561057557600080fd5b610581878288016104a3565b91505092959194509250565b60006020828403121561059f57600080fd5b60006105ad848285016104cd565b91505092915050565b6105bf816106f4565b82525050565b60006105d0826106d8565b6105da81856106e3565b93506105ea81856020860161073f565b6105f3816108ab565b840191505092915050565b61060781610726565b82525050565b600060808201905061062260008301876105b6565b818103602083015261063481866105c5565b9050818103604083015261064881856105c5565b9050818103606083015261065c81846105c5565b905095945050505050565b600060208201905061067c60008301846105fe565b92915050565b600061068c61069d565b905061069882826107a4565b919050565b6000604051905090565b600067ffffffffffffffff8211156106c2576106c161087c565b5b6106cb826108ab565b9050602081019050919050565b600081519050919050565b600082825260208201905092915050565b60006106ff82610706565b9050919050565b600073ffffffffffffffffffffffffffffffffffffffff82169050919050565b6000819050919050565b82818337600083830152505050565b60005b8381101561075d578082015181840152602081019050610742565b8381111561076c576000848401525b50505050565b6000600282049050600182168061078a57607f821691505b6020821081141561079e5761079d61084d565b5b50919050565b6107ad826108ab565b810181811067ffffffffffffffff821117156107cc576107cb61087c565b5b80604052505050565b60006107e082610726565b91507fffffffffffffffffffffffffffffffffffffffffffffffffffffffffffffffff8214156108135761081261081e565b5b600182019050919050565b7f4e487b7100000000000000000000000000000000000000000000000000000000600052601160045260246000fd5b7f4e487b7100000000000000000000000000000000000000000000000000000000600052602260045260246000fd5b7f4e487b7100000000000000000000000000000000000000000000000000000000600052604160045260246000fd5b6000601f19601f8301169050919050565b6108c5816106f4565b81146108d057600080fd5b50565b6108dc81610726565b81146108e757600080fd5b5056fea264697066735822122098fdb1a70f5f2d85c9ac75a511f7954e6e4e1603164c7983c85399eae212d2c464736f6c63430008040033",
  "immutableReferences": {},
  "source": "// SPDX-License-Identifier: GPL-3.0\r\npragma solidity >=0.7.0 <0.9.0;\r\n\r\ncontract RecetaMedica {\r\n\r\n    uint private pacienteId;\r\n\r\n    struct Paciente {\r\n        address doctor;\r\n        string cedula;\r\n        string nombres;\r\n        string apellidos;\r\n    }\r\n\r\n    mapping(uint => Paciente) public pacientes;\r\n    constructor(){\r\n        pacienteId = 0;\r\n        pacientes[pacienteId] = (Paciente(0x0DF3c5E1e60A27f02D9d0FF8730c99A73D924Fc3, '1312960444', 'Michael', 'Frederick'));\r\n        pacienteId++;\r\n        pacientes[pacienteId] = (Paciente(0x0DF3c5E1e60A27f02D9d0FF8730c99A73D924Fc3, '1705471223', 'Winka', 'Rea'));\r\n    }\r\n\r\n\r\n    function registrarPaciente(\r\n        address _doctor,\r\n        string memory _cedula,\r\n        string memory _nombre,\r\n        string memory _apellido) public {\r\n\r\n        pacienteId++;\r\n        pacientes[pacienteId] = Paciente(_doctor, _cedula, _nombre, _apellido);\r\n    }\r\n\r\n    function pacienteIdActual() public view returns (uint) {\r\n        return pacienteId;\r\n    }\r\n\r\n\r\n}\r\n",
  "sourcePath": "C:/Users/Mickmaxy/Documents/GitHub/dapp-recetas-medicas/contracts/RecetaMedica.sol",
  "compiler": {
    "name": "solc",
    "version": "0.8.4+commit.c7e474f2.Emscripten.clang"
  },
  "schemaVersion": "3.4.1",
  "updatedAt": "2021-07-05T05:03:34.632Z",
  "networkType": "ethereum",
  "devdoc": {
    "kind": "dev",
    "methods": {},
    "version": 1
  },
  "userdoc": {
    "kind": "user",
    "methods": {},
    "version": 1
  }
}