{
  "contractName": "RecetaMedica",
  "abi": [
    {
      "inputs": [],
      "stateMutability": "nonpayable",
      "type": "constructor"
    },
    {
      "anonymous": false,
      "inputs": [
        {
          "indexed": false,
          "internalType": "string",
          "name": "nombresMedico",
          "type": "string"
        },
        {
          "indexed": false,
          "internalType": "string",
          "name": "apellidosMedico",
          "type": "string"
        },
        {
          "indexed": false,
          "internalType": "address",
          "name": "cuentaPaciente",
          "type": "address"
        }
      ],
      "name": "RecetaRegistrada",
      "type": "event"
    },
    {
      "inputs": [
        {
          "internalType": "address",
          "name": "",
          "type": "address"
        }
      ],
      "name": "farmaceuticos",
      "outputs": [
        {
          "internalType": "string",
          "name": "ruc",
          "type": "string"
        },
        {
          "internalType": "string",
          "name": "nombreComercial",
          "type": "string"
        }
      ],
      "stateMutability": "view",
      "type": "function",
      "constant": true
    },
    {
      "inputs": [
        {
          "internalType": "address",
          "name": "",
          "type": "address"
        }
      ],
      "name": "medicos",
      "outputs": [
        {
          "internalType": "string",
          "name": "cedulaProfesional",
          "type": "string"
        },
        {
          "internalType": "string",
          "name": "nombres",
          "type": "string"
        },
        {
          "internalType": "string",
          "name": "apellidos",
          "type": "string"
        },
        {
          "internalType": "string",
          "name": "especialidad",
          "type": "string"
        }
      ],
      "stateMutability": "view",
      "type": "function",
      "constant": true
    },
    {
      "inputs": [
        {
          "internalType": "address",
          "name": "",
          "type": "address"
        }
      ],
      "name": "pacientes",
      "outputs": [
        {
          "internalType": "address",
          "name": "cuentaPaciente",
          "type": "address"
        },
        {
          "internalType": "string",
          "name": "cedula",
          "type": "string"
        },
        {
          "internalType": "string",
          "name": "nombres",
          "type": "string"
        },
        {
          "internalType": "string",
          "name": "apellidos",
          "type": "string"
        },
        {
          "internalType": "string",
          "name": "correo",
          "type": "string"
        },
        {
          "internalType": "string",
          "name": "celular",
          "type": "string"
        },
        {
          "internalType": "uint8",
          "name": "edad",
          "type": "uint8"
        }
      ],
      "stateMutability": "view",
      "type": "function",
      "constant": true
    },
    {
      "inputs": [
        {
          "internalType": "address",
          "name": "",
          "type": "address"
        },
        {
          "internalType": "uint256",
          "name": "",
          "type": "uint256"
        }
      ],
      "name": "pacientesPorDoctor",
      "outputs": [
        {
          "internalType": "address",
          "name": "cuentaPaciente",
          "type": "address"
        },
        {
          "internalType": "string",
          "name": "cedula",
          "type": "string"
        },
        {
          "internalType": "string",
          "name": "nombres",
          "type": "string"
        },
        {
          "internalType": "string",
          "name": "apellidos",
          "type": "string"
        },
        {
          "internalType": "string",
          "name": "correo",
          "type": "string"
        },
        {
          "internalType": "string",
          "name": "celular",
          "type": "string"
        },
        {
          "internalType": "uint8",
          "name": "edad",
          "type": "uint8"
        }
      ],
      "stateMutability": "view",
      "type": "function",
      "constant": true
    },
    {
      "inputs": [
        {
          "internalType": "address",
          "name": "",
          "type": "address"
        }
      ],
      "name": "pacientesTotalesPorDoctor",
      "outputs": [
        {
          "internalType": "uint256",
          "name": "",
          "type": "uint256"
        }
      ],
      "stateMutability": "view",
      "type": "function",
      "constant": true
    },
    {
      "inputs": [
        {
          "components": [
            {
              "internalType": "address",
              "name": "cuentaPaciente",
              "type": "address"
            },
            {
              "internalType": "string",
              "name": "cedula",
              "type": "string"
            },
            {
              "internalType": "string",
              "name": "nombres",
              "type": "string"
            },
            {
              "internalType": "string",
              "name": "apellidos",
              "type": "string"
            },
            {
              "internalType": "string",
              "name": "correo",
              "type": "string"
            },
            {
              "internalType": "string",
              "name": "celular",
              "type": "string"
            },
            {
              "internalType": "uint8",
              "name": "edad",
              "type": "uint8"
            }
          ],
          "internalType": "struct RecetaMedica.Paciente",
          "name": "_paciente",
          "type": "tuple"
        }
      ],
      "name": "registrarPaciente",
      "outputs": [],
      "stateMutability": "nonpayable",
      "type": "function"
    },
    {
      "inputs": [
        {
          "components": [
            {
              "internalType": "string",
              "name": "cedulaProfesional",
              "type": "string"
            },
            {
              "internalType": "string",
              "name": "nombres",
              "type": "string"
            },
            {
              "internalType": "string",
              "name": "apellidos",
              "type": "string"
            },
            {
              "internalType": "string",
              "name": "especialidad",
              "type": "string"
            }
          ],
          "internalType": "struct RecetaMedica.Medico",
          "name": "_medico",
          "type": "tuple"
        },
        {
          "components": [
            {
              "internalType": "address",
              "name": "cuentaPaciente",
              "type": "address"
            },
            {
              "internalType": "string",
              "name": "cedula",
              "type": "string"
            },
            {
              "internalType": "string",
              "name": "nombres",
              "type": "string"
            },
            {
              "internalType": "string",
              "name": "apellidos",
              "type": "string"
            },
            {
              "internalType": "string",
              "name": "correo",
              "type": "string"
            },
            {
              "internalType": "string",
              "name": "celular",
              "type": "string"
            },
            {
              "internalType": "uint8",
              "name": "edad",
              "type": "uint8"
            }
          ],
          "internalType": "struct RecetaMedica.Paciente",
          "name": "_paciente",
          "type": "tuple"
        },
        {
          "internalType": "string",
          "name": "_diagnostico",
          "type": "string"
        },
        {
          "internalType": "string",
          "name": "_indicacionesExtras",
          "type": "string"
        },
        {
          "components": [
            {
              "internalType": "string",
              "name": "nombreMedicina",
              "type": "string"
            },
            {
              "internalType": "string",
              "name": "indicacion",
              "type": "string"
            }
          ],
          "internalType": "struct RecetaMedica.Medicina[]",
          "name": "_medicinas",
          "type": "tuple[]"
        },
        {
          "internalType": "uint256",
          "name": "_fechaCaducidad",
          "type": "uint256"
        }
      ],
      "name": "registrarReceta",
      "outputs": [],
      "stateMutability": "nonpayable",
      "type": "function"
    },
    {
      "inputs": [
        {
          "internalType": "address",
          "name": "cuenta",
          "type": "address"
        },
        {
          "internalType": "bool",
          "name": "isMedico",
          "type": "bool"
        }
      ],
      "name": "getRecetas",
      "outputs": [
        {
          "components": [
            {
              "internalType": "uint256",
              "name": "id",
              "type": "uint256"
            },
            {
              "components": [
                {
                  "internalType": "string",
                  "name": "cedulaProfesional",
                  "type": "string"
                },
                {
                  "internalType": "string",
                  "name": "nombres",
                  "type": "string"
                },
                {
                  "internalType": "string",
                  "name": "apellidos",
                  "type": "string"
                },
                {
                  "internalType": "string",
                  "name": "especialidad",
                  "type": "string"
                }
              ],
              "internalType": "struct RecetaMedica.Medico",
              "name": "medico",
              "type": "tuple"
            },
            {
              "components": [
                {
                  "internalType": "address",
                  "name": "cuentaPaciente",
                  "type": "address"
                },
                {
                  "internalType": "string",
                  "name": "cedula",
                  "type": "string"
                },
                {
                  "internalType": "string",
                  "name": "nombres",
                  "type": "string"
                },
                {
                  "internalType": "string",
                  "name": "apellidos",
                  "type": "string"
                },
                {
                  "internalType": "string",
                  "name": "correo",
                  "type": "string"
                },
                {
                  "internalType": "string",
                  "name": "celular",
                  "type": "string"
                },
                {
                  "internalType": "uint8",
                  "name": "edad",
                  "type": "uint8"
                }
              ],
              "internalType": "struct RecetaMedica.Paciente",
              "name": "paciente",
              "type": "tuple"
            },
            {
              "internalType": "string",
              "name": "diagnostico",
              "type": "string"
            },
            {
              "internalType": "string",
              "name": "indicacionesExtras",
              "type": "string"
            },
            {
              "components": [
                {
                  "internalType": "string",
                  "name": "nombreMedicina",
                  "type": "string"
                },
                {
                  "internalType": "string",
                  "name": "indicacion",
                  "type": "string"
                }
              ],
              "internalType": "struct RecetaMedica.Medicina[]",
              "name": "medicinas",
              "type": "tuple[]"
            },
            {
              "internalType": "uint256",
              "name": "fecha",
              "type": "uint256"
            },
            {
              "internalType": "uint256",
              "name": "fechaCaducidad",
              "type": "uint256"
            },
            {
              "internalType": "address",
              "name": "tokenMedico",
              "type": "address"
            },
            {
              "internalType": "bool",
              "name": "isDespachado",
              "type": "bool"
            }
          ],
          "internalType": "struct RecetaMedica.Receta[]",
          "name": "",
          "type": "tuple[]"
        }
      ],
      "stateMutability": "view",
      "type": "function",
      "constant": true
    },
    {
      "inputs": [
        {
          "internalType": "address",
          "name": "cuentaFarmacia",
          "type": "address"
        }
      ],
      "name": "getRecetasFarmaceutico",
      "outputs": [
        {
          "components": [
            {
              "internalType": "uint256",
              "name": "id",
              "type": "uint256"
            },
            {
              "components": [
                {
                  "internalType": "string",
                  "name": "cedulaProfesional",
                  "type": "string"
                },
                {
                  "internalType": "string",
                  "name": "nombres",
                  "type": "string"
                },
                {
                  "internalType": "string",
                  "name": "apellidos",
                  "type": "string"
                },
                {
                  "internalType": "string",
                  "name": "especialidad",
                  "type": "string"
                }
              ],
              "internalType": "struct RecetaMedica.Medico",
              "name": "medico",
              "type": "tuple"
            },
            {
              "components": [
                {
                  "internalType": "address",
                  "name": "cuentaPaciente",
                  "type": "address"
                },
                {
                  "internalType": "string",
                  "name": "cedula",
                  "type": "string"
                },
                {
                  "internalType": "string",
                  "name": "nombres",
                  "type": "string"
                },
                {
                  "internalType": "string",
                  "name": "apellidos",
                  "type": "string"
                },
                {
                  "internalType": "string",
                  "name": "correo",
                  "type": "string"
                },
                {
                  "internalType": "string",
                  "name": "celular",
                  "type": "string"
                },
                {
                  "internalType": "uint8",
                  "name": "edad",
                  "type": "uint8"
                }
              ],
              "internalType": "struct RecetaMedica.Paciente",
              "name": "paciente",
              "type": "tuple"
            },
            {
              "internalType": "string",
              "name": "diagnostico",
              "type": "string"
            },
            {
              "internalType": "string",
              "name": "indicacionesExtras",
              "type": "string"
            },
            {
              "components": [
                {
                  "internalType": "string",
                  "name": "nombreMedicina",
                  "type": "string"
                },
                {
                  "internalType": "string",
                  "name": "indicacion",
                  "type": "string"
                }
              ],
              "internalType": "struct RecetaMedica.Medicina[]",
              "name": "medicinas",
              "type": "tuple[]"
            },
            {
              "internalType": "uint256",
              "name": "fecha",
              "type": "uint256"
            },
            {
              "internalType": "uint256",
              "name": "fechaCaducidad",
              "type": "uint256"
            },
            {
              "internalType": "address",
              "name": "tokenMedico",
              "type": "address"
            },
            {
              "internalType": "bool",
              "name": "isDespachado",
              "type": "bool"
            }
          ],
          "internalType": "struct RecetaMedica.Receta[]",
          "name": "",
          "type": "tuple[]"
        }
      ],
      "stateMutability": "view",
      "type": "function",
      "constant": true
    },
    {
      "inputs": [
        {
          "internalType": "uint256",
          "name": "idReceta",
          "type": "uint256"
        }
      ],
      "name": "eliminarReceta",
      "outputs": [],
      "stateMutability": "nonpayable",
      "type": "function"
    },
    {
      "inputs": [
        {
          "internalType": "uint256",
          "name": "idReceta",
          "type": "uint256"
        }
      ],
      "name": "despacharReceta",
      "outputs": [],
      "stateMutability": "nonpayable",
      "type": "function"
    }
  ],
  "bytecode": "0x60806040523480156200001157600080fd5b5060405180608001604052806040518060400160405280600881526020017f313131313131313100000000000000000000000000000000000000000000000081525081526020016040518060400160405280600881526020017f506174726963696f00000000000000000000000000000000000000000000000081525081526020016040518060400160405280600881526020017f45737472656c6c6100000000000000000000000000000000000000000000000081525081526020016040518060400160405280600781526020017f47656e6572616c00000000000000000000000000000000000000000000000000815250815250600080730df3c5e1e60a27f02d9d0ff8730c99a73d924fc373ffffffffffffffffffffffffffffffffffffffff1673ffffffffffffffffffffffffffffffffffffffff168152602001908152602001600020600082015181600001908051906020019062000177929190620004b7565b50602082015181600101908051906020019062000196929190620004b7565b506040820151816002019080519060200190620001b5929190620004b7565b506060820151816003019080519060200190620001d4929190620004b7565b5090505060405180608001604052806040518060400160405280600881526020017f323232323232323200000000000000000000000000000000000000000000000081525081526020016040518060400160405280600381526020017f426f62000000000000000000000000000000000000000000000000000000000081525081526020016040518060400160405280600681526020017f53706f6e6a61000000000000000000000000000000000000000000000000000081525081526020016040518060400160405280600781526020017f47656e6572616c0000000000000000000000000000000000000000000000000081525081525060008073f5b223a069ebfdc5d491b94fb50c8be0b063cb6573ffffffffffffffffffffffffffffffffffffffff1673ffffffffffffffffffffffffffffffffffffffff16815260200190815260200160002060008201518160000190805190602001906200033d929190620004b7565b5060208201518160010190805190602001906200035c929190620004b7565b5060408201518160020190805190602001906200037b929190620004b7565b5060608201518160030190805190602001906200039a929190620004b7565b5090505060405180604001604052806040518060400160405280600f81526020017f313233343536373839313031313132000000000000000000000000000000000081525081526020016040518060400160405280600981526020017f4372757a20417a756c0000000000000000000000000000000000000000000000815250815250600560007325fa2c9be8c5653776398a0eafcf5fc284f50c5773ffffffffffffffffffffffffffffffffffffffff1673ffffffffffffffffffffffffffffffffffffffff16815260200190815260200160002060008201518160000190805190602001906200048e929190620004b7565b506020820151816001019080519060200190620004ad929190620004b7565b50905050620005cc565b828054620004c59062000567565b90600052602060002090601f016020900481019282620004e9576000855562000535565b82601f106200050457805160ff191683800117855562000535565b8280016001018555821562000535579182015b828111156200053457825182559160200191906001019062000517565b5b50905062000544919062000548565b5090565b5b808211156200056357600081600090555060010162000549565b5090565b600060028204905060018216806200058057607f821691505b602082108114156200059757620005966200059d565b5b50919050565b7f4e487b7100000000000000000000000000000000000000000000000000000000600052602260045260246000fd5b6144b980620005dc6000396000f3fe608060405234801561001057600080fd5b50600436106100a95760003560e01c80639fa6d164116100715780639fa6d16414610194578063b181a8bf146101c4578063bc14b7dc146101e0578063bf66b8c114610216578063d2de662214610246578063eaf3856214610262576100a9565b80630afe59e1146100ae5780634dfa1864146100ca578063604e0c19146100fd578063764b78e21461012e5780637d10d47114610164575b600080fd5b6100c860048036038101906100c3919061388f565b61027e565b005b6100e460048036038101906100df91906136c9565b6107c2565b6040516100f49493929190613fc5565b60405180910390f35b610117600480360381019061011291906136c9565b610a12565b604051610125929190613f49565b60405180910390f35b61014860048036038101906101439190613736565b610b46565b60405161015b9796959493929190613e95565b60405180910390f35b61017e600480360381019061017991906136c9565b610e7a565b60405161018b9190614046565b60405180910390f35b6101ae60048036038101906101a991906136c9565b610e92565b6040516101bb9190613f27565b60405180910390f35b6101de60048036038101906101d991906138d8565b611886565b005b6101fa60048036038101906101f591906136c9565b6118c7565b60405161020d9796959493929190613e95565b60405180910390f35b610230600480360381019061022b91906136f6565b611bde565b60405161023d9190613f27565b60405180910390f35b610260600480360381019061025b91906138d8565b612767565b005b61027c60048036038101906102779190613776565b6128eb565b005b60005b600460003373ffffffffffffffffffffffffffffffffffffffff1673ffffffffffffffffffffffffffffffffffffffff1681526020019081526020016000205481101561048c57816000015173ffffffffffffffffffffffffffffffffffffffff16600360003373ffffffffffffffffffffffffffffffffffffffff1673ffffffffffffffffffffffffffffffffffffffff168152602001908152602001600020828154811061033457610333614343565b5b906000526020600020906007020160000160009054906101000a900473ffffffffffffffffffffffffffffffffffffffff1673ffffffffffffffffffffffffffffffffffffffff16148015610439575081602001516040516020016103999190613e52565b60405160208183030381529060405280519060200120600360003373ffffffffffffffffffffffffffffffffffffffff1673ffffffffffffffffffffffffffffffffffffffff1681526020019081526020016000208281548110610400576103ff614343565b5b90600052602060002090600702016001016040516020016104219190613e69565b60405160208183030381529060405280519060200120145b15610479576040517f08c379a000000000000000000000000000000000000000000000000000000000815260040161047090614026565b60405180910390fd5b80806104849061429c565b915050610281565b50600073ffffffffffffffffffffffffffffffffffffffff16816000015173ffffffffffffffffffffffffffffffffffffffff1614610606578060016000836000015173ffffffffffffffffffffffffffffffffffffffff1673ffffffffffffffffffffffffffffffffffffffff16815260200190815260200160002060008201518160000160006101000a81548173ffffffffffffffffffffffffffffffffffffffff021916908373ffffffffffffffffffffffffffffffffffffffff160217905550602082015181600101908051906020019061056c929190612f41565b506040820151816002019080519060200190610589929190612f41565b5060608201518160030190805190602001906105a6929190612f41565b5060808201518160040190805190602001906105c3929190612f41565b5060a08201518160050190805190602001906105e0929190612f41565b5060c08201518160060160006101000a81548160ff021916908360ff1602179055509050505b600360003373ffffffffffffffffffffffffffffffffffffffff1673ffffffffffffffffffffffffffffffffffffffff16815260200190815260200160002081908060018154018082558091505060019003906000526020600020906007020160009091909190915060008201518160000160006101000a81548173ffffffffffffffffffffffffffffffffffffffff021916908373ffffffffffffffffffffffffffffffffffffffff16021790555060208201518160010190805190602001906106d2929190612f41565b5060408201518160020190805190602001906106ef929190612f41565b50606082015181600301908051906020019061070c929190612f41565b506080820151816004019080519060200190610729929190612f41565b5060a0820151816005019080519060200190610746929190612f41565b5060c08201518160060160006101000a81548160ff021916908360ff1602179055505050600460003373ffffffffffffffffffffffffffffffffffffffff1673ffffffffffffffffffffffffffffffffffffffff16815260200190815260200160002060008154809291906107ba9061429c565b919050555050565b60006020528060005260406000206000915090508060000180546107e590614239565b80601f016020809104026020016040519081016040528092919081815260200182805461081190614239565b801561085e5780601f106108335761010080835404028352916020019161085e565b820191906000526020600020905b81548152906001019060200180831161084157829003601f168201915b50505050509080600101805461087390614239565b80601f016020809104026020016040519081016040528092919081815260200182805461089f90614239565b80156108ec5780601f106108c1576101008083540402835291602001916108ec565b820191906000526020600020905b8154815290600101906020018083116108cf57829003601f168201915b50505050509080600201805461090190614239565b80601f016020809104026020016040519081016040528092919081815260200182805461092d90614239565b801561097a5780601f1061094f5761010080835404028352916020019161097a565b820191906000526020600020905b81548152906001019060200180831161095d57829003601f168201915b50505050509080600301805461098f90614239565b80601f01602080910402602001604051908101604052809291908181526020018280546109bb90614239565b8015610a085780601f106109dd57610100808354040283529160200191610a08565b820191906000526020600020905b8154815290600101906020018083116109eb57829003601f168201915b5050505050905084565b6005602052806000526040600020600091509050806000018054610a3590614239565b80601f0160208091040260200160405190810160405280929190818152602001828054610a6190614239565b8015610aae5780601f10610a8357610100808354040283529160200191610aae565b820191906000526020600020905b815481529060010190602001808311610a9157829003601f168201915b505050505090806001018054610ac390614239565b80601f0160208091040260200160405190810160405280929190818152602001828054610aef90614239565b8015610b3c5780601f10610b1157610100808354040283529160200191610b3c565b820191906000526020600020905b815481529060010190602001808311610b1f57829003601f168201915b5050505050905082565b60036020528160005260406000208181548110610b6257600080fd5b9060005260206000209060070201600091509150508060000160009054906101000a900473ffffffffffffffffffffffffffffffffffffffff1690806001018054610bac90614239565b80601f0160208091040260200160405190810160405280929190818152602001828054610bd890614239565b8015610c255780601f10610bfa57610100808354040283529160200191610c25565b820191906000526020600020905b815481529060010190602001808311610c0857829003601f168201915b505050505090806002018054610c3a90614239565b80601f0160208091040260200160405190810160405280929190818152602001828054610c6690614239565b8015610cb35780601f10610c8857610100808354040283529160200191610cb3565b820191906000526020600020905b815481529060010190602001808311610c9657829003601f168201915b505050505090806003018054610cc890614239565b80601f0160208091040260200160405190810160405280929190818152602001828054610cf490614239565b8015610d415780601f10610d1657610100808354040283529160200191610d41565b820191906000526020600020905b815481529060010190602001808311610d2457829003601f168201915b505050505090806004018054610d5690614239565b80601f0160208091040260200160405190810160405280929190818152602001828054610d8290614239565b8015610dcf5780601f10610da457610100808354040283529160200191610dcf565b820191906000526020600020905b815481529060010190602001808311610db257829003601f168201915b505050505090806005018054610de490614239565b80601f0160208091040260200160405190810160405280929190818152602001828054610e1090614239565b8015610e5d5780601f10610e3257610100808354040283529160200191610e5d565b820191906000526020600020905b815481529060010190602001808311610e4057829003601f168201915b5050505050908060060160009054906101000a900460ff16905087565b60046020528060005260406000206000915090505481565b606080604051602001610ea490613e80565b60405160208183030381529060405280519060200120600560008573ffffffffffffffffffffffffffffffffffffffff1673ffffffffffffffffffffffffffffffffffffffff168152602001908152602001600020600001604051602001610f0c9190613e69565b604051602081830303815290604052805190602001201415610f315780915050611881565b6002805480602002602001604051908101604052809291908181526020016000905b828210156118795783829060005260206000209060120201604051806101400160405290816000820154815260200160018201604051806080016040529081600082018054610fa190614239565b80601f0160208091040260200160405190810160405280929190818152602001828054610fcd90614239565b801561101a5780601f10610fef5761010080835404028352916020019161101a565b820191906000526020600020905b815481529060010190602001808311610ffd57829003601f168201915b5050505050815260200160018201805461103390614239565b80601f016020809104026020016040519081016040528092919081815260200182805461105f90614239565b80156110ac5780601f10611081576101008083540402835291602001916110ac565b820191906000526020600020905b81548152906001019060200180831161108f57829003601f168201915b505050505081526020016002820180546110c590614239565b80601f01602080910402602001604051908101604052809291908181526020018280546110f190614239565b801561113e5780601f106111135761010080835404028352916020019161113e565b820191906000526020600020905b81548152906001019060200180831161112157829003601f168201915b5050505050815260200160038201805461115790614239565b80601f016020809104026020016040519081016040528092919081815260200182805461118390614239565b80156111d05780601f106111a5576101008083540402835291602001916111d0565b820191906000526020600020905b8154815290600101906020018083116111b357829003601f168201915b5050505050815250508152602001600582016040518060e00160405290816000820160009054906101000a900473ffffffffffffffffffffffffffffffffffffffff1673ffffffffffffffffffffffffffffffffffffffff1673ffffffffffffffffffffffffffffffffffffffff16815260200160018201805461125390614239565b80601f016020809104026020016040519081016040528092919081815260200182805461127f90614239565b80156112cc5780601f106112a1576101008083540402835291602001916112cc565b820191906000526020600020905b8154815290600101906020018083116112af57829003601f168201915b505050505081526020016002820180546112e590614239565b80601f016020809104026020016040519081016040528092919081815260200182805461131190614239565b801561135e5780601f106113335761010080835404028352916020019161135e565b820191906000526020600020905b81548152906001019060200180831161134157829003601f168201915b5050505050815260200160038201805461137790614239565b80601f01602080910402602001604051908101604052809291908181526020018280546113a390614239565b80156113f05780601f106113c5576101008083540402835291602001916113f0565b820191906000526020600020905b8154815290600101906020018083116113d357829003601f168201915b5050505050815260200160048201805461140990614239565b80601f016020809104026020016040519081016040528092919081815260200182805461143590614239565b80156114825780601f1061145757610100808354040283529160200191611482565b820191906000526020600020905b81548152906001019060200180831161146557829003601f168201915b5050505050815260200160058201805461149b90614239565b80601f01602080910402602001604051908101604052809291908181526020018280546114c790614239565b80156115145780601f106114e957610100808354040283529160200191611514565b820191906000526020600020905b8154815290600101906020018083116114f757829003601f168201915b505050505081526020016006820160009054906101000a900460ff1660ff1660ff16815250508152602001600c8201805461154e90614239565b80601f016020809104026020016040519081016040528092919081815260200182805461157a90614239565b80156115c75780601f1061159c576101008083540402835291602001916115c7565b820191906000526020600020905b8154815290600101906020018083116115aa57829003601f168201915b50505050508152602001600d820180546115e090614239565b80601f016020809104026020016040519081016040528092919081815260200182805461160c90614239565b80156116595780601f1061162e57610100808354040283529160200191611659565b820191906000526020600020905b81548152906001019060200180831161163c57829003601f168201915b50505050508152602001600e8201805480602002602001604051908101604052809291908181526020016000905b828210156117dd57838290600052602060002090600202016040518060400160405290816000820180546116ba90614239565b80601f01602080910402602001604051908101604052809291908181526020018280546116e690614239565b80156117335780601f1061170857610100808354040283529160200191611733565b820191906000526020600020905b81548152906001019060200180831161171657829003601f168201915b5050505050815260200160018201805461174c90614239565b80601f016020809104026020016040519081016040528092919081815260200182805461177890614239565b80156117c55780601f1061179a576101008083540402835291602001916117c5565b820191906000526020600020905b8154815290600101906020018083116117a857829003601f168201915b50505050508152505081526020019060010190611687565b505050508152602001600f8201548152602001601082015481526020016011820160009054906101000a900473ffffffffffffffffffffffffffffffffffffffff1673ffffffffffffffffffffffffffffffffffffffff1673ffffffffffffffffffffffffffffffffffffffff1681526020016011820160149054906101000a900460ff16151515158152505081526020019060010190610f53565b505050509150505b919050565b60016002828154811061189c5761189b614343565b5b906000526020600020906012020160110160146101000a81548160ff02191690831515021790555050565b60016020528060005260406000206000915090508060000160009054906101000a900473ffffffffffffffffffffffffffffffffffffffff169080600101805461191090614239565b80601f016020809104026020016040519081016040528092919081815260200182805461193c90614239565b80156119895780601f1061195e57610100808354040283529160200191611989565b820191906000526020600020905b81548152906001019060200180831161196c57829003601f168201915b50505050509080600201805461199e90614239565b80601f01602080910402602001604051908101604052809291908181526020018280546119ca90614239565b8015611a175780601f106119ec57610100808354040283529160200191611a17565b820191906000526020600020905b8154815290600101906020018083116119fa57829003601f168201915b505050505090806003018054611a2c90614239565b80601f0160208091040260200160405190810160405280929190818152602001828054611a5890614239565b8015611aa55780601f10611a7a57610100808354040283529160200191611aa5565b820191906000526020600020905b815481529060010190602001808311611a8857829003601f168201915b505050505090806004018054611aba90614239565b80601f0160208091040260200160405190810160405280929190818152602001828054611ae690614239565b8015611b335780601f10611b0857610100808354040283529160200191611b33565b820191906000526020600020905b815481529060010190602001808311611b1657829003601f168201915b505050505090806005018054611b4890614239565b80601f0160208091040260200160405190810160405280929190818152602001828054611b7490614239565b8015611bc15780601f10611b9657610100808354040283529160200191611bc1565b820191906000526020600020905b815481529060010190602001808311611ba457829003601f168201915b5050505050908060060160009054906101000a900460ff16905087565b6060600060028054905067ffffffffffffffff811115611c0157611c00614372565b5b604051908082528060200260200182016040528015611c3a57816020015b611c27612fc7565b815260200190600190039081611c1f5790505b5090506000805b6002805490508110156126aa5784611ccf578573ffffffffffffffffffffffffffffffffffffffff1660028281548110611c7e57611c7d614343565b5b906000526020600020906012020160050160000160009054906101000a900473ffffffffffffffffffffffffffffffffffffffff1673ffffffffffffffffffffffffffffffffffffffff1614611d44565b8573ffffffffffffffffffffffffffffffffffffffff1660028281548110611cfa57611cf9614343565b5b906000526020600020906012020160110160009054906101000a900473ffffffffffffffffffffffffffffffffffffffff1673ffffffffffffffffffffffffffffffffffffffff16145b156126975760028181548110611d5d57611d5c614343565b5b9060005260206000209060120201604051806101400160405290816000820154815260200160018201604051806080016040529081600082018054611da190614239565b80601f0160208091040260200160405190810160405280929190818152602001828054611dcd90614239565b8015611e1a5780601f10611def57610100808354040283529160200191611e1a565b820191906000526020600020905b815481529060010190602001808311611dfd57829003601f168201915b50505050508152602001600182018054611e3390614239565b80601f0160208091040260200160405190810160405280929190818152602001828054611e5f90614239565b8015611eac5780601f10611e8157610100808354040283529160200191611eac565b820191906000526020600020905b815481529060010190602001808311611e8f57829003601f168201915b50505050508152602001600282018054611ec590614239565b80601f0160208091040260200160405190810160405280929190818152602001828054611ef190614239565b8015611f3e5780601f10611f1357610100808354040283529160200191611f3e565b820191906000526020600020905b815481529060010190602001808311611f2157829003601f168201915b50505050508152602001600382018054611f5790614239565b80601f0160208091040260200160405190810160405280929190818152602001828054611f8390614239565b8015611fd05780601f10611fa557610100808354040283529160200191611fd0565b820191906000526020600020905b815481529060010190602001808311611fb357829003601f168201915b5050505050815250508152602001600582016040518060e00160405290816000820160009054906101000a900473ffffffffffffffffffffffffffffffffffffffff1673ffffffffffffffffffffffffffffffffffffffff1673ffffffffffffffffffffffffffffffffffffffff16815260200160018201805461205390614239565b80601f016020809104026020016040519081016040528092919081815260200182805461207f90614239565b80156120cc5780601f106120a1576101008083540402835291602001916120cc565b820191906000526020600020905b8154815290600101906020018083116120af57829003601f168201915b505050505081526020016002820180546120e590614239565b80601f016020809104026020016040519081016040528092919081815260200182805461211190614239565b801561215e5780601f106121335761010080835404028352916020019161215e565b820191906000526020600020905b81548152906001019060200180831161214157829003601f168201915b5050505050815260200160038201805461217790614239565b80601f01602080910402602001604051908101604052809291908181526020018280546121a390614239565b80156121f05780601f106121c5576101008083540402835291602001916121f0565b820191906000526020600020905b8154815290600101906020018083116121d357829003601f168201915b5050505050815260200160048201805461220990614239565b80601f016020809104026020016040519081016040528092919081815260200182805461223590614239565b80156122825780601f1061225757610100808354040283529160200191612282565b820191906000526020600020905b81548152906001019060200180831161226557829003601f168201915b5050505050815260200160058201805461229b90614239565b80601f01602080910402602001604051908101604052809291908181526020018280546122c790614239565b80156123145780601f106122e957610100808354040283529160200191612314565b820191906000526020600020905b8154815290600101906020018083116122f757829003601f168201915b505050505081526020016006820160009054906101000a900460ff1660ff1660ff16815250508152602001600c8201805461234e90614239565b80601f016020809104026020016040519081016040528092919081815260200182805461237a90614239565b80156123c75780601f1061239c576101008083540402835291602001916123c7565b820191906000526020600020905b8154815290600101906020018083116123aa57829003601f168201915b50505050508152602001600d820180546123e090614239565b80601f016020809104026020016040519081016040528092919081815260200182805461240c90614239565b80156124595780601f1061242e57610100808354040283529160200191612459565b820191906000526020600020905b81548152906001019060200180831161243c57829003601f168201915b50505050508152602001600e8201805480602002602001604051908101604052809291908181526020016000905b828210156125dd57838290600052602060002090600202016040518060400160405290816000820180546124ba90614239565b80601f01602080910402602001604051908101604052809291908181526020018280546124e690614239565b80156125335780601f1061250857610100808354040283529160200191612533565b820191906000526020600020905b81548152906001019060200180831161251657829003601f168201915b5050505050815260200160018201805461254c90614239565b80601f016020809104026020016040519081016040528092919081815260200182805461257890614239565b80156125c55780601f1061259a576101008083540402835291602001916125c5565b820191906000526020600020905b8154815290600101906020018083116125a857829003601f168201915b50505050508152505081526020019060010190612487565b505050508152602001600f8201548152602001601082015481526020016011820160009054906101000a900473ffffffffffffffffffffffffffffffffffffffff1673ffffffffffffffffffffffffffffffffffffffff1673ffffffffffffffffffffffffffffffffffffffff1681526020016011820160149054906101000a900460ff16151515158152505083838151811061267d5761267c614343565b5b602002602001018190525081806126939061429c565b9250505b80806126a29061429c565b915050611c41565b5060008167ffffffffffffffff8111156126c7576126c6614372565b5b60405190808252806020026020018201604052801561270057816020015b6126ed612fc7565b8152602001906001900390816126e55790505b50905060005b8281101561275a5783818151811061272157612720614343565b5b602002602001015182828151811061273c5761273b614343565b5b602002602001018190525080806127529061429c565b915050612706565b5080935050505092915050565b6002818154811061277b5761277a614343565b5b906000526020600020906012020160008082016000905560018201600080820160006127a7919061303e565b6001820160006127b7919061303e565b6002820160006127c7919061303e565b6003820160006127d7919061303e565b505060058201600080820160006101000a81549073ffffffffffffffffffffffffffffffffffffffff0219169055600182016000612815919061303e565b600282016000612825919061303e565b600382016000612835919061303e565b600482016000612845919061303e565b600582016000612855919061303e565b6006820160006101000a81549060ff02191690555050600c8201600061287b919061303e565b600d8201600061288b919061303e565b600e8201600061289b919061307e565b600f82016000905560108201600090556011820160006101000a81549073ffffffffffffffffffffffffffffffffffffffff02191690556011820160146101000a81549060ff0219169055505050565b60028054905060066000018190555033600660110160006101000a81548173ffffffffffffffffffffffffffffffffffffffff021916908373ffffffffffffffffffffffffffffffffffffffff1602179055508560066001016000820151816000019080519060200190612960929190612f41565b50602082015181600101908051906020019061297d929190612f41565b50604082015181600201908051906020019061299a929190612f41565b5060608201518160030190805190602001906129b7929190612f41565b5090505084600660050160008201518160000160006101000a81548173ffffffffffffffffffffffffffffffffffffffff021916908373ffffffffffffffffffffffffffffffffffffffff1602179055506020820151816001019080519060200190612a24929190612f41565b506040820151816002019080519060200190612a41929190612f41565b506060820151816003019080519060200190612a5e929190612f41565b506080820151816004019080519060200190612a7b929190612f41565b5060a0820151816005019080519060200190612a98929190612f41565b5060c08201518160060160006101000a81548160ff021916908360ff160217905550905050836006600c019080519060200190612ad6929190612f41565b50826006600d019080519060200190612af0929190612f41565b50426006600f0181905550806006601001819055506006600e016000612b16919061307e565b60005b8251811015612bf0576006600e016040518060400160405280858481518110612b4557612b44614343565b5b6020026020010151600001518152602001858481518110612b6957612b68614343565b5b60200260200101516020015181525090806001815401808255809150506001900390600052602060002090600202016000909190919091506000820151816000019080519060200190612bbd929190612f41565b506020820151816001019080519060200190612bda929190612f41565b5050508080612be89061429c565b915050612b19565b506002600690806001815401808255809150506001900390600052602060002090601202016000909190919091506000820154816000015560018201816001016000820181600001908054612c4490614239565b612c4f9291906130a2565b506001820181600101908054612c6490614239565b612c6f9291906130a2565b506002820181600201908054612c8490614239565b612c8f9291906130a2565b506003820181600301908054612ca490614239565b612caf9291906130a2565b50505060058201816005016000820160009054906101000a900473ffffffffffffffffffffffffffffffffffffffff168160000160006101000a81548173ffffffffffffffffffffffffffffffffffffffff021916908373ffffffffffffffffffffffffffffffffffffffff1602179055506001820181600101908054612d3590614239565b612d409291906130a2565b506002820181600201908054612d5590614239565b612d609291906130a2565b506003820181600301908054612d7590614239565b612d809291906130a2565b506004820181600401908054612d9590614239565b612da09291906130a2565b506005820181600501908054612db590614239565b612dc09291906130a2565b506006820160009054906101000a900460ff168160060160006101000a81548160ff021916908360ff1602179055505050600c820181600c01908054612e0590614239565b612e109291906130a2565b50600d820181600d01908054612e2590614239565b612e309291906130a2565b50600e820181600e01908054612e4792919061312f565b50600f82015481600f0155601082015481601001556011820160009054906101000a900473ffffffffffffffffffffffffffffffffffffffff168160110160006101000a81548173ffffffffffffffffffffffffffffffffffffffff021916908373ffffffffffffffffffffffffffffffffffffffff1602179055506011820160149054906101000a900460ff168160110160146101000a81548160ff02191690831515021790555050507f2fc6fef47720f7db686e69affbeff6314997efcfe53afafd0e87316260023eeb866020015187604001518760000151604051612f3193929190613f80565b60405180910390a1505050505050565b828054612f4d90614239565b90600052602060002090601f016020900481019282612f6f5760008555612fb6565b82601f10612f8857805160ff1916838001178555612fb6565b82800160010185558215612fb6579182015b82811115612fb5578251825591602001919060010190612f9a565b5b509050612fc391906131c7565b5090565b60405180610140016040528060008152602001612fe26131e4565b8152602001612fef61320c565b81526020016060815260200160608152602001606081526020016000815260200160008152602001600073ffffffffffffffffffffffffffffffffffffffff1681526020016000151581525090565b50805461304a90614239565b6000825580601f1061305c575061307b565b601f01602090049060005260206000209081019061307a91906131c7565b5b50565b508054600082556002029060005260206000209081019061309f9190613262565b50565b8280546130ae90614239565b90600052602060002090601f0160209004810192826130d0576000855561311e565b82601f106130e1578054855561311e565b8280016001018555821561311e57600052602060002091601f016020900482015b8281111561311d578254825591600101919060010190613102565b5b50905061312b91906131c7565b5090565b8280548282559060005260206000209060020281019282156131b65760005260206000209160020282015b828111156131b5578282600082018160000190805461317890614239565b6131839291906130a2565b50600182018160010190805461319890614239565b6131a39291906130a2565b5050509160020191906002019061315a565b5b5090506131c39190613262565b5090565b5b808211156131e05760008160009055506001016131c8565b5090565b6040518060800160405280606081526020016060815260200160608152602001606081525090565b6040518060e00160405280600073ffffffffffffffffffffffffffffffffffffffff1681526020016060815260200160608152602001606081526020016060815260200160608152602001600060ff1681525090565b5b80821115613295576000808201600061327c919061303e565b60018201600061328c919061303e565b50600201613263565b5090565b60006132ac6132a784614086565b614061565b905080838252602082019050828560208602820111156132cf576132ce6143b0565b5b60005b8581101561331d57813567ffffffffffffffff8111156132f5576132f46143a1565b5b80860161330289826133ef565b855260208501945060208401935050506001810190506132d2565b5050509392505050565b600061333a613335846140b2565b614061565b905082815260208101848484011115613356576133556143b5565b5b6133618482856141f7565b509392505050565b60008135905061337881614427565b92915050565b600082601f830112613393576133926143a1565b5b81356133a3848260208601613299565b91505092915050565b6000813590506133bb8161443e565b92915050565b600082601f8301126133d6576133d56143a1565b5b81356133e6848260208601613327565b91505092915050565b600060408284031215613405576134046143a6565b5b61340f6040614061565b9050600082013567ffffffffffffffff81111561342f5761342e6143ab565b5b61343b848285016133c1565b600083015250602082013567ffffffffffffffff81111561345f5761345e6143ab565b5b61346b848285016133c1565b60208301525092915050565b60006080828403121561348d5761348c6143a6565b5b6134976080614061565b9050600082013567ffffffffffffffff8111156134b7576134b66143ab565b5b6134c3848285016133c1565b600083015250602082013567ffffffffffffffff8111156134e7576134e66143ab565b5b6134f3848285016133c1565b602083015250604082013567ffffffffffffffff811115613517576135166143ab565b5b613523848285016133c1565b604083015250606082013567ffffffffffffffff811115613547576135466143ab565b5b613553848285016133c1565b60608301525092915050565b600060e08284031215613575576135746143a6565b5b61357f60e0614061565b9050600061358f84828501613369565b600083015250602082013567ffffffffffffffff8111156135b3576135b26143ab565b5b6135bf848285016133c1565b602083015250604082013567ffffffffffffffff8111156135e3576135e26143ab565b5b6135ef848285016133c1565b604083015250606082013567ffffffffffffffff811115613613576136126143ab565b5b61361f848285016133c1565b606083015250608082013567ffffffffffffffff811115613643576136426143ab565b5b61364f848285016133c1565b60808301525060a082013567ffffffffffffffff811115613673576136726143ab565b5b61367f848285016133c1565b60a08301525060c0613693848285016136b4565b60c08301525092915050565b6000813590506136ae81614455565b92915050565b6000813590506136c38161446c565b92915050565b6000602082840312156136df576136de6143bf565b5b60006136ed84828501613369565b91505092915050565b6000806040838503121561370d5761370c6143bf565b5b600061371b85828601613369565b925050602061372c858286016133ac565b9150509250929050565b6000806040838503121561374d5761374c6143bf565b5b600061375b85828601613369565b925050602061376c8582860161369f565b9150509250929050565b60008060008060008060c08789031215613793576137926143bf565b5b600087013567ffffffffffffffff8111156137b1576137b06143ba565b5b6137bd89828a01613477565b965050602087013567ffffffffffffffff8111156137de576137dd6143ba565b5b6137ea89828a0161355f565b955050604087013567ffffffffffffffff81111561380b5761380a6143ba565b5b61381789828a016133c1565b945050606087013567ffffffffffffffff811115613838576138376143ba565b5b61384489828a016133c1565b935050608087013567ffffffffffffffff811115613865576138646143ba565b5b61387189828a0161337e565b92505060a061388289828a0161369f565b9150509295509295509295565b6000602082840312156138a5576138a46143bf565b5b600082013567ffffffffffffffff8111156138c3576138c26143ba565b5b6138cf8482850161355f565b91505092915050565b6000602082840312156138ee576138ed6143bf565b5b60006138fc8482850161369f565b91505092915050565b60006139118383613bac565b905092915050565b60006139258383613d20565b905092915050565b613936816141a2565b82525050565b613945816141a2565b82525050565b600061395682614118565b6139608185614153565b935083602082028501613972856140e3565b8060005b858110156139ae578484038952815161398f8582613905565b945061399a83614139565b925060208a01995050600181019050613976565b50829750879550505050505092915050565b60006139cb82614123565b6139d58185614164565b9350836020820285016139e7856140f3565b8060005b85811015613a235784840389528151613a048582613919565b9450613a0f83614146565b925060208a019950506001810190506139eb565b50829750879550505050505092915050565b613a3e816141b4565b82525050565b6000613a4f8261412e565b613a598185614175565b9350613a69818560208601614206565b613a72816143c4565b840191505092915050565b6000613a888261412e565b613a928185614186565b9350613aa2818560208601614206565b613aab816143c4565b840191505092915050565b6000613ac18261412e565b613acb8185614197565b9350613adb818560208601614206565b80840191505092915050565b60008154613af481614239565b613afe8186614197565b94506001821660008114613b195760018114613b2a57613b5d565b60ff19831686528186019350613b5d565b613b3385614103565b60005b83811015613b5557815481890152600182019150602081019050613b36565b838801955050505b50505092915050565b6000613b73602e83614186565b9150613b7e826143d5565b604082019050919050565b6000613b96600083614197565b9150613ba182614424565b600082019050919050565b60006040830160008301518482036000860152613bc98282613a44565b91505060208301518482036020860152613be38282613a44565b9150508091505092915050565b60006080830160008301518482036000860152613c0d8282613a44565b91505060208301518482036020860152613c278282613a44565b91505060408301518482036040860152613c418282613a44565b91505060608301518482036060860152613c5b8282613a44565b9150508091505092915050565b600060e083016000830151613c80600086018261392d565b5060208301518482036020860152613c988282613a44565b91505060408301518482036040860152613cb28282613a44565b91505060608301518482036060860152613ccc8282613a44565b91505060808301518482036080860152613ce68282613a44565b91505060a083015184820360a0860152613d008282613a44565b91505060c0830151613d1560c0860182613e34565b508091505092915050565b600061014083016000830151613d396000860182613e16565b5060208301518482036020860152613d518282613bf0565b91505060408301518482036040860152613d6b8282613c68565b91505060608301518482036060860152613d858282613a44565b91505060808301518482036080860152613d9f8282613a44565b91505060a083015184820360a0860152613db9828261394b565b91505060c0830151613dce60c0860182613e16565b5060e0830151613de160e0860182613e16565b50610100830151613df661010086018261392d565b50610120830151613e0b610120860182613a35565b508091505092915050565b613e1f816141e0565b82525050565b613e2e816141e0565b82525050565b613e3d816141ea565b82525050565b613e4c816141ea565b82525050565b6000613e5e8284613ab6565b915081905092915050565b6000613e758284613ae7565b915081905092915050565b6000613e8b82613b89565b9150819050919050565b600060e082019050613eaa600083018a61393c565b8181036020830152613ebc8189613a7d565b90508181036040830152613ed08188613a7d565b90508181036060830152613ee48187613a7d565b90508181036080830152613ef88186613a7d565b905081810360a0830152613f0c8185613a7d565b9050613f1b60c0830184613e43565b98975050505050505050565b60006020820190508181036000830152613f4181846139c0565b905092915050565b60006040820190508181036000830152613f638185613a7d565b90508181036020830152613f778184613a7d565b90509392505050565b60006060820190508181036000830152613f9a8186613a7d565b90508181036020830152613fae8185613a7d565b9050613fbd604083018461393c565b949350505050565b60006080820190508181036000830152613fdf8187613a7d565b90508181036020830152613ff38186613a7d565b905081810360408301526140078185613a7d565b9050818103606083015261401b8184613a7d565b905095945050505050565b6000602082019050818103600083015261403f81613b66565b9050919050565b600060208201905061405b6000830184613e25565b92915050565b600061406b61407c565b9050614077828261426b565b919050565b6000604051905090565b600067ffffffffffffffff8211156140a1576140a0614372565b5b602082029050602081019050919050565b600067ffffffffffffffff8211156140cd576140cc614372565b5b6140d6826143c4565b9050602081019050919050565b6000819050602082019050919050565b6000819050602082019050919050565b60008190508160005260206000209050919050565b600081519050919050565b600081519050919050565b600081519050919050565b6000602082019050919050565b6000602082019050919050565b600082825260208201905092915050565b600082825260208201905092915050565b600082825260208201905092915050565b600082825260208201905092915050565b600081905092915050565b60006141ad826141c0565b9050919050565b60008115159050919050565b600073ffffffffffffffffffffffffffffffffffffffff82169050919050565b6000819050919050565b600060ff82169050919050565b82818337600083830152505050565b60005b83811015614224578082015181840152602081019050614209565b83811115614233576000848401525b50505050565b6000600282049050600182168061425157607f821691505b6020821081141561426557614264614314565b5b50919050565b614274826143c4565b810181811067ffffffffffffffff8211171561429357614292614372565b5b80604052505050565b60006142a7826141e0565b91507fffffffffffffffffffffffffffffffffffffffffffffffffffffffffffffffff8214156142da576142d96142e5565b5b600182019050919050565b7f4e487b7100000000000000000000000000000000000000000000000000000000600052601160045260246000fd5b7f4e487b7100000000000000000000000000000000000000000000000000000000600052602260045260246000fd5b7f4e487b7100000000000000000000000000000000000000000000000000000000600052603260045260246000fd5b7f4e487b7100000000000000000000000000000000000000000000000000000000600052604160045260246000fd5b600080fd5b600080fd5b600080fd5b600080fd5b600080fd5b600080fd5b600080fd5b6000601f19601f8301169050919050565b7f456c2070616369656e7465207961206861207369646f2072656769737472616460008201527f6f20656e207375206375656e7461000000000000000000000000000000000000602082015250565b50565b614430816141a2565b811461443b57600080fd5b50565b614447816141b4565b811461445257600080fd5b50565b61445e816141e0565b811461446957600080fd5b50565b614475816141ea565b811461448057600080fd5b5056fea2646970667358221220c90e428284934b6faab191f67373193bbb96fdebf6e6001a5a66ce72173f660264736f6c63430008060033",
  "immutableReferences": {},
  "source": "// SPDX-License-Identifier: GPL-3.0\r\npragma solidity >=0.7.0 <0.9.0;\r\n\r\ncontract RecetaMedica {\r\n\r\n    //************************** Estructuras que simulan los actores de las prescripciones mdicas *********************\r\n\r\n    struct Medicina {\r\n        string nombreMedicina;\r\n        string indicacion;\r\n    }\r\n\r\n    struct Medico {\r\n        string cedulaProfesional;\r\n        string nombres;\r\n        string apellidos;\r\n        string especialidad;\r\n    }\r\n\r\n    struct Paciente {\r\n        address cuentaPaciente;\r\n        string cedula;\r\n        string nombres;\r\n        string apellidos;\r\n        string correo;\r\n        string celular;\r\n        uint8 edad;\r\n    }\r\n\r\n    struct Farmaceutico {\r\n        string ruc;\r\n        string nombreComercial;\r\n    }\r\n\r\n    struct Receta {\r\n        uint id;\r\n        Medico medico;\r\n        Paciente paciente;\r\n        string diagnostico;\r\n        string indicacionesExtras;\r\n        Medicina[] medicinas;\r\n        uint fecha;\r\n        uint fechaCaducidad;\r\n        address tokenMedico;\r\n        bool isDespachado;\r\n    }\r\n\r\n    //****** Arreglos de tipo Map en donde se almacena la informacin en el proceso de preescripciones mdicas *********\r\n\r\n    mapping(address => Medico) public medicos;\r\n\r\n    mapping(address => Paciente) public pacientes;\r\n\r\n    Receta[] private recetas;\r\n\r\n    mapping(address => Paciente[]) public pacientesPorDoctor;\r\n    mapping(address => uint) public pacientesTotalesPorDoctor;\r\n\r\n    mapping(address => Farmaceutico) public farmaceuticos;\r\n    //************ Evento que reacciona al momento de registrar una receta para cualesquier paciente *******************\r\n\r\n    event RecetaRegistrada(string nombresMedico, string apellidosMedico, address cuentaPaciente);\r\n\r\n    //************************ Constructor del contrato que establece datos predeterminados **************************\r\n\r\n    constructor(){\r\n        //Doctores pre-existentes\r\n        medicos[0x0DF3c5E1e60A27f02D9d0FF8730c99A73D924Fc3] = Medico(\"11111111\", \"Patricio\", \"Estrella\", \"General\");\r\n        medicos[0xF5B223A069ebfDc5D491b94fB50C8be0B063CB65] = Medico(\"22222222\", \"Bob\", \"Sponja\", \"General\");\r\n        //Farmacuticos pre-existentes\r\n        farmaceuticos[0x25fA2c9BE8c5653776398A0EAFcf5fC284F50c57] = Farmaceutico(\"123456789101112\", \"Cruz Azul\");\r\n    }\r\n\r\n    //****************** Funciones que contienen la lgica del proceso de preescripciones mdicas **********************\r\n\r\n    function registrarPaciente(\r\n        Paciente memory _paciente\r\n    ) public {\r\n        for (uint i = 0; i < pacientesTotalesPorDoctor[msg.sender]; i++) {\r\n            //Se valida en caso de que el paciente tenga ya un address asociado\r\n            //adems, se emplea && ya que, puede darse el caso en que, la cdula de un _paciente\r\n            // ya se ha registrado pero aun no tiene cuenta en la red.\r\n            require(!(pacientesPorDoctor[msg.sender][i].cuentaPaciente == _paciente.cuentaPaciente\r\n            && keccak256(abi.encodePacked(pacientesPorDoctor[msg.sender][i].cedula)) ==\r\n            keccak256(abi.encodePacked(_paciente.cedula))), 'El paciente ya ha sido registrado en su cuenta');\r\n        }\r\n\r\n        if (_paciente.cuentaPaciente != address(0)) {\r\n            pacientes[_paciente.cuentaPaciente] = _paciente;\r\n        }\r\n\r\n        pacientesPorDoctor[msg.sender].push(_paciente);\r\n        pacientesTotalesPorDoctor[msg.sender] ++;\r\n    }\r\n\r\n    Receta private receta;\r\n\r\n    function registrarReceta(\r\n        Medico memory _medico,\r\n        Paciente memory _paciente,\r\n        string memory _diagnostico,\r\n        string memory _indicacionesExtras,\r\n        Medicina[] memory _medicinas,\r\n        uint _fechaCaducidad) public\r\n    {\r\n        receta.id = recetas.length;\r\n        receta.tokenMedico = msg.sender;\r\n        receta.medico = _medico;\r\n        receta.paciente = _paciente;\r\n        receta.diagnostico = _diagnostico;\r\n        receta.indicacionesExtras = _indicacionesExtras;\r\n        receta.fecha = block.timestamp;\r\n        receta.fechaCaducidad = _fechaCaducidad;\r\n        delete receta.medicinas;\r\n        for (uint j = 0; j < _medicinas.length; j++) {\r\n            receta.medicinas.push(Medicina(_medicinas[j].nombreMedicina, _medicinas[j].indicacion));\r\n        }\r\n        recetas.push(receta);\r\n        emit RecetaRegistrada(_medico.nombres, _medico.apellidos, _paciente.cuentaPaciente);\r\n    }\r\n\r\n    function getRecetas(address cuenta, bool isMedico)\r\n    public view returns (Receta[] memory) {\r\n        Receta[] memory recetasAux = new Receta[](recetas.length);\r\n        uint contador = 0;\r\n        for (uint i = 0; i < recetas.length; i++) {\r\n            if (isMedico ? recetas[i].tokenMedico == cuenta :\r\n                recetas[i].paciente.cuentaPaciente == cuenta) {\r\n                recetasAux[contador] = recetas[i];\r\n                contador++;\r\n            }\r\n        }\r\n        //Eliminamos los indices que contienen recetas con valores vacios\r\n        Receta[] memory recetas = new Receta[](contador);\r\n        for (uint i = 0; i < contador; i++) {\r\n            recetas[i] = recetasAux[i];\r\n        }\r\n        return recetas;\r\n    }\r\n\r\n    function getRecetasFarmaceutico(address cuentaFarmacia) public view returns (Receta[] memory){\r\n        Receta[] memory recetasVacia;\r\n        if(keccak256(abi.encodePacked(farmaceuticos[cuentaFarmacia].ruc))\r\n            == keccak256(abi.encodePacked(\"\"))){\r\n            return recetasVacia;\r\n        }\r\n        return recetas;\r\n    }\r\n\r\n    function eliminarReceta(uint idReceta) public {\r\n        delete recetas[idReceta];\r\n    }\r\n\r\n    function despacharReceta(uint idReceta) public {\r\n        recetas[idReceta].isDespachado = true;\r\n    }\r\n\r\n}\r\n",
  "sourcePath": "C:/Users/Mickmaxy/Documents/GitHub/dapp-recetas-medicas/contracts/RecetaMedica.sol",
  "compiler": {
    "name": "solc",
    "version": "0.8.6+commit.11564f7e.Emscripten.clang"
  },
  "schemaVersion": "3.4.1",
  "updatedAt": "2021-08-07T01:51:49.422Z",
  "networkType": "ethereum",
  "devdoc": {
    "kind": "dev",
    "methods": {},
    "version": 1
  },
  "userdoc": {
    "kind": "user",
    "methods": {},
    "version": 1
  }
}