{
  "contractName": "RecetaMedica",
  "abi": [
    {
      "inputs": [],
      "stateMutability": "nonpayable",
      "type": "constructor"
    },
    {
      "inputs": [
        {
          "internalType": "address",
          "name": "",
          "type": "address"
        }
      ],
      "name": "medicos",
      "outputs": [
        {
          "internalType": "string",
          "name": "cedulaProfesional",
          "type": "string"
        },
        {
          "internalType": "string",
          "name": "nombres",
          "type": "string"
        },
        {
          "internalType": "string",
          "name": "apellidos",
          "type": "string"
        },
        {
          "internalType": "string",
          "name": "especialidad",
          "type": "string"
        }
      ],
      "stateMutability": "view",
      "type": "function",
      "constant": true
    },
    {
      "inputs": [
        {
          "internalType": "uint256",
          "name": "",
          "type": "uint256"
        }
      ],
      "name": "pacientes",
      "outputs": [
        {
          "internalType": "address",
          "name": "doctor",
          "type": "address"
        },
        {
          "internalType": "string",
          "name": "cedula",
          "type": "string"
        },
        {
          "internalType": "string",
          "name": "nombres",
          "type": "string"
        },
        {
          "internalType": "string",
          "name": "apellidos",
          "type": "string"
        }
      ],
      "stateMutability": "view",
      "type": "function",
      "constant": true
    },
    {
      "inputs": [
        {
          "internalType": "address",
          "name": "_doctor",
          "type": "address"
        },
        {
          "internalType": "string",
          "name": "_cedula",
          "type": "string"
        },
        {
          "internalType": "string",
          "name": "_nombre",
          "type": "string"
        },
        {
          "internalType": "string",
          "name": "_apellido",
          "type": "string"
        }
      ],
      "name": "registrarPaciente",
      "outputs": [],
      "stateMutability": "nonpayable",
      "type": "function"
    },
    {
      "inputs": [],
      "name": "pacienteIdActual",
      "outputs": [
        {
          "internalType": "uint256",
          "name": "",
          "type": "uint256"
        }
      ],
      "stateMutability": "view",
      "type": "function",
      "constant": true
    }
  ],
  "bytecode": "0x60806040523480156200001157600080fd5b5060405180608001604052806040518060400160405280600881526020017f313131313131313100000000000000000000000000000000000000000000000081525081526020016040518060400160405280600881526020017f506174726963696f00000000000000000000000000000000000000000000000081525081526020016040518060400160405280600881526020017f45737472656c6c6100000000000000000000000000000000000000000000000081525081526020016040518060400160405280600781526020017f47656e6572616c0000000000000000000000000000000000000000000000000081525081525060026000730df3c5e1e60a27f02d9d0ff8730c99a73d924fc373ffffffffffffffffffffffffffffffffffffffff1673ffffffffffffffffffffffffffffffffffffffff16815260200190815260200160002060008201518160000190805190602001906200017892919062000710565b5060208201518160010190805190602001906200019792919062000710565b506040820151816002019080519060200190620001b692919062000710565b506060820151816003019080519060200190620001d592919062000710565b5090505060405180608001604052806040518060400160405280600881526020017f323232323232323200000000000000000000000000000000000000000000000081525081526020016040518060400160405280600381526020017f426f62000000000000000000000000000000000000000000000000000000000081525081526020016040518060400160405280600681526020017f53706f6e6a61000000000000000000000000000000000000000000000000000081525081526020016040518060400160405280600781526020017f47656e6572616c000000000000000000000000000000000000000000000000008152508152506002600073f5b223a069ebfdc5d491b94fb50c8be0b063cb6573ffffffffffffffffffffffffffffffffffffffff1673ffffffffffffffffffffffffffffffffffffffff16815260200190815260200160002060008201518160000190805190602001906200033f92919062000710565b5060208201518160010190805190602001906200035e92919062000710565b5060408201518160020190805190602001906200037d92919062000710565b5060608201518160030190805190602001906200039c92919062000710565b50905050600080819055506040518060800160405280730df3c5e1e60a27f02d9d0ff8730c99a73d924fc373ffffffffffffffffffffffffffffffffffffffff1681526020016040518060400160405280600a81526020017f313331323936303434340000000000000000000000000000000000000000000081525081526020016040518060400160405280600781526020017f4d69636861656c0000000000000000000000000000000000000000000000000081525081526020016040518060400160405280600981526020017f46726564657269636b0000000000000000000000000000000000000000000000815250815250600160008054815260200190815260200160002060008201518160000160006101000a81548173ffffffffffffffffffffffffffffffffffffffff021916908373ffffffffffffffffffffffffffffffffffffffff16021790555060208201518160010190805190602001906200050a92919062000710565b5060408201518160020190805190602001906200052992919062000710565b5060608201518160030190805190602001906200054892919062000710565b50905050600080815480929190620005609062000800565b91905055506040518060800160405280730df3c5e1e60a27f02d9d0ff8730c99a73d924fc373ffffffffffffffffffffffffffffffffffffffff1681526020016040518060400160405280600a81526020017f313730353437313232330000000000000000000000000000000000000000000081525081526020016040518060400160405280600581526020017f57696e6b6100000000000000000000000000000000000000000000000000000081525081526020016040518060400160405280600381526020017f5265610000000000000000000000000000000000000000000000000000000000815250815250600160008054815260200190815260200160002060008201518160000160006101000a81548173ffffffffffffffffffffffffffffffffffffffff021916908373ffffffffffffffffffffffffffffffffffffffff1602179055506020820151816001019080519060200190620006c892919062000710565b506040820151816002019080519060200190620006e792919062000710565b5060608201518160030190805190602001906200070692919062000710565b50905050620008ac565b8280546200071e90620007ca565b90600052602060002090601f0160209004810192826200074257600085556200078e565b82601f106200075d57805160ff19168380011785556200078e565b828001600101855582156200078e579182015b828111156200078d57825182559160200191906001019062000770565b5b5090506200079d9190620007a1565b5090565b5b80821115620007bc576000816000905550600101620007a2565b5090565b6000819050919050565b60006002820490506001821680620007e357607f821691505b60208210811415620007fa57620007f96200087d565b5b50919050565b60006200080d82620007c0565b91507fffffffffffffffffffffffffffffffffffffffffffffffffffffffffffffffff8214156200084357620008426200084e565b5b600182019050919050565b7f4e487b7100000000000000000000000000000000000000000000000000000000600052601160045260246000fd5b7f4e487b7100000000000000000000000000000000000000000000000000000000600052602260045260246000fd5b610c3880620008bc6000396000f3fe608060405234801561001057600080fd5b506004361061004c5760003560e01c80631e180dda146100515780634dfa18641461006f578063c7cad99b146100a2578063d842abab146100be575b600080fd5b6100596100f1565b604051610066919061097f565b60405180910390f35b61008960048036038101906100849190610770565b6100fa565b604051610099949392919061091e565b60405180910390f35b6100bc60048036038101906100b79190610799565b61034a565b005b6100d860048036038101906100d39190610844565b610453565b6040516100e894939291906108c4565b60405180910390f35b60008054905090565b600260205280600052604060002060009150905080600001805461011d90610a8a565b80601f016020809104026020016040519081016040528092919081815260200182805461014990610a8a565b80156101965780601f1061016b57610100808354040283529160200191610196565b820191906000526020600020905b81548152906001019060200180831161017957829003601f168201915b5050505050908060010180546101ab90610a8a565b80601f01602080910402602001604051908101604052809291908181526020018280546101d790610a8a565b80156102245780601f106101f957610100808354040283529160200191610224565b820191906000526020600020905b81548152906001019060200180831161020757829003601f168201915b50505050509080600201805461023990610a8a565b80601f016020809104026020016040519081016040528092919081815260200182805461026590610a8a565b80156102b25780601f10610287576101008083540402835291602001916102b2565b820191906000526020600020905b81548152906001019060200180831161029557829003601f168201915b5050505050908060030180546102c790610a8a565b80601f01602080910402602001604051908101604052809291908181526020018280546102f390610a8a565b80156103405780601f1061031557610100808354040283529160200191610340565b820191906000526020600020905b81548152906001019060200180831161032357829003601f168201915b5050505050905084565b60008081548092919061035c90610aed565b919050555060405180608001604052808573ffffffffffffffffffffffffffffffffffffffff16815260200184815260200183815260200182815250600160008054815260200190815260200160002060008201518160000160006101000a81548173ffffffffffffffffffffffffffffffffffffffff021916908373ffffffffffffffffffffffffffffffffffffffff160217905550602082015181600101908051906020019061040f92919061063b565b50604082015181600201908051906020019061042c92919061063b565b50606082015181600301908051906020019061044992919061063b565b5090505050505050565b60016020528060005260406000206000915090508060000160009054906101000a900473ffffffffffffffffffffffffffffffffffffffff169080600101805461049c90610a8a565b80601f01602080910402602001604051908101604052809291908181526020018280546104c890610a8a565b80156105155780601f106104ea57610100808354040283529160200191610515565b820191906000526020600020905b8154815290600101906020018083116104f857829003601f168201915b50505050509080600201805461052a90610a8a565b80601f016020809104026020016040519081016040528092919081815260200182805461055690610a8a565b80156105a35780601f10610578576101008083540402835291602001916105a3565b820191906000526020600020905b81548152906001019060200180831161058657829003601f168201915b5050505050908060030180546105b890610a8a565b80601f01602080910402602001604051908101604052809291908181526020018280546105e490610a8a565b80156106315780601f1061060657610100808354040283529160200191610631565b820191906000526020600020905b81548152906001019060200180831161061457829003601f168201915b5050505050905084565b82805461064790610a8a565b90600052602060002090601f01602090048101928261066957600085556106b0565b82601f1061068257805160ff19168380011785556106b0565b828001600101855582156106b0579182015b828111156106af578251825591602001919060010190610694565b5b5090506106bd91906106c1565b5090565b5b808211156106da5760008160009055506001016106c2565b5090565b60006106f16106ec846109bf565b61099a565b90508281526020810184848401111561070957600080fd5b610714848285610a48565b509392505050565b60008135905061072b81610bd4565b92915050565b600082601f83011261074257600080fd5b81356107528482602086016106de565b91505092915050565b60008135905061076a81610beb565b92915050565b60006020828403121561078257600080fd5b60006107908482850161071c565b91505092915050565b600080600080608085870312156107af57600080fd5b60006107bd8782880161071c565b945050602085013567ffffffffffffffff8111156107da57600080fd5b6107e687828801610731565b935050604085013567ffffffffffffffff81111561080357600080fd5b61080f87828801610731565b925050606085013567ffffffffffffffff81111561082c57600080fd5b61083887828801610731565b91505092959194509250565b60006020828403121561085657600080fd5b60006108648482850161075b565b91505092915050565b61087681610a0c565b82525050565b6000610887826109f0565b61089181856109fb565b93506108a1818560208601610a57565b6108aa81610bc3565b840191505092915050565b6108be81610a3e565b82525050565b60006080820190506108d9600083018761086d565b81810360208301526108eb818661087c565b905081810360408301526108ff818561087c565b90508181036060830152610913818461087c565b905095945050505050565b60006080820190508181036000830152610938818761087c565b9050818103602083015261094c818661087c565b90508181036040830152610960818561087c565b90508181036060830152610974818461087c565b905095945050505050565b600060208201905061099460008301846108b5565b92915050565b60006109a46109b5565b90506109b08282610abc565b919050565b6000604051905090565b600067ffffffffffffffff8211156109da576109d9610b94565b5b6109e382610bc3565b9050602081019050919050565b600081519050919050565b600082825260208201905092915050565b6000610a1782610a1e565b9050919050565b600073ffffffffffffffffffffffffffffffffffffffff82169050919050565b6000819050919050565b82818337600083830152505050565b60005b83811015610a75578082015181840152602081019050610a5a565b83811115610a84576000848401525b50505050565b60006002820490506001821680610aa257607f821691505b60208210811415610ab657610ab5610b65565b5b50919050565b610ac582610bc3565b810181811067ffffffffffffffff82111715610ae457610ae3610b94565b5b80604052505050565b6000610af882610a3e565b91507fffffffffffffffffffffffffffffffffffffffffffffffffffffffffffffffff821415610b2b57610b2a610b36565b5b600182019050919050565b7f4e487b7100000000000000000000000000000000000000000000000000000000600052601160045260246000fd5b7f4e487b7100000000000000000000000000000000000000000000000000000000600052602260045260246000fd5b7f4e487b7100000000000000000000000000000000000000000000000000000000600052604160045260246000fd5b6000601f19601f8301169050919050565b610bdd81610a0c565b8114610be857600080fd5b50565b610bf481610a3e565b8114610bff57600080fd5b5056fea2646970667358221220f8ddb5857b70563cf216e36e8d742db88bfd30a1642e63253b040f7b7f70c8cc64736f6c63430008040033",
  "immutableReferences": {},
  "source": "// SPDX-License-Identifier: GPL-3.0\r\npragma solidity >=0.7.0 <0.9.0;\r\n\r\ncontract RecetaMedica {\r\n\r\n    uint private pacienteId;\r\n\r\n\r\n    struct Medico {\r\n\r\n        string cedulaProfesional;\r\n        string nombres;\r\n        string apellidos;\r\n        string especialidad;\r\n    }\r\n\r\n    struct Paciente {\r\n        address doctor;\r\n        string cedula;\r\n        string nombres;\r\n        string apellidos;\r\n    }\r\n\r\n\r\n    mapping(uint => Paciente) public pacientes;\r\n    mapping(address => Medico) public medicos;\r\n\r\n    constructor(){\r\n        //Doctores pre-existentes\r\n        medicos[0x0DF3c5E1e60A27f02D9d0FF8730c99A73D924Fc3]= Medico(\"11111111\",\"Patricio\",\"Estrella\",\"General\");\r\n        medicos[0xF5B223A069ebfDc5D491b94fB50C8be0B063CB65]= Medico(\"22222222\",\"Bob\",\"Sponja\",\"General\");\r\n        //Pacientes test\r\n        pacienteId = 0;\r\n        pacientes[pacienteId] = Paciente(0x0DF3c5E1e60A27f02D9d0FF8730c99A73D924Fc3, '1312960444', 'Michael', 'Frederick');\r\n        pacienteId++;\r\n        pacientes[pacienteId] = Paciente(0x0DF3c5E1e60A27f02D9d0FF8730c99A73D924Fc3, '1705471223', 'Winka', 'Rea');\r\n    }\r\n\r\n\r\n    function registrarPaciente(\r\n        address _doctor,\r\n        string memory _cedula,\r\n        string memory _nombre,\r\n        string memory _apellido) public {\r\n\r\n        pacienteId++;\r\n        pacientes[pacienteId] = Paciente(_doctor, _cedula, _nombre, _apellido);\r\n    }\r\n\r\n    function pacienteIdActual() public view returns (uint) {\r\n        return pacienteId;\r\n    }\r\n\r\n\r\n}\r\n",
  "sourcePath": "C:/Users/Mickmaxy/Documents/GitHub/dapp-recetas-medicas/contracts/RecetaMedica.sol",
  "compiler": {
    "name": "solc",
    "version": "0.8.4+commit.c7e474f2.Emscripten.clang"
  },
  "schemaVersion": "3.4.1",
  "updatedAt": "2021-07-18T03:25:12.595Z",
  "networkType": "ethereum",
  "devdoc": {
    "kind": "dev",
    "methods": {},
    "version": 1
  },
  "userdoc": {
    "kind": "user",
    "methods": {},
    "version": 1
  }
}