{
  "contractName": "RecetaMedica",
  "abi": [
    {
      "inputs": [],
      "stateMutability": "nonpayable",
      "type": "constructor"
    },
    {
      "anonymous": false,
      "inputs": [
        {
          "indexed": false,
          "internalType": "address",
          "name": "cuenta",
          "type": "address"
        }
      ],
      "name": "AccionReceta",
      "type": "event"
    },
    {
      "inputs": [
        {
          "internalType": "address",
          "name": "",
          "type": "address"
        }
      ],
      "name": "farmaceuticos",
      "outputs": [
        {
          "internalType": "string",
          "name": "ruc",
          "type": "string"
        },
        {
          "internalType": "string",
          "name": "nombreComercial",
          "type": "string"
        }
      ],
      "stateMutability": "view",
      "type": "function",
      "constant": true
    },
    {
      "inputs": [
        {
          "internalType": "address",
          "name": "",
          "type": "address"
        }
      ],
      "name": "medicos",
      "outputs": [
        {
          "internalType": "string",
          "name": "cedulaProfesional",
          "type": "string"
        },
        {
          "internalType": "string",
          "name": "nombres",
          "type": "string"
        },
        {
          "internalType": "string",
          "name": "apellidos",
          "type": "string"
        },
        {
          "internalType": "string",
          "name": "especialidad",
          "type": "string"
        }
      ],
      "stateMutability": "view",
      "type": "function",
      "constant": true
    },
    {
      "inputs": [
        {
          "internalType": "address",
          "name": "",
          "type": "address"
        }
      ],
      "name": "pacientes",
      "outputs": [
        {
          "internalType": "address",
          "name": "cuentaPaciente",
          "type": "address"
        },
        {
          "internalType": "string",
          "name": "cedula",
          "type": "string"
        },
        {
          "internalType": "string",
          "name": "nombres",
          "type": "string"
        },
        {
          "internalType": "string",
          "name": "apellidos",
          "type": "string"
        },
        {
          "internalType": "string",
          "name": "correo",
          "type": "string"
        },
        {
          "internalType": "string",
          "name": "celular",
          "type": "string"
        },
        {
          "internalType": "uint8",
          "name": "edad",
          "type": "uint8"
        }
      ],
      "stateMutability": "view",
      "type": "function",
      "constant": true
    },
    {
      "inputs": [
        {
          "internalType": "address",
          "name": "",
          "type": "address"
        },
        {
          "internalType": "uint256",
          "name": "",
          "type": "uint256"
        }
      ],
      "name": "pacientesPorDoctor",
      "outputs": [
        {
          "internalType": "address",
          "name": "cuentaPaciente",
          "type": "address"
        },
        {
          "internalType": "string",
          "name": "cedula",
          "type": "string"
        },
        {
          "internalType": "string",
          "name": "nombres",
          "type": "string"
        },
        {
          "internalType": "string",
          "name": "apellidos",
          "type": "string"
        },
        {
          "internalType": "string",
          "name": "correo",
          "type": "string"
        },
        {
          "internalType": "string",
          "name": "celular",
          "type": "string"
        },
        {
          "internalType": "uint8",
          "name": "edad",
          "type": "uint8"
        }
      ],
      "stateMutability": "view",
      "type": "function",
      "constant": true
    },
    {
      "inputs": [
        {
          "internalType": "address",
          "name": "",
          "type": "address"
        }
      ],
      "name": "pacientesTotalesPorDoctor",
      "outputs": [
        {
          "internalType": "uint256",
          "name": "",
          "type": "uint256"
        }
      ],
      "stateMutability": "view",
      "type": "function",
      "constant": true
    },
    {
      "inputs": [
        {
          "components": [
            {
              "internalType": "address",
              "name": "cuentaPaciente",
              "type": "address"
            },
            {
              "internalType": "string",
              "name": "cedula",
              "type": "string"
            },
            {
              "internalType": "string",
              "name": "nombres",
              "type": "string"
            },
            {
              "internalType": "string",
              "name": "apellidos",
              "type": "string"
            },
            {
              "internalType": "string",
              "name": "correo",
              "type": "string"
            },
            {
              "internalType": "string",
              "name": "celular",
              "type": "string"
            },
            {
              "internalType": "uint8",
              "name": "edad",
              "type": "uint8"
            }
          ],
          "internalType": "struct RecetaMedica.Paciente",
          "name": "_paciente",
          "type": "tuple"
        }
      ],
      "name": "registrarPaciente",
      "outputs": [],
      "stateMutability": "nonpayable",
      "type": "function"
    },
    {
      "inputs": [
        {
          "components": [
            {
              "internalType": "uint256",
              "name": "id",
              "type": "uint256"
            },
            {
              "components": [
                {
                  "internalType": "string",
                  "name": "cedulaProfesional",
                  "type": "string"
                },
                {
                  "internalType": "string",
                  "name": "nombres",
                  "type": "string"
                },
                {
                  "internalType": "string",
                  "name": "apellidos",
                  "type": "string"
                },
                {
                  "internalType": "string",
                  "name": "especialidad",
                  "type": "string"
                }
              ],
              "internalType": "struct RecetaMedica.Medico",
              "name": "medico",
              "type": "tuple"
            },
            {
              "components": [
                {
                  "internalType": "address",
                  "name": "cuentaPaciente",
                  "type": "address"
                },
                {
                  "internalType": "string",
                  "name": "cedula",
                  "type": "string"
                },
                {
                  "internalType": "string",
                  "name": "nombres",
                  "type": "string"
                },
                {
                  "internalType": "string",
                  "name": "apellidos",
                  "type": "string"
                },
                {
                  "internalType": "string",
                  "name": "correo",
                  "type": "string"
                },
                {
                  "internalType": "string",
                  "name": "celular",
                  "type": "string"
                },
                {
                  "internalType": "uint8",
                  "name": "edad",
                  "type": "uint8"
                }
              ],
              "internalType": "struct RecetaMedica.Paciente",
              "name": "paciente",
              "type": "tuple"
            },
            {
              "internalType": "string",
              "name": "diagnostico",
              "type": "string"
            },
            {
              "internalType": "string",
              "name": "indicacionesExtras",
              "type": "string"
            },
            {
              "components": [
                {
                  "internalType": "string",
                  "name": "nombreMedicina",
                  "type": "string"
                },
                {
                  "internalType": "string",
                  "name": "indicacion",
                  "type": "string"
                }
              ],
              "internalType": "struct RecetaMedica.Medicina[]",
              "name": "medicinas",
              "type": "tuple[]"
            },
            {
              "internalType": "uint256",
              "name": "fecha",
              "type": "uint256"
            },
            {
              "internalType": "uint256",
              "name": "fechaCaducidad",
              "type": "uint256"
            },
            {
              "internalType": "address",
              "name": "tokenMedico",
              "type": "address"
            },
            {
              "internalType": "bool",
              "name": "isDespachado",
              "type": "bool"
            }
          ],
          "internalType": "struct RecetaMedica.Receta",
          "name": "_receta",
          "type": "tuple"
        }
      ],
      "name": "registrarReceta",
      "outputs": [],
      "stateMutability": "nonpayable",
      "type": "function"
    },
    {
      "inputs": [
        {
          "internalType": "address",
          "name": "cuenta",
          "type": "address"
        }
      ],
      "name": "getRecetas",
      "outputs": [
        {
          "components": [
            {
              "internalType": "uint256",
              "name": "id",
              "type": "uint256"
            },
            {
              "components": [
                {
                  "internalType": "string",
                  "name": "cedulaProfesional",
                  "type": "string"
                },
                {
                  "internalType": "string",
                  "name": "nombres",
                  "type": "string"
                },
                {
                  "internalType": "string",
                  "name": "apellidos",
                  "type": "string"
                },
                {
                  "internalType": "string",
                  "name": "especialidad",
                  "type": "string"
                }
              ],
              "internalType": "struct RecetaMedica.Medico",
              "name": "medico",
              "type": "tuple"
            },
            {
              "components": [
                {
                  "internalType": "address",
                  "name": "cuentaPaciente",
                  "type": "address"
                },
                {
                  "internalType": "string",
                  "name": "cedula",
                  "type": "string"
                },
                {
                  "internalType": "string",
                  "name": "nombres",
                  "type": "string"
                },
                {
                  "internalType": "string",
                  "name": "apellidos",
                  "type": "string"
                },
                {
                  "internalType": "string",
                  "name": "correo",
                  "type": "string"
                },
                {
                  "internalType": "string",
                  "name": "celular",
                  "type": "string"
                },
                {
                  "internalType": "uint8",
                  "name": "edad",
                  "type": "uint8"
                }
              ],
              "internalType": "struct RecetaMedica.Paciente",
              "name": "paciente",
              "type": "tuple"
            },
            {
              "internalType": "string",
              "name": "diagnostico",
              "type": "string"
            },
            {
              "internalType": "string",
              "name": "indicacionesExtras",
              "type": "string"
            },
            {
              "components": [
                {
                  "internalType": "string",
                  "name": "nombreMedicina",
                  "type": "string"
                },
                {
                  "internalType": "string",
                  "name": "indicacion",
                  "type": "string"
                }
              ],
              "internalType": "struct RecetaMedica.Medicina[]",
              "name": "medicinas",
              "type": "tuple[]"
            },
            {
              "internalType": "uint256",
              "name": "fecha",
              "type": "uint256"
            },
            {
              "internalType": "uint256",
              "name": "fechaCaducidad",
              "type": "uint256"
            },
            {
              "internalType": "address",
              "name": "tokenMedico",
              "type": "address"
            },
            {
              "internalType": "bool",
              "name": "isDespachado",
              "type": "bool"
            }
          ],
          "internalType": "struct RecetaMedica.Receta[]",
          "name": "",
          "type": "tuple[]"
        }
      ],
      "stateMutability": "view",
      "type": "function",
      "constant": true
    },
    {
      "inputs": [
        {
          "internalType": "uint256",
          "name": "idReceta",
          "type": "uint256"
        }
      ],
      "name": "eliminarReceta",
      "outputs": [],
      "stateMutability": "nonpayable",
      "type": "function"
    },
    {
      "inputs": [
        {
          "internalType": "uint256",
          "name": "idReceta",
          "type": "uint256"
        }
      ],
      "name": "despacharReceta",
      "outputs": [],
      "stateMutability": "nonpayable",
      "type": "function"
    }
  ],
  "bytecode": "0x60806040523480156200001157600080fd5b5060405180608001604052806040518060400160405280600d81526020017f31352d303135323439383435330000000000000000000000000000000000000081525081526020016040518060400160405280600e81526020017f4f73636172205265796e616c646f00000000000000000000000000000000000081525081526020016040518060400160405280600581526020017f506572657a00000000000000000000000000000000000000000000000000000081525081526020016040518060400160405280600781526020017f47656e6572616c0000000000000000000000000000000000000000000000000081525081525060008073d649eb8f02ac1b75ca4e88edcbd129d9b25b2e7873ffffffffffffffffffffffffffffffffffffffff1673ffffffffffffffffffffffffffffffffffffffff168152602001908152602001600020600082015181600001908051906020019062000177929190620005fb565b50602082015181600101908051906020019062000196929190620005fb565b506040820151816002019080519060200190620001b5929190620005fb565b506060820151816003019080519060200190620001d4929190620005fb565b5090505060016002600073d649eb8f02ac1b75ca4e88edcbd129d9b25b2e7873ffffffffffffffffffffffffffffffffffffffff1673ffffffffffffffffffffffffffffffffffffffff16815260200190815260200160002060006101000a81548160ff02191690831515021790555060405180608001604052806040518060400160405280600d81526020017f32312d353435313235343438340000000000000000000000000000000000000081525081526020016040518060400160405280601081526020017f53696c76696520416c656a616e6472610000000000000000000000000000000081525081526020016040518060400160405280600881526020017f436576616c6c6f7300000000000000000000000000000000000000000000000081525081526020016040518060400160405280600d81526020017f547261756d6174c3b36c6f676f00000000000000000000000000000000000000815250815250600080730c5ecbea405bea490ce9edfd667dadd232db0c9573ffffffffffffffffffffffffffffffffffffffff1673ffffffffffffffffffffffffffffffffffffffff1681526020019081526020016000206000820151816000019080519060200190620003a9929190620005fb565b506020820151816001019080519060200190620003c8929190620005fb565b506040820151816002019080519060200190620003e7929190620005fb565b50606082015181600301908051906020019062000406929190620005fb565b50905050600160026000730c5ecbea405bea490ce9edfd667dadd232db0c9573ffffffffffffffffffffffffffffffffffffffff1673ffffffffffffffffffffffffffffffffffffffff16815260200190815260200160002060006101000a81548160ff02191690831515021790555060405180604001604052806040518060400160405280600f81526020017f313233343536373839313031313132000000000000000000000000000000000081525081526020016040518060400160405280600981526020017f4372757a20417a756c000000000000000000000000000000000000000000000081525081525060076000735861c3c5d1fa4e968f512753bd8546af495c527b73ffffffffffffffffffffffffffffffffffffffff1673ffffffffffffffffffffffffffffffffffffffff168152602001908152602001600020600082015181600001908051906020019062000566929190620005fb565b50602082015181600101908051906020019062000585929190620005fb565b50905050600160036000735861c3c5d1fa4e968f512753bd8546af495c527b73ffffffffffffffffffffffffffffffffffffffff1673ffffffffffffffffffffffffffffffffffffffff16815260200190815260200160002060006101000a81548160ff02191690831515021790555062000710565b8280546200060990620006ab565b90600052602060002090601f0160209004810192826200062d576000855562000679565b82601f106200064857805160ff191683800117855562000679565b8280016001018555821562000679579182015b82811115620006785782518255916020019190600101906200065b565b5b5090506200068891906200068c565b5090565b5b80821115620006a75760008160009055506001016200068d565b5090565b60006002820490506001821680620006c457607f821691505b60208210811415620006db57620006da620006e1565b5b50919050565b7f4e487b7100000000000000000000000000000000000000000000000000000000600052602260045260246000fd5b6145dc80620007206000396000f3fe608060405234801561001057600080fd5b506004361061009e5760003560e01c80637d10d471116100665780637d10d4711461018957806388c25b60146101b9578063b181a8bf146101d5578063bc14b7dc146101f1578063d2de6622146102275761009e565b80630afe59e1146100a35780634dfa1864146100bf578063604e0c19146100f257806363ffcb6114610123578063764b78e214610153575b600080fd5b6100bd60048036038101906100b8919061399a565b610243565b005b6100d960048036038101906100d4919061392d565b6107dd565b6040516100e994939291906140b7565b60405180910390f35b61010c6004803603810190610107919061392d565b610a2d565b60405161011a929190614080565b60405180910390f35b61013d6004803603810190610138919061392d565b610b61565b60405161014a919061405e565b60405180910390f35b61016d6004803603810190610168919061395a565b61202a565b6040516101809796959493929190613fcc565b60405180910390f35b6101a3600480360381019061019e919061392d565b61235e565b6040516101b09190614138565b60405180910390f35b6101d360048036038101906101ce91906139e3565b612376565b005b6101ef60048036038101906101ea9190613a2c565b6129f3565b005b61020b6004803603810190610206919061392d565b612afb565b60405161021e9796959493929190613fcc565b60405180910390f35b610241600480360381019061023c9190613a2c565b612e12565b005b600260003373ffffffffffffffffffffffffffffffffffffffff1673ffffffffffffffffffffffffffffffffffffffff16815260200190815260200160002060009054906101000a900460ff1661029957600080fd5b60005b600660003373ffffffffffffffffffffffffffffffffffffffff1673ffffffffffffffffffffffffffffffffffffffff168152602001908152602001600020548110156104a757816000015173ffffffffffffffffffffffffffffffffffffffff16600560003373ffffffffffffffffffffffffffffffffffffffff1673ffffffffffffffffffffffffffffffffffffffff168152602001908152602001600020828154811061034f5761034e614469565b5b906000526020600020906007020160000160009054906101000a900473ffffffffffffffffffffffffffffffffffffffff1673ffffffffffffffffffffffffffffffffffffffff16148015610454575081602001516040516020016103b49190613f83565b60405160208183030381529060405280519060200120600560003373ffffffffffffffffffffffffffffffffffffffff1673ffffffffffffffffffffffffffffffffffffffff168152602001908152602001600020828154811061041b5761041a614469565b5b906000526020600020906007020160010160405160200161043c9190613f9a565b60405160208183030381529060405280519060200120145b15610494576040517f08c379a000000000000000000000000000000000000000000000000000000000815260040161048b90614118565b60405180910390fd5b808061049f906143c2565b91505061029c565b50600073ffffffffffffffffffffffffffffffffffffffff16816000015173ffffffffffffffffffffffffffffffffffffffff1614610621578060016000836000015173ffffffffffffffffffffffffffffffffffffffff1673ffffffffffffffffffffffffffffffffffffffff16815260200190815260200160002060008201518160000160006101000a81548173ffffffffffffffffffffffffffffffffffffffff021916908373ffffffffffffffffffffffffffffffffffffffff1602179055506020820151816001019080519060200190610587929190613023565b5060408201518160020190805190602001906105a4929190613023565b5060608201518160030190805190602001906105c1929190613023565b5060808201518160040190805190602001906105de929190613023565b5060a08201518160050190805190602001906105fb929190613023565b5060c08201518160060160006101000a81548160ff021916908360ff1602179055509050505b600560003373ffffffffffffffffffffffffffffffffffffffff1673ffffffffffffffffffffffffffffffffffffffff16815260200190815260200160002081908060018154018082558091505060019003906000526020600020906007020160009091909190915060008201518160000160006101000a81548173ffffffffffffffffffffffffffffffffffffffff021916908373ffffffffffffffffffffffffffffffffffffffff16021790555060208201518160010190805190602001906106ed929190613023565b50604082015181600201908051906020019061070a929190613023565b506060820151816003019080519060200190610727929190613023565b506080820151816004019080519060200190610744929190613023565b5060a0820151816005019080519060200190610761929190613023565b5060c08201518160060160006101000a81548160ff021916908360ff1602179055505050600660003373ffffffffffffffffffffffffffffffffffffffff1673ffffffffffffffffffffffffffffffffffffffff16815260200190815260200160002060008154809291906107d5906143c2565b919050555050565b60006020528060005260406000206000915090508060000180546108009061435f565b80601f016020809104026020016040519081016040528092919081815260200182805461082c9061435f565b80156108795780601f1061084e57610100808354040283529160200191610879565b820191906000526020600020905b81548152906001019060200180831161085c57829003601f168201915b50505050509080600101805461088e9061435f565b80601f01602080910402602001604051908101604052809291908181526020018280546108ba9061435f565b80156109075780601f106108dc57610100808354040283529160200191610907565b820191906000526020600020905b8154815290600101906020018083116108ea57829003601f168201915b50505050509080600201805461091c9061435f565b80601f01602080910402602001604051908101604052809291908181526020018280546109489061435f565b80156109955780601f1061096a57610100808354040283529160200191610995565b820191906000526020600020905b81548152906001019060200180831161097857829003601f168201915b5050505050908060030180546109aa9061435f565b80601f01602080910402602001604051908101604052809291908181526020018280546109d69061435f565b8015610a235780601f106109f857610100808354040283529160200191610a23565b820191906000526020600020905b815481529060010190602001808311610a0657829003601f168201915b5050505050905084565b6007602052806000526040600020600091509050806000018054610a509061435f565b80601f0160208091040260200160405190810160405280929190818152602001828054610a7c9061435f565b8015610ac95780601f10610a9e57610100808354040283529160200191610ac9565b820191906000526020600020905b815481529060010190602001808311610aac57829003601f168201915b505050505090806001018054610ade9061435f565b80601f0160208091040260200160405190810160405280929190818152602001828054610b0a9061435f565b8015610b575780601f10610b2c57610100808354040283529160200191610b57565b820191906000526020600020905b815481529060010190602001808311610b3a57829003601f168201915b5050505050905082565b6060600360008373ffffffffffffffffffffffffffffffffffffffff1673ffffffffffffffffffffffffffffffffffffffff16815260200190815260200160002060009054906101000a900460ff1615611508576004805480602002602001604051908101604052809291908181526020016000905b828210156114fd5783829060005260206000209060120201604051806101400160405290816000820154815260200160018201604051806080016040529081600082018054610c259061435f565b80601f0160208091040260200160405190810160405280929190818152602001828054610c519061435f565b8015610c9e5780601f10610c7357610100808354040283529160200191610c9e565b820191906000526020600020905b815481529060010190602001808311610c8157829003601f168201915b50505050508152602001600182018054610cb79061435f565b80601f0160208091040260200160405190810160405280929190818152602001828054610ce39061435f565b8015610d305780601f10610d0557610100808354040283529160200191610d30565b820191906000526020600020905b815481529060010190602001808311610d1357829003601f168201915b50505050508152602001600282018054610d499061435f565b80601f0160208091040260200160405190810160405280929190818152602001828054610d759061435f565b8015610dc25780601f10610d9757610100808354040283529160200191610dc2565b820191906000526020600020905b815481529060010190602001808311610da557829003601f168201915b50505050508152602001600382018054610ddb9061435f565b80601f0160208091040260200160405190810160405280929190818152602001828054610e079061435f565b8015610e545780601f10610e2957610100808354040283529160200191610e54565b820191906000526020600020905b815481529060010190602001808311610e3757829003601f168201915b5050505050815250508152602001600582016040518060e00160405290816000820160009054906101000a900473ffffffffffffffffffffffffffffffffffffffff1673ffffffffffffffffffffffffffffffffffffffff1673ffffffffffffffffffffffffffffffffffffffff168152602001600182018054610ed79061435f565b80601f0160208091040260200160405190810160405280929190818152602001828054610f039061435f565b8015610f505780601f10610f2557610100808354040283529160200191610f50565b820191906000526020600020905b815481529060010190602001808311610f3357829003601f168201915b50505050508152602001600282018054610f699061435f565b80601f0160208091040260200160405190810160405280929190818152602001828054610f959061435f565b8015610fe25780601f10610fb757610100808354040283529160200191610fe2565b820191906000526020600020905b815481529060010190602001808311610fc557829003601f168201915b50505050508152602001600382018054610ffb9061435f565b80601f01602080910402602001604051908101604052809291908181526020018280546110279061435f565b80156110745780601f1061104957610100808354040283529160200191611074565b820191906000526020600020905b81548152906001019060200180831161105757829003601f168201915b5050505050815260200160048201805461108d9061435f565b80601f01602080910402602001604051908101604052809291908181526020018280546110b99061435f565b80156111065780601f106110db57610100808354040283529160200191611106565b820191906000526020600020905b8154815290600101906020018083116110e957829003601f168201915b5050505050815260200160058201805461111f9061435f565b80601f016020809104026020016040519081016040528092919081815260200182805461114b9061435f565b80156111985780601f1061116d57610100808354040283529160200191611198565b820191906000526020600020905b81548152906001019060200180831161117b57829003601f168201915b505050505081526020016006820160009054906101000a900460ff1660ff1660ff16815250508152602001600c820180546111d29061435f565b80601f01602080910402602001604051908101604052809291908181526020018280546111fe9061435f565b801561124b5780601f106112205761010080835404028352916020019161124b565b820191906000526020600020905b81548152906001019060200180831161122e57829003601f168201915b50505050508152602001600d820180546112649061435f565b80601f01602080910402602001604051908101604052809291908181526020018280546112909061435f565b80156112dd5780601f106112b2576101008083540402835291602001916112dd565b820191906000526020600020905b8154815290600101906020018083116112c057829003601f168201915b50505050508152602001600e8201805480602002602001604051908101604052809291908181526020016000905b82821015611461578382906000526020600020906002020160405180604001604052908160008201805461133e9061435f565b80601f016020809104026020016040519081016040528092919081815260200182805461136a9061435f565b80156113b75780601f1061138c576101008083540402835291602001916113b7565b820191906000526020600020905b81548152906001019060200180831161139a57829003601f168201915b505050505081526020016001820180546113d09061435f565b80601f01602080910402602001604051908101604052809291908181526020018280546113fc9061435f565b80156114495780601f1061141e57610100808354040283529160200191611449565b820191906000526020600020905b81548152906001019060200180831161142c57829003601f168201915b5050505050815250508152602001906001019061130b565b505050508152602001600f8201548152602001601082015481526020016011820160009054906101000a900473ffffffffffffffffffffffffffffffffffffffff1673ffffffffffffffffffffffffffffffffffffffff1673ffffffffffffffffffffffffffffffffffffffff1681526020016011820160149054906101000a900460ff16151515158152505081526020019060010190610bd7565b505050509050612025565b600060048054905067ffffffffffffffff81111561152957611528614498565b5b60405190808252806020026020018201604052801561156257816020015b61154f6130a9565b8152602001906001900390816115475790505b5090506000805b60048054905081101561201e57600260008673ffffffffffffffffffffffffffffffffffffffff1673ffffffffffffffffffffffffffffffffffffffff16815260200190815260200160002060009054906101000a900460ff16611643578473ffffffffffffffffffffffffffffffffffffffff16600482815481106115f2576115f1614469565b5b906000526020600020906012020160050160000160009054906101000a900473ffffffffffffffffffffffffffffffffffffffff1673ffffffffffffffffffffffffffffffffffffffff16146116b8565b8473ffffffffffffffffffffffffffffffffffffffff166004828154811061166e5761166d614469565b5b906000526020600020906012020160110160009054906101000a900473ffffffffffffffffffffffffffffffffffffffff1673ffffffffffffffffffffffffffffffffffffffff16145b1561200b57600481815481106116d1576116d0614469565b5b90600052602060002090601202016040518061014001604052908160008201548152602001600182016040518060800160405290816000820180546117159061435f565b80601f01602080910402602001604051908101604052809291908181526020018280546117419061435f565b801561178e5780601f106117635761010080835404028352916020019161178e565b820191906000526020600020905b81548152906001019060200180831161177157829003601f168201915b505050505081526020016001820180546117a79061435f565b80601f01602080910402602001604051908101604052809291908181526020018280546117d39061435f565b80156118205780601f106117f557610100808354040283529160200191611820565b820191906000526020600020905b81548152906001019060200180831161180357829003601f168201915b505050505081526020016002820180546118399061435f565b80601f01602080910402602001604051908101604052809291908181526020018280546118659061435f565b80156118b25780601f10611887576101008083540402835291602001916118b2565b820191906000526020600020905b81548152906001019060200180831161189557829003601f168201915b505050505081526020016003820180546118cb9061435f565b80601f01602080910402602001604051908101604052809291908181526020018280546118f79061435f565b80156119445780601f1061191957610100808354040283529160200191611944565b820191906000526020600020905b81548152906001019060200180831161192757829003601f168201915b5050505050815250508152602001600582016040518060e00160405290816000820160009054906101000a900473ffffffffffffffffffffffffffffffffffffffff1673ffffffffffffffffffffffffffffffffffffffff1673ffffffffffffffffffffffffffffffffffffffff1681526020016001820180546119c79061435f565b80601f01602080910402602001604051908101604052809291908181526020018280546119f39061435f565b8015611a405780601f10611a1557610100808354040283529160200191611a40565b820191906000526020600020905b815481529060010190602001808311611a2357829003601f168201915b50505050508152602001600282018054611a599061435f565b80601f0160208091040260200160405190810160405280929190818152602001828054611a859061435f565b8015611ad25780601f10611aa757610100808354040283529160200191611ad2565b820191906000526020600020905b815481529060010190602001808311611ab557829003601f168201915b50505050508152602001600382018054611aeb9061435f565b80601f0160208091040260200160405190810160405280929190818152602001828054611b179061435f565b8015611b645780601f10611b3957610100808354040283529160200191611b64565b820191906000526020600020905b815481529060010190602001808311611b4757829003601f168201915b50505050508152602001600482018054611b7d9061435f565b80601f0160208091040260200160405190810160405280929190818152602001828054611ba99061435f565b8015611bf65780601f10611bcb57610100808354040283529160200191611bf6565b820191906000526020600020905b815481529060010190602001808311611bd957829003601f168201915b50505050508152602001600582018054611c0f9061435f565b80601f0160208091040260200160405190810160405280929190818152602001828054611c3b9061435f565b8015611c885780601f10611c5d57610100808354040283529160200191611c88565b820191906000526020600020905b815481529060010190602001808311611c6b57829003601f168201915b505050505081526020016006820160009054906101000a900460ff1660ff1660ff16815250508152602001600c82018054611cc29061435f565b80601f0160208091040260200160405190810160405280929190818152602001828054611cee9061435f565b8015611d3b5780601f10611d1057610100808354040283529160200191611d3b565b820191906000526020600020905b815481529060010190602001808311611d1e57829003601f168201915b50505050508152602001600d82018054611d549061435f565b80601f0160208091040260200160405190810160405280929190818152602001828054611d809061435f565b8015611dcd5780601f10611da257610100808354040283529160200191611dcd565b820191906000526020600020905b815481529060010190602001808311611db057829003601f168201915b50505050508152602001600e8201805480602002602001604051908101604052809291908181526020016000905b82821015611f515783829060005260206000209060020201604051806040016040529081600082018054611e2e9061435f565b80601f0160208091040260200160405190810160405280929190818152602001828054611e5a9061435f565b8015611ea75780601f10611e7c57610100808354040283529160200191611ea7565b820191906000526020600020905b815481529060010190602001808311611e8a57829003601f168201915b50505050508152602001600182018054611ec09061435f565b80601f0160208091040260200160405190810160405280929190818152602001828054611eec9061435f565b8015611f395780601f10611f0e57610100808354040283529160200191611f39565b820191906000526020600020905b815481529060010190602001808311611f1c57829003601f168201915b50505050508152505081526020019060010190611dfb565b505050508152602001600f8201548152602001601082015481526020016011820160009054906101000a900473ffffffffffffffffffffffffffffffffffffffff1673ffffffffffffffffffffffffffffffffffffffff1673ffffffffffffffffffffffffffffffffffffffff1681526020016011820160149054906101000a900460ff161515151581525050838381518110611ff157611ff0614469565b5b60200260200101819052508180612007906143c2565b9250505b8080612016906143c2565b915050611569565b5081925050505b919050565b6005602052816000526040600020818154811061204657600080fd5b9060005260206000209060070201600091509150508060000160009054906101000a900473ffffffffffffffffffffffffffffffffffffffff16908060010180546120909061435f565b80601f01602080910402602001604051908101604052809291908181526020018280546120bc9061435f565b80156121095780601f106120de57610100808354040283529160200191612109565b820191906000526020600020905b8154815290600101906020018083116120ec57829003601f168201915b50505050509080600201805461211e9061435f565b80601f016020809104026020016040519081016040528092919081815260200182805461214a9061435f565b80156121975780601f1061216c57610100808354040283529160200191612197565b820191906000526020600020905b81548152906001019060200180831161217a57829003601f168201915b5050505050908060030180546121ac9061435f565b80601f01602080910402602001604051908101604052809291908181526020018280546121d89061435f565b80156122255780601f106121fa57610100808354040283529160200191612225565b820191906000526020600020905b81548152906001019060200180831161220857829003601f168201915b50505050509080600401805461223a9061435f565b80601f01602080910402602001604051908101604052809291908181526020018280546122669061435f565b80156122b35780601f10612288576101008083540402835291602001916122b3565b820191906000526020600020905b81548152906001019060200180831161229657829003601f168201915b5050505050908060050180546122c89061435f565b80601f01602080910402602001604051908101604052809291908181526020018280546122f49061435f565b80156123415780601f1061231657610100808354040283529160200191612341565b820191906000526020600020905b81548152906001019060200180831161232457829003601f168201915b5050505050908060060160009054906101000a900460ff16905087565b60066020528060005260406000206000915090505481565b600260003373ffffffffffffffffffffffffffffffffffffffff1673ffffffffffffffffffffffffffffffffffffffff16815260200190815260200160002060009054906101000a900460ff166123cc57600080fd5b60048054905060086000018190555033600860110160006101000a81548173ffffffffffffffffffffffffffffffffffffffff021916908373ffffffffffffffffffffffffffffffffffffffff160217905550806020015160086001016000820151816000019080519060200190612445929190613023565b506020820151816001019080519060200190612462929190613023565b50604082015181600201908051906020019061247f929190613023565b50606082015181600301908051906020019061249c929190613023565b509050508060400151600860050160008201518160000160006101000a81548173ffffffffffffffffffffffffffffffffffffffff021916908373ffffffffffffffffffffffffffffffffffffffff160217905550602082015181600101908051906020019061250d929190613023565b50604082015181600201908051906020019061252a929190613023565b506060820151816003019080519060200190612547929190613023565b506080820151816004019080519060200190612564929190613023565b5060a0820151816005019080519060200190612581929190613023565b5060c08201518160060160006101000a81548160ff021916908360ff16021790555090505080606001516008600c0190805190602001906125c3929190613023565b5080608001516008600d0190805190602001906125e1929190613023565b50426008600f01819055508060e001516008601001819055506008600e01600061260b9190613120565b60005b8160a00151518110156126b7576008600e018260a00151828151811061263757612636614469565b5b602002602001015190806001815401808255809150506001900390600052602060002090600202016000909190919091506000820151816000019080519060200190612684929190613023565b5060208201518160010190805190602001906126a1929190613023565b50505080806126af906143c2565b91505061260e565b50600460089080600181540180825580915050600190039060005260206000209060120201600090919091909150600082015481600001556001820181600101600082018160000190805461270b9061435f565b612716929190613144565b50600182018160010190805461272b9061435f565b612736929190613144565b50600282018160020190805461274b9061435f565b612756929190613144565b50600382018160030190805461276b9061435f565b612776929190613144565b50505060058201816005016000820160009054906101000a900473ffffffffffffffffffffffffffffffffffffffff168160000160006101000a81548173ffffffffffffffffffffffffffffffffffffffff021916908373ffffffffffffffffffffffffffffffffffffffff16021790555060018201816001019080546127fc9061435f565b612807929190613144565b50600282018160020190805461281c9061435f565b612827929190613144565b50600382018160030190805461283c9061435f565b612847929190613144565b50600482018160040190805461285c9061435f565b612867929190613144565b50600582018160050190805461287c9061435f565b612887929190613144565b506006820160009054906101000a900460ff168160060160006101000a81548160ff021916908360ff1602179055505050600c820181600c019080546128cc9061435f565b6128d7929190613144565b50600d820181600d019080546128ec9061435f565b6128f7929190613144565b50600e820181600e0190805461290e9291906131d1565b50600f82015481600f0155601082015481601001556011820160009054906101000a900473ffffffffffffffffffffffffffffffffffffffff168160110160006101000a81548173ffffffffffffffffffffffffffffffffffffffff021916908373ffffffffffffffffffffffffffffffffffffffff1602179055506011820160149054906101000a900460ff168160110160146101000a81548160ff02191690831515021790555050507fb14778f7ccb6cbbc01c9e20d97617cc648837df9cf060feaa2eaa9d2216a3b06336040516129e89190613fb1565b60405180910390a150565b600360003373ffffffffffffffffffffffffffffffffffffffff1673ffffffffffffffffffffffffffffffffffffffff16815260200190815260200160002060009054906101000a900460ff16612a4957600080fd5b60004260048381548110612a6057612a5f614469565b5b906000526020600020906012020160100154612a7c9190614294565b1115612af857600160048281548110612a9857612a97614469565b5b906000526020600020906012020160110160146101000a81548160ff0219169083151502179055507fb14778f7ccb6cbbc01c9e20d97617cc648837df9cf060feaa2eaa9d2216a3b0633604051612aef9190613fb1565b60405180910390a15b50565b60016020528060005260406000206000915090508060000160009054906101000a900473ffffffffffffffffffffffffffffffffffffffff1690806001018054612b449061435f565b80601f0160208091040260200160405190810160405280929190818152602001828054612b709061435f565b8015612bbd5780601f10612b9257610100808354040283529160200191612bbd565b820191906000526020600020905b815481529060010190602001808311612ba057829003601f168201915b505050505090806002018054612bd29061435f565b80601f0160208091040260200160405190810160405280929190818152602001828054612bfe9061435f565b8015612c4b5780601f10612c2057610100808354040283529160200191612c4b565b820191906000526020600020905b815481529060010190602001808311612c2e57829003601f168201915b505050505090806003018054612c609061435f565b80601f0160208091040260200160405190810160405280929190818152602001828054612c8c9061435f565b8015612cd95780601f10612cae57610100808354040283529160200191612cd9565b820191906000526020600020905b815481529060010190602001808311612cbc57829003601f168201915b505050505090806004018054612cee9061435f565b80601f0160208091040260200160405190810160405280929190818152602001828054612d1a9061435f565b8015612d675780601f10612d3c57610100808354040283529160200191612d67565b820191906000526020600020905b815481529060010190602001808311612d4a57829003601f168201915b505050505090806005018054612d7c9061435f565b80601f0160208091040260200160405190810160405280929190818152602001828054612da89061435f565b8015612df55780601f10612dca57610100808354040283529160200191612df5565b820191906000526020600020905b815481529060010190602001808311612dd857829003601f168201915b5050505050908060060160009054906101000a900460ff16905087565b600260003373ffffffffffffffffffffffffffffffffffffffff1673ffffffffffffffffffffffffffffffffffffffff16815260200190815260200160002060009054906101000a900460ff16612e6857600080fd5b60048181548110612e7c57612e7b614469565b5b90600052602060002090601202016000808201600090556001820160008082016000612ea89190613269565b600182016000612eb89190613269565b600282016000612ec89190613269565b600382016000612ed89190613269565b505060058201600080820160006101000a81549073ffffffffffffffffffffffffffffffffffffffff0219169055600182016000612f169190613269565b600282016000612f269190613269565b600382016000612f369190613269565b600482016000612f469190613269565b600582016000612f569190613269565b6006820160006101000a81549060ff02191690555050600c82016000612f7c9190613269565b600d82016000612f8c9190613269565b600e82016000612f9c9190613120565b600f82016000905560108201600090556011820160006101000a81549073ffffffffffffffffffffffffffffffffffffffff02191690556011820160146101000a81549060ff021916905550507fb14778f7ccb6cbbc01c9e20d97617cc648837df9cf060feaa2eaa9d2216a3b06336040516130189190613fb1565b60405180910390a150565b82805461302f9061435f565b90600052602060002090601f0160209004810192826130515760008555613098565b82601f1061306a57805160ff1916838001178555613098565b82800160010185558215613098579182015b8281111561309757825182559160200191906001019061307c565b5b5090506130a591906132a9565b5090565b604051806101400160405280600081526020016130c46132c6565b81526020016130d16132ee565b81526020016060815260200160608152602001606081526020016000815260200160008152602001600073ffffffffffffffffffffffffffffffffffffffff1681526020016000151581525090565b50805460008255600202906000526020600020908101906131419190613344565b50565b8280546131509061435f565b90600052602060002090601f01602090048101928261317257600085556131c0565b82601f1061318357805485556131c0565b828001600101855582156131c057600052602060002091601f016020900482015b828111156131bf5782548255916001019190600101906131a4565b5b5090506131cd91906132a9565b5090565b8280548282559060005260206000209060020281019282156132585760005260206000209160020282015b82811115613257578282600082018160000190805461321a9061435f565b613225929190613144565b50600182018160010190805461323a9061435f565b613245929190613144565b505050916002019190600201906131fc565b5b5090506132659190613344565b5090565b5080546132759061435f565b6000825580601f1061328757506132a6565b601f0160209004906000526020600020908101906132a591906132a9565b5b50565b5b808211156132c25760008160009055506001016132aa565b5090565b6040518060800160405280606081526020016060815260200160608152602001606081525090565b6040518060e00160405280600073ffffffffffffffffffffffffffffffffffffffff1681526020016060815260200160608152602001606081526020016060815260200160608152602001600060ff1681525090565b5b80821115613377576000808201600061335e9190613269565b60018201600061336e9190613269565b50600201613345565b5090565b600061338e61338984614178565b614153565b905080838252602082019050828560208602820111156133b1576133b06144d6565b5b60005b858110156133ff57813567ffffffffffffffff8111156133d7576133d66144c7565b5b8086016133e489826134d1565b855260208501945060208401935050506001810190506133b4565b5050509392505050565b600061341c613417846141a4565b614153565b905082815260208101848484011115613438576134376144db565b5b61344384828561431d565b509392505050565b60008135905061345a8161454a565b92915050565b600082601f830112613475576134746144c7565b5b813561348584826020860161337b565b91505092915050565b60008135905061349d81614561565b92915050565b600082601f8301126134b8576134b76144c7565b5b81356134c8848260208601613409565b91505092915050565b6000604082840312156134e7576134e66144cc565b5b6134f16040614153565b9050600082013567ffffffffffffffff811115613511576135106144d1565b5b61351d848285016134a3565b600083015250602082013567ffffffffffffffff811115613541576135406144d1565b5b61354d848285016134a3565b60208301525092915050565b60006080828403121561356f5761356e6144cc565b5b6135796080614153565b9050600082013567ffffffffffffffff811115613599576135986144d1565b5b6135a5848285016134a3565b600083015250602082013567ffffffffffffffff8111156135c9576135c86144d1565b5b6135d5848285016134a3565b602083015250604082013567ffffffffffffffff8111156135f9576135f86144d1565b5b613605848285016134a3565b604083015250606082013567ffffffffffffffff811115613629576136286144d1565b5b613635848285016134a3565b60608301525092915050565b600060e08284031215613657576136566144cc565b5b61366160e0614153565b905060006136718482850161344b565b600083015250602082013567ffffffffffffffff811115613695576136946144d1565b5b6136a1848285016134a3565b602083015250604082013567ffffffffffffffff8111156136c5576136c46144d1565b5b6136d1848285016134a3565b604083015250606082013567ffffffffffffffff8111156136f5576136f46144d1565b5b613701848285016134a3565b606083015250608082013567ffffffffffffffff811115613725576137246144d1565b5b613731848285016134a3565b60808301525060a082013567ffffffffffffffff811115613755576137546144d1565b5b613761848285016134a3565b60a08301525060c061377584828501613918565b60c08301525092915050565b60006101408284031215613798576137976144cc565b5b6137a3610140614153565b905060006137b384828501613903565b600083015250602082013567ffffffffffffffff8111156137d7576137d66144d1565b5b6137e384828501613559565b602083015250604082013567ffffffffffffffff811115613807576138066144d1565b5b61381384828501613641565b604083015250606082013567ffffffffffffffff811115613837576138366144d1565b5b613843848285016134a3565b606083015250608082013567ffffffffffffffff811115613867576138666144d1565b5b613873848285016134a3565b60808301525060a082013567ffffffffffffffff811115613897576138966144d1565b5b6138a384828501613460565b60a08301525060c06138b784828501613903565b60c08301525060e06138cb84828501613903565b60e0830152506101006138e08482850161344b565b610100830152506101206138f68482850161348e565b6101208301525092915050565b60008135905061391281614578565b92915050565b6000813590506139278161458f565b92915050565b600060208284031215613943576139426144e5565b5b60006139518482850161344b565b91505092915050565b60008060408385031215613971576139706144e5565b5b600061397f8582860161344b565b925050602061399085828601613903565b9150509250929050565b6000602082840312156139b0576139af6144e5565b5b600082013567ffffffffffffffff8111156139ce576139cd6144e0565b5b6139da84828501613641565b91505092915050565b6000602082840312156139f9576139f86144e5565b5b600082013567ffffffffffffffff811115613a1757613a166144e0565b5b613a2384828501613781565b91505092915050565b600060208284031215613a4257613a416144e5565b5b6000613a5084828501613903565b91505092915050565b6000613a658383613cdd565b905092915050565b6000613a798383613e51565b905092915050565b613a8a816142c8565b82525050565b613a99816142c8565b82525050565b6000613aaa8261420a565b613ab48185614245565b935083602082028501613ac6856141d5565b8060005b85811015613b025784840389528151613ae38582613a59565b9450613aee8361422b565b925060208a01995050600181019050613aca565b50829750879550505050505092915050565b6000613b1f82614215565b613b298185614256565b935083602082028501613b3b856141e5565b8060005b85811015613b775784840389528151613b588582613a6d565b9450613b6383614238565b925060208a01995050600181019050613b3f565b50829750879550505050505092915050565b613b92816142da565b82525050565b6000613ba382614220565b613bad8185614267565b9350613bbd81856020860161432c565b613bc6816144ea565b840191505092915050565b6000613bdc82614220565b613be68185614278565b9350613bf681856020860161432c565b613bff816144ea565b840191505092915050565b6000613c1582614220565b613c1f8185614289565b9350613c2f81856020860161432c565b80840191505092915050565b60008154613c488161435f565b613c528186614289565b94506001821660008114613c6d5760018114613c7e57613cb1565b60ff19831686528186019350613cb1565b613c87856141f5565b60005b83811015613ca957815481890152600182019150602081019050613c8a565b838801955050505b50505092915050565b6000613cc7602e83614278565b9150613cd2826144fb565b604082019050919050565b60006040830160008301518482036000860152613cfa8282613b98565b91505060208301518482036020860152613d148282613b98565b9150508091505092915050565b60006080830160008301518482036000860152613d3e8282613b98565b91505060208301518482036020860152613d588282613b98565b91505060408301518482036040860152613d728282613b98565b91505060608301518482036060860152613d8c8282613b98565b9150508091505092915050565b600060e083016000830151613db16000860182613a81565b5060208301518482036020860152613dc98282613b98565b91505060408301518482036040860152613de38282613b98565b91505060608301518482036060860152613dfd8282613b98565b91505060808301518482036080860152613e178282613b98565b91505060a083015184820360a0860152613e318282613b98565b91505060c0830151613e4660c0860182613f65565b508091505092915050565b600061014083016000830151613e6a6000860182613f47565b5060208301518482036020860152613e828282613d21565b91505060408301518482036040860152613e9c8282613d99565b91505060608301518482036060860152613eb68282613b98565b91505060808301518482036080860152613ed08282613b98565b91505060a083015184820360a0860152613eea8282613a9f565b91505060c0830151613eff60c0860182613f47565b5060e0830151613f1260e0860182613f47565b50610100830151613f27610100860182613a81565b50610120830151613f3c610120860182613b89565b508091505092915050565b613f5081614306565b82525050565b613f5f81614306565b82525050565b613f6e81614310565b82525050565b613f7d81614310565b82525050565b6000613f8f8284613c0a565b915081905092915050565b6000613fa68284613c3b565b915081905092915050565b6000602082019050613fc66000830184613a90565b92915050565b600060e082019050613fe1600083018a613a90565b8181036020830152613ff38189613bd1565b905081810360408301526140078188613bd1565b9050818103606083015261401b8187613bd1565b9050818103608083015261402f8186613bd1565b905081810360a08301526140438185613bd1565b905061405260c0830184613f74565b98975050505050505050565b600060208201905081810360008301526140788184613b14565b905092915050565b6000604082019050818103600083015261409a8185613bd1565b905081810360208301526140ae8184613bd1565b90509392505050565b600060808201905081810360008301526140d18187613bd1565b905081810360208301526140e58186613bd1565b905081810360408301526140f98185613bd1565b9050818103606083015261410d8184613bd1565b905095945050505050565b6000602082019050818103600083015261413181613cba565b9050919050565b600060208201905061414d6000830184613f56565b92915050565b600061415d61416e565b90506141698282614391565b919050565b6000604051905090565b600067ffffffffffffffff82111561419357614192614498565b5b602082029050602081019050919050565b600067ffffffffffffffff8211156141bf576141be614498565b5b6141c8826144ea565b9050602081019050919050565b6000819050602082019050919050565b6000819050602082019050919050565b60008190508160005260206000209050919050565b600081519050919050565b600081519050919050565b600081519050919050565b6000602082019050919050565b6000602082019050919050565b600082825260208201905092915050565b600082825260208201905092915050565b600082825260208201905092915050565b600082825260208201905092915050565b600081905092915050565b600061429f82614306565b91506142aa83614306565b9250828210156142bd576142bc61440b565b5b828203905092915050565b60006142d3826142e6565b9050919050565b60008115159050919050565b600073ffffffffffffffffffffffffffffffffffffffff82169050919050565b6000819050919050565b600060ff82169050919050565b82818337600083830152505050565b60005b8381101561434a57808201518184015260208101905061432f565b83811115614359576000848401525b50505050565b6000600282049050600182168061437757607f821691505b6020821081141561438b5761438a61443a565b5b50919050565b61439a826144ea565b810181811067ffffffffffffffff821117156143b9576143b8614498565b5b80604052505050565b60006143cd82614306565b91507fffffffffffffffffffffffffffffffffffffffffffffffffffffffffffffffff821415614400576143ff61440b565b5b600182019050919050565b7f4e487b7100000000000000000000000000000000000000000000000000000000600052601160045260246000fd5b7f4e487b7100000000000000000000000000000000000000000000000000000000600052602260045260246000fd5b7f4e487b7100000000000000000000000000000000000000000000000000000000600052603260045260246000fd5b7f4e487b7100000000000000000000000000000000000000000000000000000000600052604160045260246000fd5b600080fd5b600080fd5b600080fd5b600080fd5b600080fd5b600080fd5b600080fd5b6000601f19601f8301169050919050565b7f456c2070616369656e7465207961206861207369646f2072656769737472616460008201527f6f20656e207375206375656e7461000000000000000000000000000000000000602082015250565b614553816142c8565b811461455e57600080fd5b50565b61456a816142da565b811461457557600080fd5b50565b61458181614306565b811461458c57600080fd5b50565b61459881614310565b81146145a357600080fd5b5056fea26469706673582212203ff7cbf9f15e56f37512d1be99ddeff5e059142496bcbe27a0abd7fee744fbfc64736f6c63430008060033",
  "immutableReferences": {},
  "source": "// SPDX-License-Identifier: GPL-3.0\r\npragma solidity >=0.7.0 <0.9.0;\r\n\r\ncontract RecetaMedica {\r\n\r\n    //************************** Estructuras que simulan los actores de las prescripciones mdicas *********************\r\n\r\n    struct Medicina {\r\n        string nombreMedicina;\r\n        string indicacion;\r\n    }\r\n\r\n    struct Medico {\r\n        string cedulaProfesional;\r\n        string nombres;\r\n        string apellidos;\r\n        string especialidad;\r\n    }\r\n\r\n    struct Paciente {\r\n        address cuentaPaciente;\r\n        string cedula;\r\n        string nombres;\r\n        string apellidos;\r\n        string correo;\r\n        string celular;\r\n        uint8 edad;\r\n    }\r\n\r\n    struct Farmaceutico {\r\n        string ruc;\r\n        string nombreComercial;\r\n    }\r\n\r\n    struct Receta {\r\n        uint id;\r\n        Medico medico;\r\n        Paciente paciente;\r\n        string diagnostico;\r\n        string indicacionesExtras;\r\n        Medicina[] medicinas;\r\n        uint fecha;\r\n        uint fechaCaducidad;\r\n        address tokenMedico;\r\n        bool isDespachado;\r\n    }\r\n\r\n    //****** Arreglos de tipo Map en donde se almacena la informacin en el proceso de preescripciones mdicas *********\r\n\r\n    mapping(address => Medico) public medicos;\r\n\r\n    mapping(address => Paciente) public pacientes;\r\n\r\n    mapping(address => bool) private cuentaMedicoAsociada;\r\n    mapping(address => bool) private cuentaFarmaciaAsociada;\r\n\r\n    Receta[] private recetas;\r\n    mapping(address => Paciente[]) public pacientesPorDoctor;\r\n    mapping(address => uint) public pacientesTotalesPorDoctor;\r\n\r\n    mapping(address => Farmaceutico) public farmaceuticos;\r\n    //************ Evento que reacciona al momento de registrar o eliminar una receta para cualesquier paciente *******************\r\n\r\n    event AccionReceta(address cuenta);\r\n\r\n    //************************ Constructor del contrato que establece datos predeterminados **************************\r\n\r\n    constructor(){\r\n        //Doctores pre-existentes\r\n        medicos[0xd649Eb8f02Ac1B75Ca4e88EDcbd129d9B25B2E78] = Medico(\"15-0152498453\", \"Oscar Reynaldo\", \"Perez\", \"General\");\r\n        cuentaMedicoAsociada[0xd649Eb8f02Ac1B75Ca4e88EDcbd129d9B25B2E78] = true;\r\n        medicos[0x0c5EcBeA405BeA490cE9edFd667DAdd232dB0C95] = Medico(\"21-5451254484\", \"Silvie Alejandra\", \"Cevallos\", unicode\"Traumatlogo\");\r\n        cuentaMedicoAsociada[0x0c5EcBeA405BeA490cE9edFd667DAdd232dB0C95] = true;\r\n        //Farmacuticos pre-existentes\r\n        farmaceuticos[0x5861c3C5d1fa4E968f512753bd8546aF495c527B] = Farmaceutico(\"123456789101112\", \"Cruz Azul\");\r\n        cuentaFarmaciaAsociada[0x5861c3C5d1fa4E968f512753bd8546aF495c527B] = true;\r\n    }\r\n\r\n    //****************** Funciones que contienen la lgica del proceso de preescripciones mdicas **********************\r\n\r\n    function registrarPaciente(\r\n        Paciente memory _paciente\r\n    ) public isMedico {\r\n        for (uint i = 0; i < pacientesTotalesPorDoctor[msg.sender]; i++) {\r\n            //Se valida en caso de que el paciente tenga ya un address asociado\r\n            //adems, se emplea && ya que, puede darse el caso en que, la cdula de un _paciente\r\n            // ya se ha registrado pero aun no tiene cuenta en la red.\r\n            require(!(pacientesPorDoctor[msg.sender][i].cuentaPaciente == _paciente.cuentaPaciente\r\n            && keccak256(abi.encodePacked(pacientesPorDoctor[msg.sender][i].cedula)) ==\r\n            keccak256(abi.encodePacked(_paciente.cedula))), 'El paciente ya ha sido registrado en su cuenta');\r\n        }\r\n\r\n        if (_paciente.cuentaPaciente != address(0)) {\r\n            pacientes[_paciente.cuentaPaciente] = _paciente;\r\n        }\r\n\r\n        pacientesPorDoctor[msg.sender].push(_paciente);\r\n        pacientesTotalesPorDoctor[msg.sender] ++;\r\n    }\r\n\r\n    Receta private receta;\r\n\r\n    function registrarReceta(\r\n        Receta memory _receta) public isMedico\r\n    {\r\n        receta.id = recetas.length;\r\n        receta.tokenMedico = msg.sender;\r\n        receta.medico = _receta.medico;\r\n        receta.paciente = _receta.paciente;\r\n        receta.diagnostico = _receta.diagnostico;\r\n        receta.indicacionesExtras = _receta.indicacionesExtras;\r\n        receta.fecha = block.timestamp;\r\n        receta.fechaCaducidad = _receta.fechaCaducidad;\r\n\r\n        delete receta.medicinas;\r\n        for (uint j = 0; j < _receta.medicinas.length; j++) {\r\n            receta.medicinas.push(_receta.medicinas[j]);\r\n        }\r\n        recetas.push(receta);\r\n\r\n        emit AccionReceta(msg.sender);\r\n    }\r\n\r\n    function getRecetas(address cuenta)\r\n    public view returns (Receta[] memory) {\r\n\r\n        if (cuentaFarmaciaAsociada[cuenta]) {\r\n            return recetas;\r\n        }\r\n\r\n        Receta[] memory recetasAux = new Receta[](recetas.length);\r\n        uint contador = 0;\r\n        for (uint i = 0; i < recetas.length; i++) {\r\n            if (cuentaMedicoAsociada[cuenta] ? recetas[i].tokenMedico == cuenta :\r\n                recetas[i].paciente.cuentaPaciente == cuenta) {\r\n                recetasAux[contador] = recetas[i];\r\n                contador++;\r\n            }\r\n        }\r\n        return recetasAux;\r\n    }\r\n\r\n    function eliminarReceta(uint idReceta) public isMedico {\r\n        delete recetas[idReceta];\r\n        emit AccionReceta(msg.sender);\r\n    }\r\n\r\n    function despacharReceta(uint idReceta) public isFarmaceutico {\r\n        if (recetas[idReceta].fechaCaducidad - block.timestamp > 0) {\r\n            recetas[idReceta].isDespachado = true;\r\n            emit AccionReceta(msg.sender);\r\n        }\r\n    }\r\n\r\n    modifier isMedico (){\r\n        require(cuentaMedicoAsociada[msg.sender]);\r\n        _;\r\n    }\r\n    modifier isFarmaceutico (){\r\n        require(cuentaFarmaciaAsociada[msg.sender]);\r\n        _;\r\n    }\r\n}\r\n",
  "sourcePath": "C:/Users/Mickmaxy/Documents/GitHub/dapp-recetas-medicas/contracts/RecetaMedica.sol",
  "compiler": {
    "name": "solc",
    "version": "0.8.6+commit.11564f7e.Emscripten.clang"
  },
  "schemaVersion": "3.4.1",
  "updatedAt": "2021-09-06T03:21:56.449Z",
  "networkType": "ethereum",
  "devdoc": {
    "kind": "dev",
    "methods": {},
    "version": 1
  },
  "userdoc": {
    "kind": "user",
    "methods": {},
    "version": 1
  }
}