{
  "contractName": "RecetaMedica",
  "abi": [
    {
      "inputs": [],
      "stateMutability": "nonpayable",
      "type": "constructor"
    },
    {
      "anonymous": false,
      "inputs": [
        {
          "indexed": false,
          "internalType": "string",
          "name": "nombresMedico",
          "type": "string"
        },
        {
          "indexed": false,
          "internalType": "string",
          "name": "apellidosMedico",
          "type": "string"
        },
        {
          "indexed": false,
          "internalType": "address",
          "name": "cuentaPaciente",
          "type": "address"
        }
      ],
      "name": "RecetaRegistrada",
      "type": "event"
    },
    {
      "inputs": [
        {
          "internalType": "address",
          "name": "",
          "type": "address"
        }
      ],
      "name": "medicos",
      "outputs": [
        {
          "internalType": "string",
          "name": "cedulaProfesional",
          "type": "string"
        },
        {
          "internalType": "string",
          "name": "nombres",
          "type": "string"
        },
        {
          "internalType": "string",
          "name": "apellidos",
          "type": "string"
        },
        {
          "internalType": "string",
          "name": "especialidad",
          "type": "string"
        }
      ],
      "stateMutability": "view",
      "type": "function",
      "constant": true
    },
    {
      "inputs": [
        {
          "internalType": "address",
          "name": "",
          "type": "address"
        }
      ],
      "name": "pacientes",
      "outputs": [
        {
          "internalType": "address",
          "name": "cuentaPaciente",
          "type": "address"
        },
        {
          "internalType": "string",
          "name": "cedula",
          "type": "string"
        },
        {
          "internalType": "string",
          "name": "nombres",
          "type": "string"
        },
        {
          "internalType": "string",
          "name": "apellidos",
          "type": "string"
        },
        {
          "internalType": "string",
          "name": "correo",
          "type": "string"
        },
        {
          "internalType": "string",
          "name": "celular",
          "type": "string"
        },
        {
          "internalType": "uint8",
          "name": "edad",
          "type": "uint8"
        }
      ],
      "stateMutability": "view",
      "type": "function",
      "constant": true
    },
    {
      "inputs": [
        {
          "internalType": "address",
          "name": "",
          "type": "address"
        },
        {
          "internalType": "uint256",
          "name": "",
          "type": "uint256"
        }
      ],
      "name": "pacientesPorDoctor",
      "outputs": [
        {
          "internalType": "address",
          "name": "cuentaPaciente",
          "type": "address"
        },
        {
          "internalType": "string",
          "name": "cedula",
          "type": "string"
        },
        {
          "internalType": "string",
          "name": "nombres",
          "type": "string"
        },
        {
          "internalType": "string",
          "name": "apellidos",
          "type": "string"
        },
        {
          "internalType": "string",
          "name": "correo",
          "type": "string"
        },
        {
          "internalType": "string",
          "name": "celular",
          "type": "string"
        },
        {
          "internalType": "uint8",
          "name": "edad",
          "type": "uint8"
        }
      ],
      "stateMutability": "view",
      "type": "function",
      "constant": true
    },
    {
      "inputs": [
        {
          "internalType": "address",
          "name": "",
          "type": "address"
        }
      ],
      "name": "pacientesTotalesPorDoctor",
      "outputs": [
        {
          "internalType": "uint256",
          "name": "",
          "type": "uint256"
        }
      ],
      "stateMutability": "view",
      "type": "function",
      "constant": true
    },
    {
      "inputs": [
        {
          "internalType": "uint256",
          "name": "",
          "type": "uint256"
        }
      ],
      "name": "recetas",
      "outputs": [
        {
          "internalType": "uint256",
          "name": "id",
          "type": "uint256"
        },
        {
          "components": [
            {
              "internalType": "string",
              "name": "cedulaProfesional",
              "type": "string"
            },
            {
              "internalType": "string",
              "name": "nombres",
              "type": "string"
            },
            {
              "internalType": "string",
              "name": "apellidos",
              "type": "string"
            },
            {
              "internalType": "string",
              "name": "especialidad",
              "type": "string"
            }
          ],
          "internalType": "struct RecetaMedica.Medico",
          "name": "medico",
          "type": "tuple"
        },
        {
          "components": [
            {
              "internalType": "address",
              "name": "cuentaPaciente",
              "type": "address"
            },
            {
              "internalType": "string",
              "name": "cedula",
              "type": "string"
            },
            {
              "internalType": "string",
              "name": "nombres",
              "type": "string"
            },
            {
              "internalType": "string",
              "name": "apellidos",
              "type": "string"
            },
            {
              "internalType": "string",
              "name": "correo",
              "type": "string"
            },
            {
              "internalType": "string",
              "name": "celular",
              "type": "string"
            },
            {
              "internalType": "uint8",
              "name": "edad",
              "type": "uint8"
            }
          ],
          "internalType": "struct RecetaMedica.Paciente",
          "name": "paciente",
          "type": "tuple"
        },
        {
          "internalType": "string",
          "name": "diagnostico",
          "type": "string"
        },
        {
          "internalType": "string",
          "name": "indicacionesExtras",
          "type": "string"
        },
        {
          "internalType": "uint256",
          "name": "fecha",
          "type": "uint256"
        },
        {
          "internalType": "uint256",
          "name": "fechaCaducidad",
          "type": "uint256"
        },
        {
          "internalType": "address",
          "name": "tokenMedico",
          "type": "address"
        }
      ],
      "stateMutability": "view",
      "type": "function",
      "constant": true
    },
    {
      "inputs": [
        {
          "components": [
            {
              "internalType": "address",
              "name": "cuentaPaciente",
              "type": "address"
            },
            {
              "internalType": "string",
              "name": "cedula",
              "type": "string"
            },
            {
              "internalType": "string",
              "name": "nombres",
              "type": "string"
            },
            {
              "internalType": "string",
              "name": "apellidos",
              "type": "string"
            },
            {
              "internalType": "string",
              "name": "correo",
              "type": "string"
            },
            {
              "internalType": "string",
              "name": "celular",
              "type": "string"
            },
            {
              "internalType": "uint8",
              "name": "edad",
              "type": "uint8"
            }
          ],
          "internalType": "struct RecetaMedica.Paciente",
          "name": "_paciente",
          "type": "tuple"
        }
      ],
      "name": "registrarPaciente",
      "outputs": [],
      "stateMutability": "nonpayable",
      "type": "function"
    },
    {
      "inputs": [
        {
          "components": [
            {
              "internalType": "string",
              "name": "cedulaProfesional",
              "type": "string"
            },
            {
              "internalType": "string",
              "name": "nombres",
              "type": "string"
            },
            {
              "internalType": "string",
              "name": "apellidos",
              "type": "string"
            },
            {
              "internalType": "string",
              "name": "especialidad",
              "type": "string"
            }
          ],
          "internalType": "struct RecetaMedica.Medico",
          "name": "_medico",
          "type": "tuple"
        },
        {
          "components": [
            {
              "internalType": "address",
              "name": "cuentaPaciente",
              "type": "address"
            },
            {
              "internalType": "string",
              "name": "cedula",
              "type": "string"
            },
            {
              "internalType": "string",
              "name": "nombres",
              "type": "string"
            },
            {
              "internalType": "string",
              "name": "apellidos",
              "type": "string"
            },
            {
              "internalType": "string",
              "name": "correo",
              "type": "string"
            },
            {
              "internalType": "string",
              "name": "celular",
              "type": "string"
            },
            {
              "internalType": "uint8",
              "name": "edad",
              "type": "uint8"
            }
          ],
          "internalType": "struct RecetaMedica.Paciente",
          "name": "_paciente",
          "type": "tuple"
        },
        {
          "internalType": "string",
          "name": "_diagnostico",
          "type": "string"
        },
        {
          "internalType": "string",
          "name": "_indicacionesExtras",
          "type": "string"
        },
        {
          "components": [
            {
              "internalType": "string",
              "name": "nombreMedicina",
              "type": "string"
            },
            {
              "internalType": "string",
              "name": "indicacion",
              "type": "string"
            }
          ],
          "internalType": "struct RecetaMedica.Medicina[]",
          "name": "_medicinas",
          "type": "tuple[]"
        },
        {
          "internalType": "uint256",
          "name": "_fechaCaducidad",
          "type": "uint256"
        }
      ],
      "name": "registrarReceta",
      "outputs": [],
      "stateMutability": "nonpayable",
      "type": "function"
    },
    {
      "inputs": [
        {
          "internalType": "address",
          "name": "cuenta",
          "type": "address"
        },
        {
          "internalType": "bool",
          "name": "isMedico",
          "type": "bool"
        }
      ],
      "name": "getRecetasPorPaciente",
      "outputs": [
        {
          "components": [
            {
              "internalType": "uint256",
              "name": "id",
              "type": "uint256"
            },
            {
              "components": [
                {
                  "internalType": "string",
                  "name": "cedulaProfesional",
                  "type": "string"
                },
                {
                  "internalType": "string",
                  "name": "nombres",
                  "type": "string"
                },
                {
                  "internalType": "string",
                  "name": "apellidos",
                  "type": "string"
                },
                {
                  "internalType": "string",
                  "name": "especialidad",
                  "type": "string"
                }
              ],
              "internalType": "struct RecetaMedica.Medico",
              "name": "medico",
              "type": "tuple"
            },
            {
              "components": [
                {
                  "internalType": "address",
                  "name": "cuentaPaciente",
                  "type": "address"
                },
                {
                  "internalType": "string",
                  "name": "cedula",
                  "type": "string"
                },
                {
                  "internalType": "string",
                  "name": "nombres",
                  "type": "string"
                },
                {
                  "internalType": "string",
                  "name": "apellidos",
                  "type": "string"
                },
                {
                  "internalType": "string",
                  "name": "correo",
                  "type": "string"
                },
                {
                  "internalType": "string",
                  "name": "celular",
                  "type": "string"
                },
                {
                  "internalType": "uint8",
                  "name": "edad",
                  "type": "uint8"
                }
              ],
              "internalType": "struct RecetaMedica.Paciente",
              "name": "paciente",
              "type": "tuple"
            },
            {
              "internalType": "string",
              "name": "diagnostico",
              "type": "string"
            },
            {
              "internalType": "string",
              "name": "indicacionesExtras",
              "type": "string"
            },
            {
              "components": [
                {
                  "internalType": "string",
                  "name": "nombreMedicina",
                  "type": "string"
                },
                {
                  "internalType": "string",
                  "name": "indicacion",
                  "type": "string"
                }
              ],
              "internalType": "struct RecetaMedica.Medicina[]",
              "name": "medicinas",
              "type": "tuple[]"
            },
            {
              "internalType": "uint256",
              "name": "fecha",
              "type": "uint256"
            },
            {
              "internalType": "uint256",
              "name": "fechaCaducidad",
              "type": "uint256"
            },
            {
              "internalType": "address",
              "name": "tokenMedico",
              "type": "address"
            }
          ],
          "internalType": "struct RecetaMedica.Receta[]",
          "name": "",
          "type": "tuple[]"
        }
      ],
      "stateMutability": "view",
      "type": "function",
      "constant": true
    },
    {
      "inputs": [
        {
          "internalType": "uint256",
          "name": "idReceta",
          "type": "uint256"
        }
      ],
      "name": "eliminarReceta",
      "outputs": [],
      "stateMutability": "nonpayable",
      "type": "function"
    }
  ],
  "bytecode": "0x60806040523480156200001157600080fd5b5060405180608001604052806040518060400160405280600881526020017f313131313131313100000000000000000000000000000000000000000000000081525081526020016040518060400160405280600881526020017f506174726963696f00000000000000000000000000000000000000000000000081525081526020016040518060400160405280600881526020017f45737472656c6c6100000000000000000000000000000000000000000000000081525081526020016040518060400160405280600781526020017f47656e6572616c00000000000000000000000000000000000000000000000000815250815250600080730df3c5e1e60a27f02d9d0ff8730c99a73d924fc373ffffffffffffffffffffffffffffffffffffffff1673ffffffffffffffffffffffffffffffffffffffff168152602001908152602001600020600082015181600001908051906020019062000177929190620003a4565b50602082015181600101908051906020019062000196929190620003a4565b506040820151816002019080519060200190620001b5929190620003a4565b506060820151816003019080519060200190620001d4929190620003a4565b5090505060405180608001604052806040518060400160405280600881526020017f323232323232323200000000000000000000000000000000000000000000000081525081526020016040518060400160405280600381526020017f426f62000000000000000000000000000000000000000000000000000000000081525081526020016040518060400160405280600681526020017f53706f6e6a61000000000000000000000000000000000000000000000000000081525081526020016040518060400160405280600781526020017f47656e6572616c0000000000000000000000000000000000000000000000000081525081525060008073f5b223a069ebfdc5d491b94fb50c8be0b063cb6573ffffffffffffffffffffffffffffffffffffffff1673ffffffffffffffffffffffffffffffffffffffff16815260200190815260200160002060008201518160000190805190602001906200033d929190620003a4565b5060208201518160010190805190602001906200035c929190620003a4565b5060408201518160020190805190602001906200037b929190620003a4565b5060608201518160030190805190602001906200039a929190620003a4565b50905050620004b9565b828054620003b29062000454565b90600052602060002090601f016020900481019282620003d6576000855562000422565b82601f10620003f157805160ff191683800117855562000422565b8280016001018555821562000422579182015b828111156200042157825182559160200191906001019062000404565b5b50905062000431919062000435565b5090565b5b808211156200045057600081600090555060010162000436565b5090565b600060028204905060018216806200046d57607f821691505b602082108114156200048457620004836200048a565b5b50919050565b7f4e487b7100000000000000000000000000000000000000000000000000000000600052602260045260246000fd5b613f6180620004c96000396000f3fe608060405234801561001057600080fd5b50600436106100935760003560e01c80637d10d471116100665780637d10d47114610154578063bc14b7dc14610184578063d2de6622146101ba578063e046abb7146101d6578063eaf385621461020657610093565b80630afe59e1146100985780634dfa1864146100b45780635b8f2358146100e7578063764b78e21461011e575b600080fd5b6100b260048036038101906100ad9190613261565b610222565b005b6100ce60048036038101906100c991906130bf565b6107b2565b6040516100de9493929190613a28565b60405180910390f35b61010160048036038101906100fc91906132a2565b610a02565b604051610115989796959493929190613ac4565b60405180910390f35b61013860048036038101906101339190613124565b611133565b60405161014b979695949392919061392f565b60405180910390f35b61016e600480360381019061016991906130bf565b611467565b60405161017b9190613aa9565b60405180910390f35b61019e600480360381019061019991906130bf565b61147f565b6040516101b1979695949392919061392f565b60405180910390f35b6101d460048036038101906101cf91906132a2565b611796565b005b6101f060048036038101906101eb91906130e8565b61192c565b6040516101fd91906139c1565b60405180910390f35b610220600480360381019061021b9190613160565b612415565b005b60005b600460003373ffffffffffffffffffffffffffffffffffffffff1673ffffffffffffffffffffffffffffffffffffffff1681526020019081526020016000205481101561047c57816000015173ffffffffffffffffffffffffffffffffffffffff16600360003373ffffffffffffffffffffffffffffffffffffffff1673ffffffffffffffffffffffffffffffffffffffff16815260200190815260200160002082815481106102fe577f4e487b7100000000000000000000000000000000000000000000000000000000600052603260045260246000fd5b906000526020600020906007020160000160009054906101000a900473ffffffffffffffffffffffffffffffffffffffff1673ffffffffffffffffffffffffffffffffffffffff16148015610429575081602001516040516020016103639190613901565b60405160208183030381529060405280519060200120600360003373ffffffffffffffffffffffffffffffffffffffff1673ffffffffffffffffffffffffffffffffffffffff16815260200190815260200160002082815481106103f0577f4e487b7100000000000000000000000000000000000000000000000000000000600052603260045260246000fd5b90600052602060002090600702016001016040516020016104119190613918565b60405160208183030381529060405280519060200120145b15610469576040517f08c379a000000000000000000000000000000000000000000000000000000000815260040161046090613a89565b60405180910390fd5b808061047490613d99565b915050610225565b50600073ffffffffffffffffffffffffffffffffffffffff16816000015173ffffffffffffffffffffffffffffffffffffffff16146105f6578060016000836000015173ffffffffffffffffffffffffffffffffffffffff1673ffffffffffffffffffffffffffffffffffffffff16815260200190815260200160002060008201518160000160006101000a81548173ffffffffffffffffffffffffffffffffffffffff021916908373ffffffffffffffffffffffffffffffffffffffff160217905550602082015181600101908051906020019061055c929190612a78565b506040820151816002019080519060200190610579929190612a78565b506060820151816003019080519060200190610596929190612a78565b5060808201518160040190805190602001906105b3929190612a78565b5060a08201518160050190805190602001906105d0929190612a78565b5060c08201518160060160006101000a81548160ff021916908360ff1602179055509050505b600360003373ffffffffffffffffffffffffffffffffffffffff1673ffffffffffffffffffffffffffffffffffffffff16815260200190815260200160002081908060018154018082558091505060019003906000526020600020906007020160009091909190915060008201518160000160006101000a81548173ffffffffffffffffffffffffffffffffffffffff021916908373ffffffffffffffffffffffffffffffffffffffff16021790555060208201518160010190805190602001906106c2929190612a78565b5060408201518160020190805190602001906106df929190612a78565b5060608201518160030190805190602001906106fc929190612a78565b506080820151816004019080519060200190610719929190612a78565b5060a0820151816005019080519060200190610736929190612a78565b5060c08201518160060160006101000a81548160ff021916908360ff1602179055505050600460003373ffffffffffffffffffffffffffffffffffffffff1673ffffffffffffffffffffffffffffffffffffffff16815260200190815260200160002060008154809291906107aa90613d99565b919050555050565b60006020528060005260406000206000915090508060000180546107d590613d36565b80601f016020809104026020016040519081016040528092919081815260200182805461080190613d36565b801561084e5780601f106108235761010080835404028352916020019161084e565b820191906000526020600020905b81548152906001019060200180831161083157829003601f168201915b50505050509080600101805461086390613d36565b80601f016020809104026020016040519081016040528092919081815260200182805461088f90613d36565b80156108dc5780601f106108b1576101008083540402835291602001916108dc565b820191906000526020600020905b8154815290600101906020018083116108bf57829003601f168201915b5050505050908060020180546108f190613d36565b80601f016020809104026020016040519081016040528092919081815260200182805461091d90613d36565b801561096a5780601f1061093f5761010080835404028352916020019161096a565b820191906000526020600020905b81548152906001019060200180831161094d57829003601f168201915b50505050509080600301805461097f90613d36565b80601f01602080910402602001604051908101604052809291908181526020018280546109ab90613d36565b80156109f85780601f106109cd576101008083540402835291602001916109f8565b820191906000526020600020905b8154815290600101906020018083116109db57829003601f168201915b5050505050905084565b60028181548110610a1257600080fd5b906000526020600020906012020160009150905080600001549080600101604051806080016040529081600082018054610a4b90613d36565b80601f0160208091040260200160405190810160405280929190818152602001828054610a7790613d36565b8015610ac45780601f10610a9957610100808354040283529160200191610ac4565b820191906000526020600020905b815481529060010190602001808311610aa757829003601f168201915b50505050508152602001600182018054610add90613d36565b80601f0160208091040260200160405190810160405280929190818152602001828054610b0990613d36565b8015610b565780601f10610b2b57610100808354040283529160200191610b56565b820191906000526020600020905b815481529060010190602001808311610b3957829003601f168201915b50505050508152602001600282018054610b6f90613d36565b80601f0160208091040260200160405190810160405280929190818152602001828054610b9b90613d36565b8015610be85780601f10610bbd57610100808354040283529160200191610be8565b820191906000526020600020905b815481529060010190602001808311610bcb57829003601f168201915b50505050508152602001600382018054610c0190613d36565b80601f0160208091040260200160405190810160405280929190818152602001828054610c2d90613d36565b8015610c7a5780601f10610c4f57610100808354040283529160200191610c7a565b820191906000526020600020905b815481529060010190602001808311610c5d57829003601f168201915b50505050508152505090806005016040518060e00160405290816000820160009054906101000a900473ffffffffffffffffffffffffffffffffffffffff1673ffffffffffffffffffffffffffffffffffffffff1673ffffffffffffffffffffffffffffffffffffffff168152602001600182018054610cf990613d36565b80601f0160208091040260200160405190810160405280929190818152602001828054610d2590613d36565b8015610d725780601f10610d4757610100808354040283529160200191610d72565b820191906000526020600020905b815481529060010190602001808311610d5557829003601f168201915b50505050508152602001600282018054610d8b90613d36565b80601f0160208091040260200160405190810160405280929190818152602001828054610db790613d36565b8015610e045780601f10610dd957610100808354040283529160200191610e04565b820191906000526020600020905b815481529060010190602001808311610de757829003601f168201915b50505050508152602001600382018054610e1d90613d36565b80601f0160208091040260200160405190810160405280929190818152602001828054610e4990613d36565b8015610e965780601f10610e6b57610100808354040283529160200191610e96565b820191906000526020600020905b815481529060010190602001808311610e7957829003601f168201915b50505050508152602001600482018054610eaf90613d36565b80601f0160208091040260200160405190810160405280929190818152602001828054610edb90613d36565b8015610f285780601f10610efd57610100808354040283529160200191610f28565b820191906000526020600020905b815481529060010190602001808311610f0b57829003601f168201915b50505050508152602001600582018054610f4190613d36565b80601f0160208091040260200160405190810160405280929190818152602001828054610f6d90613d36565b8015610fba5780601f10610f8f57610100808354040283529160200191610fba565b820191906000526020600020905b815481529060010190602001808311610f9d57829003601f168201915b505050505081526020016006820160009054906101000a900460ff1660ff1660ff16815250509080600c018054610ff090613d36565b80601f016020809104026020016040519081016040528092919081815260200182805461101c90613d36565b80156110695780601f1061103e57610100808354040283529160200191611069565b820191906000526020600020905b81548152906001019060200180831161104c57829003601f168201915b50505050509080600d01805461107e90613d36565b80601f01602080910402602001604051908101604052809291908181526020018280546110aa90613d36565b80156110f75780601f106110cc576101008083540402835291602001916110f7565b820191906000526020600020905b8154815290600101906020018083116110da57829003601f168201915b50505050509080600f0154908060100154908060110160009054906101000a900473ffffffffffffffffffffffffffffffffffffffff16905088565b6003602052816000526040600020818154811061114f57600080fd5b9060005260206000209060070201600091509150508060000160009054906101000a900473ffffffffffffffffffffffffffffffffffffffff169080600101805461119990613d36565b80601f01602080910402602001604051908101604052809291908181526020018280546111c590613d36565b80156112125780601f106111e757610100808354040283529160200191611212565b820191906000526020600020905b8154815290600101906020018083116111f557829003601f168201915b50505050509080600201805461122790613d36565b80601f016020809104026020016040519081016040528092919081815260200182805461125390613d36565b80156112a05780601f10611275576101008083540402835291602001916112a0565b820191906000526020600020905b81548152906001019060200180831161128357829003601f168201915b5050505050908060030180546112b590613d36565b80601f01602080910402602001604051908101604052809291908181526020018280546112e190613d36565b801561132e5780601f106113035761010080835404028352916020019161132e565b820191906000526020600020905b81548152906001019060200180831161131157829003601f168201915b50505050509080600401805461134390613d36565b80601f016020809104026020016040519081016040528092919081815260200182805461136f90613d36565b80156113bc5780601f10611391576101008083540402835291602001916113bc565b820191906000526020600020905b81548152906001019060200180831161139f57829003601f168201915b5050505050908060050180546113d190613d36565b80601f01602080910402602001604051908101604052809291908181526020018280546113fd90613d36565b801561144a5780601f1061141f5761010080835404028352916020019161144a565b820191906000526020600020905b81548152906001019060200180831161142d57829003601f168201915b5050505050908060060160009054906101000a900460ff16905087565b60046020528060005260406000206000915090505481565b60016020528060005260406000206000915090508060000160009054906101000a900473ffffffffffffffffffffffffffffffffffffffff16908060010180546114c890613d36565b80601f01602080910402602001604051908101604052809291908181526020018280546114f490613d36565b80156115415780601f1061151657610100808354040283529160200191611541565b820191906000526020600020905b81548152906001019060200180831161152457829003601f168201915b50505050509080600201805461155690613d36565b80601f016020809104026020016040519081016040528092919081815260200182805461158290613d36565b80156115cf5780601f106115a4576101008083540402835291602001916115cf565b820191906000526020600020905b8154815290600101906020018083116115b257829003601f168201915b5050505050908060030180546115e490613d36565b80601f016020809104026020016040519081016040528092919081815260200182805461161090613d36565b801561165d5780601f106116325761010080835404028352916020019161165d565b820191906000526020600020905b81548152906001019060200180831161164057829003601f168201915b50505050509080600401805461167290613d36565b80601f016020809104026020016040519081016040528092919081815260200182805461169e90613d36565b80156116eb5780601f106116c0576101008083540402835291602001916116eb565b820191906000526020600020905b8154815290600101906020018083116116ce57829003601f168201915b50505050509080600501805461170090613d36565b80601f016020809104026020016040519081016040528092919081815260200182805461172c90613d36565b80156117795780601f1061174e57610100808354040283529160200191611779565b820191906000526020600020905b81548152906001019060200180831161175c57829003601f168201915b5050505050908060060160009054906101000a900460ff16905087565b600281815481106117d0577f4e487b7100000000000000000000000000000000000000000000000000000000600052603260045260246000fd5b906000526020600020906012020160008082016000905560018201600080820160006117fc9190612afe565b60018201600061180c9190612afe565b60028201600061181c9190612afe565b60038201600061182c9190612afe565b505060058201600080820160006101000a81549073ffffffffffffffffffffffffffffffffffffffff021916905560018201600061186a9190612afe565b60028201600061187a9190612afe565b60038201600061188a9190612afe565b60048201600061189a9190612afe565b6005820160006118aa9190612afe565b6006820160006101000a81549060ff02191690555050600c820160006118d09190612afe565b600d820160006118e09190612afe565b600e820160006118f09190612b3e565b600f82016000905560108201600090556011820160006101000a81549073ffffffffffffffffffffffffffffffffffffffff0219169055505050565b60608060005b60028054905081101561240a57836119e6578473ffffffffffffffffffffffffffffffffffffffff1660028281548110611995577f4e487b7100000000000000000000000000000000000000000000000000000000600052603260045260246000fd5b906000526020600020906012020160050160000160009054906101000a900473ffffffffffffffffffffffffffffffffffffffff1673ffffffffffffffffffffffffffffffffffffffff1614611a81565b8473ffffffffffffffffffffffffffffffffffffffff1660028281548110611a37577f4e487b7100000000000000000000000000000000000000000000000000000000600052603260045260246000fd5b906000526020600020906012020160110160009054906101000a900473ffffffffffffffffffffffffffffffffffffffff1673ffffffffffffffffffffffffffffffffffffffff16145b156123f75760028181548110611ac0577f4e487b7100000000000000000000000000000000000000000000000000000000600052603260045260246000fd5b9060005260206000209060120201604051806101200160405290816000820154815260200160018201604051806080016040529081600082018054611b0490613d36565b80601f0160208091040260200160405190810160405280929190818152602001828054611b3090613d36565b8015611b7d5780601f10611b5257610100808354040283529160200191611b7d565b820191906000526020600020905b815481529060010190602001808311611b6057829003601f168201915b50505050508152602001600182018054611b9690613d36565b80601f0160208091040260200160405190810160405280929190818152602001828054611bc290613d36565b8015611c0f5780601f10611be457610100808354040283529160200191611c0f565b820191906000526020600020905b815481529060010190602001808311611bf257829003601f168201915b50505050508152602001600282018054611c2890613d36565b80601f0160208091040260200160405190810160405280929190818152602001828054611c5490613d36565b8015611ca15780601f10611c7657610100808354040283529160200191611ca1565b820191906000526020600020905b815481529060010190602001808311611c8457829003601f168201915b50505050508152602001600382018054611cba90613d36565b80601f0160208091040260200160405190810160405280929190818152602001828054611ce690613d36565b8015611d335780601f10611d0857610100808354040283529160200191611d33565b820191906000526020600020905b815481529060010190602001808311611d1657829003601f168201915b5050505050815250508152602001600582016040518060e00160405290816000820160009054906101000a900473ffffffffffffffffffffffffffffffffffffffff1673ffffffffffffffffffffffffffffffffffffffff1673ffffffffffffffffffffffffffffffffffffffff168152602001600182018054611db690613d36565b80601f0160208091040260200160405190810160405280929190818152602001828054611de290613d36565b8015611e2f5780601f10611e0457610100808354040283529160200191611e2f565b820191906000526020600020905b815481529060010190602001808311611e1257829003601f168201915b50505050508152602001600282018054611e4890613d36565b80601f0160208091040260200160405190810160405280929190818152602001828054611e7490613d36565b8015611ec15780601f10611e9657610100808354040283529160200191611ec1565b820191906000526020600020905b815481529060010190602001808311611ea457829003601f168201915b50505050508152602001600382018054611eda90613d36565b80601f0160208091040260200160405190810160405280929190818152602001828054611f0690613d36565b8015611f535780601f10611f2857610100808354040283529160200191611f53565b820191906000526020600020905b815481529060010190602001808311611f3657829003601f168201915b50505050508152602001600482018054611f6c90613d36565b80601f0160208091040260200160405190810160405280929190818152602001828054611f9890613d36565b8015611fe55780601f10611fba57610100808354040283529160200191611fe5565b820191906000526020600020905b815481529060010190602001808311611fc857829003601f168201915b50505050508152602001600582018054611ffe90613d36565b80601f016020809104026020016040519081016040528092919081815260200182805461202a90613d36565b80156120775780601f1061204c57610100808354040283529160200191612077565b820191906000526020600020905b81548152906001019060200180831161205a57829003601f168201915b505050505081526020016006820160009054906101000a900460ff1660ff1660ff16815250508152602001600c820180546120b190613d36565b80601f01602080910402602001604051908101604052809291908181526020018280546120dd90613d36565b801561212a5780601f106120ff5761010080835404028352916020019161212a565b820191906000526020600020905b81548152906001019060200180831161210d57829003601f168201915b50505050508152602001600d8201805461214390613d36565b80601f016020809104026020016040519081016040528092919081815260200182805461216f90613d36565b80156121bc5780601f10612191576101008083540402835291602001916121bc565b820191906000526020600020905b81548152906001019060200180831161219f57829003601f168201915b50505050508152602001600e8201805480602002602001604051908101604052809291908181526020016000905b82821015612340578382906000526020600020906002020160405180604001604052908160008201805461221d90613d36565b80601f016020809104026020016040519081016040528092919081815260200182805461224990613d36565b80156122965780601f1061226b57610100808354040283529160200191612296565b820191906000526020600020905b81548152906001019060200180831161227957829003601f168201915b505050505081526020016001820180546122af90613d36565b80601f01602080910402602001604051908101604052809291908181526020018280546122db90613d36565b80156123285780601f106122fd57610100808354040283529160200191612328565b820191906000526020600020905b81548152906001019060200180831161230b57829003601f168201915b505050505081525050815260200190600101906121ea565b505050508152602001600f8201548152602001601082015481526020016011820160009054906101000a900473ffffffffffffffffffffffffffffffffffffffff1673ffffffffffffffffffffffffffffffffffffffff1673ffffffffffffffffffffffffffffffffffffffff16815250508282815181106123eb577f4e487b7100000000000000000000000000000000000000000000000000000000600052603260045260246000fd5b60200260200101819052505b808061240290613d99565b915050611932565b508091505092915050565b60028054905060056000018190555033600560110160006101000a81548173ffffffffffffffffffffffffffffffffffffffff021916908373ffffffffffffffffffffffffffffffffffffffff160217905550856005600101600082015181600001908051906020019061248a929190612a78565b5060208201518160010190805190602001906124a7929190612a78565b5060408201518160020190805190602001906124c4929190612a78565b5060608201518160030190805190602001906124e1929190612a78565b50905050846005800160008201518160000160006101000a81548173ffffffffffffffffffffffffffffffffffffffff021916908373ffffffffffffffffffffffffffffffffffffffff160217905550602082015181600101908051906020019061254d929190612a78565b50604082015181600201908051906020019061256a929190612a78565b506060820151816003019080519060200190612587929190612a78565b5060808201518160040190805190602001906125a4929190612a78565b5060a08201518160050190805190602001906125c1929190612a78565b5060c08201518160060160006101000a81548160ff021916908360ff160217905550905050836005600c0190805190602001906125ff929190612a78565b50826005600d019080519060200190612619929190612a78565b50426005600f01819055508060056010018190555060005b8251811015612754576005600e016040518060400160405280858481518110612683577f4e487b7100000000000000000000000000000000000000000000000000000000600052603260045260246000fd5b60200260200101516000015181526020018584815181106126cd577f4e487b7100000000000000000000000000000000000000000000000000000000600052603260045260246000fd5b60200260200101516020015181525090806001815401808255809150506001900390600052602060002090600202016000909190919091506000820151816000019080519060200190612721929190612a78565b50602082015181600101908051906020019061273e929190612a78565b505050808061274c90613d99565b915050612631565b5060026005908060018154018082558091505060019003906000526020600020906012020160009091909190915060008201548160000155600182018160010160008201816000019080546127a890613d36565b6127b3929190612b62565b5060018201816001019080546127c890613d36565b6127d3929190612b62565b5060028201816002019080546127e890613d36565b6127f3929190612b62565b50600382018160030190805461280890613d36565b612813929190612b62565b50505060058201816005016000820160009054906101000a900473ffffffffffffffffffffffffffffffffffffffff168160000160006101000a81548173ffffffffffffffffffffffffffffffffffffffff021916908373ffffffffffffffffffffffffffffffffffffffff160217905550600182018160010190805461289990613d36565b6128a4929190612b62565b5060028201816002019080546128b990613d36565b6128c4929190612b62565b5060038201816003019080546128d990613d36565b6128e4929190612b62565b5060048201816004019080546128f990613d36565b612904929190612b62565b50600582018160050190805461291990613d36565b612924929190612b62565b506006820160009054906101000a900460ff168160060160006101000a81548160ff021916908360ff1602179055505050600c820181600c0190805461296990613d36565b612974929190612b62565b50600d820181600d0190805461298990613d36565b612994929190612b62565b50600e820181600e019080546129ab929190612bef565b50600f82015481600f0155601082015481601001556011820160009054906101000a900473ffffffffffffffffffffffffffffffffffffffff168160110160006101000a81548173ffffffffffffffffffffffffffffffffffffffff021916908373ffffffffffffffffffffffffffffffffffffffff16021790555050507f2fc6fef47720f7db686e69affbeff6314997efcfe53afafd0e87316260023eeb866020015187604001518760000151604051612a68939291906139e3565b60405180910390a1505050505050565b828054612a8490613d36565b90600052602060002090601f016020900481019282612aa65760008555612aed565b82601f10612abf57805160ff1916838001178555612aed565b82800160010185558215612aed579182015b82811115612aec578251825591602001919060010190612ad1565b5b509050612afa9190612c87565b5090565b508054612b0a90613d36565b6000825580601f10612b1c5750612b3b565b601f016020900490600052602060002090810190612b3a9190612c87565b5b50565b5080546000825560020290600052602060002090810190612b5f9190612ca4565b50565b828054612b6e90613d36565b90600052602060002090601f016020900481019282612b905760008555612bde565b82601f10612ba15780548555612bde565b82800160010185558215612bde57600052602060002091601f016020900482015b82811115612bdd578254825591600101919060010190612bc2565b5b509050612beb9190612c87565b5090565b828054828255906000526020600020906002028101928215612c765760005260206000209160020282015b82811115612c755782826000820181600001908054612c3890613d36565b612c43929190612b62565b506001820181600101908054612c5890613d36565b612c63929190612b62565b50505091600201919060020190612c1a565b5b509050612c839190612ca4565b5090565b5b80821115612ca0576000816000905550600101612c88565b5090565b5b80821115612cd75760008082016000612cbe9190612afe565b600182016000612cce9190612afe565b50600201612ca5565b5090565b6000612cee612ce984613b83565b613b5e565b90508083825260208201905082856020860282011115612d0d57600080fd5b60005b85811015612d5757813567ffffffffffffffff811115612d2f57600080fd5b808601612d3c8982612e1d565b85526020850194506020840193505050600181019050612d10565b5050509392505050565b6000612d74612d6f84613baf565b613b5e565b905082815260208101848484011115612d8c57600080fd5b612d97848285613cf4565b509392505050565b600081359050612dae81613ecf565b92915050565b600082601f830112612dc557600080fd5b8135612dd5848260208601612cdb565b91505092915050565b600081359050612ded81613ee6565b92915050565b600082601f830112612e0457600080fd5b8135612e14848260208601612d61565b91505092915050565b600060408284031215612e2f57600080fd5b612e396040613b5e565b9050600082013567ffffffffffffffff811115612e5557600080fd5b612e6184828501612df3565b600083015250602082013567ffffffffffffffff811115612e8157600080fd5b612e8d84828501612df3565b60208301525092915050565b600060808284031215612eab57600080fd5b612eb56080613b5e565b9050600082013567ffffffffffffffff811115612ed157600080fd5b612edd84828501612df3565b600083015250602082013567ffffffffffffffff811115612efd57600080fd5b612f0984828501612df3565b602083015250604082013567ffffffffffffffff811115612f2957600080fd5b612f3584828501612df3565b604083015250606082013567ffffffffffffffff811115612f5557600080fd5b612f6184828501612df3565b60608301525092915050565b600060e08284031215612f7f57600080fd5b612f8960e0613b5e565b90506000612f9984828501612d9f565b600083015250602082013567ffffffffffffffff811115612fb957600080fd5b612fc584828501612df3565b602083015250604082013567ffffffffffffffff811115612fe557600080fd5b612ff184828501612df3565b604083015250606082013567ffffffffffffffff81111561301157600080fd5b61301d84828501612df3565b606083015250608082013567ffffffffffffffff81111561303d57600080fd5b61304984828501612df3565b60808301525060a082013567ffffffffffffffff81111561306957600080fd5b61307584828501612df3565b60a08301525060c0613089848285016130aa565b60c08301525092915050565b6000813590506130a481613efd565b92915050565b6000813590506130b981613f14565b92915050565b6000602082840312156130d157600080fd5b60006130df84828501612d9f565b91505092915050565b600080604083850312156130fb57600080fd5b600061310985828601612d9f565b925050602061311a85828601612dde565b9150509250929050565b6000806040838503121561313757600080fd5b600061314585828601612d9f565b925050602061315685828601613095565b9150509250929050565b60008060008060008060c0878903121561317957600080fd5b600087013567ffffffffffffffff81111561319357600080fd5b61319f89828a01612e99565b965050602087013567ffffffffffffffff8111156131bc57600080fd5b6131c889828a01612f6d565b955050604087013567ffffffffffffffff8111156131e557600080fd5b6131f189828a01612df3565b945050606087013567ffffffffffffffff81111561320e57600080fd5b61321a89828a01612df3565b935050608087013567ffffffffffffffff81111561323757600080fd5b61324389828a01612db4565b92505060a061325489828a01613095565b9150509295509295509295565b60006020828403121561327357600080fd5b600082013567ffffffffffffffff81111561328d57600080fd5b61329984828501612f6d565b91505092915050565b6000602082840312156132b457600080fd5b60006132c284828501613095565b91505092915050565b60006132d78383613540565b905092915050565b60006132eb83836137e4565b905092915050565b6132fc81613c9f565b82525050565b61330b81613c9f565b82525050565b600061331c82613c15565b6133268185613c50565b93508360208202850161333885613be0565b8060005b85811015613374578484038952815161335585826132cb565b945061336083613c36565b925060208a0199505060018101905061333c565b50829750879550505050505092915050565b600061339182613c20565b61339b8185613c61565b9350836020820285016133ad85613bf0565b8060005b858110156133e957848403895281516133ca85826132df565b94506133d583613c43565b925060208a019950506001810190506133b1565b50829750879550505050505092915050565b600061340682613c2b565b6134108185613c72565b9350613420818560208601613d03565b61342981613e6f565b840191505092915050565b600061343f82613c2b565b6134498185613c83565b9350613459818560208601613d03565b61346281613e6f565b840191505092915050565b600061347882613c2b565b6134828185613c94565b9350613492818560208601613d03565b80840191505092915050565b600081546134ab81613d36565b6134b58186613c94565b945060018216600081146134d057600181146134e157613514565b60ff19831686528186019350613514565b6134ea85613c00565b60005b8381101561350c578154818901526001820191506020810190506134ed565b838801955050505b50505092915050565b600061352a602e83613c83565b915061353582613e80565b604082019050919050565b6000604083016000830151848203600086015261355d82826133fb565b9150506020830151848203602086015261357782826133fb565b9150508091505092915050565b600060808301600083015184820360008601526135a182826133fb565b915050602083015184820360208601526135bb82826133fb565b915050604083015184820360408601526135d582826133fb565b915050606083015184820360608601526135ef82826133fb565b9150508091505092915050565b6000608083016000830151848203600086015261361982826133fb565b9150506020830151848203602086015261363382826133fb565b9150506040830151848203604086015261364d82826133fb565b9150506060830151848203606086015261366782826133fb565b9150508091505092915050565b600060e08301600083015161368c60008601826132f3565b50602083015184820360208601526136a482826133fb565b915050604083015184820360408601526136be82826133fb565b915050606083015184820360608601526136d882826133fb565b915050608083015184820360808601526136f282826133fb565b91505060a083015184820360a086015261370c82826133fb565b91505060c083015161372160c08601826138e3565b508091505092915050565b600060e08301600083015161374460008601826132f3565b506020830151848203602086015261375c82826133fb565b9150506040830151848203604086015261377682826133fb565b9150506060830151848203606086015261379082826133fb565b915050608083015184820360808601526137aa82826133fb565b91505060a083015184820360a08601526137c482826133fb565b91505060c08301516137d960c08601826138e3565b508091505092915050565b6000610120830160008301516137fd60008601826138c5565b50602083015184820360208601526138158282613584565b9150506040830151848203604086015261382f8282613674565b9150506060830151848203606086015261384982826133fb565b9150506080830151848203608086015261386382826133fb565b91505060a083015184820360a086015261387d8282613311565b91505060c083015161389260c08601826138c5565b5060e08301516138a560e08601826138c5565b506101008301516138ba6101008601826132f3565b508091505092915050565b6138ce81613cdd565b82525050565b6138dd81613cdd565b82525050565b6138ec81613ce7565b82525050565b6138fb81613ce7565b82525050565b600061390d828461346d565b915081905092915050565b6000613924828461349e565b915081905092915050565b600060e082019050613944600083018a613302565b81810360208301526139568189613434565b9050818103604083015261396a8188613434565b9050818103606083015261397e8187613434565b905081810360808301526139928186613434565b905081810360a08301526139a68185613434565b90506139b560c08301846138f2565b98975050505050505050565b600060208201905081810360008301526139db8184613386565b905092915050565b600060608201905081810360008301526139fd8186613434565b90508181036020830152613a118185613434565b9050613a206040830184613302565b949350505050565b60006080820190508181036000830152613a428187613434565b90508181036020830152613a568186613434565b90508181036040830152613a6a8185613434565b90508181036060830152613a7e8184613434565b905095945050505050565b60006020820190508181036000830152613aa28161351d565b9050919050565b6000602082019050613abe60008301846138d4565b92915050565b600061010082019050613ada600083018b6138d4565b8181036020830152613aec818a6135fc565b90508181036040830152613b00818961372c565b90508181036060830152613b148188613434565b90508181036080830152613b288187613434565b9050613b3760a08301866138d4565b613b4460c08301856138d4565b613b5160e0830184613302565b9998505050505050505050565b6000613b68613b79565b9050613b748282613d68565b919050565b6000604051905090565b600067ffffffffffffffff821115613b9e57613b9d613e40565b5b602082029050602081019050919050565b600067ffffffffffffffff821115613bca57613bc9613e40565b5b613bd382613e6f565b9050602081019050919050565b6000819050602082019050919050565b6000819050602082019050919050565b60008190508160005260206000209050919050565b600081519050919050565b600081519050919050565b600081519050919050565b6000602082019050919050565b6000602082019050919050565b600082825260208201905092915050565b600082825260208201905092915050565b600082825260208201905092915050565b600082825260208201905092915050565b600081905092915050565b6000613caa82613cbd565b9050919050565b60008115159050919050565b600073ffffffffffffffffffffffffffffffffffffffff82169050919050565b6000819050919050565b600060ff82169050919050565b82818337600083830152505050565b60005b83811015613d21578082015181840152602081019050613d06565b83811115613d30576000848401525b50505050565b60006002820490506001821680613d4e57607f821691505b60208210811415613d6257613d61613e11565b5b50919050565b613d7182613e6f565b810181811067ffffffffffffffff82111715613d9057613d8f613e40565b5b80604052505050565b6000613da482613cdd565b91507fffffffffffffffffffffffffffffffffffffffffffffffffffffffffffffffff821415613dd757613dd6613de2565b5b600182019050919050565b7f4e487b7100000000000000000000000000000000000000000000000000000000600052601160045260246000fd5b7f4e487b7100000000000000000000000000000000000000000000000000000000600052602260045260246000fd5b7f4e487b7100000000000000000000000000000000000000000000000000000000600052604160045260246000fd5b6000601f19601f8301169050919050565b7f456c2070616369656e7465207961206861207369646f2072656769737472616460008201527f6f20656e207375206375656e7461000000000000000000000000000000000000602082015250565b613ed881613c9f565b8114613ee357600080fd5b50565b613eef81613cb1565b8114613efa57600080fd5b50565b613f0681613cdd565b8114613f1157600080fd5b50565b613f1d81613ce7565b8114613f2857600080fd5b5056fea26469706673582212202eb7d79cf6fba08fe8146a4fe75527c8920a950ab1c37a33a02c39e5f72cae0464736f6c63430008040033",
  "immutableReferences": {},
  "source": "// SPDX-License-Identifier: GPL-3.0\r\npragma solidity >=0.7.0 <0.9.0;\r\n\r\ncontract RecetaMedica {\r\n\r\n    //************************** Estructuras que simulan los actores de las prescripciones mdicas *********************\r\n\r\n    struct Medicina {\r\n        string nombreMedicina;\r\n        string indicacion;\r\n    }\r\n\r\n    struct Medico {\r\n        string cedulaProfesional;\r\n        string nombres;\r\n        string apellidos;\r\n        string especialidad;\r\n    }\r\n\r\n    struct Paciente {\r\n        address cuentaPaciente;\r\n        string cedula;\r\n        string nombres;\r\n        string apellidos;\r\n        string correo;\r\n        string celular;\r\n        uint8 edad;\r\n    }\r\n\r\n    struct Receta {\r\n        uint id;\r\n        Medico medico;\r\n        Paciente paciente;\r\n        string diagnostico;\r\n        string indicacionesExtras;\r\n        Medicina[] medicinas;\r\n        uint fecha;\r\n        uint fechaCaducidad;\r\n        address tokenMedico;\r\n    }\r\n\r\n    //****** Arreglos de tipo Map en donde se almacena la informacin en el proceso de preescripciones mdicas *********\r\n\r\n    mapping(address => Medico) public medicos;\r\n\r\n    mapping(address => Paciente) public pacientes;\r\n\r\n    Receta[] public recetas;\r\n\r\n    mapping(address => Paciente[]) public pacientesPorDoctor;\r\n    mapping(address => uint) public pacientesTotalesPorDoctor;\r\n\r\n    //************ Evento que reacciona al momento de registrar una receta para cualesquier paciente *******************\r\n\r\n    event RecetaRegistrada(string nombresMedico, string apellidosMedico, address cuentaPaciente);\r\n\r\n    //************************ Constructor del contrato que establece mdicos predeterminados **************************\r\n\r\n    constructor(){\r\n        //Doctores pre-existentes\r\n        medicos[0x0DF3c5E1e60A27f02D9d0FF8730c99A73D924Fc3] = Medico(\"11111111\", \"Patricio\", \"Estrella\", \"General\");\r\n        medicos[0xF5B223A069ebfDc5D491b94fB50C8be0B063CB65] = Medico(\"22222222\", \"Bob\", \"Sponja\", \"General\");\r\n    }\r\n\r\n    //****************** Funciones que contienen la lgica del proceso de preescripciones mdicas **********************\r\n\r\n    function registrarPaciente(\r\n        Paciente memory _paciente\r\n    ) public {\r\n        for (uint i = 0; i < pacientesTotalesPorDoctor[msg.sender]; i++) {\r\n            //Se valida en caso de que el paciente tenga ya un address asociado\r\n            //adems, se emplea && ya que, puede darse el caso en que, la cdula de un _paciente\r\n            // ya se ha registrado pero aun no tiene cuenta en la red.\r\n            require(!(pacientesPorDoctor[msg.sender][i].cuentaPaciente == _paciente.cuentaPaciente\r\n            && keccak256(abi.encodePacked(pacientesPorDoctor[msg.sender][i].cedula)) ==\r\n            keccak256(abi.encodePacked(_paciente.cedula))), 'El paciente ya ha sido registrado en su cuenta');\r\n        }\r\n\r\n        if (_paciente.cuentaPaciente != address(0)) {\r\n            pacientes[_paciente.cuentaPaciente] = _paciente;\r\n        }\r\n\r\n        pacientesPorDoctor[msg.sender].push(_paciente);\r\n        pacientesTotalesPorDoctor[msg.sender] ++;\r\n    }\r\n\r\n    Receta private receta;\r\n\r\n    function registrarReceta(\r\n        Medico memory _medico,\r\n        Paciente memory _paciente,\r\n        string memory _diagnostico,\r\n        string memory _indicacionesExtras,\r\n        Medicina[] memory _medicinas,\r\n        uint _fechaCaducidad\r\n    ) public {\r\n\r\n        receta.id = recetas.length;\r\n        receta.tokenMedico = msg.sender;\r\n        receta.medico = _medico;\r\n        receta.paciente = _paciente;\r\n        receta.diagnostico = _diagnostico;\r\n        receta.indicacionesExtras = _indicacionesExtras;\r\n        receta.fecha = block.timestamp;\r\n        receta.fechaCaducidad = _fechaCaducidad;\r\n        for (uint j = 0; j < _medicinas.length; j++) {\r\n            receta.medicinas.push(Medicina(_medicinas[j].nombreMedicina, _medicinas[j].indicacion));\r\n        }\r\n        recetas.push(receta);\r\n        emit RecetaRegistrada(_medico.nombres, _medico.apellidos, _paciente.cuentaPaciente);\r\n    }\r\n\r\n    function getRecetasPorPaciente(address cuenta, bool isMedico)\r\n    public view returns (Receta[] memory) {\r\n        Receta[] memory recetasTemp;\r\n        for (uint i = 0; i < recetas.length; i++) {\r\n            if (isMedico ? recetas[i].tokenMedico == cuenta :\r\n            recetas[i].paciente.cuentaPaciente == cuenta) {\r\n                recetasTemp[i] = recetas[i];\r\n            }\r\n        }\r\n        return recetasTemp;\r\n    }\r\n\r\n    function eliminarReceta(uint idReceta) public {\r\n        delete recetas[idReceta];\r\n    }\r\n\r\n}\r\n",
  "sourcePath": "C:/Users/Mickmaxy/Documents/GitHub/dapp-recetas-medicas/contracts/RecetaMedica.sol",
  "compiler": {
    "name": "solc",
    "version": "0.8.4+commit.c7e474f2.Emscripten.clang"
  },
  "schemaVersion": "3.4.1",
  "updatedAt": "2021-08-05T04:59:45.413Z",
  "networkType": "ethereum",
  "devdoc": {
    "kind": "dev",
    "methods": {},
    "version": 1
  },
  "userdoc": {
    "kind": "user",
    "methods": {},
    "version": 1
  }
}