{
  "contractName": "RecetaMedica",
  "abi": [
    {
      "inputs": [],
      "stateMutability": "nonpayable",
      "type": "constructor"
    },
    {
      "anonymous": false,
      "inputs": [
        {
          "indexed": false,
          "internalType": "address",
          "name": "cuenta",
          "type": "address"
        }
      ],
      "name": "AccionReceta",
      "type": "event"
    },
    {
      "inputs": [
        {
          "internalType": "address",
          "name": "",
          "type": "address"
        }
      ],
      "name": "farmaceuticos",
      "outputs": [
        {
          "internalType": "string",
          "name": "ruc",
          "type": "string"
        },
        {
          "internalType": "string",
          "name": "nombreComercial",
          "type": "string"
        }
      ],
      "stateMutability": "view",
      "type": "function",
      "constant": true
    },
    {
      "inputs": [
        {
          "internalType": "address",
          "name": "",
          "type": "address"
        }
      ],
      "name": "medicos",
      "outputs": [
        {
          "internalType": "string",
          "name": "cedulaProfesional",
          "type": "string"
        },
        {
          "internalType": "string",
          "name": "nombres",
          "type": "string"
        },
        {
          "internalType": "string",
          "name": "apellidos",
          "type": "string"
        },
        {
          "internalType": "string",
          "name": "especialidad",
          "type": "string"
        }
      ],
      "stateMutability": "view",
      "type": "function",
      "constant": true
    },
    {
      "inputs": [
        {
          "internalType": "address",
          "name": "",
          "type": "address"
        }
      ],
      "name": "pacientes",
      "outputs": [
        {
          "internalType": "address",
          "name": "cuentaPaciente",
          "type": "address"
        },
        {
          "internalType": "string",
          "name": "cedula",
          "type": "string"
        },
        {
          "internalType": "string",
          "name": "nombres",
          "type": "string"
        },
        {
          "internalType": "string",
          "name": "apellidos",
          "type": "string"
        },
        {
          "internalType": "string",
          "name": "correo",
          "type": "string"
        },
        {
          "internalType": "string",
          "name": "celular",
          "type": "string"
        },
        {
          "internalType": "uint8",
          "name": "edad",
          "type": "uint8"
        }
      ],
      "stateMutability": "view",
      "type": "function",
      "constant": true
    },
    {
      "inputs": [
        {
          "internalType": "address",
          "name": "",
          "type": "address"
        },
        {
          "internalType": "uint256",
          "name": "",
          "type": "uint256"
        }
      ],
      "name": "pacientesPorDoctor",
      "outputs": [
        {
          "internalType": "address",
          "name": "cuentaPaciente",
          "type": "address"
        },
        {
          "internalType": "string",
          "name": "cedula",
          "type": "string"
        },
        {
          "internalType": "string",
          "name": "nombres",
          "type": "string"
        },
        {
          "internalType": "string",
          "name": "apellidos",
          "type": "string"
        },
        {
          "internalType": "string",
          "name": "correo",
          "type": "string"
        },
        {
          "internalType": "string",
          "name": "celular",
          "type": "string"
        },
        {
          "internalType": "uint8",
          "name": "edad",
          "type": "uint8"
        }
      ],
      "stateMutability": "view",
      "type": "function",
      "constant": true
    },
    {
      "inputs": [
        {
          "internalType": "address",
          "name": "",
          "type": "address"
        }
      ],
      "name": "pacientesTotalesPorDoctor",
      "outputs": [
        {
          "internalType": "uint256",
          "name": "",
          "type": "uint256"
        }
      ],
      "stateMutability": "view",
      "type": "function",
      "constant": true
    },
    {
      "inputs": [
        {
          "components": [
            {
              "internalType": "address",
              "name": "cuentaPaciente",
              "type": "address"
            },
            {
              "internalType": "string",
              "name": "cedula",
              "type": "string"
            },
            {
              "internalType": "string",
              "name": "nombres",
              "type": "string"
            },
            {
              "internalType": "string",
              "name": "apellidos",
              "type": "string"
            },
            {
              "internalType": "string",
              "name": "correo",
              "type": "string"
            },
            {
              "internalType": "string",
              "name": "celular",
              "type": "string"
            },
            {
              "internalType": "uint8",
              "name": "edad",
              "type": "uint8"
            }
          ],
          "internalType": "struct RecetaMedica.Paciente",
          "name": "_paciente",
          "type": "tuple"
        }
      ],
      "name": "registrarPaciente",
      "outputs": [],
      "stateMutability": "nonpayable",
      "type": "function"
    },
    {
      "inputs": [
        {
          "components": [
            {
              "internalType": "string",
              "name": "cedulaProfesional",
              "type": "string"
            },
            {
              "internalType": "string",
              "name": "nombres",
              "type": "string"
            },
            {
              "internalType": "string",
              "name": "apellidos",
              "type": "string"
            },
            {
              "internalType": "string",
              "name": "especialidad",
              "type": "string"
            }
          ],
          "internalType": "struct RecetaMedica.Medico",
          "name": "_medico",
          "type": "tuple"
        },
        {
          "components": [
            {
              "internalType": "address",
              "name": "cuentaPaciente",
              "type": "address"
            },
            {
              "internalType": "string",
              "name": "cedula",
              "type": "string"
            },
            {
              "internalType": "string",
              "name": "nombres",
              "type": "string"
            },
            {
              "internalType": "string",
              "name": "apellidos",
              "type": "string"
            },
            {
              "internalType": "string",
              "name": "correo",
              "type": "string"
            },
            {
              "internalType": "string",
              "name": "celular",
              "type": "string"
            },
            {
              "internalType": "uint8",
              "name": "edad",
              "type": "uint8"
            }
          ],
          "internalType": "struct RecetaMedica.Paciente",
          "name": "_paciente",
          "type": "tuple"
        },
        {
          "internalType": "string",
          "name": "_diagnostico",
          "type": "string"
        },
        {
          "internalType": "string",
          "name": "_indicacionesExtras",
          "type": "string"
        },
        {
          "components": [
            {
              "internalType": "string",
              "name": "nombreMedicina",
              "type": "string"
            },
            {
              "internalType": "string",
              "name": "indicacion",
              "type": "string"
            }
          ],
          "internalType": "struct RecetaMedica.Medicina[]",
          "name": "_medicinas",
          "type": "tuple[]"
        },
        {
          "internalType": "uint256",
          "name": "_fechaCaducidad",
          "type": "uint256"
        }
      ],
      "name": "registrarReceta",
      "outputs": [],
      "stateMutability": "nonpayable",
      "type": "function"
    },
    {
      "inputs": [
        {
          "internalType": "address",
          "name": "cuenta",
          "type": "address"
        },
        {
          "internalType": "bool",
          "name": "isMedico",
          "type": "bool"
        }
      ],
      "name": "getRecetas",
      "outputs": [
        {
          "components": [
            {
              "internalType": "uint256",
              "name": "id",
              "type": "uint256"
            },
            {
              "components": [
                {
                  "internalType": "string",
                  "name": "cedulaProfesional",
                  "type": "string"
                },
                {
                  "internalType": "string",
                  "name": "nombres",
                  "type": "string"
                },
                {
                  "internalType": "string",
                  "name": "apellidos",
                  "type": "string"
                },
                {
                  "internalType": "string",
                  "name": "especialidad",
                  "type": "string"
                }
              ],
              "internalType": "struct RecetaMedica.Medico",
              "name": "medico",
              "type": "tuple"
            },
            {
              "components": [
                {
                  "internalType": "address",
                  "name": "cuentaPaciente",
                  "type": "address"
                },
                {
                  "internalType": "string",
                  "name": "cedula",
                  "type": "string"
                },
                {
                  "internalType": "string",
                  "name": "nombres",
                  "type": "string"
                },
                {
                  "internalType": "string",
                  "name": "apellidos",
                  "type": "string"
                },
                {
                  "internalType": "string",
                  "name": "correo",
                  "type": "string"
                },
                {
                  "internalType": "string",
                  "name": "celular",
                  "type": "string"
                },
                {
                  "internalType": "uint8",
                  "name": "edad",
                  "type": "uint8"
                }
              ],
              "internalType": "struct RecetaMedica.Paciente",
              "name": "paciente",
              "type": "tuple"
            },
            {
              "internalType": "string",
              "name": "diagnostico",
              "type": "string"
            },
            {
              "internalType": "string",
              "name": "indicacionesExtras",
              "type": "string"
            },
            {
              "components": [
                {
                  "internalType": "string",
                  "name": "nombreMedicina",
                  "type": "string"
                },
                {
                  "internalType": "string",
                  "name": "indicacion",
                  "type": "string"
                }
              ],
              "internalType": "struct RecetaMedica.Medicina[]",
              "name": "medicinas",
              "type": "tuple[]"
            },
            {
              "internalType": "uint256",
              "name": "fecha",
              "type": "uint256"
            },
            {
              "internalType": "uint256",
              "name": "fechaCaducidad",
              "type": "uint256"
            },
            {
              "internalType": "address",
              "name": "tokenMedico",
              "type": "address"
            },
            {
              "internalType": "bool",
              "name": "isDespachado",
              "type": "bool"
            }
          ],
          "internalType": "struct RecetaMedica.Receta[]",
          "name": "",
          "type": "tuple[]"
        }
      ],
      "stateMutability": "view",
      "type": "function",
      "constant": true
    },
    {
      "inputs": [
        {
          "internalType": "address",
          "name": "cuentaFarmacia",
          "type": "address"
        }
      ],
      "name": "getRecetasFarmaceutico",
      "outputs": [
        {
          "components": [
            {
              "internalType": "uint256",
              "name": "id",
              "type": "uint256"
            },
            {
              "components": [
                {
                  "internalType": "string",
                  "name": "cedulaProfesional",
                  "type": "string"
                },
                {
                  "internalType": "string",
                  "name": "nombres",
                  "type": "string"
                },
                {
                  "internalType": "string",
                  "name": "apellidos",
                  "type": "string"
                },
                {
                  "internalType": "string",
                  "name": "especialidad",
                  "type": "string"
                }
              ],
              "internalType": "struct RecetaMedica.Medico",
              "name": "medico",
              "type": "tuple"
            },
            {
              "components": [
                {
                  "internalType": "address",
                  "name": "cuentaPaciente",
                  "type": "address"
                },
                {
                  "internalType": "string",
                  "name": "cedula",
                  "type": "string"
                },
                {
                  "internalType": "string",
                  "name": "nombres",
                  "type": "string"
                },
                {
                  "internalType": "string",
                  "name": "apellidos",
                  "type": "string"
                },
                {
                  "internalType": "string",
                  "name": "correo",
                  "type": "string"
                },
                {
                  "internalType": "string",
                  "name": "celular",
                  "type": "string"
                },
                {
                  "internalType": "uint8",
                  "name": "edad",
                  "type": "uint8"
                }
              ],
              "internalType": "struct RecetaMedica.Paciente",
              "name": "paciente",
              "type": "tuple"
            },
            {
              "internalType": "string",
              "name": "diagnostico",
              "type": "string"
            },
            {
              "internalType": "string",
              "name": "indicacionesExtras",
              "type": "string"
            },
            {
              "components": [
                {
                  "internalType": "string",
                  "name": "nombreMedicina",
                  "type": "string"
                },
                {
                  "internalType": "string",
                  "name": "indicacion",
                  "type": "string"
                }
              ],
              "internalType": "struct RecetaMedica.Medicina[]",
              "name": "medicinas",
              "type": "tuple[]"
            },
            {
              "internalType": "uint256",
              "name": "fecha",
              "type": "uint256"
            },
            {
              "internalType": "uint256",
              "name": "fechaCaducidad",
              "type": "uint256"
            },
            {
              "internalType": "address",
              "name": "tokenMedico",
              "type": "address"
            },
            {
              "internalType": "bool",
              "name": "isDespachado",
              "type": "bool"
            }
          ],
          "internalType": "struct RecetaMedica.Receta[]",
          "name": "",
          "type": "tuple[]"
        }
      ],
      "stateMutability": "view",
      "type": "function",
      "constant": true
    },
    {
      "inputs": [
        {
          "internalType": "uint256",
          "name": "idReceta",
          "type": "uint256"
        }
      ],
      "name": "eliminarReceta",
      "outputs": [],
      "stateMutability": "nonpayable",
      "type": "function"
    },
    {
      "inputs": [
        {
          "internalType": "uint256",
          "name": "idReceta",
          "type": "uint256"
        }
      ],
      "name": "despacharReceta",
      "outputs": [],
      "stateMutability": "nonpayable",
      "type": "function"
    }
  ],
  "bytecode": "0x60806040523480156200001157600080fd5b5060405180608001604052806040518060400160405280600d81526020017f31352d303135323439383435330000000000000000000000000000000000000081525081526020016040518060400160405280600e81526020017f4f73636172205265796e616c646f00000000000000000000000000000000000081525081526020016040518060400160405280600581526020017f506572657a00000000000000000000000000000000000000000000000000000081525081526020016040518060400160405280600781526020017f47656e6572616c00000000000000000000000000000000000000000000000000815250815250600080730df3c5e1e60a27f02d9d0ff8730c99a73d924fc373ffffffffffffffffffffffffffffffffffffffff1673ffffffffffffffffffffffffffffffffffffffff168152602001908152602001600020600082015181600001908051906020019062000177929190620004b7565b50602082015181600101908051906020019062000196929190620004b7565b506040820151816002019080519060200190620001b5929190620004b7565b506060820151816003019080519060200190620001d4929190620004b7565b5090505060405180608001604052806040518060400160405280600d81526020017f32312d353435313235343438340000000000000000000000000000000000000081525081526020016040518060400160405280601081526020017f53696c76696520416c656a616e6472610000000000000000000000000000000081525081526020016040518060400160405280600881526020017f436576616c6c6f7300000000000000000000000000000000000000000000000081525081526020016040518060400160405280600d81526020017f547261756d6174c3b36c6f676f0000000000000000000000000000000000000081525081525060008073f5b223a069ebfdc5d491b94fb50c8be0b063cb6573ffffffffffffffffffffffffffffffffffffffff1673ffffffffffffffffffffffffffffffffffffffff16815260200190815260200160002060008201518160000190805190602001906200033d929190620004b7565b5060208201518160010190805190602001906200035c929190620004b7565b5060408201518160020190805190602001906200037b929190620004b7565b5060608201518160030190805190602001906200039a929190620004b7565b5090505060405180604001604052806040518060400160405280600f81526020017f313233343536373839313031313132000000000000000000000000000000000081525081526020016040518060400160405280600981526020017f4372757a20417a756c0000000000000000000000000000000000000000000000815250815250600560007325fa2c9be8c5653776398a0eafcf5fc284f50c5773ffffffffffffffffffffffffffffffffffffffff1673ffffffffffffffffffffffffffffffffffffffff16815260200190815260200160002060008201518160000190805190602001906200048e929190620004b7565b506020820151816001019080519060200190620004ad929190620004b7565b50905050620005cc565b828054620004c59062000567565b90600052602060002090601f016020900481019282620004e9576000855562000535565b82601f106200050457805160ff191683800117855562000535565b8280016001018555821562000535579182015b828111156200053457825182559160200191906001019062000517565b5b50905062000544919062000548565b5090565b5b808211156200056357600081600090555060010162000549565b5090565b600060028204905060018216806200058057607f821691505b602082108114156200059757620005966200059d565b5b50919050565b7f4e487b7100000000000000000000000000000000000000000000000000000000600052602260045260246000fd5b6144ed80620005dc6000396000f3fe608060405234801561001057600080fd5b50600436106100a95760003560e01c80639fa6d164116100715780639fa6d16414610194578063b181a8bf146101c4578063bc14b7dc146101e0578063bf66b8c114610216578063d2de662214610246578063eaf3856214610262576100a9565b80630afe59e1146100ae5780634dfa1864146100ca578063604e0c19146100fd578063764b78e21461012e5780637d10d47114610164575b600080fd5b6100c860048036038101906100c391906138ed565b61027e565b005b6100e460048036038101906100df9190613727565b6107c2565b6040516100f49493929190613ff9565b60405180910390f35b61011760048036038101906101129190613727565b610a12565b604051610125929190613fc2565b60405180910390f35b61014860048036038101906101439190613794565b610b46565b60405161015b9796959493929190613f0e565b60405180910390f35b61017e60048036038101906101799190613727565b610e7a565b60405161018b919061407a565b60405180910390f35b6101ae60048036038101906101a99190613727565b610e92565b6040516101bb9190613fa0565b60405180910390f35b6101de60048036038101906101d99190613936565b611886565b005b6101fa60048036038101906101f59190613727565b6118fe565b60405161020d9796959493929190613f0e565b60405180910390f35b610230600480360381019061022b9190613754565b611c15565b60405161023d9190613fa0565b60405180910390f35b610260600480360381019061025b9190613936565b61279e565b005b61027c600480360381019061027791906137d4565b612959565b005b60005b600460003373ffffffffffffffffffffffffffffffffffffffff1673ffffffffffffffffffffffffffffffffffffffff1681526020019081526020016000205481101561048c57816000015173ffffffffffffffffffffffffffffffffffffffff16600360003373ffffffffffffffffffffffffffffffffffffffff1673ffffffffffffffffffffffffffffffffffffffff168152602001908152602001600020828154811061033457610333614377565b5b906000526020600020906007020160000160009054906101000a900473ffffffffffffffffffffffffffffffffffffffff1673ffffffffffffffffffffffffffffffffffffffff16148015610439575081602001516040516020016103999190613eb0565b60405160208183030381529060405280519060200120600360003373ffffffffffffffffffffffffffffffffffffffff1673ffffffffffffffffffffffffffffffffffffffff1681526020019081526020016000208281548110610400576103ff614377565b5b90600052602060002090600702016001016040516020016104219190613ec7565b60405160208183030381529060405280519060200120145b15610479576040517f08c379a00000000000000000000000000000000000000000000000000000000081526004016104709061405a565b60405180910390fd5b8080610484906142d0565b915050610281565b50600073ffffffffffffffffffffffffffffffffffffffff16816000015173ffffffffffffffffffffffffffffffffffffffff1614610606578060016000836000015173ffffffffffffffffffffffffffffffffffffffff1673ffffffffffffffffffffffffffffffffffffffff16815260200190815260200160002060008201518160000160006101000a81548173ffffffffffffffffffffffffffffffffffffffff021916908373ffffffffffffffffffffffffffffffffffffffff160217905550602082015181600101908051906020019061056c929190612f9f565b506040820151816002019080519060200190610589929190612f9f565b5060608201518160030190805190602001906105a6929190612f9f565b5060808201518160040190805190602001906105c3929190612f9f565b5060a08201518160050190805190602001906105e0929190612f9f565b5060c08201518160060160006101000a81548160ff021916908360ff1602179055509050505b600360003373ffffffffffffffffffffffffffffffffffffffff1673ffffffffffffffffffffffffffffffffffffffff16815260200190815260200160002081908060018154018082558091505060019003906000526020600020906007020160009091909190915060008201518160000160006101000a81548173ffffffffffffffffffffffffffffffffffffffff021916908373ffffffffffffffffffffffffffffffffffffffff16021790555060208201518160010190805190602001906106d2929190612f9f565b5060408201518160020190805190602001906106ef929190612f9f565b50606082015181600301908051906020019061070c929190612f9f565b506080820151816004019080519060200190610729929190612f9f565b5060a0820151816005019080519060200190610746929190612f9f565b5060c08201518160060160006101000a81548160ff021916908360ff1602179055505050600460003373ffffffffffffffffffffffffffffffffffffffff1673ffffffffffffffffffffffffffffffffffffffff16815260200190815260200160002060008154809291906107ba906142d0565b919050555050565b60006020528060005260406000206000915090508060000180546107e59061426d565b80601f01602080910402602001604051908101604052809291908181526020018280546108119061426d565b801561085e5780601f106108335761010080835404028352916020019161085e565b820191906000526020600020905b81548152906001019060200180831161084157829003601f168201915b5050505050908060010180546108739061426d565b80601f016020809104026020016040519081016040528092919081815260200182805461089f9061426d565b80156108ec5780601f106108c1576101008083540402835291602001916108ec565b820191906000526020600020905b8154815290600101906020018083116108cf57829003601f168201915b5050505050908060020180546109019061426d565b80601f016020809104026020016040519081016040528092919081815260200182805461092d9061426d565b801561097a5780601f1061094f5761010080835404028352916020019161097a565b820191906000526020600020905b81548152906001019060200180831161095d57829003601f168201915b50505050509080600301805461098f9061426d565b80601f01602080910402602001604051908101604052809291908181526020018280546109bb9061426d565b8015610a085780601f106109dd57610100808354040283529160200191610a08565b820191906000526020600020905b8154815290600101906020018083116109eb57829003601f168201915b5050505050905084565b6005602052806000526040600020600091509050806000018054610a359061426d565b80601f0160208091040260200160405190810160405280929190818152602001828054610a619061426d565b8015610aae5780601f10610a8357610100808354040283529160200191610aae565b820191906000526020600020905b815481529060010190602001808311610a9157829003601f168201915b505050505090806001018054610ac39061426d565b80601f0160208091040260200160405190810160405280929190818152602001828054610aef9061426d565b8015610b3c5780601f10610b1157610100808354040283529160200191610b3c565b820191906000526020600020905b815481529060010190602001808311610b1f57829003601f168201915b5050505050905082565b60036020528160005260406000208181548110610b6257600080fd5b9060005260206000209060070201600091509150508060000160009054906101000a900473ffffffffffffffffffffffffffffffffffffffff1690806001018054610bac9061426d565b80601f0160208091040260200160405190810160405280929190818152602001828054610bd89061426d565b8015610c255780601f10610bfa57610100808354040283529160200191610c25565b820191906000526020600020905b815481529060010190602001808311610c0857829003601f168201915b505050505090806002018054610c3a9061426d565b80601f0160208091040260200160405190810160405280929190818152602001828054610c669061426d565b8015610cb35780601f10610c8857610100808354040283529160200191610cb3565b820191906000526020600020905b815481529060010190602001808311610c9657829003601f168201915b505050505090806003018054610cc89061426d565b80601f0160208091040260200160405190810160405280929190818152602001828054610cf49061426d565b8015610d415780601f10610d1657610100808354040283529160200191610d41565b820191906000526020600020905b815481529060010190602001808311610d2457829003601f168201915b505050505090806004018054610d569061426d565b80601f0160208091040260200160405190810160405280929190818152602001828054610d829061426d565b8015610dcf5780601f10610da457610100808354040283529160200191610dcf565b820191906000526020600020905b815481529060010190602001808311610db257829003601f168201915b505050505090806005018054610de49061426d565b80601f0160208091040260200160405190810160405280929190818152602001828054610e109061426d565b8015610e5d5780601f10610e3257610100808354040283529160200191610e5d565b820191906000526020600020905b815481529060010190602001808311610e4057829003601f168201915b5050505050908060060160009054906101000a900460ff16905087565b60046020528060005260406000206000915090505481565b606080604051602001610ea490613ede565b60405160208183030381529060405280519060200120600560008573ffffffffffffffffffffffffffffffffffffffff1673ffffffffffffffffffffffffffffffffffffffff168152602001908152602001600020600001604051602001610f0c9190613ec7565b604051602081830303815290604052805190602001201415610f315780915050611881565b6002805480602002602001604051908101604052809291908181526020016000905b828210156118795783829060005260206000209060120201604051806101400160405290816000820154815260200160018201604051806080016040529081600082018054610fa19061426d565b80601f0160208091040260200160405190810160405280929190818152602001828054610fcd9061426d565b801561101a5780601f10610fef5761010080835404028352916020019161101a565b820191906000526020600020905b815481529060010190602001808311610ffd57829003601f168201915b505050505081526020016001820180546110339061426d565b80601f016020809104026020016040519081016040528092919081815260200182805461105f9061426d565b80156110ac5780601f10611081576101008083540402835291602001916110ac565b820191906000526020600020905b81548152906001019060200180831161108f57829003601f168201915b505050505081526020016002820180546110c59061426d565b80601f01602080910402602001604051908101604052809291908181526020018280546110f19061426d565b801561113e5780601f106111135761010080835404028352916020019161113e565b820191906000526020600020905b81548152906001019060200180831161112157829003601f168201915b505050505081526020016003820180546111579061426d565b80601f01602080910402602001604051908101604052809291908181526020018280546111839061426d565b80156111d05780601f106111a5576101008083540402835291602001916111d0565b820191906000526020600020905b8154815290600101906020018083116111b357829003601f168201915b5050505050815250508152602001600582016040518060e00160405290816000820160009054906101000a900473ffffffffffffffffffffffffffffffffffffffff1673ffffffffffffffffffffffffffffffffffffffff1673ffffffffffffffffffffffffffffffffffffffff1681526020016001820180546112539061426d565b80601f016020809104026020016040519081016040528092919081815260200182805461127f9061426d565b80156112cc5780601f106112a1576101008083540402835291602001916112cc565b820191906000526020600020905b8154815290600101906020018083116112af57829003601f168201915b505050505081526020016002820180546112e59061426d565b80601f01602080910402602001604051908101604052809291908181526020018280546113119061426d565b801561135e5780601f106113335761010080835404028352916020019161135e565b820191906000526020600020905b81548152906001019060200180831161134157829003601f168201915b505050505081526020016003820180546113779061426d565b80601f01602080910402602001604051908101604052809291908181526020018280546113a39061426d565b80156113f05780601f106113c5576101008083540402835291602001916113f0565b820191906000526020600020905b8154815290600101906020018083116113d357829003601f168201915b505050505081526020016004820180546114099061426d565b80601f01602080910402602001604051908101604052809291908181526020018280546114359061426d565b80156114825780601f1061145757610100808354040283529160200191611482565b820191906000526020600020905b81548152906001019060200180831161146557829003601f168201915b5050505050815260200160058201805461149b9061426d565b80601f01602080910402602001604051908101604052809291908181526020018280546114c79061426d565b80156115145780601f106114e957610100808354040283529160200191611514565b820191906000526020600020905b8154815290600101906020018083116114f757829003601f168201915b505050505081526020016006820160009054906101000a900460ff1660ff1660ff16815250508152602001600c8201805461154e9061426d565b80601f016020809104026020016040519081016040528092919081815260200182805461157a9061426d565b80156115c75780601f1061159c576101008083540402835291602001916115c7565b820191906000526020600020905b8154815290600101906020018083116115aa57829003601f168201915b50505050508152602001600d820180546115e09061426d565b80601f016020809104026020016040519081016040528092919081815260200182805461160c9061426d565b80156116595780601f1061162e57610100808354040283529160200191611659565b820191906000526020600020905b81548152906001019060200180831161163c57829003601f168201915b50505050508152602001600e8201805480602002602001604051908101604052809291908181526020016000905b828210156117dd57838290600052602060002090600202016040518060400160405290816000820180546116ba9061426d565b80601f01602080910402602001604051908101604052809291908181526020018280546116e69061426d565b80156117335780601f1061170857610100808354040283529160200191611733565b820191906000526020600020905b81548152906001019060200180831161171657829003601f168201915b5050505050815260200160018201805461174c9061426d565b80601f01602080910402602001604051908101604052809291908181526020018280546117789061426d565b80156117c55780601f1061179a576101008083540402835291602001916117c5565b820191906000526020600020905b8154815290600101906020018083116117a857829003601f168201915b50505050508152505081526020019060010190611687565b505050508152602001600f8201548152602001601082015481526020016011820160009054906101000a900473ffffffffffffffffffffffffffffffffffffffff1673ffffffffffffffffffffffffffffffffffffffff1673ffffffffffffffffffffffffffffffffffffffff1681526020016011820160149054906101000a900460ff16151515158152505081526020019060010190610f53565b505050509150505b919050565b60016002828154811061189c5761189b614377565b5b906000526020600020906012020160110160146101000a81548160ff0219169083151502179055507fb14778f7ccb6cbbc01c9e20d97617cc648837df9cf060feaa2eaa9d2216a3b06336040516118f39190613ef3565b60405180910390a150565b60016020528060005260406000206000915090508060000160009054906101000a900473ffffffffffffffffffffffffffffffffffffffff16908060010180546119479061426d565b80601f01602080910402602001604051908101604052809291908181526020018280546119739061426d565b80156119c05780601f10611995576101008083540402835291602001916119c0565b820191906000526020600020905b8154815290600101906020018083116119a357829003601f168201915b5050505050908060020180546119d59061426d565b80601f0160208091040260200160405190810160405280929190818152602001828054611a019061426d565b8015611a4e5780601f10611a2357610100808354040283529160200191611a4e565b820191906000526020600020905b815481529060010190602001808311611a3157829003601f168201915b505050505090806003018054611a639061426d565b80601f0160208091040260200160405190810160405280929190818152602001828054611a8f9061426d565b8015611adc5780601f10611ab157610100808354040283529160200191611adc565b820191906000526020600020905b815481529060010190602001808311611abf57829003601f168201915b505050505090806004018054611af19061426d565b80601f0160208091040260200160405190810160405280929190818152602001828054611b1d9061426d565b8015611b6a5780601f10611b3f57610100808354040283529160200191611b6a565b820191906000526020600020905b815481529060010190602001808311611b4d57829003601f168201915b505050505090806005018054611b7f9061426d565b80601f0160208091040260200160405190810160405280929190818152602001828054611bab9061426d565b8015611bf85780601f10611bcd57610100808354040283529160200191611bf8565b820191906000526020600020905b815481529060010190602001808311611bdb57829003601f168201915b5050505050908060060160009054906101000a900460ff16905087565b6060600060028054905067ffffffffffffffff811115611c3857611c376143a6565b5b604051908082528060200260200182016040528015611c7157816020015b611c5e613025565b815260200190600190039081611c565790505b5090506000805b6002805490508110156126e15784611d06578573ffffffffffffffffffffffffffffffffffffffff1660028281548110611cb557611cb4614377565b5b906000526020600020906012020160050160000160009054906101000a900473ffffffffffffffffffffffffffffffffffffffff1673ffffffffffffffffffffffffffffffffffffffff1614611d7b565b8573ffffffffffffffffffffffffffffffffffffffff1660028281548110611d3157611d30614377565b5b906000526020600020906012020160110160009054906101000a900473ffffffffffffffffffffffffffffffffffffffff1673ffffffffffffffffffffffffffffffffffffffff16145b156126ce5760028181548110611d9457611d93614377565b5b9060005260206000209060120201604051806101400160405290816000820154815260200160018201604051806080016040529081600082018054611dd89061426d565b80601f0160208091040260200160405190810160405280929190818152602001828054611e049061426d565b8015611e515780601f10611e2657610100808354040283529160200191611e51565b820191906000526020600020905b815481529060010190602001808311611e3457829003601f168201915b50505050508152602001600182018054611e6a9061426d565b80601f0160208091040260200160405190810160405280929190818152602001828054611e969061426d565b8015611ee35780601f10611eb857610100808354040283529160200191611ee3565b820191906000526020600020905b815481529060010190602001808311611ec657829003601f168201915b50505050508152602001600282018054611efc9061426d565b80601f0160208091040260200160405190810160405280929190818152602001828054611f289061426d565b8015611f755780601f10611f4a57610100808354040283529160200191611f75565b820191906000526020600020905b815481529060010190602001808311611f5857829003601f168201915b50505050508152602001600382018054611f8e9061426d565b80601f0160208091040260200160405190810160405280929190818152602001828054611fba9061426d565b80156120075780601f10611fdc57610100808354040283529160200191612007565b820191906000526020600020905b815481529060010190602001808311611fea57829003601f168201915b5050505050815250508152602001600582016040518060e00160405290816000820160009054906101000a900473ffffffffffffffffffffffffffffffffffffffff1673ffffffffffffffffffffffffffffffffffffffff1673ffffffffffffffffffffffffffffffffffffffff16815260200160018201805461208a9061426d565b80601f01602080910402602001604051908101604052809291908181526020018280546120b69061426d565b80156121035780601f106120d857610100808354040283529160200191612103565b820191906000526020600020905b8154815290600101906020018083116120e657829003601f168201915b5050505050815260200160028201805461211c9061426d565b80601f01602080910402602001604051908101604052809291908181526020018280546121489061426d565b80156121955780601f1061216a57610100808354040283529160200191612195565b820191906000526020600020905b81548152906001019060200180831161217857829003601f168201915b505050505081526020016003820180546121ae9061426d565b80601f01602080910402602001604051908101604052809291908181526020018280546121da9061426d565b80156122275780601f106121fc57610100808354040283529160200191612227565b820191906000526020600020905b81548152906001019060200180831161220a57829003601f168201915b505050505081526020016004820180546122409061426d565b80601f016020809104026020016040519081016040528092919081815260200182805461226c9061426d565b80156122b95780601f1061228e576101008083540402835291602001916122b9565b820191906000526020600020905b81548152906001019060200180831161229c57829003601f168201915b505050505081526020016005820180546122d29061426d565b80601f01602080910402602001604051908101604052809291908181526020018280546122fe9061426d565b801561234b5780601f106123205761010080835404028352916020019161234b565b820191906000526020600020905b81548152906001019060200180831161232e57829003601f168201915b505050505081526020016006820160009054906101000a900460ff1660ff1660ff16815250508152602001600c820180546123859061426d565b80601f01602080910402602001604051908101604052809291908181526020018280546123b19061426d565b80156123fe5780601f106123d3576101008083540402835291602001916123fe565b820191906000526020600020905b8154815290600101906020018083116123e157829003601f168201915b50505050508152602001600d820180546124179061426d565b80601f01602080910402602001604051908101604052809291908181526020018280546124439061426d565b80156124905780601f1061246557610100808354040283529160200191612490565b820191906000526020600020905b81548152906001019060200180831161247357829003601f168201915b50505050508152602001600e8201805480602002602001604051908101604052809291908181526020016000905b8282101561261457838290600052602060002090600202016040518060400160405290816000820180546124f19061426d565b80601f016020809104026020016040519081016040528092919081815260200182805461251d9061426d565b801561256a5780601f1061253f5761010080835404028352916020019161256a565b820191906000526020600020905b81548152906001019060200180831161254d57829003601f168201915b505050505081526020016001820180546125839061426d565b80601f01602080910402602001604051908101604052809291908181526020018280546125af9061426d565b80156125fc5780601f106125d1576101008083540402835291602001916125fc565b820191906000526020600020905b8154815290600101906020018083116125df57829003601f168201915b505050505081525050815260200190600101906124be565b505050508152602001600f8201548152602001601082015481526020016011820160009054906101000a900473ffffffffffffffffffffffffffffffffffffffff1673ffffffffffffffffffffffffffffffffffffffff1673ffffffffffffffffffffffffffffffffffffffff1681526020016011820160149054906101000a900460ff1615151515815250508383815181106126b4576126b3614377565b5b602002602001018190525081806126ca906142d0565b9250505b80806126d9906142d0565b915050611c78565b5060008167ffffffffffffffff8111156126fe576126fd6143a6565b5b60405190808252806020026020018201604052801561273757816020015b612724613025565b81526020019060019003908161271c5790505b50905060005b828110156127915783818151811061275857612757614377565b5b602002602001015182828151811061277357612772614377565b5b60200260200101819052508080612789906142d0565b91505061273d565b5080935050505092915050565b600281815481106127b2576127b1614377565b5b906000526020600020906012020160008082016000905560018201600080820160006127de919061309c565b6001820160006127ee919061309c565b6002820160006127fe919061309c565b60038201600061280e919061309c565b505060058201600080820160006101000a81549073ffffffffffffffffffffffffffffffffffffffff021916905560018201600061284c919061309c565b60028201600061285c919061309c565b60038201600061286c919061309c565b60048201600061287c919061309c565b60058201600061288c919061309c565b6006820160006101000a81549060ff02191690555050600c820160006128b2919061309c565b600d820160006128c2919061309c565b600e820160006128d291906130dc565b600f82016000905560108201600090556011820160006101000a81549073ffffffffffffffffffffffffffffffffffffffff02191690556011820160146101000a81549060ff021916905550507fb14778f7ccb6cbbc01c9e20d97617cc648837df9cf060feaa2eaa9d2216a3b063360405161294e9190613ef3565b60405180910390a150565b60028054905060066000018190555033600660110160006101000a81548173ffffffffffffffffffffffffffffffffffffffff021916908373ffffffffffffffffffffffffffffffffffffffff16021790555085600660010160008201518160000190805190602001906129ce929190612f9f565b5060208201518160010190805190602001906129eb929190612f9f565b506040820151816002019080519060200190612a08929190612f9f565b506060820151816003019080519060200190612a25929190612f9f565b5090505084600660050160008201518160000160006101000a81548173ffffffffffffffffffffffffffffffffffffffff021916908373ffffffffffffffffffffffffffffffffffffffff1602179055506020820151816001019080519060200190612a92929190612f9f565b506040820151816002019080519060200190612aaf929190612f9f565b506060820151816003019080519060200190612acc929190612f9f565b506080820151816004019080519060200190612ae9929190612f9f565b5060a0820151816005019080519060200190612b06929190612f9f565b5060c08201518160060160006101000a81548160ff021916908360ff160217905550905050836006600c019080519060200190612b44929190612f9f565b50826006600d019080519060200190612b5e929190612f9f565b50426006600f0181905550806006601001819055506006600e016000612b8491906130dc565b60005b8251811015612c5e576006600e016040518060400160405280858481518110612bb357612bb2614377565b5b6020026020010151600001518152602001858481518110612bd757612bd6614377565b5b60200260200101516020015181525090806001815401808255809150506001900390600052602060002090600202016000909190919091506000820151816000019080519060200190612c2b929190612f9f565b506020820151816001019080519060200190612c48929190612f9f565b5050508080612c56906142d0565b915050612b87565b506002600690806001815401808255809150506001900390600052602060002090601202016000909190919091506000820154816000015560018201816001016000820181600001908054612cb29061426d565b612cbd929190613100565b506001820181600101908054612cd29061426d565b612cdd929190613100565b506002820181600201908054612cf29061426d565b612cfd929190613100565b506003820181600301908054612d129061426d565b612d1d929190613100565b50505060058201816005016000820160009054906101000a900473ffffffffffffffffffffffffffffffffffffffff168160000160006101000a81548173ffffffffffffffffffffffffffffffffffffffff021916908373ffffffffffffffffffffffffffffffffffffffff1602179055506001820181600101908054612da39061426d565b612dae929190613100565b506002820181600201908054612dc39061426d565b612dce929190613100565b506003820181600301908054612de39061426d565b612dee929190613100565b506004820181600401908054612e039061426d565b612e0e929190613100565b506005820181600501908054612e239061426d565b612e2e929190613100565b506006820160009054906101000a900460ff168160060160006101000a81548160ff021916908360ff1602179055505050600c820181600c01908054612e739061426d565b612e7e929190613100565b50600d820181600d01908054612e939061426d565b612e9e929190613100565b50600e820181600e01908054612eb592919061318d565b50600f82015481600f0155601082015481601001556011820160009054906101000a900473ffffffffffffffffffffffffffffffffffffffff168160110160006101000a81548173ffffffffffffffffffffffffffffffffffffffff021916908373ffffffffffffffffffffffffffffffffffffffff1602179055506011820160149054906101000a900460ff168160110160146101000a81548160ff02191690831515021790555050507fb14778f7ccb6cbbc01c9e20d97617cc648837df9cf060feaa2eaa9d2216a3b0633604051612f8f9190613ef3565b60405180910390a1505050505050565b828054612fab9061426d565b90600052602060002090601f016020900481019282612fcd5760008555613014565b82601f10612fe657805160ff1916838001178555613014565b82800160010185558215613014579182015b82811115613013578251825591602001919060010190612ff8565b5b5090506130219190613225565b5090565b60405180610140016040528060008152602001613040613242565b815260200161304d61326a565b81526020016060815260200160608152602001606081526020016000815260200160008152602001600073ffffffffffffffffffffffffffffffffffffffff1681526020016000151581525090565b5080546130a89061426d565b6000825580601f106130ba57506130d9565b601f0160209004906000526020600020908101906130d89190613225565b5b50565b50805460008255600202906000526020600020908101906130fd91906132c0565b50565b82805461310c9061426d565b90600052602060002090601f01602090048101928261312e576000855561317c565b82601f1061313f578054855561317c565b8280016001018555821561317c57600052602060002091601f016020900482015b8281111561317b578254825591600101919060010190613160565b5b5090506131899190613225565b5090565b8280548282559060005260206000209060020281019282156132145760005260206000209160020282015b8281111561321357828260008201816000019080546131d69061426d565b6131e1929190613100565b5060018201816001019080546131f69061426d565b613201929190613100565b505050916002019190600201906131b8565b5b50905061322191906132c0565b5090565b5b8082111561323e576000816000905550600101613226565b5090565b6040518060800160405280606081526020016060815260200160608152602001606081525090565b6040518060e00160405280600073ffffffffffffffffffffffffffffffffffffffff1681526020016060815260200160608152602001606081526020016060815260200160608152602001600060ff1681525090565b5b808211156132f357600080820160006132da919061309c565b6001820160006132ea919061309c565b506002016132c1565b5090565b600061330a613305846140ba565b614095565b9050808382526020820190508285602086028201111561332d5761332c6143e4565b5b60005b8581101561337b57813567ffffffffffffffff811115613353576133526143d5565b5b808601613360898261344d565b85526020850194506020840193505050600181019050613330565b5050509392505050565b6000613398613393846140e6565b614095565b9050828152602081018484840111156133b4576133b36143e9565b5b6133bf84828561422b565b509392505050565b6000813590506133d68161445b565b92915050565b600082601f8301126133f1576133f06143d5565b5b81356134018482602086016132f7565b91505092915050565b60008135905061341981614472565b92915050565b600082601f830112613434576134336143d5565b5b8135613444848260208601613385565b91505092915050565b600060408284031215613463576134626143da565b5b61346d6040614095565b9050600082013567ffffffffffffffff81111561348d5761348c6143df565b5b6134998482850161341f565b600083015250602082013567ffffffffffffffff8111156134bd576134bc6143df565b5b6134c98482850161341f565b60208301525092915050565b6000608082840312156134eb576134ea6143da565b5b6134f56080614095565b9050600082013567ffffffffffffffff811115613515576135146143df565b5b6135218482850161341f565b600083015250602082013567ffffffffffffffff811115613545576135446143df565b5b6135518482850161341f565b602083015250604082013567ffffffffffffffff811115613575576135746143df565b5b6135818482850161341f565b604083015250606082013567ffffffffffffffff8111156135a5576135a46143df565b5b6135b18482850161341f565b60608301525092915050565b600060e082840312156135d3576135d26143da565b5b6135dd60e0614095565b905060006135ed848285016133c7565b600083015250602082013567ffffffffffffffff811115613611576136106143df565b5b61361d8482850161341f565b602083015250604082013567ffffffffffffffff811115613641576136406143df565b5b61364d8482850161341f565b604083015250606082013567ffffffffffffffff811115613671576136706143df565b5b61367d8482850161341f565b606083015250608082013567ffffffffffffffff8111156136a1576136a06143df565b5b6136ad8482850161341f565b60808301525060a082013567ffffffffffffffff8111156136d1576136d06143df565b5b6136dd8482850161341f565b60a08301525060c06136f184828501613712565b60c08301525092915050565b60008135905061370c81614489565b92915050565b600081359050613721816144a0565b92915050565b60006020828403121561373d5761373c6143f3565b5b600061374b848285016133c7565b91505092915050565b6000806040838503121561376b5761376a6143f3565b5b6000613779858286016133c7565b925050602061378a8582860161340a565b9150509250929050565b600080604083850312156137ab576137aa6143f3565b5b60006137b9858286016133c7565b92505060206137ca858286016136fd565b9150509250929050565b60008060008060008060c087890312156137f1576137f06143f3565b5b600087013567ffffffffffffffff81111561380f5761380e6143ee565b5b61381b89828a016134d5565b965050602087013567ffffffffffffffff81111561383c5761383b6143ee565b5b61384889828a016135bd565b955050604087013567ffffffffffffffff811115613869576138686143ee565b5b61387589828a0161341f565b945050606087013567ffffffffffffffff811115613896576138956143ee565b5b6138a289828a0161341f565b935050608087013567ffffffffffffffff8111156138c3576138c26143ee565b5b6138cf89828a016133dc565b92505060a06138e089828a016136fd565b9150509295509295509295565b600060208284031215613903576139026143f3565b5b600082013567ffffffffffffffff811115613921576139206143ee565b5b61392d848285016135bd565b91505092915050565b60006020828403121561394c5761394b6143f3565b5b600061395a848285016136fd565b91505092915050565b600061396f8383613c0a565b905092915050565b60006139838383613d7e565b905092915050565b613994816141d6565b82525050565b6139a3816141d6565b82525050565b60006139b48261414c565b6139be8185614187565b9350836020820285016139d085614117565b8060005b85811015613a0c57848403895281516139ed8582613963565b94506139f88361416d565b925060208a019950506001810190506139d4565b50829750879550505050505092915050565b6000613a2982614157565b613a338185614198565b935083602082028501613a4585614127565b8060005b85811015613a815784840389528151613a628582613977565b9450613a6d8361417a565b925060208a01995050600181019050613a49565b50829750879550505050505092915050565b613a9c816141e8565b82525050565b6000613aad82614162565b613ab781856141a9565b9350613ac781856020860161423a565b613ad0816143f8565b840191505092915050565b6000613ae682614162565b613af081856141ba565b9350613b0081856020860161423a565b613b09816143f8565b840191505092915050565b6000613b1f82614162565b613b2981856141cb565b9350613b3981856020860161423a565b80840191505092915050565b60008154613b528161426d565b613b5c81866141cb565b94506001821660008114613b775760018114613b8857613bbb565b60ff19831686528186019350613bbb565b613b9185614137565b60005b83811015613bb357815481890152600182019150602081019050613b94565b838801955050505b50505092915050565b6000613bd1602e836141ba565b9150613bdc82614409565b604082019050919050565b6000613bf46000836141cb565b9150613bff82614458565b600082019050919050565b60006040830160008301518482036000860152613c278282613aa2565b91505060208301518482036020860152613c418282613aa2565b9150508091505092915050565b60006080830160008301518482036000860152613c6b8282613aa2565b91505060208301518482036020860152613c858282613aa2565b91505060408301518482036040860152613c9f8282613aa2565b91505060608301518482036060860152613cb98282613aa2565b9150508091505092915050565b600060e083016000830151613cde600086018261398b565b5060208301518482036020860152613cf68282613aa2565b91505060408301518482036040860152613d108282613aa2565b91505060608301518482036060860152613d2a8282613aa2565b91505060808301518482036080860152613d448282613aa2565b91505060a083015184820360a0860152613d5e8282613aa2565b91505060c0830151613d7360c0860182613e92565b508091505092915050565b600061014083016000830151613d976000860182613e74565b5060208301518482036020860152613daf8282613c4e565b91505060408301518482036040860152613dc98282613cc6565b91505060608301518482036060860152613de38282613aa2565b91505060808301518482036080860152613dfd8282613aa2565b91505060a083015184820360a0860152613e1782826139a9565b91505060c0830151613e2c60c0860182613e74565b5060e0830151613e3f60e0860182613e74565b50610100830151613e5461010086018261398b565b50610120830151613e69610120860182613a93565b508091505092915050565b613e7d81614214565b82525050565b613e8c81614214565b82525050565b613e9b8161421e565b82525050565b613eaa8161421e565b82525050565b6000613ebc8284613b14565b915081905092915050565b6000613ed38284613b45565b915081905092915050565b6000613ee982613be7565b9150819050919050565b6000602082019050613f08600083018461399a565b92915050565b600060e082019050613f23600083018a61399a565b8181036020830152613f358189613adb565b90508181036040830152613f498188613adb565b90508181036060830152613f5d8187613adb565b90508181036080830152613f718186613adb565b905081810360a0830152613f858185613adb565b9050613f9460c0830184613ea1565b98975050505050505050565b60006020820190508181036000830152613fba8184613a1e565b905092915050565b60006040820190508181036000830152613fdc8185613adb565b90508181036020830152613ff08184613adb565b90509392505050565b600060808201905081810360008301526140138187613adb565b905081810360208301526140278186613adb565b9050818103604083015261403b8185613adb565b9050818103606083015261404f8184613adb565b905095945050505050565b6000602082019050818103600083015261407381613bc4565b9050919050565b600060208201905061408f6000830184613e83565b92915050565b600061409f6140b0565b90506140ab828261429f565b919050565b6000604051905090565b600067ffffffffffffffff8211156140d5576140d46143a6565b5b602082029050602081019050919050565b600067ffffffffffffffff821115614101576141006143a6565b5b61410a826143f8565b9050602081019050919050565b6000819050602082019050919050565b6000819050602082019050919050565b60008190508160005260206000209050919050565b600081519050919050565b600081519050919050565b600081519050919050565b6000602082019050919050565b6000602082019050919050565b600082825260208201905092915050565b600082825260208201905092915050565b600082825260208201905092915050565b600082825260208201905092915050565b600081905092915050565b60006141e1826141f4565b9050919050565b60008115159050919050565b600073ffffffffffffffffffffffffffffffffffffffff82169050919050565b6000819050919050565b600060ff82169050919050565b82818337600083830152505050565b60005b8381101561425857808201518184015260208101905061423d565b83811115614267576000848401525b50505050565b6000600282049050600182168061428557607f821691505b6020821081141561429957614298614348565b5b50919050565b6142a8826143f8565b810181811067ffffffffffffffff821117156142c7576142c66143a6565b5b80604052505050565b60006142db82614214565b91507fffffffffffffffffffffffffffffffffffffffffffffffffffffffffffffffff82141561430e5761430d614319565b5b600182019050919050565b7f4e487b7100000000000000000000000000000000000000000000000000000000600052601160045260246000fd5b7f4e487b7100000000000000000000000000000000000000000000000000000000600052602260045260246000fd5b7f4e487b7100000000000000000000000000000000000000000000000000000000600052603260045260246000fd5b7f4e487b7100000000000000000000000000000000000000000000000000000000600052604160045260246000fd5b600080fd5b600080fd5b600080fd5b600080fd5b600080fd5b600080fd5b600080fd5b6000601f19601f8301169050919050565b7f456c2070616369656e7465207961206861207369646f2072656769737472616460008201527f6f20656e207375206375656e7461000000000000000000000000000000000000602082015250565b50565b614464816141d6565b811461446f57600080fd5b50565b61447b816141e8565b811461448657600080fd5b50565b61449281614214565b811461449d57600080fd5b50565b6144a98161421e565b81146144b457600080fd5b5056fea2646970667358221220fd84b3d2abbd39df58aebe6aa5d022a4c7f3b5f812d3cc12e16e097fac81be6364736f6c63430008060033",
  "immutableReferences": {},
  "source": "// SPDX-License-Identifier: GPL-3.0\r\npragma solidity >=0.7.0 <0.9.0;\r\n\r\ncontract RecetaMedica {\r\n\r\n    //************************** Estructuras que simulan los actores de las prescripciones mdicas *********************\r\n\r\n    struct Medicina {\r\n        string nombreMedicina;\r\n        string indicacion;\r\n    }\r\n\r\n    struct Medico {\r\n        string cedulaProfesional;\r\n        string nombres;\r\n        string apellidos;\r\n        string especialidad;\r\n    }\r\n\r\n    struct Paciente {\r\n        address cuentaPaciente;\r\n        string cedula;\r\n        string nombres;\r\n        string apellidos;\r\n        string correo;\r\n        string celular;\r\n        uint8 edad;\r\n    }\r\n\r\n    struct Farmaceutico {\r\n        string ruc;\r\n        string nombreComercial;\r\n    }\r\n\r\n    struct Receta {\r\n        uint id;\r\n        Medico medico;\r\n        Paciente paciente;\r\n        string diagnostico;\r\n        string indicacionesExtras;\r\n        Medicina[] medicinas;\r\n        uint fecha;\r\n        uint fechaCaducidad;\r\n        address tokenMedico;\r\n        bool isDespachado;\r\n    }\r\n\r\n    //****** Arreglos de tipo Map en donde se almacena la informacin en el proceso de preescripciones mdicas *********\r\n\r\n    mapping(address => Medico) public medicos;\r\n\r\n    mapping(address => Paciente) public pacientes;\r\n\r\n    Receta[] private recetas;\r\n\r\n    mapping(address => Paciente[]) public pacientesPorDoctor;\r\n    mapping(address => uint) public pacientesTotalesPorDoctor;\r\n\r\n    mapping(address => Farmaceutico) public farmaceuticos;\r\n    //************ Evento que reacciona al momento de registrar o eliminar una receta para cualesquier paciente *******************\r\n\r\n    event AccionReceta(address cuenta);\r\n\r\n    //************************ Constructor del contrato que establece datos predeterminados **************************\r\n\r\n    constructor(){\r\n        //Doctores pre-existentes\r\n        medicos[0x0DF3c5E1e60A27f02D9d0FF8730c99A73D924Fc3] = Medico(\"15-0152498453\", \"Oscar Reynaldo\", \"Perez\", \"General\");\r\n        medicos[0xF5B223A069ebfDc5D491b94fB50C8be0B063CB65] = Medico(\"21-5451254484\", \"Silvie Alejandra\", \"Cevallos\", unicode\"Traumatlogo\");\r\n        //Farmacuticos pre-existentes\r\n        farmaceuticos[0x25fA2c9BE8c5653776398A0EAFcf5fC284F50c57] = Farmaceutico(\"123456789101112\", \"Cruz Azul\");\r\n    }\r\n\r\n    //****************** Funciones que contienen la lgica del proceso de preescripciones mdicas **********************\r\n\r\n    function registrarPaciente(\r\n        Paciente memory _paciente\r\n    ) public {\r\n        for (uint i = 0; i < pacientesTotalesPorDoctor[msg.sender]; i++) {\r\n            //Se valida en caso de que el paciente tenga ya un address asociado\r\n            //adems, se emplea && ya que, puede darse el caso en que, la cdula de un _paciente\r\n            // ya se ha registrado pero aun no tiene cuenta en la red.\r\n            require(!(pacientesPorDoctor[msg.sender][i].cuentaPaciente == _paciente.cuentaPaciente\r\n            && keccak256(abi.encodePacked(pacientesPorDoctor[msg.sender][i].cedula)) ==\r\n            keccak256(abi.encodePacked(_paciente.cedula))), 'El paciente ya ha sido registrado en su cuenta');\r\n        }\r\n\r\n        if (_paciente.cuentaPaciente != address(0)) {\r\n            pacientes[_paciente.cuentaPaciente] = _paciente;\r\n        }\r\n\r\n        pacientesPorDoctor[msg.sender].push(_paciente);\r\n        pacientesTotalesPorDoctor[msg.sender] ++;\r\n    }\r\n\r\n    Receta private receta;\r\n\r\n    function registrarReceta(\r\n        Medico memory _medico,\r\n        Paciente memory _paciente,\r\n        string memory _diagnostico,\r\n        string memory _indicacionesExtras,\r\n        Medicina[] memory _medicinas,\r\n        uint _fechaCaducidad) public\r\n    {\r\n        receta.id = recetas.length;\r\n        receta.tokenMedico = msg.sender;\r\n        receta.medico = _medico;\r\n        receta.paciente = _paciente;\r\n        receta.diagnostico = _diagnostico;\r\n        receta.indicacionesExtras = _indicacionesExtras;\r\n        receta.fecha = block.timestamp;\r\n        receta.fechaCaducidad = _fechaCaducidad;\r\n        delete receta.medicinas;\r\n        for (uint j = 0; j < _medicinas.length; j++) {\r\n            receta.medicinas.push(Medicina(_medicinas[j].nombreMedicina, _medicinas[j].indicacion));\r\n        }\r\n        recetas.push(receta);\r\n        emit AccionReceta(msg.sender);\r\n    }\r\n\r\n    function getRecetas(address cuenta, bool isMedico)\r\n    public view returns (Receta[] memory) {\r\n        Receta[] memory recetasAux = new Receta[](recetas.length);\r\n        uint contador = 0;\r\n        for (uint i = 0; i < recetas.length; i++) {\r\n            if (isMedico ? recetas[i].tokenMedico == cuenta :\r\n                recetas[i].paciente.cuentaPaciente == cuenta) {\r\n                recetasAux[contador] = recetas[i];\r\n                contador++;\r\n            }\r\n        }\r\n        //Eliminamos los indices que contienen recetas con valores vacios\r\n        Receta[] memory recetas = new Receta[](contador);\r\n        for (uint i = 0; i < contador; i++) {\r\n            recetas[i] = recetasAux[i];\r\n        }\r\n        return recetas;\r\n    }\r\n\r\n    function getRecetasFarmaceutico(address cuentaFarmacia) public view returns (Receta[] memory){\r\n        Receta[] memory recetasVacia;\r\n        if (keccak256(abi.encodePacked(farmaceuticos[cuentaFarmacia].ruc))\r\n            == keccak256(abi.encodePacked(\"\"))) {\r\n            return recetasVacia;\r\n        }\r\n        return recetas;\r\n    }\r\n\r\n    function eliminarReceta(uint idReceta) public {\r\n        delete recetas[idReceta];\r\n        emit AccionReceta(msg.sender);\r\n    }\r\n\r\n    function despacharReceta(uint idReceta) public {\r\n        recetas[idReceta].isDespachado = true;\r\n        emit AccionReceta(msg.sender);\r\n    }\r\n\r\n}\r\n",
  "sourcePath": "C:/Users/Mickmaxy/Documents/GitHub/dapp-recetas-medicas/contracts/RecetaMedica.sol",
  "compiler": {
    "name": "solc",
    "version": "0.8.6+commit.11564f7e.Emscripten.clang"
  },
  "schemaVersion": "3.4.1",
  "updatedAt": "2021-08-08T08:40:23.623Z",
  "networkType": "ethereum",
  "devdoc": {
    "kind": "dev",
    "methods": {},
    "version": 1
  },
  "userdoc": {
    "kind": "user",
    "methods": {},
    "version": 1
  }
}